:020000040800F2
:10000000C8060020ED0100082B1100086F10000841
:1000100029110008F902000871170008000000000B
:100020000000000000000000000000009116000821
:10003000FB02000800000000A3150008931600084A
:10004000070200080702000807020008070200086C
:10005000070200080702000807020008070200085C
:10006000070200080702000807020008070200084C
:10007000070200080702000807020008070200083C
:10008000070200080702000807020008070200082C
:10009000070200080702000807020008070200081C
:1000A000070200080702000807020008070200080C
:1000B00007020008070200080702000807020008FC
:1000C00007020008070200080702000807020008EC
:1000D00007020008070200080702000807020008DC
:1000E00007020008070200080702000807020008CC
:1000F00007020008070200080702000807020008BC
:1001000007020008070200080702000807020008AB
:10011000070200080702000807020008070200089B
:10012000070200080702000807020008070200088B
:10013000070200080702000807020008070200087B
:10014000070200080702000807020008070200086B
:10015000070200080702000807020008070200085B
:10016000070200080702000807020008070200084B
:10017000070200080702000800000000000000005D
:10018000070200080702000807020008070200082B
:10019000070200080702000800000000070200082C
:1001A000070200080702000800000000000000002D
:1001B000070200080000000000000000070200081D
:1001C00007020008070200080702000807020008EB
:1001D0000702000807020008DFF80CD000F07AF8E8
:1001E00000480047F9170008C80600200648804765
:1001F00006480047FEE7FEE7FEE7FEE7FEE7FEE70C
:10020000FEE7FEE7FEE7FEE71D170008D90100083C
:100210002DE9F05F0546002092469B46884606463B
:10022000814640241BE0284641464746224600F0CE
:1002300041F853465A46C01A914110D31146184608
:10024000224600F028F82D1A67EB01084F46224697
:100250000120002100F01FF817EB00094E41201E7D
:10026000A4F10104DFDC484631462A464346BDE896
:10027000F09FD2B201E000F8012B491EFBD270477B
:100280000022F6E710B513460A4604461946FFF762
:10029000F0FF204610BD202A04DB203A00FA02F1CC
:1002A000002070479140C2F1200320FA03F3194364
:1002B00090407047202A04DB203A21FA02F0002106
:1002C000704721FA02F3D040C2F120029140084366
:1002D00019467047064C074D06E0E06840F0010300
:1002E00094E8070098471034AC42F6D3FFF778FF44
:1002F000F04B0008104C0008FEE7704770B50E0088
:1003000004463BD0102100F00FF9022000F078F9EC
:10031000002504E0FF21204600F011F96D1C206942
:10032000C11700EB51706169C0104843A842F1DC6D
:10033000022000F065F91321204600F0F5F80220B4
:1003400000F05EF9002504E0715D204600F0F7F84A
:100350006D1C2069C11700EB51706169C0104843E2
:10036000A842F1DC022000F04BF91221204600F0F7
:10037000DBF82046BDE8704000F036B970BD10B51E
:10038000044601202060022060600020A06003205D
:10039000E060B02020614FF48470606100F052F999
:1003A00010B14FF0FF3010BD204600F0ABF8012136
:1003B000204600F0B9F80321204600F0C0F80021E3
:1003C000204600F0BCF82B21204600F0B8F82B2185
:1003D000204600F0B4F80921204600F0B0F80621CC
:1003E000204600F0A1F80721204600F0A8F80721D8
:1003F000204600F0A4F81721204600F0A0F8F821CC
:10040000204600F091F86021204600F098F8A521E0
:10041000204600F094F8F821204600F085F8892164
:10042000204600F08CF8A521204600F088F8F8213D
:10043000204600F079F89021204600F080F8002155
:10044000204600F07CF8F821204600F06DF893215A
:10045000204600F074F82A21204600F070F8F821B8
:10046000204600F061F8A021204600F068F8A521A0
:10047000204600F064F8F821204600F055F8A1214C
:10048000204600F05CF80021204600F058F8F821E2
:10049000204600F049F87321204600F050F8412131
:1004A000204600F04CF81621204600F03DF80021CF
:1004B000204600F044F80421204600F035F820469C
:1004C00000F092F80021204600F02EF8AF212046DF
:1004D00000F035F83021204600F026F83A21204679
:1004E00000F02DF88221204600F01EF8122120464F
:1004F00000F025F8022000F083F8204600F02AF8EA
:10050000002010BD10B504460068002100F08AF8F4
:10051000C82000F075F80121206800F083F8BDE8DC
:100520001040C82000F06CB810B50C46406800219F
:1005300000F078F82046BDE8104000F09BB810B5F8
:100540000C464068012100F06DF82046BDE81040DF
:1005500000F090B870B505462021FFF7E5FF214E69
:1005600000242846315DFFF7EAFF641C2C2CF8D3E9
:1005700021212846FFF7D8FF1A4E00242C362846A2
:10058000315DFFF7DCFF641C2A2CF8D322212846BA
:10059000FFF7CAFF134E002456362846315DFFF799
:1005A000CEFF641C2A2CF8D323212846FFF7BCFF7A
:1005B0000C4E002480362846315DFFF7C0FF641CD6
:1005C0002A2CF8D324212846FFF7AEFF054E00243D
:1005D000AA362846315DFFF7B2FF641C2A2CF8D3F7
:1005E00070BD0000A419000810B5044602E06420A4
:1005F00000F006F8E06800F005F80028F7D010BD1C
:1006000000F052B8064A10B502EBC00152F83000B3
:10061000898889B200F02CF9012800D0002010BD93
:10062000A4000020064B012903EBC00253F8300060
:10063000526891B202D0002200F01FB90122FBE7FC
:10064000A40000200A480949D0E90023C1E9162383
:10065000D0E90223C1E91823D0E90423C1E91A2310
:10066000D0E90620C1E91C20002070474C00002082
:100670000000002031B50B4C0022A08881B2206818
:1006800000F0FBF84FF47A7301226946A4F1580098
:1006900000F02BFCA088012281B2206800F0EDF868
:1006A00038BD0000A400002070B5044600F0EAF850
:1006B0000546601C02D004480078044400F0E2F8CB
:1006C000401BA042FAD370BD200000202DE9F84F56
:1006D000DFF874B100224FF001084FF0030A4FF029
:1006E0000F090BF1040E00BF0B6808FA02F4234057
:1006F000A3426ED14D68022D01D0122D0ED1D50826
:1007000000EB850CDCF820505607F70E09FA07F6C7
:10071000B5430E69BE402E43CCF8206006685500F4
:100720000F790AFA05FC07F0030726EA0C06AF402A
:10073000374307604E68012E05D0022E03D0112EDC
:1007400001D0122E0ED18668CF6826EA0C06AF4083
:10075000374387604668A6430C79C4F3001494407D
:1007600034434460C4688E6824EA0C04AE402643D7
:10077000C6604C68E40060D5344C256845F480457B
:100780002560246822F0030504F480440094304C72
:100790002E19D6F8084895072F0F09FA07F5AC432C
:1007A0002C4DA84201D100251FE02B4DA84201D1BC
:1007B00001251AE0294DA84201D1022515E0284D56
:1007C000A84201D1032510E0264DA84202D10425FC
:1007D0000BE032E0244DA84201D1052505E0234D70
:1007E000A84201D1062500E00725BD402543C6F8F3
:1007F0000858DBF800405D464E689C43F60300D580
:100800001C432C60DEF8004075464E689C43B603DE
:1008100000D51C432C600C4D08352C684E689C4359
:10082000F60200D51C432C60074D0C352C684E6831
:100830009C43B60200D51C432C60521C102AFFF4C6
:1008400053AFBDE8F88F0000003C0140443802403F
:100850000030014000000240000402400008024055
:10086000000C024000100240001402400018024038
:100870000069084000D0012070470AB181617047CB
:100880000904FBE701488068704700002000002051
:10089000024881680278114481607047200000207E
:1008A0000B4810B5016841F400710160016841F422
:1008B00080610160016841F480710160032000F0F3
:1008C00061F8002000F006F800F024F8002010BDC8
:1008D000003C024070B50D4D04464FF47A71287803
:1008E000B1FBF0F00A490968B1FBF0F000F0ABFB96
:1008F00048B9102C07D200222146501E00F022F8E1
:1009000000206C6070BD012070BD00002000002040
:100910002C0000200A4808B5016841F480410160BC
:10092000006800F4804000900548001F016841F015
:1009300080510160006800F08050009008BD000008
:1009400044380240F0B40E4B1B680C46C3F302233C
:10095000C3F10705042D00D90425191D072901D26B
:10096000002300E0DB1E012606FA05F1491E2140A6
:1009700099409E40761E16403143F0BC00F002BF05
:100980000CED00E0064900F0070208684FF6FF038F
:10099000184040EA0220034A1043086070470000F4
:1009A0000CED00E00000FA052DE9F0470E460500C9
:1009B00065D0DFF81481D8F80000F7B200F00F001E
:1009C000B04207D288F80070D8F8000000F00F009D
:1009D000B04254D128683D4C810712D5400703D559
:1009E000206840F4E05020602878000703D5206894
:1009F00040F4604020602068A96820F0F0000843BF
:100A000020602878C0072DD030496868083901284F
:100A100012D0022813D0032811D0096889070029B1
:100A20002DDA216821F0030101432160FFF72AFF3D
:100A3000814641F2883A0EE009688903EFE70968C8
:100A40008901ECE7FFF71EFFA0EB0901514502D930
:100A50000320BDE8F0872068696800F00C00B0EB67
:100A6000810FEFD1D8F80010404601F00F01B142DC
:100A700007D90770006800F00F00B04201D00120D4
:100A8000E7E72878400705D52068E96820F4E050BA
:100A9000084320602878000706D52068296920F4DB
:100AA000604040EAC100206000F01CF82168084A5C
:100AB000C1F30311515CC840064908600020FFF7EC
:100AC00009FF0020C5E70000003C02400838024052
:100AD000283100082C00002001490120C86470471B
:100AE00000004742154810B5006810F00C02144889
:100AF00013D04110042A0FD0082A0ED10F4C241F06
:100B00002268236802F03F025B0207D52068C0F329
:100B10008810A0FB010106E0084610BD2168C1F362
:100B20008811A1FB00010023FFF772FB2168C1F3CC
:100B30000141491C4900B0FBF1F010BD08380240EA
:100B40000024F4002DE9F84F05460078DFF800B3E3
:100B5000C04CC0074AD0DBF800105846C1F38101F1
:100B6000012908D00068C0F3810002280AD1201DA5
:100B70000068400206D52068800337D568680028E1
:100B800072D033E06868B0F5803F10D0B0F5A02F88
:100B9000206810D020F480302060206820F480206D
:100BA00020606868A8B1FFF76DFE06460DE020687A
:100BB00040F48030F4E740F480202060F7E700BF85
:100BC000FFF760FE801B64286FD820688003F7D58C
:100BD0000CE0FFF757FE064605E000BFFFF752FEA8
:100BE000801B6428F0D820688003F7D42878DFF8C9
:100BF000688280074FF0000940D5DBF800105846A6
:100C000011F00C0F09D00068C0F3810002280BD14D
:100C10008F48001F0068400206D42068800715D561
:100C2000E868012820D111E0E868B8B10120C8F8CF
:100C30000000FFF727FE064605E000BFFFF722FE93
:100C4000801B0228C0D820688007F7D52068296952
:100C500020F0F80040EAC10020600FE0C8F80090E2
:100C6000FFF710FE064606E0EFE000BFFFF70AFEC2
:100C7000801B022819D820688007F7D4287800073D
:100C800022D5734E754869696C3679B101210160CE
:100C9000FFF7F8FD074604E0FFF7F4FDC01B02284C
:100CA00003D830688007F7D50EE089E0C0F80090DF
:100CB000FFF7E8FD074604E0FFF7E4FDC01B02284C
:100CC0007ED830688007F7D42878400768D5DFF8E9
:100CD00080A100270AF1380ADAF80000C0000BD41E
:100CE000DAF8001041F08051CAF80010DAF800007C
:100CF000012700F080500090594E3068C00510D494
:100D0000306840F480703060FFF7BCFD009005E073
:100D1000FFF7B8FD0099401A022851D83068C00585
:100D2000F6D54B4EA868683601280FD005283068E4
:100D300010D020F001003060306820F004003060F6
:100D4000A868B8B1FFF79EFD00900FE0306840F052
:100D50000100F4E740F004003060F7E7FFF792FD90
:100D60000099411A41F28830814266D83068800784
:100D7000F4D50EE0FFF786FD009007E0FFF782FD57
:100D80000099411A41F28830814256D83068800774
:100D9000F4D42FB1DAF8001021F08051CAF8001015
:100DA000A869D0B3DBF80010C1F3810102294CD04F
:100DB0000228484607D0C8F86000FFF763FD00E04E
:100DC0003BE005463CE04746C8F86000FFF75AFDA7
:100DD000064604E0FFF756FD801B02282DD8206848
:100DE0008001F7D4F5E907010843E9681D4A49087D
:100DF00002EB0141AA6841EA82110843297C40EADA
:100E00000160297D40EA01711148001F0160012045
:100E10003866FFF737FD054605E014E0FFF732FDC1
:100E2000401B022809D820688001F7D50BE000BFDD
:100E3000FFF728FD401B022802D90320BDE8F88FE8
:100E400020688001F4D40020F8E70120F6E70000D4
:100E5000083802400038024000004742800E4742F6
:100E6000007000400000FFFF70B5040005D00025B1
:100E7000A56294F8510010B106E0012070BD84F81D
:100E80005050204600F030F8022084F851002068CD
:100E9000016821F040010160D4E901010843D4E96F
:100EA00003121143084361690843218B01F4007167
:100EB0000843E1690843216A0843A16A084321689D
:100EC0000860A069042101EA1040616A08432168B2
:100ED00048602068C16921F40061C1616565012035
:100EE00084F85100002070BD70472DE9F84F04468A
:100EF00090F8500000271D461646894601280DD05F
:100F00004FF0010B84F850B0FFF7BCFC804694F81A
:100F10005100BA46012804D002278EE00220BDE825
:100F2000F88FB9F1000F7DD0002E7BD0032084F81C
:100F30005100C4F854A0C4F83090A686E686C4F8E0
:100F400038A0A4F83CA0A4F83EA0C4F844A0C4F87B
:100F500040A0A068B0F5004F04D12068016841F4BA
:100F60008041016020680168490603D4016841F0AE
:100F700040010160E068B0F5006F606803D030B3F5
:100F8000012E24D040E008B1012E1CD1206B216835
:100F90000088C86006E020688168890709D5216B50
:100FA0000988C160206B801C2063E08E401EE086B3
:100FB00009E0FFF767FCA0EB0800A84202D3681C19
:100FC00001D031E07DB3E08E0028E4D11FE0206B3A
:100FD00021680078087306E020688168890709D5D0
:100FE000216B09780173206B401C2063E08E401E4A
:100FF000E08609E0FFF746FCA0EB0800A84202D318
:10100000681C01D010E075B1E08E0028E4D14246A2
:101010002946204600F0C6FA08B120206065A06885
:1010200020B107E008E0FFE7032706E02068C16879
:1010300080680090606D00B1012784F851B084F899
:1010400050A038466BE710B5401EB0F1807F01D349
:10105000012010BD4FF0E02460610F21601700F007
:1010600091FB0020A06107202061002010BDFEE759
:1010700070B5164886B00024016841F00101016096
:101080000068012500F0010005904FF4E060CDE913
:1010900000050F4E694603943046FFF717FBE80240
:1010A000CDE9000469463046FFF710FBE0200090D0
:1010B0000220CDE901050320039005200490694634
:1010C0003046FFF703FB06B070BD00003038024029
:1010D00000000240114882B00021026842F48052B0
:1010E000026000680E4A00F4805000900D480260D3
:1010F0004FF4827242604FF40042C0E90221921123
:101100000161C0E905123022C0E907214162816214
:101110000A21C16202B0FFF7A7BE000044380240B6
:10112000003001404C000020FEE77047F0B50F464C
:10113000064600250CE0002406E03B4622462946F0
:10114000304600F009F8641CB068A042F5DC6D1C64
:101150007068A842EFDCF0BD70B500291EDB456861
:101160008D421BDD002A19DB8468944216DDCC1702
:1011700001EB547424F007040E1B02FB05110068F8
:101180004FEAE17201EB527100EBE100802401783B
:10119000F4400BB1214300E0A143017070BD000099
:1011A0002DE9FF4F93460D9DA888410700D00121EE
:1011B00001EBD000203B10FB03F0E988484329688D
:1011C0000E18002727E000244FF0800A0BEB0708D9
:1011D000DFF84C9017E0E01704EB507020F00700A8
:1011E0003178221A2AFA02F0014206D001984246CA
:1011F00001190E9B009800F019F904EA090007286C
:1012000000D1761C641CA888A042E4DC2879400741
:1012100000D0761C7F1CE888B842D4DCBDE8FF8F84
:10122000070000802DE9FF4F5D4200260220924614
:101230008B4600EB450400BF0AEB0607ABEB05014C
:1012400089463A460D9B009800F0F0F80BEB05013B
:101250003A4688460D9B009800F0E8F8AAEB06078E
:1012600041463A460D9B009800F0E0F83A46494660
:101270000D9B009800F0DAF82046B44208DC761C9A
:1012800000EB4604641CF54202D1A84200DC0020B9
:10129000A84203DD6D1C04EB4504641C002DCBDD6E
:1012A000BDE8FF8F2DE9FF4F81B05D42002702208E
:1012B000DDF838B000EB450403985B46C21902988C
:1012C0009146411B8A46019800F0B0F802984A46C0
:1012D00046195B463146019800F0A8F8039831465C
:1012E000C21B90465B46019800F0A0F8424651466A
:1012F0005B46019800F09AF80120A0EB45039A465E
:101300004A463146CDF800B0019800F045F8534602
:1013100042463146CDF800B0019800F03DF8204635
:10132000BC4208DC7F1C00EB4704641CFD4202D178
:10133000A84200DC0020A84203DD6D1C04EB45043C
:10134000641C002DB8DD05B0BDE8F08F2DE9F84331
:101350008146DDE908088B4201DD0C4600E01C46B1
:1013600000DD19460D46904201DD164600E00646B6
:1013700000DD0246A2EB06070AE000BF07F1010309
:10138000324621464846CDF8008000F0E4F8641C5F
:10139000AC42F3DDBDE8F8832DE9F0411646804606
:1013A0000C46CF18069D06E02B46324621464046A5
:1013B00000F03CF8641CA742F6DCBDE8F0812DE9A2
:1013C000FF4F81B00C460E9F1E461546181B00D5D8
:1013D000A01B81464FF0FF31B44201DA012000E04A
:1013E00008460090781B002800DDE81B8246BD42BD
:1013F00000DA01218B4609EB0A0810E02A46214653
:101400000F9B019800F012F8BAEB480F02DC00982D
:10141000D0440444B9EB480F01DBC8445D44B442F6
:1014200001D0BD42EAD105B0BDE8F08F30B4C46848
:10143000ACB1012C1ED0022C2AD0032C35D10029AE
:1014400033DB85688D4230DD002A2EDB4468944210
:101450002BDD14466A1A214630BCFFF77DBE0029F9
:1014600023DB44688C4220DD002A1EDB8468944222
:101470001BDDF1E7002918DB84688C4215DD002AAA
:1014800013DB4568954210DD0C46A91A2246E3E7B6
:1014900000290ADB45688D4207DD002A05DB8468E8
:1014A000944202DD691AA21AD6E730BC70472DE9D2
:1014B000F8478246DDE909058B4201DD0F4600E071
:1014C0001F4601DD1C4600E00C46904201DD164639
:1014D00000E0064600DD02469146A4EB070808F14D
:1014E00001033246394650460095FFF755FF08F193
:1014F00001034A46394650460095FFF74DFFA9EBD8
:10150000060808F10103324639465046009500F0BE
:1015100022F808F10103324621465046009500F0BA
:101520001AF8BDE8F8872DE9FC439046DDE9096724
:1015300081461C460D4609E0424629464846CDE90B
:101540000067FFF72DFEB088641C05442378002B4C
:10155000F2D1BDE8FC832DE9F0410E4680461446E9
:10156000D718069D06E02B46224631464046FFF737
:101570005DFF641CA742F6DCBDE8F08110B50024D5
:10158000C4600160510707D0D11702EB517121F0FF
:101590000701511A521A0832C0E9012310BDC16077
:1015A0007047704738B504461248134B0068B0FBCB
:1015B000F3F04FF47A73584300906068B0F5827F7F
:1015C0000DD10B46009200228021204600F016F833
:1015D00070B1606D40F020006065032038BD009858
:1015E00030B1401E009020688068C0430006F6D5E8
:1015F000002038BD2C00002000366E012DE9F0419E
:101600001D4617460E460446DDF8188008E0681CA3
:1016100006D0FFF737F9A0EB0800A8420BD255B16E
:101620002068806836EA000030D00020B842EED151
:101630000020BDE8F0812068416821F0E0014160B0
:101640006068B0F5827F0BD1A068B0F5004F02D082
:10165000B0F5806F04D12068016821F0400101607D
:10166000A06AB0F5005F09D12068016821F400513B
:1016700001602068016841F400510160012084F894
:101680005100002084F850000320D2E70120CDE76C
:101690007047FFF7FDB8000030B593B034216846BD
:1016A000FEF7EEFD14210DA8FEF7EAFD194800250E
:1016B000016841F080510160006800F08050129094
:1016C0001548016841F4404101600068022400F4BB
:1016D0004040129001200090000401908001CDE96B
:1016E0000640042008903220CDE909040B94684696
:1016F0000C94FFF727FA0DA90F2081E8310010950F
:1017000001210DA81195FFF74FF9FFF7E5F913B087
:1017100030BD0000403802400070004010480168B1
:1017200041F4700101600F48016841F0010101605E
:101730000C4A00210832116002680B4B1A4002600B
:10174000031D0A4A1A60026822F4802202600548DA
:101750000C3001600249580680390860704700006B
:1017600088ED00E000380240FFFFF6FE1030002454
:10177000FEE70000014A024900F023B8E51700081F
:10178000400000200907090E002804DB00F1E020DA
:1017900080F80014704700F00F0000F1E02080F89E
:1017A000141D704702E008C8121F08C1002AFAD1B0
:1017B00070477047002001E001C1121F002AFBD1D1
:1017C00070472DE9F04116460F460446002503E018
:1017D0003946B047641C6D1C20780028F8D1284693
:1017E000BDE8F08138B504468DF800006946032055
:1017F000ABBE204638BD000070B58EB041F2B0607F
:1018000000F09AF80646FFF74BF8FFF745FFFFF7A1
:101810002FFCFFF75FFC02A8FEF7B1FD30B135A049
:10182000FFF7A8FF0EB04FF0FF3070BDDDE90623D3
:10183000314608A8FFF7A2FE012108A8FFF776FCB1
:10184000002108A8FFF7ABFE00243048CDE90004D2
:101850002FA33222042108A8FFF765FEB425CDE9A5
:101860000054322382220A2108A8FFF720FECDE986
:101870000054322382220A2108A8FFF7A0FDCDE9F7
:1018800000540A238222322108A8FFF798FD1E2364
:101890009622782108A80094FFF7C4FCFA20CDE92D
:1018A00000043223C8220A2108A8FFF74FFD602058
:1018B000CDE90004B0234C22002108A8FFF746FD23
:1018C0001E23DC22782108A80094FFF7EBFC0121FD
:1018D0001348CDE9000113A35022122108A8FFF7F5
:1018E00022FE314602A8FEF709FD124902A8FEF7C2
:1018F00005FDFEE7652D506170657220696E6974A3
:10190000206661696C65640A0000000038000020F0
:10191000652D50617065722044656D6F0000000098
:101920003000002048656C6C6F20776F726C64210A
:1019300000000000781A0008F0B50B30154D20F0BB
:1019400007010024144A0FE003688B420BD38B423B
:1019500005D95E1A43184768C3E9006700E0436889
:10196000136002C004E0021D10680028ECD120467C
:10197000002802D1286808B10020F0BD064A0748B7
:101980001060074A121A22F00702C0E90024012061
:101990002860D7E74800002044000020CC00002049
:1019A000C80200200000000F0F00000500323200C6
:1019B0000002000F0F000005000000000000000002
:1019C0000000000000000000000000000000000017
:1019D000500F0F000005603232000002A00F0F0010
:1019E00000050000000000000000000000000000F2
:1019F00000000000000000000000500F0F00000574
:101A0000603232000002A00F0F000005000000004D
:101A100000000000000000000000000000000000C6
:101A200000000000A00F0F0000056032320000022D
:101A3000500F0F0000050000000000000000000033
:101A40000000000000000000000000000000A00FE7
:101A50000F000005603232000002500F0F00000539
:101A60000000000000000000000000000000000076
:101A70000000000000000000FFFFFFFFFFFFFFFF6E
:101A8000FE1FFFFFFFFFFFFFE1FFFFFFFFFFFFFF65
:101A9000FFFFFFFFFFFFFE1FFFFFFFFFFFFFE1FF55
:101AA000FFFFFFFFFFFFFFFFFFFFFFFFFE1FFFFF27
:101AB000FFFFFFFFE1FFFFFFFFFFFFFFFFFFFFFF54
:101AC000FFFFFE1FFFFFFFFFFFFFE1FFFFFFFFFF25
:101AD000FFFFFFFFFFFFFFFFFE1FFFFFFFFFFFFFF7
:101AE000E1FFFFFFFFFFFFFFFFFFFFFFFFFFFE1F05
:101AF000FFFFFFFFFFFFE1FFFFFFFFFFFFFFFFFF14
:101B0000FFFFFFFFFE1FFFFFFFFFFFFFE1FFFFFFE4
:101B1000FFFFFFFFFFFFFFFFFFFFFE1FFFFFFFFFB6
:101B2000FFFFE1FFFFFFFFFFFFFFFFFFFFFFFFFFE3
:101B3000FE1FFFFFFFFFFFFFE1FFFFFFFFFFFFFFB4
:101B4000FFFFFFFFFFFFFE1FFFFFFFFFFFFFE1FFA4
:101B5000FFFFFFFFFFFFFFFFFFFFFFFFFE1F8000F4
:101B600000000003E1FFFFFFFFFFFFFFFFFFFFFF9C
:101B7000FFFFFE1F800000000003E1FFFFFFFFFFEB
:101B8000FFFFFFFFFFFFFFFFFE1F800000000003BD
:101B9000E1FFFFFFFFFFFFFFFFFFFFFFFFFFFE1F54
:101BA000800000000003E1FFFFFFFFFFFFFFFFFFDA
:101BB000FFE0FFFFFE1F800000000003E1FFFFFFCA
:101BC000FFFFFFFFFFFFFF801FFFFE1F83FFFFFFE1
:101BD000FF83E1FFFFFFFFFFFFFFFFFFFE000FFF9F
:101BE000FE1F83FFFFFFFF83E1FFFFFFFFFFFFFFFC
:101BF000FFFFFC0E07FFFE1F83FFFFFFFF83E1FFD8
:101C0000FFFFFFFFFFFFFFFFF83F83FFFE1F83FF84
:101C1000FFFFFF83E1FFFFFFFFFFFFFFFFFFF07FFD
:101C2000E1FFFE1F83FFFFFFFF83E1FFFFFFFFFFD9
:101C3000FFFFFFFFC0FFF1FFFE1F83FFC000018316
:101C4000E1FFFFFFFFFFFFFFFFFF01FFF1FFFE1FAF
:101C5000830000000183E1FFFFFFFFFFFFFFFFFCA8
:101C600001FFF0FFFE1F830000000183E1FFFFFF83
:101C7000FFFFFFFFFFF003FFF0FFFE1F83000000E8
:101C80000183E1FFFFFFFFFFFFFFFFF07FFFF0FF9A
:101C9000FE1F830000000183E1FFFFFFFFFFFFFF46
:101CA000FFE0FFFFF0FFFE1F8301FFFFFF83E1FF67
:101CB000FFFFFFFFFFFFFFC3FFFFF0FFFE1F8300DB
:101CC0003FFFFF83E1FFFFFFFFFFFFFFFFC7FFFFB6
:101CD000F0FFFE1F830007FFFF83E1FFFFFFFFFF11
:101CE000FFFFFF87FFFFF0FFFE1F83E0007FFF8302
:101CF000E1FFFFFFFFFFFFFFFF8FFFFFF0FFFE1F72
:101D000083FE000FFF83E1FFFFFFFFFFFFFFFF8F59
:101D1000FFFFF0FFFE1F83FFE003FF83E1FFFFFFF4
:101D2000FFFFFFFFFF8FFFFFF0FFFE1F83FFFE039C
:101D3000FF83E1FFFFFFFFFFFFFFFF8FFFFFF0FFCC
:101D4000FE1F83FFE003FF83E1FFFFFFFFFFFFFFB5
:101D5000FF8FFFFFF0FFFE1F83FE0003FF83E1FF05
:101D6000FFFFFFFFFFFFFF8FFFFFF0FFFE1F83E07E
:101D7000001FFF83E1FFFFFFFFFFFFFFFF87FFFF64
:101D8000F0FFFE1F830001FFFF83E1FFFFFFFFFF66
:101D9000FFFFFF87FFFFF0FFFE1F83001FFFFF8392
:101DA000E1FFFFFFFFFFFFFFFFC3FFFFF0FFFE1F8D
:101DB0008300FFFFFF83E1FFFFFFFFFFFFFFF9C18C
:101DC000FFFFF0FFFE1F830000001F83E1FFFFFF06
:101DD000FFFFFFFFFCE0FFFFF0FFFE1F830000009E
:101DE0000183E1FFFFFFFFFFFFFFFC701FFFF0FF1C
:101DF000FE1F830000000183E1FFFFFFFFFFFFFFE5
:101E0000FE381FFFF0FFFE1F830000000183E1FF8B
:101E1000FFFFFFFFFFFFFF3E1FFFF0FFFE1F83FFDF
:101E2000C0000183E1FFFFFFFFFFFFFFFFBE1FFFB9
:101E3000F0FFFE1F83FFFFFFFF83E1FFFFFFFFFFB8
:101E4000FFFF3FBE1FFFF0FFFE1F83FFFFFFFF836B
:101E5000E1FFFFFFFFFFFFFF0F1E1FFFF0FFFE1F51
:101E600083FFFFFFE183E1FFFFFFFFFFFFFF820E24
:101E70001FFFF0FFFE1F83FFFFFF0183E1FFFFFF56
:101E8000FFFFFFFFE01E1FFFF0FFFE1F83FFFFF0BD
:101E90000183E1FFFFFFFFFFFFFFFC3F0FFFF0FFAC
:101EA000FE1F83FFFF800183E1FFFFFFFFFFFFFFB6
:101EB000FC3F07FFF0FFFE1F83FFF8000183E1FFF7
:101EC000FFFFFFFFFFFFFC7F81FFF0FFFE1F83FF8F
:101ED000C0000183E1FFFFFFFFFFFFFFF87FC00F9E
:101EE000F0FFFE1F83FC00000783E1FFFFFFFFFF01
:101EF000FFFC007FE01FF0FFFE1F83E000007F83F8
:101F0000E1FFFFFFFFFFFFFC007FFC1FF0FFFE1F54
:101F1000830000007F83E1FFFFFE3FFFFFFFFC7FA8
:101F2000FE1FF0FFFE1F830000707F83E1FFFFFCB8
:101F30001FFFFFFFFC3FFE1FF0FFFE1F830007F0A7
:101F40007F83E1FFFFFC1FFFFFFFFC1FFF1FF1FF6F
:101F5000FE1F83007FF07F83E1FFFFFE3FFFFFFF57
:101F6000F80FFF0FE1FFFE1F8307FFF07F83E1FF04
:101F7000FFFFFFFFFFFFF0010F83C1FFFE1F830084
:101F80007FF07F83E1FFFFFFFFFFFFFFC38007803C
:101F900003FFFE1F83000FF07F83E1FFFFFFFFFFC2
:101FA000FFFF8FC003C007FFFE1F830000F07F8389
:101FB000E1FFFFFFFFFFFFFF9FC019F01FFFFE1FA4
:101FC000838000107F83E1FFFFFFFFFFFFFFFF9E85
:101FD0007CFC7FFFFE1F83F000007F83E1FFFFFF9B
:101FE000FFFFFFFFFF9F7C7FFFFFFE1F83FE0000C0
:101FF0003F83E1FFFFFFFFFFFFFFFF3F7E7FFFFF0C
:10200000FE1F83FFE0000383E1FFFFFFFFFFFFFFF1
:10201000FF3F7F3FFFFFFE1F83FFFC000183E1FFC7
:1020200000001FFFFFFFFE7F3FBFFFFFFE1F83FF7C
:10203000FFC00183E1FF00001FFFFFFFFFFF3FFF25
:10204000FFFFFE1F83FFFFF80183E1FFF8FC7FFF26
:10205000FFFFFFFF3FFFFFFFFE1F83FFFFFF018327
:10206000E1FFF9FE3FFFFFFFFFFFFFFFFFFFFE1F46
:1020700083FFFFFFF183E1FFF9FF3FFFFFFFFFFF5A
:10208000FFFFFFFFFE1F83FFFFFFFF83E1FFF9FF5D
:102090009FFFFFFFFFFFFFFFFFFFFE1F83FFFFFF0D
:1020A000FF83E1FFF9FF9FFFFFFFFFFFFFFFFFFF40
:1020B000FE1F83FFFFFFFF83E1FFFCFF9FFFFFFF8A
:1020C000FFFFFFFFFFFFFE1F83FFFFFFFF83E1FF17
:1020D000FC7F1FFFFFFFFFFFFFFFFFFFFE1F8000D2
:1020E00000000003E1FFFE003FFFFFFFFFFFFFFFD7
:1020F000FFFFFE1F800000000003E1FFFF007FFFE5
:10210000FFFFFFFFFFFFFFFFFE1F80000000000337
:10211000E1FFFFFFFFFFFFFFFFFFFFFFFFFFFE1FCE
:10212000800000000003E1FFFFFFFFFFFFFFFFFF54
:10213000FFFFFFFFFE1F800000000003E1FFFFFF25
:10214000FFFFFFFFFFFFFFFFFFFFFE1FFFFFFFFF80
:10215000FFFFE1FFFFFFFFFF0000000000000000A5
:10216000001FFFFFFFFFFFFFE1FFFF07FFFF000072
:10217000000000000000001FFFFFFFFFFFFFE1FF66
:10218000FE07BFFF0000000000000000001FFFFF6F
:10219000FFFFFFFFE1FFFC679FFF00000000000062
:1021A0000000001FFFFFFFFFFFFFE1FFF8E79FFFB9
:1021B000FFFFFFFFFFFFFFFFFE1FFFFFFFFFFFFF10
:1021C000E1FFF9E79FFFFFFFFFFFFFFFFFFFFE1F9C
:1021D000FFFFFFFFFFFFE1FFF9E79FFFFFFFFFFFAB
:1021E000FFFFFFFFFE1FFFFFFFFFFFFFE1FFF9E71C
:1021F0009FFFFFFFFFFFFFFFFFFFFE1FFFFFFFFF30
:10220000FFFFE1FFF9E71FFFFFFFFFFFFFFFFFFFFA
:10221000FE1FFFFFFFFFFFFFE1FFFCE73FFFFFF8AF
:1022200003FFFFFFFFFFFE1FFFFFFFFFFFFFE1FFB9
:10223000FC003FFFFFF001FFFFFFFFFFFE1FFFFF5E
:10224000FFFFFFFFE1FFFE007FFFFFC1E03FFFFF59
:10225000FFFFFE1FFFFFFFFFFFFFE1FFFF81FFFF0B
:10226000FF0FFE1FFFFFFFFFFE1FFFFFFFFFFFFF30
:10227000E1FFFFFFFFFFFE3FFF07FFFFFFFFFE1F26
:10228000FFFFFFFFFFFFE1FFFFFFFFFFFC3863835E
:10229000FFFFFFFFFE1FFFFFFFFFFFFFE1FF801FAC
:1022A000FFFFF87031C1FFFFFFFFFE1FFFFFFFFFC1
:1022B000FFFFE1FF80001FFFF06030C1FFFFFFFF65
:1022C000FE1FFFFC0003FFFFE1FFFFFC1FFFE060BC
:1022D0003040FFFFFFFFFE1FFFC000007FFFE1FF58
:1022E000FFFE1FFFE060306000000001FE1FFF00E6
:1022F00000001FFFE1FFFFF07FFFC07030600000B3
:102300000001FE1FFE00000007FFE1FFFF83FFFF4B
:10231000C030706000000001FE1FFC00000003FFE1
:10232000E1FFFE1FFFFF803FE06000000001FE1F95
:10233000F8003FFC01FFE1FFFE0FFFFF801FC00020
:1023400000000001FE1FF0181FFF80FFE1FFFFC12A
:10235000FFFF8003000000000001FE1FE07C0FFF74
:10236000E0FFE1FFFFF83FFF800000001FFFF001EA
:10237000FE1FE0FE07FFF07FE1FFFFFF1FFF800071
:1023800000001FFFE001FE1FE1FF07FFF87FE1FFF4
:10239000E0001FFF800000001FFFC001FE1FC1FF03
:1023A00003FFF87FE1FF80001FFF8007FC001FFF95
:1023B0008001FE1FC3FF81FFFC3FE1FF83FFFFFFA2
:1023C000801FFF001FFF0001FE1FC3FFC0FFFC3F77
:1023D000E1FFFFFFFFFF803C67801FFE0081FE1FC3
:1023E000C3FFE0FFFC3FE1FFFFFFFFFF803021C0A4
:1023F0001FFC0181FE1FC3FFE07FFC3FE1FFFFFFE9
:10240000FFFFC06030C03FF80381FE1FC3FFF03FF5
:10241000FC3FE1FFFFFFFFFFC06030C07FF00F8196
:10242000FE1FE1FFF83FF83FE1FFFFFFFFFFC06045
:1024300030607FE01F81FE1FE1FFFC1FF87FE1FF9E
:10244000FFFFFFFFE0603060FFC03F81FE1FE0FF45
:10245000FC0FF07FE1FFFFFFFFFFE0307060FF80C7
:102460007F81FE1FF07FFE07C07FE1FFFFFFFFFFC0
:10247000F038E061FE00FF81FE1FF01FFF0780FFC4
:10248000E1FFFFFFFFFFF81FE061FC01FF81FE1F7E
:10249000F803FF0001FFE1FFFFFFFFFFFC0F8000DB
:1024A000F803FF81FE1FFC00000001FFE1FFFFFFBA
:1024B000FFFFFE0000007007FF81FE1FFE0000000E
:1024C00007FFE1FFFFFFFFFFFF000000200FFF817C
:1024D000FE1FFF8000000FFFE1FFFFFFFFFFFF80F7
:1024E0000060001FFF81FE1FFFE000003FFFE1FFD3
:1024F000FFFFFFFFFF8001F0003FFF81FE1FFFFC99
:102500000003FFFFE1FFFFFFFFFFFF81FFF800FF78
:10251000FF81FE1FFFFFFFFFFFFFE1FFFFFFFFFF48
:10252000FF81FFFC01FFFF81FE1FFFFFFFFFFFFF99
:10253000E1FFFFFFFFFFFF81FFFE01FFFF81FE1FA5
:10254000FFFFFFFFFFFFE1FFFFFFFFFFFF81FFFE38
:1025500001FFFF81FE1FFFFFFFFFFFFFE1FFFFC045
:10256000FFFFFF81FFFF00FFFF81FE1FFFFFFFFF57
:10257000FFFFE1FF9F803FFFFF81FFFF807FFF8123
:10258000FE1FFFFFFFFFFFFFE1FF9F9E3FFFFF8159
:10259000FFFFC03FFF81FE1FFFFC0003FFFFE1FFC5
:1025A0009F3F1FFFFF81FFFFE01FFF81FE1FFFC056
:1025B00000007FFFE1FF9F3F9FFFFF81FFFFF00FC4
:1025C000FF81FE1FFF0000001FFFE1FF9F3F9FFFF5
:1025D000FF81FFFFF80FFF81FE1FFE00000007FFD5
:1025E000E1FFCF3F9FFFFF81FFFFFC07FF81FE1F41
:1025F000FC00000003FFE1FFCF3F9FFFFF81FFFFD3
:10260000FE03FF81FE1FF8003FFC01FFE1FFE39F97
:102610003FFFFF81FFFFFE03FF81FE1FF0181FFF3A
:1026200080FFE1FFF0003FFFFF81FFFFFC03FF8120
:10263000FE1FE07C0FFFE0FFE1FFF8007FFFFF815E
:10264000FFFFF807FF81FE1FE0FE07FFF07FE1FFBD
:10265000FF03FFFFFF81FFFFF00FFF81FE1FE1FF80
:1026600007FFF87FE1FFFFFFFFFFFF81FFFFE01F94
:10267000FF81FE1FC1FF03FFF87FE1FFFFFFFFFFA8
:10268000FF81FFFFC03FFF81FE1FC3FF81FFFC3FB3
:10269000E1FFFFFFFFFFFF81FFFFC07FFF81FE1F04
:1026A000C3FFC0FFFC3FE1FFFFFF9FFFFF81FFFF74
:1026B00080FFFF81FE1FC3FFE0FFFC3FE1FFFFFF44
:1026C0009FFFFF81FFFF01FFFF81FE1FC3FFE07F30
:1026D000FC3FE1FFFFFF9FFFFF81FFFE01FFFF8146
:1026E000FE1FC3FFF03FFC3FE1FFFFFF9FFFFF81A5
:1026F000FFFC01FFFF81FE1FE1FFF83FF83FE1FF14
:1027000080001FFFFF81FFF800FFFF81FE1FE1FF38
:10271000FC1FF87FE1FF80001FFFFF81FFF0007FBB
:10272000FF81FE1FE0FFFC0FF07FE1FF80001FFF35
:10273000FF81FFE0003FFF81FE1FF07FFE07C07FAB
:10274000E1FFDFFF9FFFFF81FFE0001FFF81FE1F12
:10275000F01FFF0780FFE1FFCFFF9FFFFF81FFC05A
:10276000700FFF81FE1FF803FF0001FFE1FFE7FF8D
:102770009FFFFF81FF80F807FF81FE1FFC00000024
:1027800001FFE1FFE7FF9FFFFF81FF01FC01FF81E8
:10279000FE1FFE00000007FFE1FFF7FF9FFFFF8124
:1027A000FE01FE00FF81FE1FFF8000000FFFE1FF22
:1027B000FFFFFFFFFF81FC03FF007F81FE1FFFE0A3
:1027C00000003FFFE1FFFFFFFFFFFF81F807FF80F1
:1027D0003F81FE1FFFFC0003FFFFE1FFFFFFFFFF44
:1027E000FF81F00FFFC01F81FE1FFFFFFFFFFFFFF4
:1027F000E1FFFFFFFFFFFF81E01FFFE00F81FE1FF2
:10280000FFFFFFFFFFFFE1FFFFFFFFFFFF81E03F53
:10281000FFF00781FE1FFFFFFFFFFFFFE1FFFFFF4C
:10282000FFFFFF81C07FFFFC0381FE1FFFFFFFFF53
:10283000FFFFE1FFFFFFFFFFFF8180FFFFFE018140
:10284000FE1FFFFFFFFFFFFFE1FFFFFFFFFFFF8115
:1028500000FFFFFF0081FE1FFFFFFFFFFFFFE1FF03
:10286000FFFFFFFFFF8001FFFFFF8001FE1FFFFF53
:10287000FFFFFFFFE1FFFFFFFFFFFF8003FFFFFF01
:10288000C001FE1FFFFFFFFFFFFFE1FFFFFFFFFF94
:10289000FF8007FFFFFFE001FE1FFFFFFFFFFFFFBD
:1028A000E1FFFFFFFFFFFF800FFFFFFFF001FE1FB3
:1028B000FFFFFFFFFFFFE1FFFFFFFFFFFF800FFFB5
:1028C000FFFFF001FE1FFFFFFFFFFFFFE1FFFFFF24
:1028D000FFFFFF80000000000001FE1FFFFFFFFF61
:1028E000FFFFE1FFFFFFFFFFFF800000000000018E
:1028F000FE1FFFFFFFFFFFFFE1FFFFFFFFFFFF8066
:10290000000000000001FE1FFFFFFFFFFFFFE1FFCF
:10291000FFFFFFFFFF80000000000001FE1FFFFF20
:10292000FFFFFFFFE1FFFFFFFFFFFF800000000050
:102930000001FE1FFFFC7FFFF1FFE1FFF9FFE7FF52
:10294000FFFFFFFFFFFFFFFFFE1FFFF01FFFC07F26
:10295000E1FFF9FFC3FFFFFFFFFFFFFFFFFFFE1FC8
:10296000FFF01FFFC07FE1FFF80F81FFFFFFFFFFB8
:10297000FFFFFFFFFE1FFFE00FFF803FE1FFF807B3
:1029800099FFFFFFFFFFFFFFFFFFFE1FFFE00FFFAD
:10299000803FE1FFF8E79CFFFFFFFFFFFFFFFFFF26
:1029A000FE1FFFE00FFF803FE1FFF9F39CFFFFFFF9
:1029B000FFFFFFFFFFFFFE1FFFF01FFFC07FE1FFD4
:1029C000F9F39CFFFFFFFFFFFFFFFFFFFE1FFFF07C
:1029D0001FFFC07FE1FFF9F39CFFFFFFFFFFFFFF39
:1029E000FFFFFE1FFFFC7FFFF1FFE1FFF9F39CFFFC
:1029F000FFFFFFFFFFFFFFFFFE1FFFFFFFFFFFFFC8
:102A0000E1FFFCE79CFFFFFFFFFFFFFFFFFFFE1F53
:102A1000FFFFFFFFFFFFE1FFFC0009FFFFFFFFFFDC
:102A2000FFFFFFFFFE1FFFFFFFFFFFFFE1FFFE08AD
:102A300001FFFFFFFFFFFFFFFFFFFE1FFFFFFFFF85
:102A4000FFFFE1FFFFFC61FFFFFFFFFFFFFFFFFF55
:102A5000FE1FFFFFFFFFFFFFE1FFFFFFFFFFFFFF85
:102A6000FFFFFFFFFFFFFE1FFFFFFFFFFFFFE1FF75
:102A7000FFFFFFFF0000000000000000001FFFFF3D
:102A8000FFFFFFFFE1FFFFFFFFFF0000000000006E
:102A90000000001FFFFFFFFFFFFFE1FFFFFFFFFF41
:102AA0000000000000000000001FFFFFFFFFFFFF0D
:102AB000E1FFF8001FFF0000000000000000001F01
:102AC000FFFFFFFFFFFFE1FFF8001FFFFFFFFFFF1A
:102AD000FFFFFFFFFE1FFFFFFFFFFFFFE1FFFFFE06
:102AE0007FFFFFFFFFFFFFFFFFFFFE1FFFFFFFFF57
:102AF000FFFFE1FFFFFF3FFFFFFFFFFFFFFFFFFFC4
:102B0000FE1FFFFFFFFFFFFFE1FFFFFF9FFFFFFF34
:102B1000FFFFFFFFFFFFFE1FFFFFFFFFFFFFE1FFC4
:102B2000FFFF9FFFFFFFFFFFFFFFFFFFFE1FFFFFF6
:102B3000FFFFFFFFE1FFFFFF9FFFFFFFFFFFFFFF23
:102B4000FFFFFE1FFFFC0003FFFFE1FFFFFF9FFFF2
:102B5000FFFFFFFFFFFFFFFFFE1FFFC000007FFF23
:102B6000E1FFFFFC1FFFFFFFFFFFFFFFFFFFFE1F57
:102B7000FF0000001FFFE1FFF8003FFFFFFFFFFF26
:102B8000FFFFFFFFFE1FFE00000007FFE1FFF80050
:102B9000FFFFFFFFFFFFFFFFFFFFFE1FFC00000026
:102BA00003FFE1FFFFFFFFFFFFFFFFF00000000159
:102BB000FE1FF8003FFC01FFE1FFFFFFFFFFFFFFEB
:102BC000FF8000000001FE1FF0181FFF80FFE1FFE3
:102BD000FFFFDFFFFFFFFE0000000001FE1FE07CA3
:102BE0000FFFE0FFE1FFFFFE1FFFFFFFF800000007
:102BF0000001FE1FE0FE07FFF07FE1FFFFF01FFF77
:102C0000FFFFF00000000001FE1FE1FF07FFF87F5B
:102C1000E1FFFF807FFFFFFFC00000800001FE1F7B
:102C2000C1FF03FFF87FE1FFFC01FFFFFFFF800012
:102C300003E00001FE1FC3FF81FFFC3FE1FFE0391D
:102C4000FFFFFFFF00000FF80001FE1FC3FFC0FFE2
:102C5000FC3FE1FF81F9FFFFFFFE00003FFE0001A6
:102C6000FE1FC3FFE0FFFC3FE1FF8FF9FFFFFFFC0A
:102C70000000FFFFE001FE1FC3FFE07FFC3FE1FF1C
:102C800087F9FFFFFFF80003FC0FF001FE1FC3FFF1
:102C9000F03FFC3FE1FF80F9FFFFFFF0000FF00382
:102CA000F001FE1FE1FFF83FF83FE1FFF019FFFFE1
:102CB000FFF0001FF000F801FE1FE1FFFC1FF87F8E
:102CC000E1FFFE01FFFFFFE0001FF000FC01FE1F1F
:102CD000E0FFFC0FF07FE1FFFFC03FFFFFE0000FD0
:102CE000F8000001FE1FF07FFE07C07FE1FFFFF844
:102CF0001FFFFFC00003FE000001FE1FF01FFF07C3
:102D000080FFE1FFFFFF9FFFFFC00000FF80000189
:102D1000FE1FF803FF0001FFE1FFFFFFFFFFFF8041
:102D200000003FE00001FE1FFC00000001FFE1FF8A
:102D3000FFFFFFFFFF80000007FC0001FE1FFE00F9
:102D4000000007FFE1FFFFFFFFFFFF80000003FC23
:102D50000001FE1FFF8000000FFFE1FFFFFFFFFFEC
:102D6000FF001FC003FC0001FE1FFFE000003FFF4B
:102D7000E1FFFFFFFFFFFF000FC003FC0001FE1F8C
:102D8000FFFC0003FFFFE1FFFFFFFFFFFF0007F86D
:102D90001FF00001FE1FFFFFFFFFFFFFE1FFFFFF2E
:102DA000FFFFFF0003FE3F000001FE1FFFFFFFFFCC
:102DB000FFFFE1FFFFFFFFFFFF0001FFFE0000013B
:102DC000FE1FFFFFFFFFFFFFE1FFFFFFFFFFFF0011
:102DD000001FFE000001FE1FFFFFFFFFFFFFE1FFDE
:102DE000FFFFFFFFFF000003FE000001FE1FFFFFCB
:102DF000FFFFFFFFE1FFFFFFFFFFFF000000FF807D
:102E00000001FE1FFFFFFFFFFFFFE1FFFFFFFFFFCE
:102E1000FF0000003FE00001FE1FFFFFFFFFF07F0B
:102E2000E1FFFFFFFFFFFF0000001FFC0001FE1F8E
:102E3000FFFFFFFFF07FE1FFFFFFFFFFFF0000004C
:102E40001FFC0001FE1FFFFFFFFFF07FE1FFFFFF00
:102E5000FFFFFF0000001FFC0001FE1FFFFFFFFF40
:102E6000F07FE1FFFFFFFFFFFF000000FFE0000138
:102E7000FE1FFFFFFFFFF07FE1FFFFFFFFFFFF00EF
:102E80000007FF000001FE1FFFFFFFFFF07FE1FFD3
:102E9000FFFFFFFFFF00001FFC000001FE1FFFFF00
:102EA000FFFFF07FE1FFFFFFFFFFFF00001FF000CB
:102EB0000003FE1FFFFFFFFFF07FE1FFFFFFFFFFAB
:102EC000FF00001FF0000003FE1FE0000000007F75
:102ED000E1FFFFFFFFFFFF00000FF0000003FE1FF8
:102EE000E0000000007FE1FFFFFFFFFFFF000001A7
:102EF000FE000007FE1FE0000000007FE1FFFFFF73
:102F0000FFFFFF0000003FC00007FE1FE0000000C1
:102F1000007FE1FFFFFFFFFFFF0000003FF8000F11
:102F2000FE1FE0000000007FE1FFFFFFFFFFFF004A
:102F300000003FFC000FFE1FE0000000007FE1FFEB
:102F4000FFFFFFFFFF0000007FFC001FFE1FF0FFE0
:102F5000FFFFF07FE1FFFFFFFFFFFF000003FFF82F
:102F6000003FFE1FF87FFFFFF07FE1FFFFFFFFFF45
:102F7000FF00000FFFC0003FFE1FF83FFFFFF07F84
:102F8000E1FFFFFFFFFFFF00001FFE00007FFE1FAD
:102F9000FC3FFFFFF07FE1FFFFFFFFFFFF00001F8F
:102FA000F00000FFFE1FFC1FFFFFF07FE1FFFFFFAF
:102FB000FFFFFF00001F800001FFFE1FFE0FFFFF4D
:102FC000F07FE1FFFFFFFFFFFF00001C000003FF99
:102FD000FE1FFE0FFFFFF07FE1FFFFFFFFFFFF007F
:102FE0000000000007FFFE1FFF07FFFFF07FE1FF6B
:102FF000FFFFFFFFFF00000000001FFFFE1FFF8319
:10300000FFFFF07FE1FFFFFFFFFFFF000000000078
:103010003FFFFE1FFF87FFFFF07FE1FFFFFFFFFF86
:10302000FF0000000000FFFFFE1FFFDFFFFFFFFFAC
:10303000E1FFFFFFFFFFFF0000000003FFFFFE1F97
:10304000FFFFFFFFFFFFE1FFFFFFFFFFFF000000AB
:10305000001FFFFFFE1FFFFFFFFFFFFFE1FFFFFF5E
:10306000FFFFFFFFFFFFFFFFFFFFFE1FFFFFFFFF51
:10307000FFFFE1FFFFFFFFFFFFFFFFFFFFFFFFFF7E
:10308000FE1FFFFFFFFFFFFFE1FFFFFFFFFFFFFF4F
:10309000FFFFFFFFFFFFFE1FFFFFFFFFFFFFE1FF3F
:1030A000FFFFFFFFFFFFFFFFFFFFFFFFFE1FFFFF11
:1030B000FFFFFFFFE1FFFFFFFFFFFFFFFFFFFFFF3E
:1030C000FFFFFE1FFFFFFFFFFFFFE1FFFFFFFFFF0F
:1030D000FFFFFFFFFFFFFFFFFE1FFFFFFFFFFFFFE1
:1030E000E1FFFFFFFFFFFFFFFFFFFFFFFFFFFE1FEF
:1030F000FFFFFFFFFFFFE1FFFFFFFFFFFFFFFFFFFE
:10310000FFFFFFFFFE1FFFFFFFFFFFFFE1FFFFFFCE
:10311000FFFFFFFFFFFFFFFFFFFFFE1FFFFFFFFFA0
:10312000FFFFE1FFFFFFFFFF0000000000000000C5
:103130000102030406070809000000000000000067
:10314000000000000000000000000000000000007F
:10315000000000000000000000000C000C000C004B
:103160000C000C000C000C000C0000000C00000017
:103170000000000000000000000000001DC01DC095
:1031800008800880088000000000000000000000A7
:10319000000000000000000000000D800D800D8088
:1031A0000D803FC01B003FC01B001B001B001B000D
:1031B000000000000000000004001F80318031800A
:1031C00038001E000F000380318031803F00040072
:1031D000040000000000000000001800240024008B
:1031E00018C007801E0031800240024001800000AC
:1031F0000000000000000000000000000F001800A8
:10320000180018000C001D80370033001D800000DE
:1032100000000000000000000000000007000700A0
:103220000200020002000000000000000000000098
:103230000000000000000000000003000300060082
:103240000E000C000C000C000C000E000600030029
:1032500003000000000000000000180018000C002F
:103260000600060006000600060006000C001C0012
:1032700018000000000000000000060006003FC02B
:103280003FC00F001F8019800000000000000000F8
:10329000000000000000000000000000000004002A
:1032A000040004003F80040004000400000000004B
:1032B000000000000000000000000000000000000E
:1032C00000000000000000000000060004000C00E8
:1032D00008000800000000000000000000000000DE
:1032E000000000003F80000000000000000000001F
:1032F00000000000000000000000000000000000CE
:10330000000000000000000000000C000C000000A5
:10331000000000000000000000C000C0018001802B
:103320000300030006000C000C0018001800300019
:10333000300000000000000000000E001B00318083
:10334000318031803180318031801B000E000000DF
:103350000000000000000000000006003E00060023
:103360000600060006000600060006003FC000003A
:10337000000000000000000000000F0019803180F4
:103380003180030006000C00180030003F80000070
:10339000000000000000000000003F00618001808C
:1033A00003001F0003800180018061803F00000056
:1033B00000000000000000000000070007000F00F0
:1033C0000B001B00130033003F8003000F80000040
:1033D000000000000000000000001F80180018001E
:1033E00018001F0011800180018021801F00000053
:1033F0000000000000000000000007801C00180012
:103400003000370039803180318019800F00000092
:10341000000000000000000000007F0043000300E7
:1034200006000600060006000C000C000C00000060
:10343000000000000000000000001F00318031800B
:1034400031801F0031803180318031801F000000C9
:10345000000000000000000000001E00330031806A
:10346000318033801D800180030007003C00000094
:10347000000000000000000000000000000000004C
:103480000C000C000000000000000C000C0000000C
:10349000000000000000000000000000000000002C
:1034A0000300030000000000000006000400080004
:1034B00008000000000000000000000000C0030041
:1034C00004001800600018000400030000C00000A1
:1034D00000000000000000000000000000000000EC
:1034E00000007FC000007FC000000000000000005E
:1034F0000000000000000000000000006000180054
:103500000400030000C00300040018006000000075
:103510000000000000000000000000001F003180DB
:103520003180018007000C000C0000000C0000003E
:10353000000000000000000000000E00110021004B
:1035400021002700290029002700200011000E007B
:103550000000000000000000000000003F000F001D
:103560000900198019801F8030C030C079E0000048
:103570000000000000000000000000007F0031801B
:10358000318031803F003180318031807F00000008
:103590000000000000000000000000001F4030C0DC
:1035A0006040600060006000604030801F000000EC
:1035B0000000000000000000000000007F003180DB
:1035C00030C030C030C030C030C031807F0000001B
:1035D0000000000000000000000000007F8030803C
:1035E000308032003E003200308030807F8000002A
:1035F0000000000000000000000000007FC030401C
:10360000304032003E003200300030007C000000CC
:103610000000000000000000000000001E8031805B
:1036200060806000600067C0618031801F00000022
:103630000000000000000000000000007BC031809E
:10364000318031803F803180318031807BC000000B
:103650000000000000000000000000003FC0060065
:103660000600060006000600060006003FC0000037
:103670000000000000000000000000001FC0030068
:103680000300030003006300630063003E000000CA
:103690000000000000000000000000007BC031803E
:1036A000330036003C003E003300318079C000001A
:1036B0000000000000000000000000007E00180074
:1036C0001800180018001840184018407FC000006B
:1036D000000000000000000000000000E0E060C00A
:1036E00071C07BC06AC06EC064C060C0FBE00000F7
:1036F00000000000000000000000000073C03180E6
:1037000039803D803580378033803180798000007A
:103710000000000000000000000000001F003180D9
:1037200060C060C060C060C060C031801F00000029
:103730000000000000000000000000007F00318059
:103740003180318031803F00300030007E00000049
:103750000000000000000000000000001F00318099
:1037600060C060C060C060C060C031801F000CC01D
:103770001F80000000000000000000007F0031807A
:10378000318031803E003300318031807CE00000A8
:103790000000000000000000000000001F803180D9
:1037A000318038001F000380318031803F000000ED
:1037B0000000000000000000000000007F804C803E
:1037C0004C804C800C000C000C000C003F000000F2
:1037D0000000000000000000000000007BC03180FD
:1037E0003180318031803180318031801F00000094
:1037F0000000000000000000000000007BC03180DD
:1038000031801B001B001B000A000E000E00000090
:10381000000000000000000000000000FBE060C0AD
:1038200064C06EC06EC02A803B803B803180000047
:103830000000000000000000000000007BC031809C
:103840001B000E000E000E001B0031807BC000002C
:1038500000000000000000000000000079E030C01F
:1038600019800F0006000600060006001F800000F9
:103870000000000000000000000000003F802180E8
:103880002300060004000C00188030803F800000F8
:103890000000000000000000000007800600060095
:1038A00006000600060006000600060006000600E8
:1038B00007800000000000003000300018001800F1
:1038C0000C000C000600030003000180018000C012
:1038D00000C000000000000000001E0006000600FE
:1038E00006000600060006000600060006000600A8
:1038F0001E0000000000000004000A000A00110081
:103900002080208000000000000000000000000077
:1039100000000000000000000000000000000000A7
:103920000000000000000000000000000000000097
:10393000000000000000FFE008000400020000009A
:103940000000000000000000000000000000000077
:103950000000000000000000000000000000000067
:103960001F00018001801F80318033801DC0000056
:103970000000000000000000000070003000300077
:103980003700398030C030C030C039807700000047
:103990000000000000000000000000000000000027
:1039A0001E80318060806000608031801F000000D8
:1039B0000000000000000000000003800180018082
:1039C0001D80338061806180618033801DC0000074
:1039D00000000000000000000000000000000000E7
:1039E0001F00318060C07FC0600030C01F800000B9
:1039F0000000000000000000000007E00C000C00C8
:103A00003F800C000C000C000C000C003F800000FC
:103A100000000000000000000000000000000000A6
:103A20001DC0338061806180618033801D80018092
:103A300001801F0000000000000070003000300016
:103A40003700398031803180318031807BC0000087
:103A5000000000000000000000000600060000005A
:103A60001E00060006000600060006003FC000001B
:103A7000000000000000000000000600060000003A
:103A80003F000300030003000300030003000300E2
:103A900003003E0000000000000070003000300015
:103AA000378036003C003C003600330077C0000011
:103AB000000000000000000000001E0006000600DC
:103AC0000600060006000600060006003FC00000D3
:103AD00000000000000000000000000000000000E6
:103AE0007F8036C036C036C036C036C076E00000B3
:103AF00000000000000000000000000000000000C6
:103B00007700398031803180318031807BC0000086
:103B100000000000000000000000000000000000A5
:103B20001F00318060C060C060C031801F00000095
:103B30000000000000000000000000000000000085
:103B40007700398030C030C030C039803700300055
:103B500030007C00000000000000000000000000B9
:103B60001DC0338061806180618033801D80018051
:103B7000018007C0000000000000000000000000FD
:103B80007B801CC018001800180018007F0000007F
:103B90000000000000000000000000000000000025
:103BA0001F8031803C001F00038031803F000000F7
:103BB00000000000000000000000180018001800BD
:103BC0007F00180018001800180018800F0000006F
:103BD00000000000000000000000000000000000E5
:103BE0007380318031803180318033801DC000008E
:103BF00000000000000000000000000000000000C5
:103C00007BC0318031801B001B000E000E000000C5
:103C100000000000000000000000000000000000A4
:103C2000F1E060C064C06EC03B803B80318000002A
:103C30000000000000000000000000000000000084
:103C40007BC01B000E000E000E001B007BC000009E
:103C50000000000000000000000000000000000064
:103C600079E030C0198019800B000F0006000600B3
:103C70000C003E00000000000000000000000000FA
:103C80003F80218003000E00180030803F8000003C
:103C90000000000000000000000006000C000C0006
:103CA0000C000C000C0018000C000C000C000C00A8
:103CB00006000000000000000000060006000600EC
:103CC00006000600060006000600060006000600C4
:103CD000060000000000000000000C0006000600C6
:103CE00006000600060003000600060006000600A7
:103CF0000C000000000000000000000000000000B8
:103D000000001800248003000000000000000000F4
:103D100000000000000000000000000000000000A3
:103D20000000000000000000000000000000000093
:103D30000000000000000000000000000000000083
:103D40000000070007000700070007000700070042
:103D50000200020000000000070007000000000051
:103D60000000000000000000000000001CE01CE05B
:103D70001CE008400840084000000000000000006F
:103D80000000000000000000000000000000000033
:103D90000CC00CC00CC00CC00CC03FF03FF00CC0FD
:103DA0000CC03FF03FF00CC00CC00CC00CC00CC0ED
:103DB00000000000000000000300030007E00FE027
:103DC000186018001F000FC000E0186018601FC0C6
:103DD0001F8003000300030000000000000000003B
:103DE00000001C002200220022001C6001E00F8065
:103DF0003C0031C002200220022001C0000000006F
:103E0000000000000000000000000000000003E0CF
:103E10000FE00C000C0006000F301FF019E018C076
:103E20001FF007B0000000000000000000000000CC
:103E300000000000038003800380010001000100F6
:103E40000000000000000000000000000000000072
:103E50000000000000000000000000C000C0018061
:103E6000018001800300030003000300030003003E
:103E700001800180018000C000C00000000000003F
:103E800000000C000C000600060006000300030002
:103E900003000300030003000600060006000C00F8
:103EA0000C000000000000000000030003000300FD
:103EB0001B601FE0078007800FC00CC000000000DF
:103EC00000000000000000000000000000000000F2
:103ED00000000000000003000300030003003FF0A7
:103EE0003FF0030003000300030000000000000097
:103EF00000000000000000000000000000000000C2
:103F0000000000000000000000000000000003802E
:103F1000030003000600060004000000000000008B
:103F200000000000000000000000000000003FE072
:103F30003FE0000000000000000000000000000062
:103F40000000000000000000000000000000000071
:103F500000000000000000000000000000000380DE
:103F6000038003800000000000000000000000004B
:103F70000060006000C000C000C00180018003003C
:103F80000300060006000C000C000C0018001800CE
:103F9000000000000000000000000F801FC018C0DB
:103FA000306030603060306030603060306018C049
:103FB0001FC00F8000000000000000000000000093
:103FC000000003001F001F000300030003000300A4
:103FD00003000300030003001FE01FE000000000D7
:103FE000000000000000000000000F801FC038E04B
:103FF0003060006000C00180030006000C00180063
:104000003FE03FE000000000000000000000000072
:1040100000000F803FC030E0006000E007C007C034
:1040200000E00060006060E07FC03F8000000000B2
:104030000000000000000000000001C003C003C039
:1040400006C00CC00CC018C030C03FE03FE000C04C
:1040500003E003E00000000000000000000000009A
:1040600000001FC01FC0180018001F801FC018E0EC
:1040700000600060006030E03FC01F800000000072
:104080000000000000000000000003E00FE01E0040
:104090001800380037803FC038E03060306018E0EA
:1040A0001FC00780000000000000000000000000AA
:1040B00000003FE03FE03060006000C000C000C092
:1040C0000180018001800300030003000000000064
:1040D000000000000000000000000F801FC038E05A
:1040E000306038E01FC01FC038E03060306038E01A
:1040F0001FC00F8000000000000000000000000052
:1041000000000F001FC038C03060306038E01FE092
:104110000F6000E000C003C03F803E0000000000D0
:10412000000000000000000000000000000000008F
:104130000000038003800380000000000000038073
:104140000380038000000000000000000000000069
:104150000000000000000000000001C001C001C01C
:1041600000000000000003800300060006000400B9
:10417000000000000000000000000000000000300F
:1041800000F003C007001C0078001C00070003C0FB
:1041900000F00030000000000000000000000000FF
:1041A000000000000000000000007FF07FF0000031
:1041B00000007FF07FF00000000000000000000021
:1041C00000000000000000000000000000003000BF
:1041D0003C000F00038000E0007800E003800F0047
:1041E0003C00300000000000000000000000000063
:1041F000000000000F801FC018601860006001C040
:10420000038003000000000007000700000000001A
:104210000000000000000000000003800C80084047
:104220001040104011C012401240124011C0100046
:1042300008000840078000000000000000000000A7
:10424000000000001F801F80038006C006C00CC055
:104250000C601FE01FE030307878787800000000B4
:104260000000000000000000000000003F803FC090
:104270001860186018E01FC01FE018701830183060
:104280003FF03FE0000000000000000000000000E0
:104290000000000007B00FF01C7038303000300014
:1042A0003000300038301C700FE007C00000000004
:1042B0000000000000000000000000007F807FC0C0
:1042C00030E030703030303030303030307030E00E
:1042D0007FC07F80000000000000000000000000A0
:1042E000000000003FF03FF01830183019801F80A8
:1042F0001F801980183018303FF03FF00000000098
:104300000000000000000000000000003FF03FF04F
:104310001830183019801F801F801980180018006D
:104320003F003F000000000000000000000000000F
:104330000000000007B01FF018703030300030006F
:1043400031F831F8303018301FF007C0000000009D
:104350000000000000000000000000003CF03CF005
:104360001860186018601FE01FE01860186018607F
:104370003CF03CF0000000000000000000000000E5
:10438000000000001FE01FE0030003000300030023
:1043900003000300030003001FE01FE00000000013
:1043A00000000000000000000000000003F803F817
:1043B000006000600060006030603060306030E0BD
:1043C0003FC00F800000000000000000000000005F
:1043D000000000003EF83EF818E019801B001F00A6
:1043E0001D8018C018C018603E783E3800000000DC
:1043F0000000000000000000000000003F003F003F
:104400000C000C000C000C000C000C300C300C30BC
:104410003FF03FF00000000000000000000000003E
:10442000000000007878787838703CF034B037B00D
:1044300037B03330333030307CF87CF80000000087
:1044400000000000000000000000000039F03DF016
:104450001C601E601E601B601B6019E019E018E004
:104460003EE03E6000000000000000000000000090
:104470000000000007800FC01CE038703030303082
:104480003030303038701CE00FC007800000000072
:104490000000000000000000000000003FC03FE0FE
:1044A00018701830183018701FE01FC0180018005E
:1044B0003F003F000000000000000000000000007E
:1044C0000000000007800FC01CE038703030303032
:1044D0003030303038701CE00FC0078007B00FF06C
:1044E0000CE0000000000000000000003FC03FE0C2
:1044F0001870183018701FE01FC018E0186018708E
:104500003E383E18000000000000000000000000DF
:10451000000000000FB01FF03870303038001F80EE
:1045200007E00070303038703FE037C00000000016
:104530000000000000000000000000003FF03FF01D
:104540003330333033300300030003000300030033
:104550000FC00FC0000000000000000000000000BD
:10456000000000003CF03CF0186018601860186013
:104570001860186018601CE00FC007800000000081
:1045800000000000000000000000000078F078F05B
:104590003060306018C018C00D800D800D8007009D
:1045A00007000700000000000000000000000000FD
:1045B000000000007C7C7C7C301833983398339862
:1045C00036D816D01C701C701C701830000000000B
:1045D00000000000000000000000000078F078F00B
:1045E000306018C00D80070007000D8018C03060D3
:1045F00078F078F0000000000000000000000000EB
:10460000000000003CF03CF018600CC00780078000
:1046100003000300030003000FC00FC000000000F0
:104620000000000000000000000000001FE01FE08C
:10463000186018C001800300030006000C601860B9
:104640001FE01FE00000000000000000000000006C
:10465000000003C003C003000300030003000300C5
:10466000030003000300030003000300030003C072
:1046700003C0000000000000180018000C000C002F
:104680000C0006000600030003000180018000C04A
:1046900000C000C0006000600000000000000000DA
:1046A00000000F000F0003000300030003000300DD
:1046B00003000300030003000300030003000F00D6
:1046C0000F000000000000000000020007000D8045
:1046D00018C0306020200000000000000000000032
:1046E00000000000000000000000000000000000CA
:1046F00000000000000000000000000000000000BA
:1047000000000000000000000000000000000000A9
:1047100000000000FFFCFFFC00000400030000801C
:104720000000000000000000000000000000000089
:104730000000000000000000000000000000000079
:10474000000000000000000000000FC01FE000603B
:104750000FE01FE0386030E03FF01F700000000005
:104760000000000000000000000070007000300039
:10477000300037803FE038603030303030303860E3
:104780007FE07780000000000000000000000000D3
:104790000000000000000000000007B01FF018300B
:1047A00030303000300038301FF00FC00000000003
:1047B00000000000000000000000007000700030E9
:1047C000003007B01FF018703030303030303870A3
:1047D0001FF807B800000000000000000000000003
:1047E0000000000000000000000007801FE01860CB
:1047F0003FF03FF0300018301FF007C0000000000D
:104800000000000000000000000003F007F00600B8
:1048100006001FE01FE00600060006000600060076
:104820001FE01FE00000000000000000000000008A
:104830000000000000000000000007B81FF818701A
:1048400030303030303018701FF007B0003000705A
:104850000FE00FC000000000000038003800180012
:1048600018001BC01FE01C601860186018601860FA
:104870003CF03CF0000000000000000000000000E0
:10488000000003000300000000001F001F000300E1
:1048900003000300030003001FE01FE0000000000E
:1048A0000000000000000000000003000300000002
:1048B00000001FC01FC000C000C000C000C000C07A
:1048C00000C000C000C001C03F803F0000000000E9
:1048D000000038003800180018001BE01BE01B0027
:1048E0001E001E001B00198039F039F00000000086
:1048F000000000000000000000001F001F00030077
:10490000030003000300030003000300030003008F
:104910001FE01FE000000000000000000000000099
:10492000000000000000000000007EE07FF0333057
:1049300033303330333033307BB87BB80000000085
:104940000000000000000000000000000000000067
:1049500000003BC03FE01C601860186018601860E1
:104960003CF03CF0000000000000000000000000EF
:104970000000000000000000000007801FE0186039
:1049800030303030303018601FE007800000000009
:104990000000000000000000000000000000000017
:1049A000000077807FE03860303030303030386061
:1049B0003FE03780300030007C007C0000000000C9
:1049C0000000000000000000000007B81FF8187089
:1049D00030303030303018701FF007B00030003009
:1049E00000F800F8000000000000000000000000D7
:1049F00000003CE03DF00F300E000C000C000C00FD
:104A00003FC03FC0000000000000000000000000A8
:104A10000000000000000000000007E01FE0186038
:104A20001E000FC001E018601FE01F8000000000A2
:104A30000000000000000000000000000C000C005E
:104A40000C003FE03FE00C000C000C000C000C30B0
:104A50000FF007C000000000000000000000000090
:104A60000000000000000000000038E038E018609E
:104A700018601860186018E01FF00F700000000048
:104A80000000000000000000000000000000000026
:104A9000000078F078F0306018C018C00D800D80EC
:104AA00007000700000000000000000000000000F8
:104AB0000000000000000000000078F078F0326094
:104AC000326037E01DC01DC018C018C000000000D3
:104AD00000000000000000000000000000000000D6
:104AE00000003CF03CF00CC00780030007800CC0C5
:104AF0003CF03CF00000000000000000000000005E
:104B00000000000000000000000078F078F0306045
:104B100018C018C00D800F800700060006000C00AA
:104B20007F007F0000000000000000000000000087
:104B300000001FE01FE018C00180030006000C60A9
:104B40001FE01FE000000000000000000000000067
:104B5000000001C003C003000300030003000300C2
:104B600007000E000700030003000300030003C05A
:104B700001C000000000000000000300030003006B
:104B8000030003000300030003000300030003000D
:104B90000300030003000300030000000000000006
:104BA00000001C001E0006000600060006000600AD
:104BB00007000380070006000600060006001E002E
:104BC0001C000000000000000000000000000000C9
:104BD000000000000E003F3033F001E00000000054
:104BE00000000000000000000000000000000000C5
:104BF000104C0008000000204C000000A417000822
:104C00005C4C00084C0000207C060000B417000833
:104C1000000002400001000000000240000400000B
:104C200000000240000200000000024000080000F6
:104C30000100000010000000000000000024F4004B
:104C4000383100080B001000183D00080E00140059
:0C4C500000000000000000000000000058
:04000005080001D915
:00000001FF
