:020000040800F2
:10000000701B0020ED0100082B1100086F10000884
:1000100029110008F9020008C115000800000000BD
:10002000000000000000000000000000E1140008D3
:10003000FB02000800000000F1130008E3140008B0
:10004000070200080702000807020008070200086C
:10005000070200080702000807020008070200085C
:10006000070200080702000807020008070200084C
:10007000070200080702000807020008070200083C
:10008000070200080702000807020008070200082C
:10009000070200080702000807020008070200081C
:1000A000070200080702000807020008070200080C
:1000B00007020008070200080702000807020008FC
:1000C00007020008070200080702000807020008EC
:1000D00007020008070200080702000807020008DC
:1000E00007020008070200080702000807020008CC
:1000F00007020008070200080702000807020008BC
:1001000007020008070200080702000807020008AB
:10011000070200080702000807020008070200089B
:10012000070200080702000807020008070200088B
:10013000070200080702000807020008070200087B
:10014000070200080702000807020008070200086B
:10015000070200080702000807020008070200085B
:10016000070200080702000807020008070200084B
:10017000070200080702000800000000000000005D
:10018000070200080702000807020008070200082B
:10019000070200080702000800000000070200082C
:1001A000070200080702000800000000000000002D
:1001B000070200080000000000000000070200081D
:1001C00007020008070200080702000807020008EB
:1001D0000702000807020008DFF80CD000F07AF8E8
:1001E0000048004749160008701B00200648804759
:1001F00006480047FEE7FEE7FEE7FEE7FEE7FEE70C
:10020000FEE7FEE7FEE7FEE76D150008D9010008EE
:100210002DE9F05F0546002092469B46884606463B
:10022000814640241BE0284641464746224600F0CE
:1002300041F853465A46C01A914110D31146184608
:10024000224600F028F82D1A67EB01084F46224697
:100250000120002100F01FF817EB00094E41201E7D
:10026000A4F10104DFDC484631462A464346BDE896
:10027000F09FD2B201E000F8012B491EFBD270477B
:100280000022F6E710B513460A4604461946FFF762
:10029000F0FF204610BD202A04DB203A00FA02F1CC
:1002A000002070479140C2F1200320FA03F3194364
:1002B00090407047202A04DB203A21FA02F0002106
:1002C000704721FA02F3D040C2F120029140084366
:1002D00019467047064C074D06E0E06840F0010300
:1002E00094E8070098471034AC42F6D3FFF778FF44
:1002F0002842000848420008FEE7704770B50E002B
:1003000004463BD0102100F00FF9022000F078F9EC
:10031000002504E0FF21204600F011F96D1C206942
:10032000C11700EB51706169C0104843A842F1DC6D
:10033000022000F065F91321204600F0F5F80220B4
:1003400000F05EF9002504E0715D204600F0F7F84A
:100350006D1C2069C11700EB51706169C0104843E2
:10036000A842F1DC022000F04BF91221204600F0F7
:10037000DBF82046BDE8704000F036B970BD10B51E
:10038000044601202060022060600020A06003205D
:10039000E060B02020614FF48470606100F052F999
:1003A00010B14FF0FF3010BD204600F0ABF8012136
:1003B000204600F0B9F80321204600F0C0F80021E3
:1003C000204600F0BCF82B21204600F0B8F82B2185
:1003D000204600F0B4F80921204600F0B0F80621CC
:1003E000204600F0A1F80721204600F0A8F80721D8
:1003F000204600F0A4F81721204600F0A0F8F821CC
:10040000204600F091F86021204600F098F8A521E0
:10041000204600F094F8F821204600F085F8892164
:10042000204600F08CF8A521204600F088F8F8213D
:10043000204600F079F89021204600F080F8002155
:10044000204600F07CF8F821204600F06DF893215A
:10045000204600F074F82A21204600F070F8F821B8
:10046000204600F061F8A021204600F068F8A521A0
:10047000204600F064F8F821204600F055F8A1214C
:10048000204600F05CF80021204600F058F8F821E2
:10049000204600F049F87321204600F050F8412131
:1004A000204600F04CF81621204600F03DF80021CF
:1004B000204600F044F80421204600F035F820469C
:1004C00000F092F80021204600F02EF8AF212046DF
:1004D00000F035F83021204600F026F83A21204679
:1004E00000F02DF88221204600F01EF8122120464F
:1004F00000F025F8022000F083F8204600F02AF8EA
:10050000002010BD10B504460068002100F08AF8F4
:10051000C82000F075F80121206800F083F8BDE8DC
:100520001040C82000F06CB810B50C46406800219F
:1005300000F078F82046BDE8104000F09BB810B5F8
:100540000C464068012100F06DF82046BDE81040DF
:1005500000F090B870B505462021FFF7E5FF214E69
:1005600000242846315DFFF7EAFF641C2C2CF8D3E9
:1005700021212846FFF7D8FF1A4E00242C362846A2
:10058000315DFFF7DCFF641C2A2CF8D322212846BA
:10059000FFF7CAFF134E002456362846315DFFF799
:1005A000CEFF641C2A2CF8D323212846FFF7BCFF7A
:1005B0000C4E002480362846315DFFF7C0FF641CD6
:1005C0002A2CF8D324212846FFF7AEFF054E00243D
:1005D000AA362846315DFFF7B2FF641C2A2CF8D3F7
:1005E00070BD0000B117000810B5044602E0642099
:1005F00000F006F8E06800F005F80028F7D010BD1C
:1006000000F052B8064A10B502EBC00152F83000B3
:10061000898889B200F02CF9012800D0002010BD93
:100620004C170020064B012903EBC00253F83000A1
:10063000526891B202D0002200F01FB90122FBE7FC
:100640004C1700200A480949D0E90023C1E91623C4
:10065000D0E90223C1E91823D0E90423C1E91A2310
:10066000D0E90620C1E91C2000207047F4160020C4
:100670000000002031B50B4C0022A08881B2206818
:1006800000F0FBF84FF47A7301226946A4F1580098
:1006900000F02BFCA088012281B2206800F0EDF868
:1006A00038BD00004C17002070B5044600F0EAF891
:1006B0000546601C02D004480078044400F0E2F8CB
:1006C000401BA042FAD370BD200000202DE9F84F56
:1006D000DFF874B100224FF001084FF0030A4FF029
:1006E0000F090BF1040E00BF0B6808FA02F4234057
:1006F000A3426ED14D68022D01D0122D0ED1D50826
:1007000000EB850CDCF820505607F70E09FA07F6C7
:10071000B5430E69BE402E43CCF8206006685500F4
:100720000F790AFA05FC07F0030726EA0C06AF402A
:10073000374307604E68012E05D0022E03D0112EDC
:1007400001D0122E0ED18668CF6826EA0C06AF4083
:10075000374387604668A6430C79C4F3001494407D
:1007600034434460C4688E6824EA0C04AE402643D7
:10077000C6604C68E40060D5344C256845F480457B
:100780002560246822F0030504F480440094304C72
:100790002E19D6F8084895072F0F09FA07F5AC432C
:1007A0002C4DA84201D100251FE02B4DA84201D1BC
:1007B00001251AE0294DA84201D1022515E0284D56
:1007C000A84201D1032510E0264DA84202D10425FC
:1007D0000BE032E0244DA84201D1052505E0234D70
:1007E000A84201D1062500E00725BD402543C6F8F3
:1007F0000858DBF800405D464E689C43F60300D580
:100800001C432C60DEF8004075464E689C43B603DE
:1008100000D51C432C600C4D08352C684E689C4359
:10082000F60200D51C432C60074D0C352C684E6831
:100830009C43B60200D51C432C60521C102AFFF4C6
:1008400053AFBDE8F88F0000003C0140443802403F
:100850000030014000000240000402400008024055
:10086000000C024000100240001402400018024038
:100870000069084000D0012070470AB181617047CB
:100880000904FBE701488068704700002000002051
:10089000024881680278114481607047200000207E
:1008A0000B4810B5016841F400710160016841F422
:1008B00080610160016841F480710160032000F0F3
:1008C00061F8002000F006F800F024F8002010BDC8
:1008D000003C024070B50D4D04464FF47A71287803
:1008E000B1FBF0F00A490968B1FBF0F000F0ABFB96
:1008F00048B9102C07D200222146501E00F022F8E1
:1009000000206C6070BD012070BD00002000002040
:100910002C0000200A4808B5016841F480410160BC
:10092000006800F4804000900548001F016841F015
:1009300080510160006800F08050009008BD000008
:1009400044380240F0B40E4B1B680C46C3F302233C
:10095000C3F10705042D00D90425191D072901D26B
:10096000002300E0DB1E012606FA05F1491E2140A6
:1009700099409E40761E16403143F0BC00F02ABEDE
:100980000CED00E0064900F0070208684FF6FF038F
:10099000184040EA0220034A1043086070470000F4
:1009A0000CED00E00000FA052DE9F0470E460500C9
:1009B00065D0DFF81481D8F80000F7B200F00F001E
:1009C000B04207D288F80070D8F8000000F00F009D
:1009D000B04254D128683D4C810712D5400703D559
:1009E000206840F4E05020602878000703D5206894
:1009F00040F4604020602068A96820F0F0000843BF
:100A000020602878C0072DD030496868083901284F
:100A100012D0022813D0032811D0096889070029B1
:100A20002DDA216821F0030101432160FFF72AFF3D
:100A3000814641F2883A0EE009688903EFE70968C8
:100A40008901ECE7FFF71EFFA0EB0901514502D930
:100A50000320BDE8F0872068696800F00C00B0EB67
:100A6000810FEFD1D8F80010404601F00F01B142DC
:100A700007D90770006800F00F00B04201D00120D4
:100A8000E7E72878400705D52068E96820F4E050BA
:100A9000084320602878000706D52068296920F4DB
:100AA000604040EAC100206000F01CF82168084A5C
:100AB000C1F30311515CC840064908600020FFF7EC
:100AC00009FF0020C5E70000003C02400838024052
:100AD000851800082C00002001490120C8647047D7
:100AE00000004742154810B5006810F00C02144889
:100AF00013D04110042A0FD0082A0ED10F4C241F06
:100B00002268236802F03F025B0207D52068C0F329
:100B10008810A0FB010106E0084610BD2168C1F362
:100B20008811A1FB00010023FFF772FB2168C1F3CC
:100B30000141491C4900B0FBF1F010BD08380240EA
:100B40000024F4002DE9F84F05460078DFF800B3E3
:100B5000C04CC0074AD0DBF800105846C1F38101F1
:100B6000012908D00068C0F3810002280AD1201DA5
:100B70000068400206D52068800337D568680028E1
:100B800072D033E06868B0F5803F10D0B0F5A02F88
:100B9000206810D020F480302060206820F480206D
:100BA00020606868A8B1FFF76DFE06460DE020687A
:100BB00040F48030F4E740F480202060F7E700BF85
:100BC000FFF760FE801B64286FD820688003F7D58C
:100BD0000CE0FFF757FE064605E000BFFFF752FEA8
:100BE000801B6428F0D820688003F7D42878DFF8C9
:100BF000688280074FF0000940D5DBF800105846A6
:100C000011F00C0F09D00068C0F3810002280BD14D
:100C10008F48001F0068400206D42068800715D561
:100C2000E868012820D111E0E868B8B10120C8F8CF
:100C30000000FFF727FE064605E000BFFFF722FE93
:100C4000801B0228C0D820688007F7D52068296952
:100C500020F0F80040EAC10020600FE0C8F80090E2
:100C6000FFF710FE064606E0EFE000BFFFF70AFEC2
:100C7000801B022819D820688007F7D4287800073D
:100C800022D5734E754869696C3679B101210160CE
:100C9000FFF7F8FD074604E0FFF7F4FDC01B02284C
:100CA00003D830688007F7D50EE089E0C0F80090DF
:100CB000FFF7E8FD074604E0FFF7E4FDC01B02284C
:100CC0007ED830688007F7D42878400768D5DFF8E9
:100CD00080A100270AF1380ADAF80000C0000BD41E
:100CE000DAF8001041F08051CAF80010DAF800007C
:100CF000012700F080500090594E3068C00510D494
:100D0000306840F480703060FFF7BCFD009005E073
:100D1000FFF7B8FD0099401A022851D83068C00585
:100D2000F6D54B4EA868683601280FD005283068E4
:100D300010D020F001003060306820F004003060F6
:100D4000A868B8B1FFF79EFD00900FE0306840F052
:100D50000100F4E740F004003060F7E7FFF792FD90
:100D60000099411A41F28830814266D83068800784
:100D7000F4D50EE0FFF786FD009007E0FFF782FD57
:100D80000099411A41F28830814256D83068800774
:100D9000F4D42FB1DAF8001021F08051CAF8001015
:100DA000A869D0B3DBF80010C1F3810102294CD04F
:100DB0000228484607D0C8F86000FFF763FD00E04E
:100DC0003BE005463CE04746C8F86000FFF75AFDA7
:100DD000064604E0FFF756FD801B02282DD8206848
:100DE0008001F7D4F5E907010843E9681D4A49087D
:100DF00002EB0141AA6841EA82110843297C40EADA
:100E00000160297D40EA01711148001F0160012045
:100E10003866FFF737FD054605E014E0FFF732FDC1
:100E2000401B022809D820688001F7D50BE000BFDD
:100E3000FFF728FD401B022802D90320BDE8F88FE8
:100E400020688001F4D40020F8E70120F6E70000D4
:100E5000083802400038024000004742800E4742F6
:100E6000007000400000FFFF70B5040005D00025B1
:100E7000A56294F8510010B106E0012070BD84F81D
:100E80005050204600F030F8022084F851002068CD
:100E9000016821F040010160D4E901010843D4E96F
:100EA00003121143084361690843218B01F4007167
:100EB0000843E1690843216A0843A16A084321689D
:100EC0000860A069042101EA1040616A08432168B2
:100ED00048602068C16921F40061C1616565012035
:100EE00084F85100002070BD70472DE9F84F04468A
:100EF00090F8500000271D461646894601280DD05F
:100F00004FF0010B84F850B0FFF7BCFC804694F81A
:100F10005100BA46012804D002278EE00220BDE825
:100F2000F88FB9F1000F7DD0002E7BD0032084F81C
:100F30005100C4F854A0C4F83090A686E686C4F8E0
:100F400038A0A4F83CA0A4F83EA0C4F844A0C4F87B
:100F500040A0A068B0F5004F04D12068016841F4BA
:100F60008041016020680168490603D4016841F0AE
:100F700040010160E068B0F5006F606803D030B3F5
:100F8000012E24D040E008B1012E1CD1206B216835
:100F90000088C86006E020688168890709D5216B50
:100FA0000988C160206B801C2063E08E401EE086B3
:100FB00009E0FFF767FCA0EB0800A84202D3681C19
:100FC00001D031E07DB3E08E0028E4D11FE0206B3A
:100FD00021680078087306E020688168890709D5D0
:100FE000216B09780173206B401C2063E08E401E4A
:100FF000E08609E0FFF746FCA0EB0800A84202D318
:10100000681C01D010E075B1E08E0028E4D14246A2
:101010002946204600F0EEF908B120206065A0685E
:1010200020B107E008E0FFE7032706E02068C16879
:1010300080680090606D00B1012784F851B084F899
:1010400050A038466BE710B5401EB0F1807F01D349
:10105000012010BD4FF0E02460610F21601700F007
:10106000B9FA0020A06107202061002010BDFEE732
:1010700070B5164886B00024016841F00101016096
:101080000068012500F0010005904FF4E060CDE913
:1010900000050F4E694603943046FFF717FBE80240
:1010A000CDE9000469463046FFF710FBE0200090D0
:1010B0000220CDE901050320039005200490694634
:1010C0003046FFF703FB06B070BD00003038024029
:1010D00000000240114882B00021026842F48052B0
:1010E000026000680E4A00F4805000900D480260D3
:1010F0004FF4827242604FF40042C0E90221921123
:101100000161C0E905123022C0E907214162816214
:101110000A21C16202B0FFF7A7BE000044380240B6
:1011200000300140F4160020FEE77047F0B50F468E
:10113000064600250CE0002406E03B4622462946F0
:10114000304600F009F8641CB068A042F5DC6D1C64
:101150007068A842EFDCF0BD70B500291EDB456861
:101160008D421BDD002A19DB8468944216DDCC1702
:1011700001EB547424F007040E1B02FB05110068F8
:101180004FEAE17201EB527100EBE100802401783B
:10119000F4400BB1214300E0A143017070BD000099
:1011A0002DE9FF4F93460D9DA888410700D00121EE
:1011B00001EBD000203B10FB03F0E988484329688D
:1011C0000E18002727E000244FF0800A0BEB0708D9
:1011D000DFF84C9017E0E01704EB507020F00700A8
:1011E0003178221A2AFA02F0014206D001984246CA
:1011F00001190E9B009800F07CF804EA090007280A
:1012000000D1761C641CA888A042E4DC2879400741
:1012100000D0761C7F1CE888B842D4DCBDE8FF8F84
:10122000070000802DE9FF4F81B05D4200270220BA
:10123000DDF838B000EB450403985B46C21902980C
:101240009146411B8A46019800F053F802984A469D
:1012500046195B463146019800F04BF80398314639
:10126000C21B90465B46019800F043F84246514647
:101270005B46019800F03DF80120A0EB45039A463B
:101280004A463146CDF800B0019800F01FF85346A9
:1012900042463146CDF800B0019800F017F82046DC
:1012A000BC4208DC7F1C00EB4704641CFD4202D1F9
:1012B000A84200DC0020A84203DD6D1C04EB4504BD
:1012C000641C002DB8DD05B0BDE8F08F2DE9F041BC
:1012D000164680460C46CF18069D06E02B46324641
:1012E0002146404600F005F8641CA742F6DCBDE844
:1012F000F08130B4C468ACB1012C1ED0022C2AD0CD
:10130000032C35D1002933DB85688D4230DD002A7E
:101310002EDB446894422BDD14466A1A214630BC09
:10132000FFF71ABF002923DB44688C4220DD002A26
:101330001EDB846894421BDDF1E7002918DB84681A
:101340008C4215DD002A13DB4568954210DD0C4602
:10135000A91A2246E3E700290ADB45688D4207DD2A
:10136000002A05DB8468944202DD691AA21AD6E7D6
:1013700030BC70472DE9FC439046DDE909678146A2
:101380001C460D4609E0424629464846CDE900671D
:10139000FFF706FFB088641C05442378002BF2D1C8
:1013A000BDE8FC832DE9F0410E4680461446D7186F
:1013B000069D06E02B46224631464046FFF799FF40
:1013C000641CA742F6DCBDE8F08110B50024C460BF
:1013D0000160510707D0D11702EB517121F00701CD
:1013E000511A521A0832C0E9012310BDC16070477A
:1013F0007047000038B504461248134B0068B0FB34
:10140000F3F04FF47A73584300906068B0F5827F30
:101410000DD10B46009200228021204600F016F8E4
:1014200070B1606D40F020006065032038BD009809
:1014300030B1401E009020688068C0430006F6D599
:10144000002038BD2C00002000366E012DE9F0414F
:101450001D4617460E460446DDF8188008E0681C55
:1014600006D0FFF70FFAA0EB0800A8420BD255B147
:101470002068806836EA000030D00020B842EED103
:101480000020BDE8F0812068416821F0E001416062
:101490006068B0F5827F0BD1A068B0F5004F02D034
:1014A000B0F5806F04D12068016821F0400101602F
:1014B000A06AB0F5005F09D12068016821F40051ED
:1014C00001602068016841F400510160012084F846
:1014D0005100002084F850000320D2E70120CDE71E
:1014E0007047FFF7D5B9000030B593B03421684696
:1014F000FEF7C6FE14210DA8FEF7C2FE194800250E
:10150000016841F080510160006800F08050129045
:101510001548016841F4404101600068022400F46C
:101520004040129001200090000401908001CDE91C
:101530000640042008903220CDE909040B94684647
:101540000C94FFF7FFFA0DA90F2081E831001095E8
:1015500001210DA81195FFF727FAFFF7BDFA13B087
:1015600030BD000040380240007000401048016863
:1015700041F4700101600F48016841F00101016010
:101580000C4A00210832116002680B4B1A400260BD
:10159000031D0A4A1A60026822F48022026005488C
:1015A0000C3001600249580680390860704700001D
:1015B00088ED00E000380240FFFFF6FE1030002406
:1015C000FEE70000014A024900F023B83516000882
:1015D000400000200907090E002804DB00F1E0208C
:1015E00080F80014704700F00F0000F1E02080F850
:1015F000141D704702E008C8121F08C1002AFAD162
:1016000070477047002001E001C1121F002AFBD182
:1016100070472DE9F04116460F460446002503E0C9
:101620003946B047641C6D1C20780028F8D1284644
:10163000BDE8F08138B504468DF800006946032006
:10164000ABBE204638BD000030B545A095B0D0E90E
:101650000010CDE9021044A0D0E90010CDE90E1031
:1016600043A1D1E90001CDE910014349D1E90001CD
:10167000CDE91201FFF714F9FFF736FFFFF7F8FC89
:10168000FFF728FD04A8FEF77AFE30B13BA0FFF774
:1016900099FF15B04FF0FF3030BDDDE908233D491B
:1016A0000AA8FFF792FE01210AA8FFF73FFD0121DA
:1016B0000AA8FFF79BFE0024374DCDE9005402AB8A
:1016C000822204210AA8FFF755FECDE900540EAB93
:1016D00082225E210AA8FFF74DFECDE9005410AB2F
:1016E0008222BE210AA8FFF745FE2C48CDE900045E
:1016F00012AB2822B0210AA8FFF73CFECDE9005426
:10170000052227A311460AA8FFF734FE642300220E
:1017100084210AA80094FFF745FE4C23642250213F
:101720000AA80094FFF73EFE4C236422B4210AA8C5
:101730000094FFF737FE4FF48473642200210AA857
:101740000094FFF7C3FD1E23322241210AA8009412
:10175000FFF768FD0F4904A8FEF7D0FDFEE7000083
:10176000362E392041000000342E32205600000071
:101770003234204600000000AC170008652D50618F
:1017800070657220696E6974206661696C65640AAF
:10179000000000004400002030000020380000203D
:1017A0006F6B20626F6F6D6572000000323525002F
:1017B000000000000F0F00000500323200000200A0
:1017C0000F0F0000050000000000000000000000F6
:1017D00000000000000000000000000000500F0F9B
:1017E000000005603232000002A00F0F000005006B
:1017F00000000000000000000000000000000000E9
:1018000000000000000000500F0F000005603232A1
:10181000000002A00F0F0000050000000000000003
:1018200000000000000000000000000000000000B8
:1018300000A00F0F000005603232000002500F0FB1
:101840000000050000000000000000000000000093
:101850000000000000000000000000A00F0F0000CA
:1018600005603232000002500F0F0000050000003A
:101870000000000000000000000000000000000068
:101880000000000000000000000000000001020352
:101890000406070809000000000000000000000026
:1018A0000000000000000000000000000000000038
:1018B0000000000000000000000000000000000721
:1018C00000070007000700070007000700020002EA
:1018D00000000000000700070000000000000000FA
:1018E0000000000000000000001CE01CE01CE008FC
:1018F0004008400840000000000000000000000018
:10190000000000000000000000000000000CC00CFF
:10191000C00CC00CC00CC03FF03FF00CC00CC03F6E
:10192000F03FF00CC00CC00CC00CC00CC00000009C
:1019300000000000000300030007E00FE01860183B
:10194000001F000FC000E0186018601FC01F800358
:101950000003000300000000000000000000001C65
:10196000002200220022001C6001E00F803C0031B8
:10197000C002200220022001C00000000000000080
:10198000000000000000000000000003E00FE00C79
:10199000000C0006000F301FF019E018C01FF00700
:1019A000B000000000000000000000000000000087
:1019B000000380038003800100010001000000009B
:1019C0000000000000000000000000000000000017
:1019D0000000000000000000C000C0018001800184
:1019E00080030003000300030003000300018001E3
:1019F00080018000C000C000000000000000000C5A
:101A0000000C0006000600060003000300030003AC
:101A100000030003000600060006000C000C000096
:101A2000000000000000000300030003001B601F13
:101A3000E0078007800FC00CC0000000000000001D
:101A40000000000000000000000000000000000096
:101A500000000003000300030003003FF03FF00319
:101A6000000300030003000000000000000000006D
:101A70000000000000000000000000000000000066
:101A800000000000000000000000000380030003CD
:101A90000006000600040000000000000000000036
:101AA00000000000000000000000003FE03FE000F8
:101AB0000000000000000000000000000000000026
:101AC0000000000000000000000000000000000016
:101AD00000000000000000000000000380038003FD
:101AE0008000000000000000000000000000600016
:101AF0006000C000C000C001800180030003000638
:101B00000006000C000C000C00180018000000007B
:101B1000000000000000000F801FC018C0306030BF
:101B2000603060306030603060306018C01FC00FBF
:101B30008000000000000000000000000000000322
:101B4000001F001F00030003000300030003000345
:101B500000030003001FE01FE00000000000000081
:101B6000000000000000000F801FC038E03060005F
:101B70006000C00180030006000C0018003FE03F39
:101B8000E000000000000000000000000000000F66
:101B9000803FC030E0006000E007C007C000E00008
:101BA00060006060E07FC03F800000000000000037
:101BB0000000000000000001C003C003C006C00C0C
:101BC000C00CC018C030C03FE03FE000C003E003DD
:101BD000E000000000000000000000000000001F06
:101BE000C01FC0180018001F801FC018E000600050
:101BF00060006030E03FC01F800000000000000077
:101C00000000000000000003E00FE01E0018003894
:101C10000037803FC038E03060306018E01FC007F8
:101C20008000000000000000000000000000003FF5
:101C3000E03FE03060006000C000C000C0018001F3
:101C4000800180030003000300000000000000008A
:101C5000000000000000000F801FC038E030603836
:101C6000E01FC01FC038E03060306038E01FC00F98
:101C70008000000000000000000000000000000FD5
:101C8000001FC038C03060306038E01FE00F6000D7
:101C9000E000C003C03F803E0000000000000000E4
:101CA0000000000000000000000000000000000331
:101CB0008003800380000000000000038003800395
:101CC0008000000000000000000000000000000094
:101CD0000000000000000001C001C001C0000000C1
:101CE000000000038003000600060004000000005E
:101CF0000000000000000000000000003000F003C1
:101D0000C007001C0078001C00070003C000F000A2
:101D10003000000000000000000000000000000093
:101D2000000000000000007FF07FF0000000007F56
:101D3000F07FF00000000000000000000000000044
:101D4000000000000000000000000030003C000F18
:101D500000038000E0007800E003800F003C0030CA
:101D60000000000000000000000000000000000073
:101D7000000F801FC018601860006001C00380035E
:101D80000000000000070007000000000000000045
:101D90000000000000000003800C8008401040108C
:101DA0004011C012401240124011C010000800083B
:101DB000400780000000000000000000000000005C
:101DC000001F801F80038006C006C00CC00C601F6F
:101DD000E01FE030307878787800000000000000E4
:101DE0000000000000000000003F803FC0186018A5
:101DF0006018E01FC01FE01870183018303FF03F27
:101E0000E0000000000000000000000000000000F2
:101E10000007B00FF01C7038303000300030003058
:101E20000038301C700FE007C00000000000000008
:101E30000000000000000000007F807FC030E03024
:101E4000703030303030303030307030E07FC07F34
:101E50008000000000000000000000000000000002
:101E6000003FF03FF01830183019801F801F801994
:101E700080183018303FF03FF000000000000000F4
:101E80000000000000000000003FF03FF018301894
:101E90003019801F801F801980180018003F003FF4
:101EA0000000000000000000000000000000000032
:101EB0000007B01FF0187030303000300031F831BA
:101EC000F8303018301FF007C0000000000000009C
:101ED0000000000000000000003CF03CF01860181A
:101EE0006018601FE01FE01860186018603CF03C4C
:101EF000F0000000000000000000000000000000F2
:101F0000001FE01FE00300030003000300030003C1
:101F100000030003001FE01FE000000000000000BD
:101F200000000000000000000003F803F80060005B
:101F3000600060006030603060306030E03FC00FB3
:101F40008000000000000000000000000000000011
:101F5000003EF83EF818E019801B001F001D801895
:101F6000C018C018603E783E380000000000000035
:101F70000000000000000000003F003F000C000CCB
:101F8000000C000C000C000C300C300C303FF03F0B
:101F9000F000000000000000000000000000000051
:101FA000007878787838703CF034B037B037B03398
:101FB00030333030307CF87CF80000000000000046
:101FC00000000000000000000039F03DF01C601E21
:101FD000601E601B601B6019E019E018E03EE03EE7
:101FE0006000000000000000000000000000000091
:101FF0000007800FC01CE038703030303030303097
:102000003038701CE00FC0078000000000000000A6
:102010000000000000000000003FC03FE018701802
:1020200030183018701FE01FC0180018003F003F24
:1020300000000000000000000000000000000000A0
:102040000007800FC01CE038703030303030303046
:102050003038701CE00FC0078007B00FF00CE000B4
:102060000000000000000000003FC03FE0187018B2
:102070003018701FE01FC018E0186018703E383E1E
:102080001800000000000000000000000000000038
:10209000000FB01FF03870303038001F8007E000AC
:1020A00070303038703FE037C000000000000000A2
:1020B0000000000000000000003FF03FF03330332C
:1020C000303330030003000300030003000FC00F90
:1020D000C000000000000000000000000000000040
:1020E000003CF03CF0186018601860186018601828
:1020F0006018601CE00FC0078000000000000000B6
:1021000000000000000000000078F078F03060303F
:102110006018C018C00D800D800D800700070007F3
:1021200000000000000000000000000000000000AF
:10213000007C7C7C7C301833983398339836D816E2
:10214000D01C701C701C70183000000000000000D3
:1021500000000000000000000078F078F030601807
:10216000C00D80070007000D8018C0306078F0783F
:10217000F00000000000000000000000000000006F
:10218000003CF03CF018600CC0078007800300039F
:1021900000030003000FC00FC0000000000000009B
:1021A0000000000000000000001FE01FE0186018A1
:1021B000C001800300030006000C6018601FE01FD0
:1021C000E00000000000000000000000000000032C
:1021D000C003C00300030003000300030003000367
:1021E000000300030003000300030003C003C0005A
:1021F0000000000000180018000C000C000C000685
:10220000000600030003000180018000C000C00040
:10221000C000600060000000000000000000000F2F
:10222000000F00030003000300030003000300038A
:1022300000030003000300030003000F000F000071
:1022400000000000000000020007000D8018C030F0
:1022500060202000000000000000000000000000DE
:10226000000000000000000000000000000000006E
:10227000000000000000000000000000000000005E
:10228000000000000000000000000000000000004E
:1022900000FFFCFFFC0000040003000080000000C1
:1022A000000000000000000000000000000000002E
:1022B000000000000000000000000000000000001E
:1022C000000000000000000FC01FE000600FE01FD2
:1022D000E0386030E03FF01F7000000000000000B8
:1022E0000000000000000070007000300030003777
:1022F000803FE0386030303030303038607FE07719
:10230000800000000000000000000000000000004D
:102310000000000000000007B01FF018303030301F
:1023200000300038301FF00FC00000000000000037
:102330000000000000000000700070003000300756
:10234000B01FF0187030303030303038701FF80760
:10235000B8000000000000000000000000000000C5
:102360000000000000000007801FE018603FF03F01
:10237000F0300018301FF007C0000000000000001F
:102380000000000000000003F007F0060006001F38
:10239000E01FE0060006000600060006001FE01F22
:1023A000E00000000000000000000000000000004D
:1023B0000000000000000007B81FF818703030302F
:1023C00030303018701FF007B0003000700FE00F91
:1023D000C000000000000038003800180018001B82
:1023E000C01FE01C6018601860186018603CF03C6A
:1023F000F0000000000000000000000000000003EA
:10240000000300000000001F001F00030003000382
:1024100000030003001FE01FE000000000000000B8
:102420000000000000000003000300000000001F87
:10243000C01FC000C000C000C000C000C000C0007D
:10244000C000C001C03F803F000000000000003815
:10245000003800180018001BE01BE01B001E001EC7
:10246000001B00198039F039F00000000000000066
:10247000000000000000001F001F00030003000315
:10248000000300030003000300030003001FE01F1C
:10249000E00000000000000000000000000000005C
:1024A000000000000000007EE07FF0333033303366
:1024B00030333033307BB87BB800000000000000C0
:1024C0000000000000000000000000000000003BD1
:1024D000C03FE01C6018601860186018603CF03C59
:1024E000F0000000000000000000000000000000FC
:1024F0000000000000000007801FE018603030304E
:1025000030303018601FE00780000000000000003D
:102510000000000000000000000000000000007744
:10252000807FE0386030303030303038603FE03726
:1025300080300030007C007C0000000000000000C3
:102540000000000000000007B81FF818703030309D
:1025500030303018701FF007B00030003000F80045
:10256000F800000000000000000000000000003C37
:10257000E03DF00F300E000C000C000C003FC03F9F
:10258000C00000000000000000000000000000008B
:102590000000000000000007E01FE018601E000FB0
:1025A000C001E018601FE01F800000000000000074
:1025B0000000000000000000000C000C000C003FB8
:1025C000E03FE00C000C000C000C000C300FF0079A
:1025D000C00000000000000000000000000000003B
:1025E0000000000000000038E038E01860186018B3
:1025F00060186018E01FF00F70000000000000007D
:102600000000000000000000000000000000007852
:10261000F078F0306018C018C00D800D80070007FA
:1026200000000000000000000000000000000000AA
:102630000000000000000078F078F032603260376F
:10264000E01DC01DC018C018C00000000000000040
:102650000000000000000000000000000000003C3E
:10266000F03CF00CC00780030007800CC03CF03C3D
:10267000F00000000000000000000000000000006A
:102680000000000000000078F078F0306018C018FA
:10269000C00D800F800700060006000C007F007F41
:1026A0000000000000000000000000000000001F0B
:1026B000E01FE018C00180030006000C601FE01F4F
:1026C000E000000000000000000000000000000129
:1026D000C003C00300030003000300030007000E53
:1026E000000700030003000300030003C001C00053
:1026F00000000000000000030003000300030003CB
:1027000000030003000300030003000300030003B1
:102710000003000300030000000000000000001C94
:10272000001E000600060006000600060007000363
:1027300080070006000600060006001E001C0000C0
:102740000000000000000000000000000000000089
:10275000000E003F3033F001E000000000000000F8
:102760000000000000000000000000000000000069
:102770000000000000000000000000000000000059
:102780000000000000000000000000000000000049
:102790000000000000000000000000000000000039
:1027A0000000000000000000000000000000000029
:1027B0000000000000000000000000038000038013
:1027C000000380000380000380000380000380007A
:1027D00003800003800001000001000000000000F1
:1027E00000000380000380000000000000000000E3
:1027F00000000000000000000000000000000000D9
:102800000000000000000E70000E70000E7000044A
:10281000200004200004200004200000000000002C
:1028200000000000000000000000000000000000A8
:102830000000000000000000000000000000000098
:1028400000000000000000000000000660000660BC
:10285000000660000660000660003FF8003FF800D8
:102860000660000CC0003FF8003FF8000CC0000CF0
:10287000C0000CC0000CC0000CC000000000000034
:102880000000000000000000000000000000000048
:1028900001800001800007B0000FF00018700018E0
:1028A00070001C00000F800007E00000F0001830EE
:1028B000001C30001C70001FE0001BC000018000E5
:1028C0000180000180000180000000000000000085
:1028D00000000000000000000000000780000FC0A2
:1028E000001CE0001860001860001CE0000FF800F9
:1028F00007E0001FF0000738000618000618000760
:10290000380003F00001E0000000000000000000BB
:1029100000000000000000000000000000000000B7
:1029200000000000000000000003F00007F0000CB1
:1029300060000C00000C00000600000700000F9C67
:10294000001DFC0018F0001870000FFC0007DC00F0
:102950000000000000000000000000000000000077
:1029600000000000000000000000000000000380E4
:10297000000380000380000100000100000100004E
:102980000100000000000000000000000000000046
:102990000000000000000000000000000000000037
:1029A0000000000000000000000000000000000027
:1029B00000000000180000380000700000F0000067
:1029C000E00000E00001C00001C00001C00001C043
:1029D0000001C00001C00000E00000E00000700045
:1029E0000070000038000018000000000000000027
:1029F00000000000000000000000001800001C00A3
:102A0000000E00000E000007000007000003800019
:102A10000380000380000380000380000380000720
:102A200000000700000F00000E00001C000018004E
:102A30000000000000000000000000000000000096
:102A40000000000180000180000180001DB8001F0F
:102A5000F80007E00003C00003C000066000066045
:102A60000000000000000000000000000000000066
:102A70000000000000000000000000000000000056
:102A80000000000000000000000000000000000046
:102A900000018000018000018000018000018000B1
:102AA0003FFC003FFC00018000018000018000012C
:102AB0008000018000000000000000000000000015
:102AC0000000000000000000000000000000000006
:102AD00000000000000000000000000000000000F6
:102AE00000000000000000000000000000000000E6
:102AF0000000000000000000E00000C00001C00075
:102B000001800001800003000003000000000000BD
:102B100000000000000000000000000000000000B5
:102B200000000000000000000000000000000000A5
:102B30001FF8001FF8000000000000000000000067
:102B40000000000000000000000000000000000085
:102B50000000000000000000000000000000000075
:102B60000000000000000000000000000000000065
:102B70000000000000000000000000000000000055
:102B80000000000000000003C00003C00003C000FC
:102B90000000000000000000000000000000000035
:102BA000000000000000180000180000380000308D
:102BB0000000700000600000600000C00000C00065
:102BC00001800001800003000003000006000006F1
:102BD00000000E00000C00001C000018000018008F
:102BE00000000000000000000000000000000000E5
:102BF00000000003C00007E0000C30000C3000189B
:102C000018001818001818001818001818001818BC
:102C1000001818000C30000C300007E00003C00062
:102C200000000000000000000000000000000000A4
:102C3000000000000000000000000000800007808D
:102C4000001F80001D8000018000018000018000C5
:102C500001800001800001800001800001800001EE
:102C600080001FF8001FF8000000000000000000B6
:102C70000000000000000000000000000000000054
:102C800000000007C0001FF000383000301800308E
:102C9000180000180000300000600001C000038030
:102CA000000600000C00001800003FF8003FF8008C
:102CB0000000000000000000000000000000000014
:102CC000000000000000000000000003C0000FE052
:102CD000000C700000300000300000600003C000F5
:102CE00003E0000070000018000018000018001831
:102CF00038001FF0000FC0000000000000000000BE
:102D000000000000000000000000000000000000C3
:102D100000000000E00001E00001E00003600006A8
:102D200060000660000C60000C60001860003060FD
:102D3000003FF8003FF80000600003F80003F800CF
:102D40000000000000000000000000000000000083
:102D500000000000000000000000001FF0001FF055
:102D6000001800001800001800001BC0001FF00031
:102D70001C30000018000018000018000018003077
:102D800030003FF0000FC000000000000000000015
:102D90000000000000000000000000000000000033
:102DA00000000000F80003F8000700000E00000C0F
:102DB00000001800001BC0001FF0001C3000181895
:102DC000001818001818000C38000FF00003E0007D
:102DD00000000000000000000000000000000000F3
:102DE00000000000000000000000001FF8001FF8B5
:102DF0000018180018380000300000300000700083
:102E000000600000600000E00000C00000C00001A1
:102E1000C0000180000180000000000000000000F0
:102E200000000000000000000000000000000000A2
:102E300000000007E0000FF0001C38001818001810
:102E400018000C300007E00007E0000C30001818F4
:102E5000001818001818001C38000FF00007E000D8
:102E60000000000000000000000000000000000062
:102E7000000000000000000000000007C0000FF08C
:102E8000001C30001818001818001818000C380022
:102E90000FF80003D8000018000030000070000098
:102EA000E0001FC0001F0000000000000000000044
:102EB0000000000000000000000000000000000012
:102EC00000000000000000000000000000000003FF
:102ED000C00003C00003C0000000000000000000AC
:102EE0000000000000000003C00003C00003C00099
:102EF00000000000000000000000000000000000D2
:102F000000000000000000000000000000000000C1
:102F10000000000000000000F00000F00000F000E1
:102F200000000000000000000000000000E00001C0
:102F3000C0000180000180000300000200000000CA
:102F40000000000000000000000000000000000081
:102F5000000000000000000000001C00003C000019
:102F6000F00003C0000F00003C0000F000003C0037
:102F7000000F000003C00000F000003C00001C0037
:102F80000000000000000000000000000000000041
:102F90000000000000000000000000000000000031
:102FA000000000000000000000007FFC007FFC002B
:102FB0000000000000007FFC007FFC00000000001B
:102FC0000000000000000000000000000000000001
:102FD00000000000000000000000000000000000F1
:102FE0000000000000000000007000007800001EDB
:102FF000000007800001E000007800001E0000785B
:103000000001E0000780001E000078000070000052
:1030100000000000000000000000000000000000B0
:10302000000000000000000000000000000007C0D9
:10303000000FE00018700018300018300000700019
:1030400000E00003C0000380000300000000000057
:103050000000070000070000000000000000000062
:103060000000000000000000000000000000000060
:1030700000000003E00007F0000E38000C180018F4
:10308000780018F80019D8001998001998001998B4
:103090000018F8001878001800000C00000E180046
:1030A00007F80003E000000000000000000000003E
:1030B00000000000000000000000000000001F8071
:1030C000001FC00001C00003600003600006300064
:1030D0000630000C30000FF8001FF800180C00300C
:1030E0000C00FC7F00FC7F000000000000000000DE
:1030F00000000000000000000000000000000000D0
:103100000000000000007FE0007FF0001838001889
:1031100018001818001838001FF0001FF800181CBD
:1031200000180C00180C00180C007FF8007FF0004D
:10313000000000000000000000000000000000008F
:10314000000000000000000000000000000003EC90
:10315000000FFC001C1C00180C00300C003000009C
:10316000300000300000300000300000180C001C5F
:103170001C000FF80003F000000000000000000039
:10318000000000000000000000000000000000003F
:103190000000000000007FC0007FF0001838001819
:1031A0001800180C00180C00180C00180C00180C53
:1031B00000180C001818001838007FF0007FE0009D
:1031C00000000000000000000000000000000000FF
:1031D00000000000000000000000000000007FF878
:1031E000007FF800181800181800199800198000BE
:1031F0001F80001F800019800019980018180018FF
:1032000018007FF8007FF8000000000000000000B8
:1032100000000000000000000000000000000000AE
:103220000000000000003FFC003FFC000C0C000C04
:103230000C000CCC000CC0000FC0000FC0000CC074
:10324000000CC0000C00000C00003FC0003FC0009C
:10325000000000000000000000000000000000006E
:10326000000000000000000000000000000003EC6F
:10327000000FFC001C1C00180C00300C003000007B
:1032800030000030FE0030FE00300C00380C001C16
:103290001C000FFC0003F000000000000000000014
:1032A000000000000000000000000000000000001E
:1032B0000000000000007E7E007E7E0018180018CE
:1032C00018001818001818001FF8001FF800181828
:1032D000001818001818001818007E7E007E7E0066
:1032E00000000000000000000000000000000000DE
:1032F00000000000000000000000000000001FF8B7
:10330000001FF800018000018000018000018000A2
:103310000180000180000180000180000180000127
:1033200080001FF8001FF8000000000000000000EF
:10333000000000000000000000000000000000008D
:1033400000000000000007FE0007FE000030000043
:1033500030000030000030000030003030003030ED
:10336000003030003030003060003FE0000F80005F
:10337000000000000000000000000000000000004D
:1033800000000000000000000000000000007F3E80
:10339000007F3E0018300018600018C0001980003F
:1033A0001B80001FC0001CE00018700018300018BF
:1033B00038007F1F007F1F00000000000000000099
:1033C00000000000000000000000000000000000FD
:1033D0000000000000007F80007F80000C00000CD7
:1033E00000000C00000C00000C00000C00000C0C95
:1033F000000C0C000C0C000C0C007FFC007FFC008F
:1034000000000000000000000000000000000000BC
:103410000000000000000000000000000000F00FAD
:1034200000F81F00381C003C3C003C3C00366C009F
:10343000366C0033CC0033CC00318C00300C0030C3
:103440000C00FE7F00FE7F00000000000000000076
:10345000000000000000000000000000000000006C
:1034600000000000000078FE0078FE001C18001E1E
:1034700018001F18001B18001B980019D80018D836
:103480000018F8001878001838007F18007F18001E
:10349000000000000000000000000000000000002C
:1034A000000000000000000000000000000003C059
:1034B000000FF0001C3800181800381C00300C00F9
:1034C000300C00300C00300C00381C001818001CA8
:1034D00038000FF00003C0000000000000000000F2
:1034E00000000000000000000000000000000000DC
:1034F0000000000000003FF0003FF8000C1C000C32
:103500000C000C0C000C0C000C18000FF8000FE065
:10351000000C00000C00000C00003FC0003FC00089
:10352000000000000000000000000000000000009B
:10353000000000000000000000000000000003C0C8
:10354000000FF0001C3800181800381C00300C0068
:10355000300C00300C00300C00381C001818001C17
:1035600038000FF00007C00007CC000FFC000C383B
:10357000000000000000000000000000000000004B
:103580000000000000007FE0007FF0001838001805
:1035900018001818001838001FF0001FC00018E0AD
:1035A000001870001830001838007F1E007F0E00D1
:1035B000000000000000000000000000000000000B
:1035C000000000000000000000000000000007D81C
:1035D000000FF8001C38001818001818001E000012
:1035E0000FC00003F0000078001818001818001C25
:1035F00038001FF0001BE000000000000000000089
:1036000000000000000000000000000000000000BA
:103610000000000000003FFC003FFC00318C003146
:103620008C00318C00318C00018000018000018011
:10363000000180000180000180000FF0000FF00009
:10364000000000000000000000000000000000007A
:1036500000000000000000000000000000007E7E6E
:10366000007E7E001818001818001818001818009E
:103670001818001818001818001818001818000C4E
:1036800030000FF00003C000000000000000000048
:10369000000000000000000000000000000000002A
:1036A0000000000000007F7F007F7F00180C000CEE
:1036B00018000C18000C18000630000630000360DB
:1036C0000003600003600001C00001C00000800032
:1036D00000000000000000000000000000000000EA
:1036E0000000000000000000000000000000FE3F9D
:1036F00080FE3F8030060030060030860019CC0086
:1037000019CC001B6C001B6C001E7C000E38000ED8
:1037100038000C18000C1800000000000000000029
:103720000000000000000000000000000000000099
:103730000000000000007E7E007E7E001818000C55
:10374000300006600003C00001800001800003C05B
:10375000000660000C30001818007E7E007E7E009F
:103760000000000000000000000000000000000059
:1037700000000000000000000000000000007C7E4F
:10378000007C7E001818000C300006600006600007
:1037900003C0000180000180000180000180000161
:1037A00080000FF0000FF00000000000000000009B
:1037B0000000000000000000000000000000000009
:1037C0000000000000001FF8001FF8001818001883
:1037D000300018600018C0000180000300000618C7
:1037E000000C18001818003018003FF8003FF800CF
:1037F00000000000000000000000000000000000C9
:10380000000000000000000000000001F00001F0D6
:103810000001800001800001800001800001800023
:103820000180000180000180000180000180000112
:10383000800001800001800001800001F00001F0A3
:103840000000000000000000000000000018000060
:103850001800001C00000C00000E0000060000060E
:10386000000003000003000001800001800000C090
:103870000000C00000600000600000700000300028
:1038800000380000180000180000000000000000D0
:1038900000000000000000000000000F80000F800A
:1038A0000001800001800001800001800001800093
:1038B0000180000180000180000180000180000182
:1038C00080000180000180000180000F80000F80D7
:1038D00000000000000000000000000000000000E8
:1038E00000800001C00003E0000770000630000CFB
:1038F0001800180C00100400000000000000000078
:1039000000000000000000000000000000000000B7
:1039100000000000000000000000000000000000A7
:103920000000000000000000000000000000000097
:103930000000000000000000000000000000000087
:103940000000000000000000000000000000000077
:103950000000000000000000000000000000000067
:1039600000000000000000FFFF00FFFF000000005B
:1039700003000003800000E0000060000000000081
:103980000000000000000000000000000000000037
:103990000000000000000000000000000000000027
:1039A0000000000000000000000000000000000017
:1039B0000000000000000000000000000000000007
:1039C000000000000000000FC0001FE000003000F9
:1039D00000300007F0001FF00038300030300030B9
:1039E00070001FFC000FBC00000000000000000081
:1039F00000000000000000000000000000000000C7
:103A00000000007800007800001800001800001B7B
:103A1000E0001FF8001C1800180C00180C00180C0F
:103A200000180C00180C001C18007FF8007BE00048
:103A30000000000000000000000000000000000086
:103A40000000000000000000000000000000000076
:103A50000000000000000003EC000FFC001C1C0034
:103A6000380C00300C00300000300000380C001C16
:103A70001C000FF80003F000000000000000000030
:103A80000000000000000000000000000000000036
:103A900000000000780000780000180000180007FF
:103AA000D8001FF8001838003018003018003018FF
:103AB000003018003018001838001FFE0007DE0024
:103AC00000000000000000000000000000000000F6
:103AD00000000000000000000000000000000000E6
:103AE0000000000000000007E0001FF800181800A8
:103AF000300C003FFC003FFC00300000300000189C
:103B00000C001FFC0007F000000000000000000097
:103B100000000000000000000000000000000000A5
:103B200000000001FC0003FC000600000600003F4E
:103B3000F8003FF80006000006000006000006003E
:103B4000000600000600000600003FF0003FF00005
:103B50000000000000000000000000000000000065
:103B60000000000000000000000000000000000055
:103B70000000000000000007DE001FFE00183800F3
:103B800030180030180030180030180030180018B5
:103B900038001FF80007D80000180000180000388F
:103BA000000FF0000FC00000000000000000000047
:103BB0000000007800007800001800001800001BCA
:103BC000E0001FF0001C3800181800181800181822
:103BD000001818001818001818007E7E007E7E005D
:103BE00000000000000000000000000000000000D5
:103BF00000000000000000000000000180000180C3
:103C0000000000000000001F80001F8000018000F5
:103C1000018000018000018000018000018000011E
:103C200080003FFC003FFC0000000000000000009E
:103C30000000000000000000000000000000000084
:103C400000000000C00000C0000000000000001FD5
:103C5000F0001FF0000030000030000030000030A5
:103C60000000300000300000300000300000300064
:103C70000030000030000070001FE0001F800000D6
:103C800000000000000000000000003C00003C00BC
:103C9000000C00000C00000CF8000CF8000CC00038
:103CA0000D80000F80000F00000F80000DC0000C81
:103CB000E0003C7C003C7C000000000000000000B4
:103CC00000000000000000000000000000000000F4
:103CD0000000001F80001F800001800001800001A3
:103CE00080000180000180000180000180000180CF
:103CF000000180000180000180003FFC003FFC00CB
:103D000000000000000000000000000000000000B3
:103D100000000000000000000000000000000000A3
:103D200000000000000000F77800FFFC0039CC0024
:103D3000318C00318C00318C00318C00318C0031A1
:103D40008C00FDEF00FDEF0000000000000000000F
:103D50000000000000000000000000000000000063
:103D60000000000000000000000000000000007BD8
:103D7000E0007FF0001C3800181800181800181810
:103D8000001818001818001818007E7E007E7E00AB
:103D90000000000000000000000000000000000023
:103DA0000000000000000000000000000000000013
:103DB0000000000000000003C0000FF0001C3800ED
:103DC000381C00300C00300C00300C00381C001C7B
:103DD00038000FF00003C0000000000000000000E9
:103DE00000000000000000000000000000000000D3
:103DF0000000000000000000000000000000007B48
:103E0000E0007FF8001C1800180C00180C00180CBB
:103E100000180C00180C001C18001FF8001BE00014
:103E20001800001800001800007F00007F0000004C
:103E30000000000000000000000000000000000082
:103E40000000000000000007DE001FFE0018380020
:103E500030180030180030180030180030180018E2
:103E600038001FF80007D8000018000018000018DC
:103E70000000FE0000FE0000000000000000000046
:103E80000000000000000000000000000000003EF4
:103E900078003EFC0007CC0007000006000006008A
:103EA000000600000600000600003FF0003FF000A2
:103EB0000000000000000000000000000000000002
:103EC00000000000000000000000000000000000F2
:103ED0000000000000000007F8000FF800181800AC
:103EE0001818001F80000FF00000F80018180018C4
:103EF00038001FF0001FE00000000000000000007C
:103F000000000000000000000000000000000000B1
:103F10000000000C00000C00000C00000C00003F32
:103F2000F0003FF0000C00000C00000C00000C0042
:103F3000000C00000C00000C1C0007FC0003F0004B
:103F40000000000000000000000000000000000071
:103F50000000000000000000000000000000000061
:103F60000000000000000078780078780018180041
:103F70001818001818001818001818001818001839
:103F800038000FFE0007DE00000000000000000007
:103F90000000000000000000000000000000000021
:103FA0000000000000000000000000000000007C95
:103FB0003E007C3E001818001818000C30000C3031
:103FC0000006600006600007E00003C00003C000B8
:103FD00000000000000000000000000000000000E1
:103FE00000000000000000000000000000000000D1
:103FF00000000000000000783C00783C0031180010
:104000003398003398001AB0001EF0001EF0001C18
:1040100060000C60000C6000000000000000000068
:104020000000000000000000000000000000000090
:104030000000000000000000000000000000003E42
:104040007C003E7C000C300006600003C000018054
:104050000003C0000660000C30003E7C003E7C0087
:104060000000000000000000000000000000000050
:104070000000000000000000000000000000000040
:10408000000000000000007E1F007E1F00180C00D2
:104090000C18000C18000630000630000360000306
:1040A000E00001C00000C0000180000180000300AA
:1040B000003FC0003FC00000000000000000000002
:1040C0000000000000000000000000000000001FD1
:1040D000F8001FF80018300018600000C0000180D0
:1040E000000300000618000C18001FF8001FF8005D
:1040F00000000000000000000000000000000000C0
:10410000000000000000000000000000E00001E0EE
:10411000000180000180000180000180000180001A
:10412000018000038000070000038000018000017F
:10413000800001800001800001800001E00000E0BB
:10414000000000000000000000000000000000006F
:10415000000000018000018000018000018000015A
:10416000800001800001800001800001800001804A
:1041700000018000018000018000018000018000BA
:1041800001800001800001800000000000000000AC
:104190000000000000000000000000070000078091
:1041A000000180000180000180000180000180008A
:1041B00001800001C00000E00001C000018000019A
:1041C000800001800001800001800007800007005E
:1041D00000000000000000000000000000000000DF
:1041E00000000000000000000000000000000000CF
:1041F00000000000000E00001F18003BB80031F066
:104200000000E000000000000000000000000000CE
:10421000000000000000000000000000000000009E
:1042200000000000000000004842000800000020DC
:1042300044000000F41500088C42000844000020EF
:104240002C1B0000041600080000024000010000C2
:1042500000000240000400000000024000020000D4
:1042600000000240000800000100000010000000F3
:10427000000000000024F400951800080E0014004F
:0C4280006D27000811001800000000006D
:04000005080001D915
:00000001FF
