:020000040800F2
:10000000701B0020ED010008A3150008EB14000888
:10001000A1150008730700088919000800000000F6
:10002000000000000000000000000000B1180008FF
:100030007507000800000000C1170008B318000889
:10004000070200080702000807020008070200086C
:10005000070200080702000807020008070200085C
:10006000070200080702000807020008070200084C
:10007000070200080702000807020008070200083C
:10008000070200080702000807020008070200082C
:10009000070200080702000807020008070200081C
:1000A000070200080702000807020008070200080C
:1000B00007020008070200080702000807020008FC
:1000C00007020008070200080702000807020008EC
:1000D00007020008070200080702000807020008DC
:1000E00007020008070200080702000807020008CC
:1000F00007020008070200080702000807020008BC
:1001000007020008070200080702000807020008AB
:10011000070200080702000807020008070200089B
:10012000070200080702000807020008070200088B
:10013000070200080702000807020008070200087B
:10014000070200080702000807020008070200086B
:10015000070200080702000807020008070200085B
:10016000070200080702000807020008070200084B
:10017000070200080702000800000000000000005D
:10018000070200080702000807020008070200082B
:10019000070200080702000800000000070200082C
:1001A000070200080702000800000000000000002D
:1001B000070200080000000000000000070200081D
:1001C00007020008070200080702000807020008EB
:1001D0000702000807020008DFF80CD000F048FA18
:1001E00000480047E5220008701B002006488047B1
:1001F00006480047FEE7FEE7FEE7FEE7FEE7FEE70C
:10020000FEE7FEE7FEE7FEE735190008D901000822
:100210002DE9F05F0546002092469B46884606463B
:10022000814640241BE0284641464746224600F0CE
:1002300057F853465A46C01A914110D311461846F2
:10024000224600F03EF82D1A67EB01084F46224681
:100250000120002100F035F817EB00094E41201E67
:10026000A4F10104DFDC484631462A464346BDE896
:10027000F09FD2B201E000F8012B491EFBD270477B
:100280000022F6E710B513460A4604461946FFF762
:10029000F0FF204610BD30B50B460146002020225D
:1002A000012409E021FA02F59D4205D303FA02F583
:1002B000491B04FA02F52844151EA2F10102F1DCE3
:1002C00030BD202A04DB203A00FA02F100207047FA
:1002D0009140C2F1200320FA03F319439040704784
:1002E000202A04DB203A21FA02F00021704721FA8B
:1002F00002F3D040C2F120029140084319467047F2
:100300002DE9FE4F804681EA0300C00F0C460090A5
:1003100021F0004123F00045B8EB0200A94105D2CD
:100320004046214690461C460B46024623F00040BC
:10033000104347D0270DC7F30A00C3F30A510290B8
:10034000401A019040286BDAC3F3130040F4801B7D
:100350000098924620B10023D2EB030A63EB0B0B0B
:1003600001985946C0F140025046FFF7AAFF0646E1
:100370000D4650465946019A00F08CF910EB0800E2
:100380006141002487EA115284EAE7731A4340D09E
:10039000009A62B3019A012A4FEA075215DC001B4A
:1003A00061EB02014FF0004202EA0752CDE9004240
:1003B000001C41F5801132462B4600F08CF903B049
:1003C000BDE8F08F40462146F9E7001B61EB0201D2
:1003D000001C41F5801300185B412018A2F500179E
:1003E00047EB030140EAD570B6196D4111E06D0885
:1003F0004FEA360645EAC0754FEA0752001B61EB2B
:100400000201001C41F5801149084FEA3000001933
:10041000514132462B4603B0BDE8F04F00F04CB9D5
:100420000098012240000023D0EB020263EBE0734E
:10043000009821464FEAE074B8EB000061EB04013C
:10044000E9E783F000435BE781F0004158E72DE9DD
:10045000FE4F81EA030404F0004421F000410094BF
:100460004FF0000B23F0004350EA01045ED052EA43
:1004700003045BD0C3F30A54C1F30A552C44A4F21D
:10048000F3340194A0FB0254C1F3130141F4801131
:10049000C3F3130343F4801301FB024400FB034E38
:1004A000840A970A44EA815447EA8357A4FB076801
:1004B00002958D0A05FB07854FEA932C04FB0C542B
:1004C0002705029D4FEA065847EA1637B5EB08059F
:1004D0006EEB070C870E920E47EA811742EA8312F1
:1004E000A7FB0201B6EB0B0164EB00042B0D43EA02
:1004F0000C335E1844EB1C50DA465146E7FB020110
:10050000C5F313044FEA0B3343EA14534FEA0432A2
:10051000019C43EA0603A4F10C040294009CCDE97B
:1005200000B400F0D8F803B0BDE8F08F0020014619
:10053000F9E72DE9F04D81EA030404F0004B21F0C6
:10054000004514464FF0000A23F0004150EA05022E
:1005500020D054EA01021DD0C5F30A570246C5F364
:100560001303C1F31300C1F30A5640F4801543F49A
:100570008013A7EB0608101BD64608F2FD3873EB74
:10058000050002D308F1010801E092185B41B8F1BF
:10059000000F03DA00200146BDE8F08D00204FF483
:1005A0008011064684460EE0171B73EB050705D342
:1005B000121B63EB050306434CEA010C49084FEAA2
:1005C000300092185B4150EA0107EDD152EA030076
:1005D00012D082EA040083EA0501084305D0101B0B
:1005E000AB4106D20122002306E000224FF0004377
:1005F00002E06FF0010253101AEB06004CEB0851B9
:1006000010EB0A0041EB0B01BDE8F04D00F054B8CF
:10061000C1F30A52C1F3130140F2FF3341F48011D8
:100620009A4202DA00200146704740F233439A4270
:10063000A2F2334202DC5242FFF752BEFFF741BE44
:1006400030B5041E71F1000404DB4FF00044404259
:1006500064EB0101141E73F1000405DB1C464FF02E
:100660000043524263EB0403994208BF904230BDFD
:10067000064C074D06E0E06840F0010394E80700EF
:1006800098471034AC42F6D3FFF7AAFD404F00085C
:10069000604F0008202A06DBCB17203A41FA02F00F
:1006A00043EAE07306E041FA02F3D040C2F12002CF
:1006B000914008431946704710B5141E73F10004A9
:1006C00008DA401C41F1000192185B411A4301D144
:1006D00020F0010010BD2DE9F04D92469B4611B16E
:1006E000B1FA81F202E0B0FA80F220329046FFF7D0
:1006F000E8FD04460F4640EA0A0041EA0B01534672
:100700005A46084313D0114653EA010019D0C8F1E4
:1007100040025046FFF7E4FD05460E465046594656
:100720004246FFF7CEFD084305D0012004E02046F5
:100730003946BDE8F08D0020054346EAE0762C43BB
:1007400037430A986305E40AA0EB08000022FD0A7B
:1007500044EA47540A3002D500200146E9E7010582
:1007600010196941DDE9084500196941BDE8F04DFE
:10077000A2E7FEE7704770B50E0004463BD010219B
:1007800000F00FF9022000F079F9002504E0FF21C4
:10079000204600F011F96D1C2069C11700EB517063
:1007A0006169C0104843A842F1DC022000F066F9FC
:1007B0001321204600F0F5F8022000F05FF9002533
:1007C00004E0715D204600F0F7F86D1C2069C11748
:1007D00000EB51706169C0104843A842F1DC02206F
:1007E00000F04CF91221204600F0DBF82046BDE86D
:1007F000704000F037B970BD10B50446012020608C
:10080000022060600020A0600320E060B020206132
:100810004FF48470606100F053F910B14FF0FF3075
:1008200010BD204600F0ABF80121204600F0B9F8D9
:100830000321204600F0C0F80021204600F0BCF85B
:100840002B21204600F0B8F82B21204600F0B4F808
:100850000921204600F0B0F80621204600F0A1F85A
:100860000721204600F0A8F80721204600F0A4F850
:100870001721204600F0A0F8F821204600F091F85A
:100880006021204600F098F8A521204600F094F859
:10089000F821204600F085F88921204600F08CF8E8
:1008A000A521204600F088F8F821204600F079F8CC
:1008B0009021204600F080F80021204600F07CF8CE
:1008C000F821204600F06DF89321204600F074F8DE
:1008D0002A21204600F070F8F821204600F061F847
:1008E000A021204600F068F8A521204600F064F819
:1008F000F821204600F055F8A121204600F05CF8D0
:100900000021204600F058F8F821204600F049F870
:100910007321204600F050F84121204600F04CF8A9
:100920001621204600F03DF80021204600F044F852
:100930000421204600F035F8204600F093F800210D
:10094000204600F02EF8AF21204600F035F8302187
:10095000204600F026F83A21204600F02DF88221AA
:10096000204600F01EF81221204600F025F8022053
:1009700000F084F8204600F02BF8002010BD10B5E0
:1009800004460068002100F08BF8C82000F076F8DB
:100990000121206800F084F8BDE81040C82000F074
:1009A0006DB810B50C464068002100F079F820467B
:1009B000BDE8104000F09CB810B50C46406801211D
:1009C00000F06EF82046BDE8104000F091B800003D
:1009D00070B505462021FFF7E4FF214E002428468C
:1009E000315DFFF7E9FF641C2C2CF8D32121284648
:1009F000FFF7D7FF1A4E00242C362846315DFFF74B
:100A0000DBFF641C2A2CF8D322212846FFF7C9FFFC
:100A1000134E002456362846315DFFF7CDFF641C87
:100A20002A2CF8D323212846FFF7BBFF0C4E0024C5
:100A300080362846315DFFF7BFFF641C2A2CF8D3AF
:100A400024212846FFF7ADFF054E0024AA3628468C
:100A5000315DFFF7B1FF641C2A2CF8D370BD000094
:100A6000CC24000810B5044602E0642000F006F82B
:100A7000E06800F005F80028F7D010BD00F052B88B
:100A8000064A10B502EBC00152F83000898889B2DD
:100A900000F02CF9012800D0002010BD4C170020D8
:100AA000064B012903EBC00253F83000526891B2A3
:100AB00002D0002200F01FB90122FBE74C170020F2
:100AC0000A480949D0E90023C1E91623D0E90223E5
:100AD000C1E91823D0E90423C1E91A23D0E906208B
:100AE000C1E91C2000207047F416002000000020FF
:100AF00031B50B4C0022A08881B2206800F0FBF8D1
:100B00004FF47A7301226946A4F1580000F02BFCDF
:100B1000A088012281B2206800F0EDF838BD000005
:100B20004C17002070B5044600F0EAF80546601C3A
:100B300002D004480078044400F0E2F8401BA042D0
:100B4000FAD370BD200000202DE9F84FDFF874B112
:100B500000224FF001084FF0030A4FF00F090BF18C
:100B6000040E00BF0B6808FA02F42340A3426ED1C2
:100B70004D68022D01D0122D0ED1D50800EB850C49
:100B8000DCF820505607F70E09FA07F6B5430E6950
:100B9000BE402E43CCF82060066855000F790AFA53
:100BA00005FC07F0030726EA0C06AF403743076051
:100BB0004E68012E05D0022E03D0112E01D0122E28
:100BC0000ED18668CF6826EA0C06AF4037438760AF
:100BD0004668A6430C79C4F300149440344344603F
:100BE000C4688E6824EA0C04AE402643C6604C6894
:100BF000E40060D5344C256845F4804525602468C0
:100C000022F0030504F480440094304C2E19D6F8E9
:100C1000084895072F0F09FA07F5AC432C4DA84259
:100C200001D100251FE02B4DA84201D101251AE07A
:100C3000294DA84201D1022515E0284DA84201D135
:100C4000032510E0264DA84202D104250BE032E036
:100C5000244DA84201D1052505E0234DA84201D12C
:100C6000062500E00725BD402543C6F80858DBF8F7
:100C700000405D464E689C43F60300D51C432C6043
:100C8000DEF8004075464E689C43B60300D51C4311
:100C90002C600C4D08352C684E689C43F60200D53C
:100CA0001C432C60074D0C352C684E689C43B602E3
:100CB00000D51C432C60521C102AFFF453AFBDE832
:100CC000F88F0000003C01404438024000300140F1
:100CD000000002400004024000080240000C0240F4
:100CE0000010024000140240001802400069084051
:100CF00000D0012070470AB1816170470904FBE709
:100D00000148806870470000200000200248816888
:100D10000278114481607047200000200B4810B514
:100D2000016841F400710160016841F48061016073
:100D3000016841F480710160032000F061F8002037
:100D400000F006F800F024F8002010BD003C02403E
:100D500070B50D4D04464FF47A712878B1FBF0F070
:100D60000A490968B1FBF0F000F0ABFB48B9102C60
:100D700007D200222146501E00F022F800206C60AD
:100D800070BD012070BD0000200000202C0000205C
:100D90000A4808B5016841F480410160006800F428
:100DA000804000900548001F016841F080510160BB
:100DB000006800F08050009008BD000044380240F8
:100DC000F0B40E4B1B680C46C3F30223C3F10705B6
:100DD000042D00D90425191D072901D2002300E0A4
:100DE000DB1E012606FA05F1491E214099409E406E
:100DF000761E16403143F0BC00F0ECBD0CED00E077
:100E0000064900F0070208684FF6FF03184040EA61
:100E10000220034A10430860704700000CED00E018
:100E20000000FA052DE9F0470E46050065D0DFF811
:100E30001481D8F80000F7B200F00F00B04207D2DA
:100E400088F80070D8F8000000F00F00B04254D1CC
:100E500028683D4C810712D5400703D5206840F42F
:100E6000E05020602878000703D5206840F46040F7
:100E700020602068A96820F0F000084320602878EE
:100E8000C0072DD0304968680839012812D00228DF
:100E900013D0032811D00968890700292DDA2168A9
:100EA00021F0030101432160FFF72AFF814641F24F
:100EB000883A0EE009688903EFE709688901ECE7E1
:100EC000FFF71EFFA0EB0901514502D90320BDE841
:100ED000F0872068696800F00C00B0EB810FEFD15B
:100EE000D8F80010404601F00F01B14207D9077051
:100EF000006800F00F00B04201D00120E7E7287839
:100F0000400705D52068E96820F4E05008432060D8
:100F10002878000706D52068296920F4604040EA57
:100F2000C100206000F01CF82168084AC1F30311D9
:100F3000515CC840064908600020FFF709FF002007
:100F4000C5E70000003C024008380240A025000828
:100F50002C00002001490120C8647047000047426E
:100F6000154810B5006810F00C02144813D0411059
:100F7000042A0FD0082A0ED10F4C241F22682368A0
:100F800002F03F025B0207D52068C0F38810A0FB87
:100F9000010106E0084610BD2168C1F38811A1FBDC
:100FA00000010023FFF734F92168C1F30141491C16
:100FB0004900B0FBF1F010BD083802400024F400F5
:100FC0002DE9F84F05460078DFF800B3C04CC007A4
:100FD0004AD0DBF800105846C1F38101012908D03E
:100FE0000068C0F3810002280AD1201D0068400279
:100FF00006D52068800337D56868002872D033E0B2
:101000006868B0F5803F10D0B0F5A02F206810D0F0
:1010100020F480302060206820F480202060686800
:10102000A8B1FFF76DFE06460DE0206840F4803061
:10103000F4E740F480202060F7E700BFFFF760FE90
:10104000801B64286FD820688003F7D50CE0FFF779
:1010500057FE064605E000BFFFF752FE801B6428DE
:10106000F0D820688003F7D42878DFF868828007FA
:101070004FF0000940D5DBF80010584611F00C0F76
:1010800009D00068C0F3810002280BD18F48001FEF
:101090000068400206D42068800715D5E86801285A
:1010A00020D111E0E868B8B10120C8F80000FFF7CE
:1010B00027FE064605E000BFFFF722FE801B022840
:1010C000C0D820688007F7D52068296920F0F8008B
:1010D00040EAC10020600FE0C8F80090FFF710FE62
:1010E000064606E0EFE000BFFFF70AFE801B02287D
:1010F00019D820688007F7D42878000722D5734EC6
:10110000754869696C3679B101210160FFF7F8FD16
:10111000074604E0FFF7F4FDC01B022803D830683F
:101120008007F7D50EE089E0C0F80090FFF7E8FDF2
:10113000074604E0FFF7E4FDC01B02287ED83068B4
:101140008007F7D42878400768D5DFF880A100270A
:101150000AF1380ADAF80000C0000BD4DAF80010FF
:1011600041F08051CAF80010DAF80000012700F0C1
:1011700080500090594E3068C00510D4306840F45B
:1011800080703060FFF7BCFD009005E0FFF7B8FD10
:101190000099401A022851D83068C005F6D54B4E48
:1011A000A868683601280FD00528306810D020F0D4
:1011B00001003060306820F004003060A868B8B1E9
:1011C000FFF79EFD00900FE0306840F00100F4E76B
:1011D00040F004003060F7E7FFF792FD0099411AF4
:1011E00041F28830814266D830688007F4D50EE03D
:1011F000FFF786FD009007E0FFF782FD0099411A96
:1012000041F28830814256D830688007F4D42FB13B
:10121000DAF8001021F08051CAF80010A869D0B3A4
:10122000DBF80010C1F3810102294CD002284846A6
:1012300007D0C8F86000FFF763FD00E03BE005461B
:101240003CE04746C8F86000FFF75AFD064604E058
:10125000FFF756FD801B02282DD820688001F7D4A7
:10126000F5E907010843E9681D4A490802EB014115
:10127000AA6841EA82110843297C40EA0160297D7D
:1012800040EA01711148001F016001203866FFF734
:1012900037FD054605E014E0FFF732FD401B02284C
:1012A00009D820688001F7D50BE000BFFFF728FDC3
:1012B000401B022802D90320BDE8F88F2068800176
:1012C000F4D40020F8E70120F6E7000008380240D7
:1012D0000038024000004742800E47420070004044
:1012E0000000FFFF70B5040005D00025A56294F84A
:1012F000510010B106E0012070BD84F85050204626
:1013000000F030F8022084F851002068016821F0D4
:1013100040010160D4E901010843D4E903121143FB
:10132000084361690843218B01F400710843E169B6
:101330000843216A0843A16A084321680860A0693C
:10134000042101EA1040616A08432168486020686E
:10135000C16921F40061C1616565012084F8510013
:10136000002070BD70472DE9F84F044690F85000FA
:1013700000271D461646894601280DD04FF0010B67
:1013800084F850B0FFF7BCFC804694F85100BA4690
:10139000012804D002278EE00220BDE8F88FB9F1C1
:1013A000000F7DD0002E7BD0032084F85100C4F8BC
:1013B00054A0C4F83090A686E686C4F838A0A4F8F5
:1013C0003CA0A4F83EA0C4F844A0C4F840A0A06883
:1013D000B0F5004F04D12068016841F480410160FC
:1013E00020680168490603D4016841F040010160AA
:1013F000E068B0F5006F606803D030B3012E24D0F0
:1014000040E008B1012E1CD1206B21680088C86023
:1014100006E020688168890709D5216B0988C160C9
:10142000206B801C2063E08E401EE08609E0FFF701
:1014300067FCA0EB0800A84202D3681C01D031E091
:101440007DB3E08E0028E4D11FE0206B2168007896
:10145000087306E020688168890709D5216B09783F
:101460000173206B401C2063E08E401EE08609E083
:10147000FFF746FCA0EB0800A84202D3681C01D08D
:1014800010E075B1E08E0028E4D14246294620469E
:1014900000F098F908B120206065A06820B107E04D
:1014A00008E0FFE7032706E02068C1688068009035
:1014B000606D00B1012784F851B084F850A038461F
:1014C0006BE710B5401EB0F1807F01D3012010BD45
:1014D0004FF0E02460610F21601700F07BFA0020DC
:1014E000A06107202061002010BDFEE770B51648FE
:1014F00086B00024016841F0010101600068012507
:1015000000F0010005904FF4E060CDE900050F4EBA
:10151000694603943046FFF717FBE802CDE9000463
:1015200069463046FFF710FBE02000900220CDE92D
:101530000105032003900520049069463046FFF71B
:1015400003FB06B070BD00003038024000000240CE
:10155000104882B00021026842F4805202600068A4
:101560000D4A00F4805000900C4802604FF48272E3
:1015700042604FF40042C0E9022192110161C0E9CA
:101580000512C1610162416281620A21C16202B039
:10159000FFF7A8BE4438024000300140F416002096
:1015A000FEE77047F0B50F46064600250CE0002424
:1015B00006E03B4622462946304600F009F8641C06
:1015C000B068A042F5DC6D1C7068A842EFDCF0BD8D
:1015D00070B500291EDB45688D421BDD002A19DB32
:1015E0008468944216DDCC1701EB547424F0070490
:1015F0000E1B02FB051100684FEAE17201EB52710C
:1016000000EBE10080240178F4400BB1214300E0BD
:10161000A143017070BD00002DE9FF4F93460D9D61
:10162000A888410700D0012101EBD000203B10FB2E
:1016300003F0E988484329680E18002727E00024B2
:101640004FF0800A0BEB0708DFF84C9017E0E0172B
:1016500004EB507020F007003178221A2AFA02F0C9
:10166000014206D00198424601190E9B009800F0F5
:1016700028F804EA0900072800D1761C641CA88811
:10168000A042E4DC2879400700D0761C7F1CE88863
:10169000B842D4DCBDE8FF8F070000802DE9F0419F
:1016A000164680460C46CF18069D06E02B4632466D
:1016B0002146404600F005F8641CA742F6DCBDE870
:1016C000F08130B4C468ACB1012C1ED0022C2AD0F9
:1016D000032C35D1002933DB85688D4230DD002AAB
:1016E0002EDB446894422BDD14466A1A214630BC36
:1016F000FFF76EBF002923DB44688C4220DD002AFF
:101700001EDB846894421BDDF1E7002918DB846846
:101710008C4215DD002A13DB4568954210DD0C462E
:10172000A91A2246E3E700290ADB45688D4207DD56
:10173000002A05DB8468944202DD691AA21AD6E702
:1017400030BC70472DE9FC439046DDE909678146CE
:101750001C460D4609E0424629464846CDE9006749
:10176000FFF75AFFB088641C05442378002BF2D1A0
:10177000BDE8FC832DE9F0410E4680461446D7189B
:10178000069D06E02B46224631464046FFF799FF6C
:10179000641CA742F6DCBDE8F08110B50024C460EB
:1017A0000160510707D0D11702EB517121F00701F9
:1017B000511A521A0832C0E9012310BDC1607047A6
:1017C0007047000038B504461248134B0068B0FB60
:1017D000F3F04FF47A73584300906068B0F5827F5D
:1017E0000DD10B46009200228021204600F016F811
:1017F00070B1606D40F020006065032038BD009836
:1018000030B1401E009020688068C0430006F6D5C5
:10181000002038BD2C00002000366E012DE9F0417B
:101820001D4617460E460446DDF8188008E0681C81
:1018300006D0FFF765FAA0EB0800A8420BD255B11D
:101840002068806836EA000030D00020B842EED12F
:101850000020BDE8F0812068416821F0E00141608E
:101860006068B0F5827F0BD1A068B0F5004F02D060
:10187000B0F5806F04D12068016821F0400101605B
:10188000A06AB0F5005F09D12068016821F4005119
:1018900001602068016841F400510160012084F872
:1018A0005100002084F850000320D2E70120CDE74A
:1018B0007047FFF72BBA000030B593B0342168466B
:1018C000FEF7DEFC14210DA8FEF7DAFC1748002510
:1018D000016841F080510160006800F08050129072
:1018E0001348016841F4404101600068022400F49B
:1018F00040401290CDE900450A200694CDE90750FA
:10190000C820CDE909040B9468460C94FFF758FBF6
:101910000DA90F2081E83100109501210DA8119526
:10192000FFF780FAFFF716FB13B030BD40380240D6
:10193000007000401048016841F4700101600F48D8
:10194000016841F0010101600C4A00210832116078
:1019500002680B4B1A400260031D0A4A1A600268B3
:1019600022F48022026005480C30016002495806CA
:10197000803908607047000088ED00E000380240C0
:10198000FFFFF6FE10300024FEE700000FB4054B09
:1019900010B503A9044A029800F0FEF810BC5DF8E7
:1019A00014FB0000D1220008400000200FB4084BB7
:1019B00010B504A902AA039800F0EEF8044602A9A3
:1019C000002000F080FC204610BC5DF814FB0000F5
:1019D000C72200080907090E002804DB00F1E020F7
:1019E00080F80014704700F00F0000F1E02080F84C
:1019F000141D704702E008C8121F08C1002AFAD15E
:101A000070477047002001E001C1121F002AFBD17E
:101A1000704700002DE9FF5F82B00021DDE904304E
:101A2000020DDDF840B0034318D044F61050A2F286
:101A3000FF3242431514119801281FD0A5EB0B006B
:101A4000401C5FEA000A4FF000064E4FDFF8389165
:101A5000B046504615D5CAF1000413E01198012490
:101A60004AA3012801D16FEA0B010298119AC0E93B
:101A70000031C0E9024206B0BDE8F09FCBF10000A2
:101A8000DFE704460021404A491842EB0450CDE903
:101A9000001012E0E00707D032463B464046494678
:101AA000FEF7D5FC8046894632463B46104619462D
:101AB000FEF7CDFC06460F466410002CEAD1DDE9A6
:101AC0000401DDE90023BAF1000F06DAFEF7BFFCDE
:101AD00042464B46FEF7BBFC05E0FEF72AFD4246B8
:101AE0004B46FEF726FD04460E460022284BFEF725
:101AF000A7FD03D84FF0FF30014607E00022254B39
:101B000020463146FEF7FCFBFEF782FD102409E07B
:101B1000002C0ADB0A220023FEF77AFB039B3032FB
:101B20001A55641E50EA0102F2D1641C039AC4F1F2
:101B300011031444119A012A03D0012208430DD144
:101B40000AE0084304D000204FF0110B119072E717
:101B5000A3EB0B056D1E0DE05B4504DD4FF00002AD
:101B600005F1010504E003DA4FF00002A5F10105DB
:101B7000002AECD002981199C0E90231C0E9004571
:101B800079E70000000014400000F03F3000000042
:101B90000000F0430000E03F2DE9FF4F95B09B4669
:101BA0008946064600250FE2252877D100242746DE
:101BB000F84A0121059400E0044316F8013F203B58
:101BC00001FA03F01042F7D130782A2811D06FF0D3
:101BD0002F033078A0F13002092A16D8059A44F074
:101BE000020402EB820203EB42021044761C0590D1
:101BF000EFE759F8042B0592002A03DA504244F427
:101C00000054059044F00204761C30782E2816D13A
:101C100016F8010F44F004042A280DD06FF02F02AB
:101C20003078A0F13003092B09D807EB870302EBCA
:101C30004303C718761CF3E759F8047B761C307809
:101C40006C280FD006DC4C2817D068280DD06A28E5
:101C500014D104E0742810D07A280FD10DE044F498
:101C600000140AE044F4801401E044F44014727853
:101C7000824202D104F58014761C761C30786628E6
:101C80000BD013DC582877D009DC002875D0452804
:101C9000F6D04628F4D047281AD19DE118E06328F1
:101CA00035D0642879D0652812D195E1702873D099
:101CB00008DC6728F1D069286FD06E280DD06F2816
:101CC00006D1B5E073282CD0752875D0782874D04B
:101CD0005A46179990476D1C75E1C4F302500228CB
:101CE00009D003280DD0D9F8001004280DD00D60BC
:101CF00009F1040967E1D9F80010EA17C1E90052B7
:101D0000F6E7D9F800100D80F2E70D70F0E719F84A
:101D1000041B8DF8001000208DF80100EA46012018
:101D200003E059F804AB4FF0FF3061074FF00001BA
:101D300002D40DE008F101018846B9420FDA80456E
:101D4000F8DB1AF808100029F4D108E008F10101C5
:101D500088468142FADB1AF808100029F6D1059866
:101D60005B46A0EB080721463846179A00F094FA24
:101D7000284400EB080507E04DE029E10DE01AF8E2
:101D8000010B5A4617999047B8F10108F7D25B4604
:101D900021463846179A13E142E00A220092C4F322
:101DA00002524FF0000A022A08D059F804CB032A45
:101DB0004FEAEC710AD00DE029E02AE009F10701B1
:101DC00021F00702F2E802C1914609E00FFA8CFC0B
:101DD0004FEAEC71042A03D14FFA8CFC4FEAEC7104
:101DE000002907DA0A460021DCF1000C61EB020150
:101DF0002D2202E0220504D52B228DF80420012299
:101E000003E0E20701D02022F7E7904659E00A21DB
:101E100002E010220DE010214FF0000A00910BE0CB
:101E200010224FF0000A44F004040827009203E057
:101E300008224FF0000A0092C4F30252022A05D091
:101E400059F804CB0021032A08D009E009F1070161
:101E500021F00702F2E802C1914605E01FFA8CFC6E
:101E6000042A01D10CF0FF0C4FF00008220728D5FE
:101E7000702806D0009B83F0100353EA0A0305D0B4
:101E80000EE040228DF80420012208E05CEA010205
:101E900006D030228DF804208DF8050002229046ED
:101EA000009B83F0080353EA0A030AD15CEA0102AB
:101EB00001D1620705D530228DF804204FF00108CA
:101EC0007F1E582804D034A003900EA802900DE085
:101ED00036A0F9E753466046009AFEF799F9844622
:101EE0000398825C0298401E029002705CEA010036
:101EF000F0D1029806A9081A00F1200A600702D55D
:101F000024F4803400E00127574502DDA7EB0A00E6
:101F100000E0002000EB0A01009005984144401ABF
:101F20000590E00306D45B462146179A059800F019
:101F3000B3F90544002706E001A85A46C05D179989
:101F400090476D1C7F1C4745F6DBE0030CD55B46D4
:101F50002146179A059800F09FF9054404E03020C7
:101F60005A46179990476D1C0099481E0090002909
:101F7000F5DC08E0029802995A460078491C029163
:101F8000179990476D1CBAF10001AAF1010AF1DC22
:101F900065E100000928010030313233343536372D
:101FA00038396162636465660000000030313233A5
:101FB0003435363738394142434445460000000045
:101FC00000F058F90544761C307800287FF4ECAD19
:101FD00019B02846BDE8F08F620700D4062709F142
:101FE000070222F0070CFCE80223E14603F0004858
:101FF0005FEA080C02D00FF2702C0DE05FEA045C7F
:1020000002D50FF2682C07E05FEAC47C02D00FF221
:10201000602C01E0AFF2700C4FF0FF3823F000436A
:10202000CDF850C065280CD006DC452809D04628DC
:102030001DD047283DD13DE0662818D067287ED1C5
:1020400038E00021112F01DB112000E0781CCDE9E0
:10205000000106A90EA8FFF7DDFCDDE90F010E9ACD
:1020600003910021009207F1010A04914DE04FF025
:1020700000400097CDE9011006A90EA8FFF7CAFCA1
:10208000DDE90F0203920E9B11990022DDF80CA0EE
:102090000093049211B9791C00EB010AB7EB0A0016
:1020A00004D4C0F1FF3007F1010A0490AAEB070045
:1020B000019044E0012F00DA01270021112F01DDFA
:1020C000112000E03846CDE9000106A90EA8FFF76F
:1020D000A1FCDDE90F010E9A039100210491009209
:1020E000BA4621070CD40399514500DA8A46BAF161
:1020F000010F05DD009AAAF10101515C302908D0D9
:10210000B84202DA10F1040F06DA0121CDE901101C
:1021100015E0AAF10101E9E7002805DC0499014472
:102120000491AAEB000102E0411C514500DD8A4602
:102130000499401A401C01904FF000400290200783
:1021400004D40198504501DBCDF8048000208DF8BF
:102150004F0002980DF14F07B0F1004F25D02B2012
:102160000E9002984FF0020800280CDA40420290CC
:102170002D200E9007E00A210298FEF78CF83031EE
:10218000029007F8011DB8F10001A8F10108F2DC86
:1021900002980028EFD1791E0E980870307800F070
:1021A000200040F0450007F8020D12A8C01B00F106
:1021B00007081498007800B1012000EB0A0101988B
:1021C00001EBE07105984144401A401E0590E00380
:1021D00006D45B462146179A059800F05DF8054441
:1021E0001498007818B15A46179990476D1CE0036F
:1021F00024D55B462146179A059800F04DF8054412
:102200001CE00498002807DBDDE90301884203DDB8
:102210000098405C179901E0179930205A46904782
:10222000049805F10105401C04900198401E01909E
:1022300004D12E205A46179990476D1CBAF100011F
:10224000AAF1010ADDDC05E017F8010B5A461799DF
:1022500090476D1CB8F10001A8F10108F4DC5B4661
:102260002146179A0598ABE62D0000002B000000D0
:10227000200000002DE9F041044600251E461746C7
:10228000880404D405E039462020B0476D1C641E44
:10229000F9D52846BDE8F0812DE9F0410446002536
:1022A0001E469046C80301D5302700E02027880449
:1022B00004D505E041463846B0476D1C641EF9D58B
:1022C0002846BDE8F0810A68531C0B601070704707
:1022D00038B504468DF8000069460320ABBE2046A1
:1022E00038BD000010B58CB0FEF718FDFFF7E4FA1A
:1022F000FFF7FCF8FFF72CF906A8FEF77DFA30B1DE
:1023000028A0FFF743FB0CB04FF0FF3010BDDDE914
:102310000A232A4902A8FFF740FA012102A8FFF781
:1023200041F9012102A8FFF749FA00242448CDE928
:102330000004052223A3114602A8FFF703FA642331
:102340000022842102A80094FFF714FA4C2364228F
:10235000502102A80094FFF70DFA4C236422B42107
:1023600002A80094FFF706FA4FF484736422002158
:1023700002A80094FFF792F9104906A8FEF7FBF9AE
:102380001348144C0BE000BF0DF1080C9CE80F0043
:1023900000F022F8094906A8FEF7EDF92046401E94
:1023A000FDD1F1E7652D506170657220696E697429
:1023B000206661696C65640A00000000440000202A
:1023C000300000206F6B20626F6F6D65720000003F
:1023D00080C3C9013EA5AE023FB59FED310B8BB066
:1023E00053EC102B30A102A8FFF7E0FA9FED2F0B62
:1023F0002DA153EC102B04A8FFF7D8FA9FED2D0B5D
:1024000029A153EC102B06A8FFF7D0FA9FED2B0B58
:1024100025A153EC102B08A8FFF7C8FA41218DF82D
:102420000C102020002456218DF814108DF80B007C
:102430008DF81B008DF80D408DF813008DF82300EA
:102440008DF81540462125201E4D8DF81C108DF865
:102450002400CDE900548DF81D408DF8254002ABD5
:10246000822204210BA8FFF76DF9CDE9005404ABDB
:1024700082225E210BA8FFF765F9CDE9005406AB77
:102480008222BE210BA8FFF75DF90F48CDE90004B9
:1024900008AB2822B0210BA8FFF754F90FB030BDCC
:1024A000000000A099991B40256600000000004034
:1024B00033330340000000C0CCCC084000000000D3
:1024C0000000044030000020380000200000000F11
:1024D0000F000005003232000002000F0F0000055F
:1024E00000000000000000000000000000000000EC
:1024F0000000000000000000500F0F0000056032D7
:1025000032000002A00F0F000005000000000000D4
:1025100000000000000000000000000000000000BB
:102520000000500F0F000005603232000002A00FC3
:102530000F00000500000000000000000000000087
:10254000000000000000000000000000A00F0F00CD
:102550000005603232000002500F0F00000500003D
:10256000000000000000000000000000000000006B
:10257000000000000000A00F0F00000560323200D4
:102580000002500F0F0000050000000000000000D6
:10259000000000000000000000000000000000003B
:1025A0000000000000000000010203040607080903
:1025B000000000000000000000000000000000001B
:1025C000000000000000000000000000000000000B
:1025D00000000000000000000000070007000700E6
:1025E00007000700070007000200020000000000CB
:1025F00007000700000000000000000000000000CD
:10260000000000001CE01CE01CE0084008400840FE
:1026100000000000000000000000000000000000BA
:1026200000000000000000000CC00CC00CC00CC07A
:102630000CC03FF03FF00CC00CC03FF03FF00CC0AE
:102640000CC00CC00CC00CC000000000000000005A
:102650000300030007E00FE0186018001F000FC020
:1026600000E0186018601FC01F8003000300030013
:10267000000000000000000000001C0022002200FA
:1026800022001C6001E00F803C0031C002200220CB
:10269000022001C000000000000000000000000057
:1026A00000000000000003E00FE00C000C0006003A
:1026B0000F301FF019E018C01FF007B00000000035
:1026C0000000000000000000000000000380038004
:1026D0000380010001000100000000000000000074
:1026E00000000000000000000000000000000000EA
:1026F000000000C000C001800180018003000300D1
:10270000030003000300030001800180018000C07A
:1027100000C000000000000000000C000C000600DB
:10272000060006000300030003000300030003008B
:102730000600060006000C000C000000000000006F
:1027400000000300030003001B601FE007800780F8
:102750000FC00CC0000000000000000000000000DE
:102760000000000000000000000000000000030066
:102770000300030003003FF03FF0030003000300E9
:102780000300000000000000000000000000000046
:102790000000000000000000000000000000000039
:1027A0000000000000000380030003000600060094
:1027B0000400000000000000000000000000000015
:1027C0000000000000003FE03FE0000000000000CB
:1027D00000000000000000000000000000000000F9
:1027E00000000000000000000000000000000000E9
:1027F0000000000000000380038003800000000050
:1028000000000000000000000060006000C000C088
:1028100000C00180018003000300060006000C00D8
:102820000C000C0018001800000000000000000060
:1028300000000F801FC018C0306030603060306012
:1028400030603060306018C01FC00F800000000092
:102850000000000000000000000003001F001F0037
:102860000300030003000300030003000300030050
:102870001FE01FE00000000000000000000000005A
:1028800000000F801FC038E03060006000C0018091
:10289000030006000C0018003FE03FE000000000CD
:1028A000000000000000000000000F803FC030E08A
:1028B000006000E007C007C000E00060006060E06A
:1028C0007FC03F800000000000000000000000000A
:1028D000000001C003C003C006C00CC00CC018C07B
:1028E00030C03FE03FE000C003E003E00000000034
:1028F000000000000000000000001FC01FC0180002
:1029000018001F801FC018E000600060006030E009
:102910003FC01F8000000000000000000000000019
:10292000000003E00FE01E001800380037803FC0B1
:1029300038E03060306018E01FC007800000000001
:10294000000000000000000000003FE03FE03060B9
:10295000006000C000C000C0018001800180030051
:102960000300030000000000000000000000000061
:1029700000000F801FC038E0306038E01FC01FC06B
:1029800038E03060306038E01FC00F800000000089
:10299000000000000000000000000F001FC038C051
:1029A0003060306038E01FE00F6000E000C003C01E
:1029B0003F803E000000000000000000000000001A
:1029C000000000000000000000000380038003807E
:1029D000000000000000038003800380000000006E
:1029E00000000000000000000000000000000000E7
:1029F000000001C001C001C0000000000000038011
:102A000003000600060004000000000000000000B3
:102A1000000000000000003000F003C007001C00B0
:102A200078001C00070003C000F000300000000028
:102A30000000000000000000000000000000000096
:102A400000007FF07FF0000000007FF07FF00000CA
:102A50000000000000000000000000000000000076
:102A600000000000000030003C000F00038000E088
:102A7000007800E003800F003C0030000000000000
:102A80000000000000000000000000000F801FC0D8
:102A900018601860006001C003800300000000009F
:102AA0000700070000000000000000000000000018
:102AB000000003800C8008401040104011C01240FC
:102AC0001240124011C010000800084007800000AA
:102AD0000000000000000000000000001F801F80B8
:102AE000038006C006C00CC00C601FE01FE0303041
:102AF00078787878000000000000000000000000F6
:102B0000000000003F803FC01860186018E01FC040
:102B10001FE01870183018303FF03FE00000000050
:102B200000000000000000000000000007B00FF0EF
:102B30001C703830300030003000300038301C70ED
:102B40000FE007C0000000000000000000000000CF
:102B5000000000007F807FC030E0307030303030C7
:102B600030303030307030E07FC07F8000000000B7
:102B70000000000000000000000000003FF03FF0F7
:102B80001830183019801F801F80198018301830B5
:102B90003FF03FF0000000000000000000000000D7
:102BA000000000003FF03FF01830183019801F80FF
:102BB0001F801980180018003F003F00000000002F
:102BC00000000000000000000000000007B01FF03F
:102BD000187030303000300031F831F830301830B3
:102BE0001FF007C00000000000000000000000000F
:102BF000000000003CF03CF01860186018601FE016
:102C00001FE01860186018603CF03CF00000000005
:102C10000000000000000000000000001FE01FE0B6
:102C2000030003000300030003000300030003008C
:102C30001FE01FE000000000000000000000000096
:102C40000000000003F803F800600060006000600E
:102C500030603060306030E03FC00F800000000026
:102C60000000000000000000000000003EF83EF8F8
:102C700018E019801B001F001D8018C018C01860C4
:102C80003E783E3800000000000000000000000018
:102C9000000000003F003F000C000C000C000C0086
:102CA0000C000C300C300C303FF03FF00000000006
:102CB0000000000000000000000000007878787834
:102CC00038703CF034B037B037B033303330303058
:102CD0007CF87CF80000000000000000000000000C
:102CE0000000000039F03DF01C601E601E601B609B
:102CF0001B6019E019E018E03EE03E6000000000B3
:102D000000000000000000000000000007800FC06D
:102D10001CE03870303030303030303038701CE0EB
:102D20000FC007800000000000000000000000004D
:102D3000000000003FC03FE01870183018301870D5
:102D40001FE01FC0180018003F003F0000000000F7
:102D500000000000000000000000000007800FC01D
:102D60001CE03870303030303030303038701CE09B
:102D70000FC0078007B00FF00CE00000000000005B
:102D8000000000003FC03FE01870183018701FE0CE
:102D90001FC018E0186018703E383E180000000090
:102DA0000000000000000000000000000FB01FF055
:102DB0003870303038001F8007E0007030303870D5
:102DC0003FE037C0000000000000000000000000ED
:102DD000000000003FF03FF0333033303330030069
:102DE00003000300030003000FC00FC00000000039
:102DF0000000000000000000000000003CF03CF07B
:102E000018601860186018601860186018601CE07E
:102E10000FC007800000000000000000000000005C
:102E20000000000078F078F03060306018C018C002
:102E30000D800D800D8007000700070000000000D6
:102E40000000000000000000000000007C7C7C7C92
:102E5000301833983398339836D816D01C701C70BD
:102E60001C7018300000000000000000000000008E
:102E70000000000078F078F0306018C00D80070086
:102E800007000D8018C0306078F078F00000000076
:102E90000000000000000000000000003CF03CF0DA
:102EA00018600CC0078007800300030003000300C4
:102EB0000FC00FC000000000000000000000000074
:102EC000000000001FE01FE0186018C00180030030
:102ED000030006000C6018601FE01FE00000000007
:102EE0000000000000000000000003C003C0030059
:102EF00003000300030003000300030003000300BA
:102F000003000300030003C003C000000000000032
:102F1000180018000C000C000C000600060003004E
:102F200003000180018000C000C000C0006000609C
:102F3000000000000000000000000F000F00030070
:102F40000300030003000300030003000300030069
:102F50000300030003000F000F000000000000004A
:102F60000000020007000D8018C030602020000023
:102F70000000000000000000000000000000000051
:102F80000000000000000000000000000000000041
:102F90000000000000000000000000000000000031
:102FA000000000000000000000000000FFFCFFFC2B
:102FB000000004000300008000000000000000008A
:102FC0000000000000000000000000000000000001
:102FD00000000000000000000000000000000000F1
:102FE00000000FC01FE000600FE01FE0386030E01D
:102FF0003FF01F7000000000000000000000000013
:103000000000700070003000300037803FE0386012
:1030100030303030303038607FE0778000000000A2
:1030200000000000000000000000000000000000A0
:10303000000007B01FF0183030303000300038305A
:103040001FF00FC0000000000000000000000000A2
:103050000000007000700030003007B01FF01870E2
:1030600030303030303038701FF807B800000000C2
:103070000000000000000000000000000000000050
:10308000000007801FE018603FF03FF0300018306C
:103090001FF007C00000000000000000000000005A
:1030A000000003F007F0060006001FE01FE0060026
:1030B00006000600060006001FE01FE000000000FA
:1030C0000000000000000000000000000000000000
:1030D000000007B81FF818703030303030301870EA
:1030E0001FF007B0003000700FE00FC000000000BC
:1030F000000038003800180018001BC01FE01C60DA
:1031000018601860186018603CF03CF00000000087
:1031100000000000000000000000030003000000A9
:1031200000001F001F000300030003000300030052
:103130001FE01FE000000000000000000000000091
:10314000000003000300000000001FC01FC000C0FB
:1031500000C000C000C000C000C000C000C001C06E
:103160003F803F00000000000000380038001800D9
:1031700018001BE01BE01B001E001E001B00198036
:1031800039F039F0000000000000000000000000ED
:1031900000001F001F0003000300030003000300E2
:1031A00003000300030003001FE01FE00000000015
:1031B000000000000000000000000000000000000F
:1031C00000007EE07FF03330333033303330333043
:1031D0007BB87BB800000000000000000000000089
:1031E000000000000000000000003BC03FE01C6049
:1031F00018601860186018603CF03CF00000000097
:1032000000000000000000000000000000000000BE
:10321000000007801FE01860303030303030186018
:103220001FE0078000000000000000000000000018
:103230000000000000000000000077807FE03860A0
:1032400030303030303038603FE037803000300090
:103250007C007C0000000000000000000000000076
:10326000000007B81FF81870303030303030187058
:103270001FF007B00030003000F800F80000000038
:10328000000000000000000000003CE03DF00F30B6
:103290000E000C000C000C003FC03FC000000000FE
:1032A000000000000000000000000000000000001E
:1032B000000007E01FE018601E000FC001E018606A
:1032C0001FE01F8000000000000000000000000060
:1032D000000000000C000C000C003FE03FE00C0080
:1032E0000C000C000C000C300FF007C000000000B8
:1032F00000000000000000000000000000000000CE
:10330000000038E038E0186018601860186018E0B5
:103310001FF00F700000000000000000000000001F
:103320000000000000000000000078F078F030603D
:1033300018C018C00D800D800700070000000000B5
:10334000000000000000000000000000000000007D
:10335000000078F078F03260326037E01DC01DC0A8
:1033600018C018C0000000000000000000000000AD
:10337000000000000000000000003CF03CF00CC029
:103380000780030007800CC03CF03CF00000000008
:10339000000000000000000000000000000000002D
:1033A000000078F078F0306018C018C00D800F80F1
:1033B0000700060006000C007F007F0000000000F0
:1033C000000000000000000000001FE01FE018C027
:1033D0000180030006000C601FE01FE000000000F9
:1033E0000000000000000000000001C003C0030056
:1033F000030003000300030007000E0007000300A2
:1034000003000300030003C001C00000000000002F
:103410000000030003000300030003000300030097
:103420000300030003000300030003000300030084
:10343000030000000000000000001C001E00060049
:1034400006000600060006000700038007000600CD
:103450000600060006001E001C0000000000000020
:103460000000000000000000000000000E003F30DF
:1034700033F001E000000000000000000000000048
:10348000000000000000000000000000000000003C
:10349000000000000000000000000000000000002C
:1034A000000000000000000000000000000000001C
:1034B000000000000000000000000000000000000C
:1034C00000000000000000000000000000000000FC
:1034D0000000000000000380000380000380000360
:1034E00080000380000380000380000380000380CD
:1034F0000001000001000000000000000003800047
:103500000380000000000000000000000000000038
:1035100000000000000000000000000000000000AB
:10352000000E70000E70000E7000042000042000D9
:103530000420000420000000000000000000000043
:10354000000000000000000000000000000000007B
:10355000000000000000000000000000000000006B
:103560000000000000000660000660000660000623
:1035700060000660003FF8003FF8000660000CC0E5
:10358000003FF8003FF8000CC0000CC0000CC00069
:103590000CC0000CC0000000000000000000000093
:1035A0000000000000000000000000018000018019
:1035B0000007B0000FF0001870001870001C000029
:1035C0000F800007E00000F0001830001C30001CE5
:1035D00070001FE0001BC00001800001800001801E
:1035E000000180000000000000000000000000005A
:1035F0000000000000000780000FC0001CE0001861
:1036000060001860001CE0000FF80007E0001FF0E9
:103610000007380006180006180007380003F000FD
:1036200001E00000000000000000000000000000B9
:10363000000000000000000000000000000000008A
:103640000000000003F00007F0000C60000C000018
:103650000C00000600000700000F9C001DFC001875
:10366000F0001870000FFC0007DC000000000000F4
:10367000000000000000000000000000000000004A
:103680000000000000000000000380000380000331
:1036900080000100000100000100000100000000A6
:1036A000000000000000000000000000000000001A
:1036B000000000000000000000000000000000000A
:1036C00000000000000000000000000000000018E2
:1036D0000000380000700000F00000E00000E00092
:1036E00001C00001C00001C00001C00001C0000114
:1036F000C00000E00000E000007000007000003832
:1037000000001800000000000000000000000000A1
:103710000000000000001800001C00000E00000E59
:103720000000070000070000038000038000038002
:1037300000038000038000038000070000070000F2
:103740000F00000E00001C00001800000000000028
:1037500000000000000000000000000000000180E8
:10376000000180000180001DB8001FF80007E00084
:1037700003C00003C00006600006600000000000F7
:103780000000000000000000000000000000000039
:103790000000000000000000000000000000000029
:1037A0000000000000000000000000000180000197
:1037B00080000180000180000180003FFC003FFC90
:1037C0000001800001800001800001800001800074
:1037D00000000000000000000000000000000000E9
:1037E00000000000000000000000000000000000D9
:1037F00000000000000000000000000000000000C9
:1038000000000000000000000000000000000000B8
:10381000000000E00000C00001C000018000018045
:103820000003000003000000000000000000000092
:103830000000000000000000000000000000000088
:1038400000000000000000000000001FF8001FF84A
:103850000000000000000000000000000000000068
:103860000000000000000000000000000000000058
:103870000000000000000000000000000000000048
:103880000000000000000000000000000000000038
:103890000000000000000000000000000000000028
:1038A000000003C00003C00003C0000000000000CF
:1038B0000000000000000000000000000000000008
:1038C00000180000180000380000300000700000F0
:1038D000600000600000C00000C0000180000180A6
:1038E000000300000300000600000600000E0000B8
:1038F0000C00001C00001800001800000000000070
:10390000000000000000000000000000000003C0F4
:103910000007E0000C30000C3000181800181800E8
:103920001818001818001818001818001818000C9B
:1039300030000C300007E00003C000000000000071
:103940000000000000000000000000000000000077
:103950000000000000000080000780001F80001DA4
:103960008000018000018000018000018000018052
:10397000000180000180000180000180001FF8002C
:103980001FF8000000000000000000000000000020
:10399000000000000000000000000000000007C060
:1039A000001FF000383000301800301800001800F8
:1039B00000300000600001C0000380000600000C21
:1039C00000001800003FF8003FF800000000000071
:1039D00000000000000000000000000000000000E7
:1039E00000000000000003C0000FE0000C700000A9
:1039F000300000300000600003C00003E0000070F1
:103A0000000018000018000018001838001FF0000F
:103A10000FC00000000000000000000000000000D7
:103A2000000000000000000000000000000000E0B6
:103A30000001E00001E00003600006600006600095
:103A40000C60000C60001860003060003FF8003F20
:103A5000F80000600003F80003F800000000000018
:103A60000000000000000000000000000000000056
:103A70000000000000001FF0001FF00018000018F8
:103A800000001800001BC0001FF0001C30000018D0
:103A9000000018000018000018003030003FF0004F
:103AA0000FC0000000000000000000000000000047
:103AB000000000000000000000000000000000F80E
:103AC0000003F8000700000E00000C0000180000C2
:103AD0001BC0001FF0001C30001818001818001838
:103AE00018000C38000FF00003E000000000000098
:103AF00000000000000000000000000000000000C6
:103B00000000000000001FF8001FF800181800183F
:103B100038000030000030000070000060000060DD
:103B20000000E00000C00000C00001C000018000F3
:103B30000180000000000000000000000000000004
:103B4000000000000000000000000000000007E08E
:103B5000000FF0001C38001818001818000C300076
:103B600007E00007E0000C300018180018180018D3
:103B700018001C38000FF00007E0000000000000F3
:103B80000000000000000000000000000000000035
:103B900000000000000007C0000FF0001C300018FB
:103BA00018001818001818000C38000FF80003D877
:103BB0000000180000300000700000E0001FC0008E
:103BC0001F000000000000000000000000000000D6
:103BD00000000000000000000000000000000000E5
:103BE0000000000000000000000003C00003C0004F
:103BF00003C0000000000000000000000000000002
:103C0000000003C00003C00003C00000000000006B
:103C100000000000000000000000000000000000A4
:103C20000000000000000000000000000000000094
:103C3000000000F00000F00000F0000000000000B4
:103C40000000000000000000E00001C00001800052
:103C500001800003000002000000000000000000DE
:103C60000000000000000000000000000000000054
:103C700000000000001C00003C0000F00003C00039
:103C80000F00003C0000F000003C00000F000003AB
:103C9000C00000F000003C00001C0000000000001C
:103CA0000000000000000000000000000000000014
:103CB0000000000000000000000000000000000004
:103CC00000000000007FFC007FFC000000000000FE
:103CD000007FFC007FFC00000000000000000000EE
:103CE00000000000000000000000000000000000D4
:103CF00000000000000000000000000000000000C4
:103D0000000000007000007800001E000007800026
:103D100001E000007800001E0000780001E00007CC
:103D200080001E000078000070000000000000000D
:103D30000000000000000000000000000000000083
:103D400000000000000000000007C0000FE00018A5
:103D5000700018300018300000700000E00003C050
:103D600000038000030000000000000000070000C6
:103D7000070000000000000000000000000000003C
:103D8000000000000000000000000000000003E050
:103D90000007F0000E38000C180018780018F80022
:103DA00019D80019980019980019980018F80018E7
:103DB00078001800000C00000E180007F80003E05F
:103DC00000000000000000000000000000000000F3
:103DD0000000000000000000001F80001FC0000164
:103DE000C0000360000360000630000630000C30A5
:103DF000000FF8001FF800180C00300C00FC7F00CA
:103E0000FC7F000000000000000000000000000037
:103E100000000000000000000000000000000000A2
:103E2000007FE0007FF00018380018180018180014
:103E30001838001FF0001FF800181C00180C00189C
:103E40000C00180C007FF8007FF00000000000005C
:103E50000000000000000000000000000000000062
:103E600000000000000000000003EC000FFC001C3C
:103E70001C00180C00300C00300000300000300036
:103E800000300000300000180C001C1C000FF8006F
:103E900003F000000000000000000000000000002F
:103EA0000000000000000000000000000000000012
:103EB000007FC0007FF000183800181800180C00B0
:103EC000180C00180C00180C00180C00180C001826
:103ED00018001838007FF0007FE0000000000000AC
:103EE00000000000000000000000000000000000D2
:103EF0000000000000000000007FF8007FF80018BC
:103F000018001818001998001980001F80001F80E1
:103F1000001980001998001818001818007FF80080
:103F20007FF800000000000000000000000000001A
:103F30000000000000000000000000000000000081
:103F4000003FFC003FFC000C0C000C0C000CCC00F3
:103F50000CC0000FC0000FC0000CC0000CC0000C53
:103F600000000C00003FC0003FC000000000000047
:103F70000000000000000000000000000000000041
:103F800000000000000000000003EC000FFC001C1B
:103F90001C00180C00300C0030000030000030FE17
:103FA0000030FE00300C00380C001C1C000FFC0020
:103FB00003F000000000000000000000000000000E
:103FC00000000000000000000000000000000000F1
:103FD000007E7E007E7E0018180018180018180059
:103FE0001818001FF8001FF80018180018180018FB
:103FF00018001818007E7E007E7E00000000000081
:1040000000000000000000000000000000000000B0
:104010000000000000000000001FF8001FF8000171
:10402000800001800001800001800001800001808B
:10403000000180000180000180000180001FF80065
:104040001FF8000000000000000000000000000059
:104050000000000000000000000000000000000060
:104060000007FE0007FE00003000003000003000B6
:104070000030000030003030003030003030003090
:1040800030003060003FE0000F80000000000000C2
:104090000000000000000000000000000000000020
:1040A0000000000000000000007F3E007F3E00187E
:1040B000300018600018C0001980001B80001FC06D
:1040C000001CE0001870001830001838007F1F0036
:1040D0007F1F000000000000000000000000000042
:1040E00000000000000000000000000000000000D0
:1040F000007F80007F80000C00000C00000C00009E
:104100000C00000C00000C00000C0C000C0C000C4F
:104110000C000C0C007FFC007FFC00000000000085
:10412000000000000000000000000000000000008F
:10413000000000000000000000F00F00F81F003831
:104140001C003C3C003C3C00366C00366C0033CC20
:104150000033CC00318C00300C00300C00FE7F00AE
:10416000FE7F0000000000000000000000000000D2
:10417000000000000000000000000000000000003F
:104180000078FE0078FE001C18001E18001F1800A2
:104190001B18001B980019D80018D80018F8001830
:1041A00078001838007F18007F1800000000000019
:1041B00000000000000000000000000000000000FF
:1041C00000000000000000000003C0000FF0001C11
:1041D0003800181800381C00300C00300C00300C6F
:1041E00000300C00381C001818001C38000FF000BC
:1041F00003C00000000000000000000000000000FC
:1042000000000000000000000000000000000000AE
:10421000003FF0003FF8000C1C000C0C000C0C00E0
:104220000C0C000C18000FF8000FE0000C00000C44
:1042300000000C00003FC0003FC000000000000074
:10424000000000000000000000000000000000006E
:1042500000000000000000000003C0000FF0001C80
:104260003800181800381C00300C00300C00300CDE
:1042700000300C00381C001818001C38000FF0002B
:1042800007C00007CC000FFC000C38000000000045
:10429000000000000000000000000000000000001E
:1042A000007FE0007FF00018380018180018180090
:1042B0001838001FF0001FC00018E0001870001828
:1042C00030001838007F1E007F0E00000000000044
:1042D00000000000000000000000000000000000DE
:1042E00000000000000000000007D8000FF8001CCC
:1042F00038001818001818001E00000FC00003F046
:10430000000078001818001818001C38001FF00072
:104310001BE00000000000000000000000000000A2
:10432000000000000000000000000000000000008D
:10433000003FFC003FFC00318C00318C00318C00D0
:10434000318C0001800001800001800001800001AB
:1043500080000180000FF0000FF00000000000005E
:10436000000000000000000000000000000000004D
:104370000000000000000000007E7E007E7E00182D
:104380001800181800181800181800181800181825
:10439000001818001818001818000C30000FF00052
:1043A00003C000000000000000000000000000004A
:1043B00000000000000000000000000000000000FD
:1043C000007F7F007F7F00180C000C18000C180085
:1043D0000C18000630000630000360000360000384
:1043E000600001C00001C00000800000000000006B
:1043F00000000000000000000000000000000000BD
:10440000000000000000000000FE3F80FE3F803002
:10441000060030060030860019CC0019CC001B6C59
:10442000001B6C001E7C000E38000E38000C1800BB
:104430000C18000000000000000000000000000058
:10444000000000000000000000000000000000006C
:10445000007E7E007E7E001818000C300006600092
:1044600003C00001800001800003C0000660000C52
:1044700030001818007E7E007E7E000000000000E4
:10448000000000000000000000000000000000002C
:104490000000000000000000007C7E007C7E001810
:1044A00018000C300006600006600003C0000180A8
:1044B000000180000180000180000180000FF000F9
:1044C0000FF00000000000000000000000000000ED
:1044D00000000000000000000000000000000000DC
:1044E000001FF8001FF800181800183000186000AE
:1044F00018C0000180000300000618000C18001806
:1045000018003018003FF8003FF8000000000000DD
:10451000000000000000000000000000000000009B
:1045200000000000000001F00001F0000180000127
:104530008000018000018000018000018000018076
:1045400000018000018000018000018000018000E6
:1045500001800001800001F00001F0000000000077
:1045600000000000000000001800001800001C00FF
:10457000000C00000E000006000006000003000012
:1045800003000001800001800000C00000C00000A6
:10459000600000600000700000300000380000186B
:1045A00000001800000000000000000000000000F3
:1045B0000000000000000F80000F8000018000015B
:1045C00080000180000180000180000180000180E6
:1045D0000001800001800001800001800001800056
:1045E0000180000180000F80000F800000000000AB
:1045F000000000000000000000000000800001C07A
:104600000003E0000770000630000C1800180C00D2
:104610001004000000000000000000000000000086
:10462000000000000000000000000000000000008A
:10463000000000000000000000000000000000007A
:10464000000000000000000000000000000000006A
:10465000000000000000000000000000000000005A
:10466000000000000000000000000000000000004A
:10467000000000000000000000000000000000003A
:104680000000FFFF00FFFF000000000300000380A8
:104690000000E000006000000000000000000000DA
:1046A000000000000000000000000000000000000A
:1046B00000000000000000000000000000000000FA
:1046C00000000000000000000000000000000000EA
:1046D00000000000000000000000000000000000DA
:1046E00000000FC0001FE00000300000300007F0A5
:1046F000001FF0003830003030003070001FFC0028
:104700000FBC0000000000000000000000000000DE
:104710000000000000000000000000000000780021
:10472000007800001800001800001BE0001FF800CF
:104730001C1800180C00180C00180C00180C00189D
:104740000C001C18007FF8007BE000000000000057
:104750000000000000000000000000000000000059
:104760000000000000000000000000000000000049
:10477000000003EC000FFC001C1C00380C00300C87
:1047800000300000300000380C001C1C000FF80046
:1047900003F0000000000000000000000000000026
:1047A0000000000000000000000000000000007891
:1047B0000000780000180000180007D8001FF8005B
:1047C0001838003018003018003018003018003049
:1047D00018001838001FFE0007DE0000000000006F
:1047E00000000000000000000000000000000000C9
:1047F00000000000000000000000000000000000B9
:10480000000007E0001FF800181800300C003FFC03
:10481000003FFC00300000300000180C001FFC00BE
:1048200007F0000000000000000000000000000091
:10483000000000000000000000000000000001FC7B
:104840000003FC000600000600003FF8003FF800EF
:104850000600000600000600000600000600000634
:1048600000000600003FF0003FF0000000000000E4
:104870000000000000000000000000000000000038
:104880000000000000000000000000000000000028
:10489000000007DE001FFE00183800301800301836
:1048A000003018003018003018001838001FF800C9
:1048B00007D8000018000018000038000FF0000FA3
:1048C000C0000000000000000000000000007800B0
:1048D000007800001800001800001BE0001FF00026
:1048E0001C3800181800181800181800181800189C
:1048F00018001818007E7E007E7E00000000000078
:1049000000000000000000000000000000000000A7
:104910000000000000000180000180000000000095
:1049200000001F80001F80000180000180000180C6
:10493000000180000180000180000180003FFC0038
:104940003FFC00000000000000000000000000002C
:10495000000000000000000000000000000000C097
:104960000000C0000000000000001FF0001FF00069
:104970000030000030000030000030000030000047
:104980003000003000003000003000003000003007
:10499000000070001FE0001F800000000000000009
:1049A0000000000000003C00003C00000C00000C77
:1049B00000000CF8000CF8000CC0000D80000F8007
:1049C000000F00000F80000DC0000CE0003C7C00D8
:1049D0003C7C00000000000000000000000000001F
:1049E00000000000000000000000000000001F8028
:1049F000001F800001800001800001800001800014
:104A00000180000180000180000180000180000120
:104A100080000180003FFC003FFC0000000000001F
:104A20000000000000000000000000000000000086
:104A30000000000000000000000000000000000076
:104A40000000F77800FFFC0039CC00318C00318C7D
:104A500000318C00318C00318C00318C00FDEF0076
:104A6000FDEF00000000000000000000000000005A
:104A70000000000000000000000000000000000036
:104A8000000000000000000000007BE0007FF0005C
:104A90001C380018180018180018180018180018EA
:104AA00018001818007E7E007E7E000000000000C6
:104AB00000000000000000000000000000000000F6
:104AC00000000000000000000000000000000000E6
:104AD000000003C0000FF0001C3800381C00300C30
:104AE00000300C00300C00381C001C38000FF000A7
:104AF00003C00000000000000000000000000000F3
:104B000000000000000000000000000000000000A5
:104B1000000000000000000000007BE0007FF800C3
:104B20001C1800180C00180C00180C00180C0018A9
:104B30000C001C18001FF8001BE0001800001800F3
:104B4000001800007F00007F00000000000000004F
:104B50000000000000000000000000000000000055
:104B6000000007DE001FFE00183800301800301863
:104B7000003018003018003018001838001FF800F6
:104B800007D80000180000180000180000FE000000
:104B9000FE00000000000000000000000000000017
:104BA000000000000000000000003E78003EFC0015
:104BB00007CC000700000600000600000600000603
:104BC00000000600003FF0003FF000000000000081
:104BD00000000000000000000000000000000000D5
:104BE00000000000000000000000000000000000C5
:104BF000000007F8000FF8001818001818001F80B0
:104C0000000FF00000F8001818001838001FF0001E
:104C10001FE0000000000000000000000000000095
:104C200000000000000000000000000000000C0078
:104C3000000C00000C00000C00003FF0003FF000F2
:104C40000C00000C00000C00000C00000C00000C1C
:104C500000000C1C0007FC0003F000000000000036
:104C60000000000000000000000000000000000044
:104C70000000000000000000000000000000000034
:104C800000007878007878001818001818001818B4
:104C9000001818001818001818001838000FFE0027
:104CA00007DE00000000000000000000000000001F
:104CB00000000000000000000000000000000000F4
:104CC000000000000000000000007C3E007C3E0070
:104CD0001818001818000C30000C30000660000690
:104CE000600007E00003C00003C0000000000000F7
:104CF00000000000000000000000000000000000B4
:104D000000000000000000000000000000000000A3
:104D10000000783C00783C0031180033980033984C
:104D2000001AB0001EF0001EF0001C60000C6000B5
:104D30000C60000000000000000000000000000007
:104D40000000000000000000000000000000000063
:104D5000000000000000000000003E7C003E7C00DF
:104D60000C300006600003C00001800003C0000694
:104D700060000C30003E7C003E7C00000000000023
:104D80000000000000000000000000000000000023
:104D90000000000000000000000000000000000013
:104DA00000007E1F007E1F00180C000C18000C185D
:104DB0000006300006300003600003E00001C00080
:104DC00000C0000180000180000300003FC0003FE0
:104DD000C000000000000000000000000000000013
:104DE000000000000000000000001FF8001FF80095
:104DF00018300018600000C00001800003000006A9
:104E000018000C18001FF8001FF800000000000038
:104E10000000000000000000000000000000000092
:104E200000000000000000E00001E000018000013F
:104E3000800001800001800001800001800003806B
:104E40000007000003800001800001800001800055
:104E500001800001800001E00000E000000000008F
:104E600000000000000000000000000000000180C1
:104E700000018000018000018000018000018000AD
:104E8000018000018000018000018000018000019C
:104E9000800001800001800001800001800001800D
:104EA0000001800000000000000000000000000081
:104EB00000000000000007000007800001800001E2
:104EC000800001800001800001800001800001C09D
:104ED0000000E00001C000018000018000018000AE
:104EE0000180000180000780000700000000000032
:104EF00000000000000000000000000000000000B2
:104F000000000000000000000000000000000000A1
:104F10000E00001F18003BB80031F00000E0000058
:104F20000000000000000000000000000000000081
:104F30000000000000000000000000000000000071
:104F4000604F00080000002044000000F419000831
:104F5000A44F0008440000202C1B0000041A000885
:104F600000000240000100000000024000040000B8
:104F700000000240000200000000024000080000A3
:104F80000100000010000000000000000024F400F8
:104F9000B02500080E001400883400081100180025
:044FA000000000000D
:04000005080001D915
:00000001FF
