:020000040800F2
:1000000010040020ED010008110900080D09000886
:100010000F090008FB020008F509000800000000B5
:1000200000000000000000000000000015090008AA
:10003000FD0200080000000013090008170900086D
:10004000070200080702000807020008070200086C
:10005000070200080702000807020008070200085C
:10006000070200080702000807020008070200084C
:10007000070200080702000807020008070200083C
:10008000070200080702000807020008070200082C
:10009000070200080702000807020008070200081C
:1000A000070200080702000807020008070200080C
:1000B00007020008070200080702000807020008FC
:1000C00007020008070200080702000807020008EC
:1000D00007020008070200080702000807020008DC
:1000E00007020008070200080702000807020008CC
:1000F00007020008070200080702000807020008BC
:1001000007020008070200080702000807020008AB
:10011000070200080702000807020008070200089B
:10012000070200080702000807020008070200088B
:10013000070200080702000807020008070200087B
:10014000070200080702000807020008070200086B
:10015000070200080702000807020008070200085B
:10016000070200080702000807020008070200084B
:10017000070200080702000800000000000000005D
:10018000070200080702000807020008070200082B
:10019000070200080702000800000000070200082C
:1001A000070200080702000800000000000000002D
:1001B000070200080000000000000000070200081D
:1001C00007020008070200080702000807020008EB
:1001D0000702000807020008DFF80CD000F07AF8E8
:1001E00000480047350A00081004002006488047F0
:1001F00006480047FEE7FEE7FEE7FEE7FEE7FEE70C
:10020000FEE7FEE7FEE7FEE7A1090008D9010008C6
:100210002DE9F05F0546002092469B46884606463B
:10022000814640241BE0284641464746224600F0CE
:1002300041F853465A46C01A914110D31146184608
:10024000224600F028F82D1A67EB01084F46224697
:100250000120002100F01FF817EB00094E41201E7D
:10026000A4F10104DFDC484631462A464346BDE896
:10027000F09FD2B201E000F8012B491EFBD270477B
:100280000022F6E710B513460A4604461946FFF762
:10029000F0FF204610BD202A04DB203A00FA02F1CC
:1002A000002070479140C2F1200320FA03F3194364
:1002B00090407047202A04DB203A21FA02F0002106
:1002C000704721FA02F3D040C2F120029140084366
:1002D00019467047064C074D06E0E06840F0010300
:1002E00094E8070098471034AC42F6D3FFF778FF44
:1002F0006C0A00088C0A0008FEE7FEE77047000061
:1003000001488068704700000000002002488168B2
:100310000278114481607047000000200B4810B53E
:10032000016841F400710160016841F4806101607D
:10033000016841F480710160032000F061F8002041
:1003400000F006F800F024F8002010BD003C024048
:1003500070B50D4D04464FF47A712878B1FBF0F07A
:100360000A490968B1FBF0F000F0BCFA48B9102C5A
:1003700007D200222146501E00F022F800206C60B7
:1003800070BD012070BD0000000000200C000020A6
:100390000A4808B5016841F480410160006800F432
:1003A000804000900548001F016841F080510160C5
:1003B000006800F08050009008BD00004438024002
:1003C000F0B40E4B1B680C46C3F30223C3F10705C0
:1003D000042D00D90425191D072901D2002300E0AE
:1003E000DB1E012606FA05F1491E214099409E4078
:1003F000761E16403143F0BC00F0FDBA0CED00E073
:10040000064900F0070208684FF6FF03184040EA6B
:100410000220034A10430860704700000CED00E022
:100420000000FA052DE9F0470E46050065D0DFF81B
:100430001481D8F80000F7B200F00F00B04207D2E4
:1004400088F80070D8F8000000F00F00B04254D1D6
:1004500028683D4C810712D5400703D5206840F439
:10046000E05020602878000703D5206840F4604001
:1004700020602068A96820F0F000084320602878F8
:10048000C0072DD0304968680839012812D00228E9
:1004900013D0032811D00968890700292DDA2168B3
:1004A00021F0030101432160FFF72AFF814641F259
:1004B000883A0EE009688903EFE709688901ECE7EB
:1004C000FFF71EFFA0EB0901514502D90320BDE84B
:1004D000F0872068696800F00C00B0EB810FEFD165
:1004E000D8F80010404601F00F01B14207D907705B
:1004F000006800F00F00B04201D00120E7E7287843
:10050000400705D52068E96820F4E05008432060E2
:100510002878000706D52068296920F4604040EA61
:10052000C100206000F01CF82168084AC1F30311E3
:10053000515CC840064908600020FFF709FF002011
:10054000C5E70000003C0240083802405C0A000891
:100550000C00002001490120C86470470000474298
:10056000154810B5006810F00C02144813D0411063
:10057000042A0FD0082A0ED10F4C241F22682368AA
:1005800002F03F025B0207D52068C0F38810A0FB91
:10059000010106E0084610BD2168C1F38811A1FBE6
:1005A00000010023FFF734FE2168C1F30141491C1B
:1005B0004900B0FBF1F010BD083802400024F400FF
:1005C0002DE9F84F05460078DFF800B3C04CC007AE
:1005D0004AD0DBF800105846C1F38101012908D048
:1005E0000068C0F3810002280AD1201D0068400283
:1005F00006D52068800337D56868002872D033E0BC
:100600006868B0F5803F10D0B0F5A02F206810D0FA
:1006100020F480302060206820F48020206068680A
:10062000A8B1FFF76DFE06460DE0206840F480306B
:10063000F4E740F480202060F7E700BFFFF760FE9A
:10064000801B64286FD820688003F7D50CE0FFF783
:1006500057FE064605E000BFFFF752FE801B6428E8
:10066000F0D820688003F7D42878DFF86882800704
:100670004FF0000940D5DBF80010584611F00C0F80
:1006800009D00068C0F3810002280BD18F48001FF9
:100690000068400206D42068800715D5E868012864
:1006A00020D111E0E868B8B10120C8F80000FFF7D8
:1006B00027FE064605E000BFFFF722FE801B02284A
:1006C000C0D820688007F7D52068296920F0F80095
:1006D00040EAC10020600FE0C8F80090FFF710FE6C
:1006E000064606E0EFE000BFFFF70AFE801B022887
:1006F00019D820688007F7D42878000722D5734ED0
:10070000754869696C3679B101210160FFF7F8FD20
:10071000074604E0FFF7F4FDC01B022803D8306849
:100720008007F7D50EE089E0C0F80090FFF7E8FDFC
:10073000074604E0FFF7E4FDC01B02287ED83068BE
:100740008007F7D42878400768D5DFF880A1002714
:100750000AF1380ADAF80000C0000BD4DAF8001009
:1007600041F08051CAF80010DAF80000012700F0CB
:1007700080500090594E3068C00510D4306840F465
:1007800080703060FFF7BCFD009005E0FFF7B8FD1A
:100790000099401A022851D83068C005F6D54B4E52
:1007A000A868683601280FD00528306810D020F0DE
:1007B00001003060306820F004003060A868B8B1F3
:1007C000FFF79EFD00900FE0306840F00100F4E775
:1007D00040F004003060F7E7FFF792FD0099411AFE
:1007E00041F28830814266D830688007F4D50EE047
:1007F000FFF786FD009007E0FFF782FD0099411AA0
:1008000041F28830814256D830688007F4D42FB145
:10081000DAF8001021F08051CAF80010A869D0B3AE
:10082000DBF80010C1F3810102294CD002284846B0
:1008300007D0C8F86000FFF763FD00E03BE0054625
:100840003CE04746C8F86000FFF75AFD064604E062
:10085000FFF756FD801B02282DD820688001F7D4B1
:10086000F5E907010843E9681D4A490802EB01411F
:10087000AA6841EA82110843297C40EA0160297D87
:1008800040EA01711148001F016001203866FFF73E
:1008900037FD054605E014E0FFF732FD401B022856
:1008A00009D820688001F7D50BE000BFFFF728FDCD
:1008B000401B022802D90320BDE8F88F2068800180
:1008C000F4D40020F8E70120F6E7000008380240E1
:1008D0000038024000004742800E4742007000404E
:1008E0000000FFFF10B5401EB0F1807F01D3012052
:1008F00010BD4FF0E02460610F21601700F07BF81D
:100900000020A06107202061002010BDFEE7FEE767
:10091000704770477047FFF7F9BC000030B593B0DF
:1009200034216846FFF7ACFC14210DA8FFF7A8FCA2
:1009300019480025016841F080510160006800F00D
:10094000805012901548016841F4404101600068F0
:10095000022400F440401290012000900004019015
:100960008001CDE90640042008903220CDE9090439
:100970000B9468460C94FFF723FE0DA90F2081E825
:100980003100109501210DA81195FFF74BFDFFF7E0
:10099000E1FD13B030BD000040380240007000405F
:1009A0001048016841F4700101600F48016841F08E
:1009B000010101600C4A00210832116002680B4BF2
:1009C0001A400260031D0A4A1A60026822F480225B
:1009D000026005480C300160024958068039086001
:1009E0007047000088ED00E000380240FFFFF6FE8F
:1009F00010300024FEE70907090E002804DB00F18F
:100A0000E02080F80014704700F00F0000F1E020B3
:100A100080F8141D704702E008C8121F08C1002AA0
:100A2000FAD170477047002001E001C1121F002A6F
:100A3000FBD1704708B5FFF771FCFFF76FFF064861
:100A4000016841F080010160006800F080000090C2
:100A5000FFF752FC002008BD3038024000000000C3
:100A60000000000001020304060708098C0A0008C0
:100A70000000002010000000160A00089C0A000870
:100A80001000002000040000260A000801000000F9
:0C0A900010000000000000000024F40032
:04000005080001D915
:00000001FF
