:020000040000fa
:080000000001040000000000f3
:020000040000fa
:100200000f8a20000e7f22000e01880000000000ef
:100210000c00070000312100010020001100070040
:10022000000020000000e000020032000000020098
:1002300000000000720d0200000000000040da0023
:100240000000fe004440a900000020000000e00083
:100250000300320000002000a00188004440a800f4
:100260000000060091018800800078000000eb008b
:1002700015003700e280400032a0b4009101ba00be
:10028000e280400032a0b4009102ba00e280400057
:1002900032a0b4000002eb00472bde00f507b200ed
:1002a000602ce10004003a000059eb008301e900f2
:1002b000fdff3e00040037006128e100010032002c
:1002c0000082eb00040007001101ba000200e00008
:1002d000e8ff3a00000006003159ba008301e90046
:1002e0000c0032002159ba008301e90008003200f5
:1002f0000400e00003003a00e280400032a0b400b5
:10030000f5ff370011d9ba008301e900faff3a007e
:100310008100e800e180400032a0b4000000060047
:100320000040da000000fe00839f68000100e0004a
:1003300002003d0060001000e08018000300e000b3
:1003400002003d0060011100e08119000500070076
:100350004f00e00002003b0060001000e080180049
:10036000000006006022b800060220000000d00055
:100370008180d2000482d2008582d2000000a000d9
:100380000202520083825a0003003100020242003e
:1003900083824a000000a1000603e900f3ff3a004f
:0403a0000000060053
:020000040000fa
:1000080090010000900100009001000090010000a4
:100018009001000090010000900100009001000094
:100028009001000090010000900100001e0c0000eb
:100038009001000090010000900100009001000074
:100048009001000090010000900100009001000064
:100058009001000090010000900100009001000054
:100068009001000090010000900100009001000044
:100078009001000090010000900100009001000034
:10008800ce070000900100009001000090010000e0
:100098009001000090010000900100009001000014
:1000a8009001000090010000900100009001000004
:1000b80090010000900100009001000090010000f4
:1000c80090010000900100009001000090010000e4
:1000d80090010000900100009001000090010000d4
:1000e80090010000900100009001000090010000c4
:0800f8009001000090010000de
:020000040000fa
:1001080090010000900100009001000090010000a3
:100118009001000090010000900100009001000093
:100128009001000090010000900100001e0c0000ea
:100138009001000090010000900100009001000073
:100148009001000090010000900100009001000063
:100158009001000090010000900100009001000053
:100168009001000090010000900100009001000043
:100178009001000090010000900100009001000033
:10018800ce070000900100009001000090010000df
:100198009001000090010000900100009001000013
:1001a8009001000090010000900100009001000003
:1001b80090010000900100009001000090010000f3
:1001c80090010000900100009001000090010000e3
:1001d80090010000900100009001000090010000d3
:1001e80090010000900100009001000090010000c3
:0801f8009001000090010000dd
:020000040000fa
:1003a4000000fa00100a28006010880000402800ad
:1003b4007010880070002000a01088009116800042
:1003c400c0ff20000080600090168800b0168000f6
:1003d4003000b300b01688000080fa000000060068
:1003e4000200fa00004f78000fc2bf0061406000b5
:1003f4000004e000fcff32001e80fb008010880037
:100404000fc2bf00614060000004e000fcff320046
:100414000080fa00000006000400fa000000eb006f
:10042400000f78000ec2bf00704060000004e000be
:10043400fcff3200010037001e0fe8000ec2bf00af
:10044400614060000004e00003003a0070ff2000f7
:100454009e0f1000f8ff340080ff20009e0f100054
:1004640003003a00f00f200010079800070037003f
:100474000ec2bf00614060000004e000fcff3200d7
:10048400901080000080fb00100798001e00900070
:100494000080fa00000006000400fa0020479800db
:1004a4000000eb00000f78000fc2bf006140600045
:1004b4000004e000fcff32002e4090000080fb00ae
:1004c400801088000fc2bf00614060000004e0009b
:1004d400fcff3200010037001e0fe800f00c200082
:1004e4009e0f1000fcff34000000eb00000f7800aa
:1004f400b1168000c0ff200000806000b0168800a4
:100504000ec2bf00704060000004e000fcff320037
:100514000ec2bf00614060000004e000fcff320036
:100524000000eb00000f7800010037001e0fe80008
:10053400f00c20009e0f1000fcff3400b016800069
:100544003000b300b0168800901080000080fb00db
:100554000080fa00000006000a00fa00881f7800f4
:100564004047980031079800024f98000000eb00c4
:10057400100798000040eb00004f78000fc2bf0046
:10058400614060000004e000fcff32003005200000
:10059400801088000fc2bf00614060000004e000ca
:1005a400fcff320040052000801088000fc2bf000d
:1005b400614060000004e000fcff32004e40900007
:1005c4000080fb00801088000fc2bf006140600003
:1005d4000004e000fcff32000005200080108800c9
:1005e4000fc2bf00614060000004e000fcff320065
:1005f400030037001e0090000000e8001007980078
:100604009e009000f00c2000808f5000f9ff36000f
:10061400b1168000c0ff200000806000b016880082
:100624000040eb00004f78001b0037007aff070002
:100634000080fb004800dd00800078003e00900050
:10064400010878003e0090001004780072ff070053
:100654000080fb00800074003e00900001087800d8
:100664003e0090000080e8003007980030c0b300de
:100674009e4f10000600320070c0b3009e4f100061
:1006840003003200b0c0b3009e4f100001003a00d6
:100694000e22a9001e4fe8000e4890009e4f100045
:1006a400e2ff39000000eb00100798000300370058
:1006b4001e0090000000e800100798009e009000c3
:1006c400f00c2000808f5000f9ff3600b016800037
:1006d4003000b300b01688004f0478000080fa00a0
:1006e400000006000a00fa00881f780040479800be
:1006f40031079800024f98000000eb0010079800a3
:100704000000eb00000f78000fc2bf0061406000e2
:100714000004e000fcff3200300520008010880057
:100724000fc2bf00614060000004e000fcff320023
:1007340040052000801088000fc2bf0061406000a7
:100744000004e000fcff32004e4090000080fb00fb
:10075400801088000fc2bf00614060000004e00008
:10076400fcff320000052000801088000fc2bf008b
:10077400614060000004e000fcff32000000eb0078
:1007840010079800030037001e0090000000e800e6
:10079400100798009e009000f00c2000808f5000fd
:1007a400f9ff3600b0168000c1ff20000100600090
:1007b400b01688001000370017ff07000080fb0008
:1007c400c800dd003e009000010878003e00900063
:1007d4001004780010ff07000080fb008000740004
:1007e4003e009000010878003e0090000080e80080
:1007f400300798001e0fe8000e4890000080fb00b0
:100804009e0f5000ecff3e000000eb001007980024
:10081400030037001e0090000000e8001007980055
:100824009e009000f00c2000808f5000f9ff3600ed
:10083400b01680003000b300b01688004f04780072
:100844000080fa00000006000a00fa00889fbe003b
:10085400400798000000eb00300798000000eb0010
:10086400200798000000eb00100798000040eb0000
:10087400104798000040eb00004f780062003700fa
:100884003e009000104798001e4090004400dd0098
:100894001047980001cfb3001e4090000140600053
:1008a400104798001e4090000040e8001047980050
:1008b4000fc2bf00614060000004e000fcff320092
:1008c40030052000801088000fc2bf006140600026
:1008d4000004e000fcff3200400520008010880086
:1008e4000fc2bf00614060000004e000fcff320062
:1008f4001e4090000080fb00801088000fc2bf00e3
:10090400614060000004e000fcff320000052000ac
:10091400801088000fc2bf00614060000004e00046
:10092400fcff32000000eb001007980003003700c2
:100934001e0090000000e800100798009e00900040
:10094400f00c2000808f5000f9ff3600b1168000b3
:10095400c0ff200000806000b01688000000eb009b
:10096400200798000b0037003e0090004200dd0095
:10097400800078004e009000808440002e04900097
:10098400a5fe070000f47c002e0090000000e800a3
:10099400200798002e009000e30f5000f2ff36006d
:1009a4003e0090004200dd00800078004e00900080
:1009b400008040009040780000ccb30080cf50000d
:1009c40001003a001e4fe8000000eb0010079800f9
:1009d400030037001e0090000000e8001007980094
:1009e4009e00900070ff2000808f5000f9ff3600b9
:1009f400b01680003000b300b01688003e009000ae
:100a04000000e800300798003e009000ef0f50000f
:100a14009bff36001e80fb004f04be000080fa00de
:100a2400000006000800fa004047980031079800cb
:100a34000040eb00204798000040eb00104798006e
:100a44000040eb00004f78003e00900000004000a2
:100a540002032000110009000280d800300798002a
:100a64003e009000004f78004e4090006f406000c0
:100a7400404798004e4090004400dd001047980025
:100a84001e40900064404000104798000fc2bf0011
:100a9400614060000004e000fcff32001e40900052
:100aa4000080fb00801088000fc2bf00614060001e
:100ab4000004e000fcff32001e80fb008010880070
:100ac4000fc2bf00614060000004e000fcff320080
:100ad4000040eb0020479800030037002e409000b0
:100ae4000040e80020479800ae409000f0ccb300ee
:100af40080cf5000f9ff3600b0168000c1ff2000ff
:100b040001006000b01688000ec2bf007040600093
:100b14000004e000fcff32000ec2bf006140600030
:100b24000004e000fcff32000040eb002047980086
:100b3400030037002e4090000040e8002047980052
:100b4400ae409000f0ccb30080cf5000f9ff3600e7
:100b5400b01680003000b300b016880090108000fa
:100b64000080fb000080fa00000006000800fa0084
:100b740040479800310798000040eb002047980058
:100b84000040eb00104798000040eb00004f780055
:100b94003e00900000004000020320001100090004
:100ba4000280d800300798003e009000004f780083
:100bb4004e4090006f406000404798004e409000c7
:100bc4004400dd00104798001e409000654040003e
:100bd400104798000fc2bf00614060000004e000ad
:100be400fcff32001e4090000080fb008010880053
:100bf4000fc2bf00614060000004e000fcff32004f
:100c04001e80fb00801088000fc2bf00614060009e
:100c14000004e000fcff32000040eb002047980095
:100c2400030037002e4090000040e8002047980061
:100c3400ae409000f0ccb30080cf5000f9ff3600f6
:100c4400b0168000c1ff200001006000b0168800cb
:100c54000ec2bf00704060000004e000fcff3200e0
:100c64000ec2bf00614060000004e000fcff3200df
:100c74000040eb0020479800030037002e4090000e
:100c84000040e80020479800ae409000f0ccb3004c
:100c940080cf5000f9ff3600b01680003000b3005a
:100ca400b0168800901080000080fb000080fa00dd
:100cb400000006000800fa00404798003107980039
:100cc4000040eb00304798000040eb0020479800bc
:100cd4003e0090004800de00104798003e0090005f
:100ce400004f78004e4090006f40600040479800ed
:100cf4004e4090004400dd00204798002e409000b4
:100d040066404000204798002e409000b4fd070044
:100d14001e409000b2fd07001e407800b0fd0700a1
:100d2400030037003e4090000040e8003047980040
:100d3400be409000f0ccb30080cf5000f9ff3600e5
:100d4400b0168000c1ff200001006000b0168800ca
:100d54000ec2bf00704060000004e000fcff3200df
:100d64000ec2bf00614060000004e000fcff3200de
:100d74000040eb0030479800030037003e409000ed
:100d84000040e80030479800be409000f0ccb3002b
:100d940080cf5000f9ff3600b01680003000b30059
:100da400b0168800901080000080fb000080fa00dc
:100db400000006000800fa00404798003107980038
:100dc4000040eb00304798000040eb0020479800bb
:100dd4003e0090004800de00104798003e0090005e
:100de400004f78004e4090006f40600040479800ec
:100df4004e4090004400dd00204798002e409000b3
:100e040067404000204798002e40900074fd070082
:100e14001e40900072fd07001e40780070fd070020
:100e2400030037003e4090000040e800304798003f
:100e3400be409000f0ccb30080cf5000f9ff3600e4
:100e4400b0168000c1ff200001006000b0168800c9
:100e54000ec2bf00704060000004e000fcff3200de
:100e64000ec2bf00614060000004e000fcff3200dd
:100e74000040eb0030479800030037003e409000ec
:100e84000040e80030479800be409000f0ccb3002a
:100e940080cf5000f9ff3600b01680003000b30058
:100ea400b0168800901080000080fb000080fa00db
:100eb400000006000400fa0020479800314798001b
:100ec4000040eb00104798000040eb00004f780012
:100ed4002e4090006f406000204798002e40900004
:100ee4004400dd00004f78001e4078006840400058
:100ef400004f78001e40780039fd07003e40900006
:100f040037fd0700030037001e4090000040e80052
:100f1400104798009e409000f0ccb30080cf500062
:100f2400f9ff3600b0168000c1ff20000100600008
:100f3400b01688000ec2bf00704060000004e000dc
:100f4400fcff32000ec2bf00614060000004e000fc
:100f5400fcff32000040eb0010479800030037000c
:100f64001e4090000040e800104798009e4090000a
:100f7400f0ccb30080cf5000f9ff3600b0168000eb
:100f84003000b300b0168800901080000080fb0091
:100f94000080fa00000006003600f800809fbe00c2
:100fa400829fbe00849fbe00869fbe000c00fa0094
:100fb4000040eb00104f98000040eb00004f9800f9
:100fc4000000eb00300798000000eb0020079800b9
:100fd4000000eb0010079800e01080001047980014
:100fe40018c2bf00704060000004e000fcff320043
:100ff400e0108000004f78001822a9001e409000e5
:101004000080fb0050079800900f2000de00900045
:10101400808f5000ae003200900f2000de00900060
:10102400808f50000d003c00700f2000de00900007
:10103400808f500072013200700f2000de0090009b
:10104400808f500008013c00100f2000de0090004b
:10105400808f5000bb013200e9013700b00f20003f
:10106400de009000808f50003b003200b00f200063
:10107400de009000808f500053003500c00f200028
:10108400de009000808f50001e003200d00f200040
:10109400de009000808f500001003200d80137003c
:1010a40019c2bf00614060000004e000fcff320090
:1010b4001e4090000080fb004a05070019c2bf00d3
:1010c400614060000004e000fcff32000000eb001f
:1010d4004405070019c2bf00614060000004e0003d
:1010e400fcff32009cc8bf000080fb003d050700e8
:1010f40019c2bf00614060000004e000fcff320040
:10110400c501370019c2bf00614060000004e0005f
:10111400fcff32001e4090000080fb0031050700f8
:1011240019c2bf00614060000004e000fcff32000f
:101134000000eb002b05070019c2bf0061406000ee
:101144000004e000fcff32009ec8bf000080fb00ea
:1011540024050700b001370019c2bf0061406000d8
:101164000004e000fcff32001e4090000080fb0001
:101174001c05070019c2bf00614060000004e000c4
:10118400fcff32000000eb001605070019c2bf0087
:10119400614060000004e000fcff32004117800061
:1011a400f0ff27000080600040178800b11680001f
:1011b400f0df2f0000806000b016880010002000cf
:1011c400080507009401370019c2bf0061406000a0
:1011d4000004e000fcff32001e4090000080fb0091
:1011e4000005070019c2bf00614060000004e00070
:1011f400fcff32000000eb00fa04070019c2bf0034
:10120400614060000004e000fcff32000000eb00dd
:1012140030079800180037001000200020079800bd
:101224000f0037003e009000ae0090004200dd0049
:1012340081004000c08520000080400010407800fc
:101244000004e000030032001e0090000000e800eb
:10125400100798002e0090000000e8002007980076
:101264002e009000e30f5000eeff36003e00900089
:101274000000e800300798009cc8bf008080fb0095
:101284003e009000808f5000e3ff3e001e0090005f
:101294000000e000030032000000eb00d10407006e
:1012a4005d013700411780000000280000807000b5
:1012b40040178800b11680000020200000807000d4
:1012c400b016880010002000c60407005201370041
:1012d40019c2bf00614060000004e000fcff32005e
:1012e4001e4090000080fb00be04070019c2bf002e
:1012f400614060000004e000fcff32000000eb00ed
:10130400b804070019c2bf00614060000004e00097
:10131400fcff32000000eb00300798002400370087
:1013240019c2bf00614060000004e000fcff32000d
:101334003e009000800040000080200000804000bb
:101344009000780000f02f00008060004800de006c
:10135400104f98001e4890000080fb00a104070075
:1013640019c2bf00614060000004e000fcff3200cd
:101374003e0090008000400000802000008040007b
:1013840010007800004f98000e4890000080fb0089
:101394009404070019c2bf00614060000004e0002b
:1013a400fcff32003e0090000000e8003007980087
:1013b4003e009000ea0f5000d9ff36000000eb0019
:1013c400300798002400370019c2bf006140600054
:1013d4000004e000fcff32003e009000800040006a
:1013e40060812000008040009000780000f02f0011
:1013f400008060004800de00104f98001e489000f6
:101404000080fb007704070019c2bf006140600040
:101414000004e000fcff32003e0090008000400029
:10142400608120000080400010007800004f980088
:101434000e4890000080fb006a04070019c2bf0038
:10144400614060000004e000fcff32003e009000b8
:101454000000e800300798003e009000ea0f5000ba
:10146400d9ff3600ec00370019c2bf0061406000ac
:101474000004e000fcff32001e4090000080fb00ee
:101484005804070019c2bf00614060000004e00076
:10149400fcff32000000eb005204070019c2bf0039
:1014a400614060000004e000fcff32000000eb003b
:1014b400300798002400370019c2bf006140600063
:1014c4000004e000fcff32003e0090008000400079
:1014d400c0822000008040009000780000f02f00bf
:1014e400008060004800de00104f98001e48900005
:1014f4000080fb003b04070019c2bf00614060008c
:101504000004e000fcff32003e0090008000400038
:10151400c08220000080400010007800004f980036
:101524000e4890000080fb002e04070019c2bf0083
:10153400614060000004e000fcff32003e009000c7
:101544000000e800300798003e009000ea0f5000c9
:10155400d9ff36000000eb00300798002400370064
:1015640019c2bf00614060000004e000fcff3200cb
:101574003e00900080004000208420000080400055
:101584009000780000f02f00008060004800de002a
:10159400104f98001e4890000080fb0011040700c3
:1015a40019c2bf00614060000004e000fcff32008b
:1015b4003e00900080004000208420000080400015
:1015c40010007800004f98000e4890000080fb0047
:1015d4000404070019c2bf00614060000004e00079
:1015e400fcff32003e0090000000e8003007980045
:1015f4003e009000ea0f5000d9ff36008600370005
:1016040019c2bf00614060000004e000fcff32002a
:101614001e4090000080fb00f203070019c2bf00c7
:10162400614060000004e000fcff32000000eb00b9
:10163400ec030700c142800080c72e00808f500059
:1016440004003c00c142800070382100808f5000ab
:1016540022003c00d142800080c72e00808f5000c1
:1016640004003c00d142800070382100808f50007b
:101674001a003c0019c2bf00614060000004e00091
:10168400fcff3200d04280008000780000f02f0080
:10169400008060004800de00104f98001e48900053
:1016a4000080fb00cf03070019c2bf006140600047
:1016b4000004e000fcff3200d0428000804078004b
:1016c40000c0eb0000c06000004f98000e4890007e
:1016d4000080fb00c30307004f00370019c2bf009e
:1016e400614060000004e000fcff3200c042800062
:1016f4008000780000f02f00008060004800de00c9
:10170400104f98001e4890000080fb00b5030700ae
:1017140019c2bf00614060000004e000fcff320019
:10172400c04280008040780000c0eb0000c0600030
:10173400004f98000e4890000080fb00a9030700aa
:10174400350037009dc8bf000004e00008003a00df
:1017540013fb0700c08520003bfc07009ce8b70092
:10176400080307009dc8bf000040e8009de8b700db
:1017740019c2bf00614060000004e000fcff3200b9
:101784001e4090000080fb009603070019c2bf00b2
:10179400614060000004e000fcff3200c00420004f
:1017a4009003070019c2bf00614060000004e0001c
:1017b400fcff3200200c20008a03070019c2bf007e
:1017c400614060000004e000fcff3200c00c200017
:1017d4008403070019c2bf00614060000004e000f8
:1017e400fcff3200a00020007e03070019c2bf00e6
:1017f400614060000004e000fcff32000600370096
:1018040019c2bf00614060000004e000fcff320028
:10181400f00f2000730307008700a9000080fa007e
:101824004f03be004f02be004f01be004f00be007a
:101834003600f900004006003600f800809fbe0024
:10184400829fbe00849fbe00869fbe000800fa00ef
:101854000040eb00604798000040eb0050479800c0
:101864000040eb00404798000000eb001007980090
:1018740010002000000f7800c0852000f2fb070054
:1018840040479800100037000000eb001007980054
:10189400030037001e0090000000e80010079800c5
:1018a4009e009000e00f2000808f5000f9ff36006a
:1018b400c0852000e4fb0700404798009fc8bf0094
:1018c4000040e8009fe8b700c189200091407800fb
:1018d4004e409000814f5000030032009fc8bf006b
:1018e400e94f5000e8ff36000000eb0010079800b5
:1018f4001600370010002000000f78000d0037009c
:101904001e0090009e0078004200dd00810040002f
:10191400c085200000804000104078000004e000f2
:10192400030032006e4090000040e80060479800d9
:101934001e0fe800300020009e0f1000f0ff36005c
:101944001e0090000000e800100798009cc8bf002b
:101954008080fb001e009000808f5000e5ff3e0059
:10196400b20020000180200020002000fafa0700c5
:10197400b2002000c182200030002000f6fa0700e7
:101984009cc8bf00e14f500008003600b2002000a0
:101994006181200020012000effa0700b20020003e
:1019a4002184200030012000ebfa0700808520000c
:1019b400940207006e4090000004e00013003a0017
:1019c400c1428000000c2e00808f50000f003500b3
:1019d400c142800000fa2000808f50000b003c00c0
:1019e400d1428000000c2e00808f5000070035008b
:1019f400d142800000fa2000808f500003003c0098
:101a04009fc8bf00e94f50000b00360010c0b30060
:101a14009ee8b70041178000f0ff270000806000b7
:101a240040178800b1168000f0df2f0000806000ae
:101a3400b0168800020037000040eb009ee8b700b3
:101a44000040eb009fe8b700301780004e00de0036
:101a5400610060000004e0000500320040178000cf
:101a6400f1ff2b00010060004017880004003700dc
:101a74004017800001002400010070004017880016
:101a84008460a9000080fa004f03be004f02be002c
:101a94004f01be004f00be003600f90000400600b2
:101aa4000000fa00e0ff2f001008880000032a005d
:101ab400200888005109200091407800f0c8b30044
:101ac40000c0600001c5b3000140700095e0b7009c
:101ad4008460a9008c60a8000080fa000000060061
:101ae4000200fa000000eb00000f7800a8020700d3
:101af4002bfa0700230207000000eb00000f780018
:101b0400010037001e0fe800e0ff20009e0f1000c8
:101b1400fcff3600c08520004bfb07009ce8b700a3
:101b24000000eb00000f7800010037001e0fe800f2
:101b3400e0ff20009e0f1000fcff3600d8ff0700d6
:101b440021178000f0ff2300008060002017880028
:101b540091168000f0df2f0000806000901688004e
:101b6400ffff37000000fa0000022900301088004f
:101b7400f0002000201088000080fa000000060019
:101b84000400fa00004f78001147980008c2bf0013
:101b9400614060000004e000fcff3a000602a80077
:101ba40006c2bf00614060000004e000fcff3a0090
:101bb400200a20001010880009c2bf000044b200af
:101bc4000004e000fcff3a0009c2bf0001c8b300f2
:101bd400014060000004e000030032000000eb005c
:101be40010079800240037001e80fb0010108800a6
:101bf40009c2bf000044b2000004e000fcff3a0048
:101c040009c2bf0001c8b300014060000004e00045
:101c1400030032000000eb001007980016003700a4
:101c24001e4090000080fb001010880009c2bf0015
:101c34000044b2000004e000fcff3a0009c2bf0007
:101c440001c8b300014060000004e000030032005a
:101c54000000eb0010079800070037000642a800b8
:101c640006c2bf00644060000004e000fcff3a00cc
:101c740010002000100798001e0090000080fa0059
:101c8400000006000600fa002047980008c2bf00c2
:101c9400614060000004e000fcff3a000602a80076
:101ca40006c2bf00614060000004e000fcff3a008f
:101cb400200a20001010880009c2bf000044b200ae
:101cc4000004e000fcff3a0009c2bf0001c8b300f1
:101cd400014060000004e000030032000000eb005b
:101ce40020079800470037002e4090000080fb003a
:101cf4001010880009c2bf000044b2000004e000d4
:101d0400fcff3a0009c2bf0001c8b30001406000f3
:101d14000004e000030032000000eb0020079800fc
:101d24003800370008c2bf00614060000004e000d2
:101d3400fcff3a000642a80006c2bf0064406000ef
:101d44000004e000fcff3a000602a80006c2bf003f
:101d5400614060000004e000fcff3a00300a20000b
:101d64001010880009c2bf000044b2000004e00063
:101d7400fcff3a0009c2bf0001c8b3000140600083
:101d84000004e000030032000000eb00200798008c
:101d94001c0037000662a80006c2bf00684060004d
:101da4000004e000fcff3a0008c2bf00624060008b
:101db4000004e000fcff320000108000004f7800b7
:101dc4001e04e0000d0032000682a80006c2bf0017
:101dd400704060000004e000fcff3a000642a800e6
:101de40006c2bf00644060000004e000fcff3a004b
:101df4001e80fb0020079800020037000000eb0063
:101e0400200798002e0090000080fa0000000600d1
:101e14000c00fa00008fbe004247980008c2bf00c1
:101e2400614060000004e000fcff3a000602a800e4
:101e340006c2bf00614060000004e000fcff3a00fd
:101e44001e00be004008de000100200061006000aa
:101e54000004e00003003200e00a200010108800b3
:101e640002003700600a20001010880009c2bf0079
:101e74000044b2000004e000fcff3a0009c2bf00c5
:101e840001c8b300014060000004e0000300320018
:101e94000000eb00300798008700370000f02f00a7
:101ea400010020009e0178001e02900000017800cd
:101eb4000100780002816100000062006102b80044
:101ec40044079800550798004e009000de009000eb
:101ed400c000dd0000002000400798005107980072
:101ee4004e009000de0090006112b8004407980094
:101ef400550798004e019000de019000020070002a
:101f040083807000c809dd004800de000080710095
:101f1400c808de000080fb001010880009c2bf0062
:101f24000044b2000004e000fcff3a0009c2bf0014
:101f340001c8b300014060000004e0000300320067
:101f44000002eb00340798005b0037001e007800a5
:101f54000080fb001010880009c2bf000044b200da
:101f64000004e000fcff3a0009c2bf0001c8b3004e
:101f7400014060000004e000030032008002eb0036
:101f8400350798004c0037004e4090000080fb005d
:101f94001010880009c2bf000044b2000004e00031
:101fa400fcff3a0009c2bf0001c8b3000140600051
:101fb4000004e000030032000000eb00300798004a
:101fc4003d0037000642a80006c2bf00644060001e
:101fd4000004e000fcff3a0008c2bf00614060005a
:101fe4000004e000fcff3a000602a80006c2bf009d
:101ff400614060000004e000fcff3a001e00be00e7
:102004004008de0001002000610060000004e000e0
:1020140003003200e00a200010108800020037009c
:10202400600a20001010880009c2bf000044b200fa
:102034000004e000fcff3a001800370008c2bf00ab
:10204400614060000004e000fcff3a000602a800c2
:1020540006c2bf00614060000004e000fcff3a00db
:102064001e00be004008de00010020006100600088
:102074000004e00003003200e00a20001010880091
:1020840002003700600a20001010880009c2bf0057
:102094000044b2000004e000fcff3a0009c2bf00a3
:1020a40001c8b300014060000004e000e3ff3a000f
:1020b40011002000310798003e0090000080fa00d3
:1020c400000006000c00fa00100798002107980091
:1020d40008c2bf00614060000004e000fcff3a0059
:1020e4000602a80006c2bf00614060000004e000d0
:1020f400fcff3a001e009000ae0090004008de0095
:1021040001002000610060000004e00003003200d0
:10211400e00a20001010880002003700600a200046
:102124001010880009c2bf000044b2000004e0009f
:10213400fcff3a0009c2bf0001c8b30001406000bf
:102144000004e000030032000000eb0030079800b8
:10215400760037001e009000ae00900002f02f00c1
:102164000300200000027800810278000200780059
:102174008300780000016200018062006102b800ff
:1021840044079800550798004e009000de00900028
:10219400c000dd00000020004007980051079800af
:1021a4004e009000de0090006112b80044079800d1
:1021b400550798004e019000de0190000200700067
:1021c40083807000c809dd004800de0000807100d3
:1021d400c808de000080fb001010880009c2bf00a0
:1021e4000044b2000004e000fcff3a0009c2bf0052
:1021f40001c8b300014060000004e00003003200a5
:102204000002eb0034079800480037001e009000dd
:102214000080fb001010880009c2bf000044b20017
:102224000004e000fcff3a0009c2bf0001c8b3008b
:10223400014060000004e000030032008002eb0073
:1022440035079800390037000602a80006c2bf000f
:10225400614060000004e000fcff3a001e009000b2
:10226400ae0090004008de00010020006100600024
:102274000004e00003003200f00a2000101088007f
:1022840002003700700a20001010880009c2bf0045
:102294000044b2000004e000fcff3a0009c2bf00a1
:1022a40001c8b300014060000004e00003003200f4
:1022b4000000eb00300798001c0037000662a800fd
:1022c40006c2bf00684060000004e000fcff3a0062
:1022d40008c2bf00624060000004e000fcff32005e
:1022e40000108000004f78001e04e0000d00320052
:1022f4000682a80006c2bf00704060000004e0002f
:10230400fcff3a000642a80006c2bf006440600019
:102314000004e000fcff3a009e80fb0031079800b7
:10232400020037000001eb00320798003e009000e5
:102334000080fa00000006000000fa00000e2000f1
:10234400001588000000eb00101588001010200014
:1023540020158800f0002000301588000000eb00f4
:10236400401588000080eb003016880001158000bd
:102374000000280000807000001588000080fa002a
:10238400000006000000fa00400e2000001588003e
:10239400c04220001015880010302000201588004d
:1023a4000000eb00301588000000eb0040158800a9
:1023b400b0f32f00501588000080eb003016880021
:1023c40001158000000028000080700000158800be
:1023d4000080fa00000006000000fa0000158000ea
:1023e4000010a00000158800a0c2bf00614060007a
:1023f4000004e000fcff3200001480000080fa00ba
:10240400000006000600fa00200798006000b800eb
:10241400008fbe00a0c2bf00614060000004e00065
:10242400fcff3200701480006101b800a0992f00f5
:10243400f1ff2f00001f4100019749009e00780022
:10244400803e20000009b8001e0078006000b9003a
:1024540003027800000242009e009000803e2000ab
:102464000088b9000002420084017800028fbe0097
:102474001e00be00d200200003002000a9f70700c0
:10248400008fbe009e00780050002000000ab800b3
:102494001e0078006000b9000501780000014100c9
:1024a4001e0090006500b90000014100820278001e
:1024b400048fbe001e00be00f203200003002000b3
:1024c40098f70700008fbe009e0078002e00900051
:1024d40001087800801480006101b800a0992f00e1
:1024e400f1ff2f00001f4100019749009e00780072
:1024f400401f20000009b8001e0078006000b900e9
:1025040003027800000242009e009000401f200059
:102514000088b9000002420084017800028fbe00e6
:102524001e00be00d2002000030020007df707003b
:10253400008fbe009e00780050002000000ab80002
:102544001e0078006000b900050178000001410018
:102554001e0090006500b90000014100820278006d
:10256400048fbe001e00be00f20320000300200002
:102574006cf70700008fbe002e0090008080e800fa
:102584001e007800800878000080fa000000060031
:102594000000fa00100a2800b0108800004028004b
:1025a400c010880080202000f0108800000028005f
:1025b400000488000000240010048800010a2000a0
:1025c4009140780080cfb30000c060000024a000d8
:1025d400a0e0b7008700a9008f00a8000080fa00df
:1025e400000006000200fa00004f780019c2bf0084
:1025f400614060000004e000fcff32001e80fb002c
:10260400d010880019c2bf00614060000004e000df
:0c261400fcff32000080fa00000006000d
:020000040000fa
:102620009c08000004000000020000000000000000
:1026300000000000000800009c00000000000000f6
:042640000000000096
:00000001FF
