:020000040000fa
:080000000001040000000000f3
:020000040000fa
:100200006fbd21000e7f22000e018800000000005b
:100210000c000700c0432b00010020001100070064
:10022000000020000000e000020032000000020098
:1002300000000000d86e0200000000000040da005c
:100240000000fe004440a900c02624000000e00099
:100250000300320000002000a00188004440a800f4
:100260000000060091018800800078000000eb008b
:1002700015003700e280400032a0b4009101ba00be
:10028000e280400032a0b4009102ba00e280400057
:1002900032a0b4000002eb00472bde00f507b200ed
:1002a000602ce10004003a000059eb008301e900f2
:1002b000fdff3e00040037006128e100010032002c
:1002c0000082eb00040007001101ba000200e00008
:1002d000e8ff3a00000006003159ba008301e90046
:1002e0000c0032002159ba008301e90008003200f5
:1002f0000400e00003003a00e280400032a0b400b5
:10030000f5ff370011d9ba008301e900faff3a007e
:100310008100e800e180400032a0b4000000060047
:100320000040da000000fe006022b8000602200053
:100330000000d0008180d2000482d2008582d200e9
:100340000000a0000202520083825a000300310024
:100350000202420083824a000000a1000603e90075
:10036000f3ff3a0000000600efff07000400be00a4
:040370000000060083
:020000040000fa
:0200000401f009
:04000000e2fb00001f
:020000040000fa
:1000080090010000900100009001000090010000a4
:100018009001000090010000900100009001000094
:100028009001000090010000900100001e93000064
:100038009001000090010000bea50000bc66000011
:10004800900100007ca400003ea30000d4af000093
:100058009001000090010000900100009001000054
:100068009001000090010000900100009001000044
:1000780090010000bc7a000090010000900100008f
:10008800766400004e62000090010000949e00001b
:100098009001000090010000900100009001000014
:1000a8009001000090010000900100009001000004
:1000b80090010000900100009001000090010000f4
:1000c80090010000900100009001000090010000e4
:1000d80090010000900100009001000090010000d4
:1000e80090010000900100009001000090010000c4
:0800f8009001000090010000de
:020000040000fa
:1001080090010000900100009001000090010000a3
:100118009001000090010000900100009001000093
:100128009001000090010000900100001e93000063
:100138009001000090010000bea50000bc66000010
:10014800900100007ca400003ea30000d4af000092
:100158009001000090010000900100009001000053
:100168009001000090010000900100009001000043
:1001780090010000bc7a000090010000900100008e
:10018800766400004e62000090010000949e00001a
:100198009001000090010000900100009001000013
:1001a8009001000090010000900100009001000003
:1001b80090010000900100009001000090010000f3
:1001c80090010000900100009001000090010000e3
:1001d80090010000900100009001000090010000d3
:1001e80090010000900100009001000090010000c3
:0801f8009001000090010000dd
:020000040000fa
:10037400312e0000313a0000206e0000756d00003f
:1003840062650000722000006f66000020730000a8
:100394006c61000076650000206200006f6100005f
:1003a40072640000732000006f660000206100008a
:1003b4006c6c00002074000079700000657300000c
:1003c400206900006e20000073790000737400003f
:1003d400656d00002e000000312e0000323a00004e
:1003e400206e0000756d0000626500007220000040
:1003f4006f660000207300007461000074750000d3
:10040400732f00006375000072720000656e0000b7
:100414007420000070610000636b000065740000cc
:1004240073200000706500007220000075700000e9
:1004340064610000746500002063000079630000bb
:100444006c6500002e000000312e0000333a0000dd
:10045400206e0000756d00006265000072200000cf
:100464006f660000207600006f6c0000746100006d
:100474006765000020700000616300006b65000088
:100484007473000020700000657200002075000085
:10049400706400006174000065200000637900004e
:1004a400636c0000652e0000003100002e34000053
:1004b4003a2000006e7500006d6200006572000055
:1004c400206f000066200000746500006d7000005d
:1004d4006572000061740000757200006520000000
:1004e40070610000636b00006574000073200000fd
:1004f40070650000722000007570000064610000e7
:100504007465000020630000796300006c650000de
:100514002e000000312e0000353a0000206e00004d
:10052400756d000062650000722000006f660000b7
:1005340020620000616c0000616e000063690000cd
:100544006e67000020700000616300006b650000ae
:1005540074730000207000006572000020750000b4
:10056400706400006174000065200000637900007d
:10057400636c0000652e0000003100002e36000080
:100584003a2000006e7500006d6200006572000084
:10059400206f000066200000626f00006f7400008e
:1005a400737400007261000070200000706100002c
:1005b400636b000065740000732000007065000028
:1005c4007220000075700000646100007465000012
:1005d40020630000796300006c6500002e000000b9
:1005e400312e0000373a000020410000646400000e
:1005f4007265000073730000206f00006620000025
:10060400626f00006f740000737400007261000078
:1006140070200000736c000061760000652000000b
:1006240028300000203d0000206e00006f200000f4
:10063400626f00006f740000737400007261000048
:1006440070200000626f00006172000064290000e5
:100654002e000000312e0000383a00002053000024
:100664007461000072740000757000002041000085
:10067400757400006f4d0000656100007375000023
:100684007265000020280000312000003d20000099
:100694004250000053200000706f00007765000096
:1006a400727300002075000070200000616e00006d
:1006b4006420000073740000617200007473000011
:1006c400206d000065610000737500007269000010
:1006d4006e67000020630000656c00006c7300000e
:1006e4002c200000302000003d200000425000007b
:1006f40053200000737400006172000074730000e2
:100704002075000070200000696e00002069000060
:10071400646c0000652000007374000061740000c4
:10072400652900002e000000312e0000393a000037
:1007340020420000616c0000616e000063690000eb
:100744006e670000204700006c6f000062610000cb
:100754006c200000456e0000616200006c650000c2
:1007640020280000312000003d20000062610000cc
:100774006c6100006e630000696e00006720000079
:10078400656e0000616200006c650000642c00006e
:1007940020300000203d0000206e00006f2000008b
:1007a400626100006c6100006e630000696e00000d
:1007b400672900002e000000312e000031300000b7
:1007c4003a2000004e7500006d6200006572000062
:1007d400206f000066200000736c0000617600004a
:1007e4006520000052650000616400002052000092
:1007f4006574000072690000657300002e0000003b
:10080400312e0000313100003a200000224900005e
:10081400474e000049540000494f00004e2200009a
:10082400206900006e7000007574000020650000ef
:100834006e610000626c000065200000283000003a
:10084400203d000020730000657200006961000013
:100854006c200000636f00006d6d0000616e00008d
:10086400647300002c200000312000003d200000b3
:100874007573000065200000686100007264000068
:10088400776100007265000020690000676e000057
:10089400206900006e700000757400002873000069
:1008a4007472000069630000742900002c200000a9
:1008b400322000003d2000006861000072640000e6
:1008c400776100007265000020690000676e000017
:1008d400202800007769000074680000207400007c
:1008e400657200006d690000616e00006c200000fc
:1008f4006f76000065720000726900006465000094
:10090400292e0000003100002e310000323a000090
:10091400206e0000756d000062650000722000000a
:100924006f660000205300004f4300002070000059
:10093400616300006b6500007473000020700000a8
:10094400657200002075000070640000617400008e
:100954006520000063790000636c0000652e0000d0
:10096400003100002e310000333a00002062000004
:100974006f61000072640000206800006172000072
:100984006477000061720000652000007665000055
:1009940072730000696f00006e20000028310000af
:1009a400203d000020760000312000002853000084
:1009b4006f6c00006f720000656100006e2900001a
:1009c4002c20000032200000203d00002076000092
:1009d40032200000285400006578000053750000a0
:1009e4006e2900002c200000332000003d20000070
:1009f40076330000202800006e6500007720000098
:100a040063610000722900002e000000312e0000f6
:100a1400313400003a200000707200006563000069
:100a2400686100007267000065200000656e0000c8
:100a3400616200006c650000202800003020000086
:100a44003d2000006e6f0000207000007265000001
:100a54006368000061720000676500002c200000dc
:100a6400312000003d20000070720000656300002a
:100a74006861000072670000652900000031000011
:100a84002e310000353a000020700000726500002d
:100a94006368000061720000676500002063000065
:100aa4006f6e000074610000637400006f720000d8
:100ab400206d00006f6400006520000028300000f5
:100ac400203d0000206e00006f7200006d61000088
:100ad4006c290000003100002e310000363a00007d
:100ae4002061000075780000206300006f6e000034
:100af40074610000637400006f720000206d0000d8
:100b04006f6400006520000028300000203d0000d4
:100b140020300000203d0000206100006c770000c0
:100b240061790000732000006f660000662c0000ed
:100b340020310000203d0000206600006f6c0000a2
:100b44006c6f0000772000006d610000696e00008a
:100b5400206300006f6e0000746100006374000085
:100b64006f720000207700006974000068200000a4
:100b74007072000065630000686100007267000025
:100b8400652000006c6f000067690000632c0000a2
:100b940020320000203d0000207300007472000029
:100ba40069630000746c0000792000006d69000026
:100bb400727200006f720000206d00006169000015
:100bc4006e200000636f00006e740000616300001b
:100bd400746f0000722c000020330000202d0000f0
:100be400206600006f6c00006c6f0000772000002e
:100bf4006d610000696e0000206300006f6e0000ec
:100c040074610000637400006f72000020770000bc
:100c140069740000682000007072000065630000c1
:100c2400686700002c20000062750000742000003a
:100c34006b65000065700000206f00006e200000ee
:100c440064750000726900006e6700002074000083
:100c540072690000702c000020340000202d000078
:100c6400206100006c7700006179000073200000af
:100c74006f6e0000003100002e310000373a000092
:100c84002061000075780000207400006f200000cf
:100c94007072000065630000686100007267000004
:100ca40065200000746900006d65000020280000c4
:100cb400756e000069740000732000006f66000008
:100cc400203000002e310000207300006563000016
:100cd4006f6e000064290000003100002e31000016
:100ce400383a00002070000072650000636800005c
:100cf4006172000067650000207400006f2000002e
:100d04006d610000696e0000206300006f6e0000da
:100d140074610000637400006f72000020740000ae
:100d2400696d000065200000287500006e690000f0
:100d340074730000206f000066200000302e000055
:100d44003120000073650000636f00006e640000d2
:100d540029000000312e0000313900003a20000043
:100d64007072000065630000686100007267000033
:100d740065200000746900006d65000020610000ba
:100d84006674000065720000206d00006169000057
:100d94006e20000069730000206f00006e200000c8
:100da400287500006e69000074730000206f000055
:100db40066200000302e0000312000007365000022
:100dc400636f00006e64000029000000322e0000f2
:100dd400313a0000206e0000756d0000626500006d
:100de400722000006f66000020630000656c000044
:100df4006c730000206f00006e200000736c000014
:100e040061760000652000002331000020280000e6
:100e1400656e000074650000722000003020000040
:100e2400666f000072200000626f00006f740000a3
:100e34007374000072610000702900002e0000002d
:100e4400322e0000323a0000206e0000756d000062
:100e540062650000722000006f66000020630000dd
:100e6400656c00006c730000206f00006e200000b1
:100e7400736c0000617600006520000023320000de
:100e840020280000656e00007465000072200000d8
:100e940030200000666f000072200000626f0000c6
:100ea4006f74000073740000726100007029000008
:100eb4002e000000322e0000333a0000206e0000a5
:100ec400756d000062650000722000006f6600000e
:100ed40020630000656c00006c730000206f00004c
:100ee4006e200000736c0000617600006520000035
:100ef4002333000020280000656e000074650000a4
:100f04007220000030200000666f00007220000094
:100f1400626f00006f74000073740000726100005f
:100f2400702900002e000000322e0000343a000028
:100f3400206e0000756d00006265000072200000e4
:100f44006f66000020630000656c00006c73000095
:100f5400206f00006e200000736c000061760000ba
:100f6400652000002334000020280000656e000086
:100f7400746500007220000030200000666f0000dd
:100f840072200000626f00006f7400007374000030
:100f940072610000702900002e000000322e000053
:100fa400353a0000206e0000756d00006265000097
:100fb400722000006f66000020630000656c000072
:100fc4006c730000206f00006e200000736c000042
:100fd4006176000065200000233500002028000011
:100fe400656e00007465000072200000302000006f
:100ff400666f000072200000626f00006f740000d2
:101004007374000072610000702900002e0000005b
:10101400322e0000363a0000206e0000756d00008c
:1010240062650000722000006f660000206300000b
:10103400656c00006c730000206f00006e200000df
:10104400736c000061760000652000002336000008
:1010540020280000656e0000746500007220000006
:1010640030200000666f000072200000626f0000f4
:101074006f74000073740000726100007029000036
:101084002e000000322e0000373a0000206e0000cf
:10109400756d000062650000722000006f6600003c
:1010a40020630000656c00006c730000206f00007a
:1010b4006e200000736c0000617600006520000063
:1010c4002337000020280000656e000074650000ce
:1010d4007220000030200000666f000072200000c3
:1010e400626f00006f74000073740000726100008e
:1010f400702900002e000000322e0000383a000053
:10110400206e0000756d0000626500007220000012
:101114006f66000020630000656c00006c730000c3
:10112400206f00006e200000736c000061760000e8
:10113400652000002338000020280000656e0000b0
:10114400746500007220000030200000666f00000b
:1011540072200000626f00006f740000737400005e
:1011640072610000702900002e000000322e000081
:10117400393a0000206e0000756d000062650000c1
:10118400722000006f66000020630000656c0000a0
:101194006c730000206f00006e200000736c000070
:1011a400617600006520000023390000202800003b
:1011b400656e00007465000072200000302000009d
:1011c400666f000072200000626f00006f74000000
:1011d4007374000072610000702900002e0000008a
:1011e400322e0000313000003a2000006e750000fd
:1011f4006d62000065720000206f00006620000030
:10120400636500006c6c0000732000006f6e0000ca
:10121400207300006c61000076650000202300004c
:101224003130000020280000656e00007465000065
:101234007220000030200000666f00007220000061
:10124400626f00006f74000073740000726100002c
:10125400702900002e000000322e00003131000001
:101264003a2000006e7500006d6200006572000097
:10127400206f000066200000636500006c6c0000b5
:10128400732000006f6e0000207300006c6100008a
:101294007665000020230000313100002028000082
:1012a400656e0000746500007220000030200000ac
:1012b400666f000072200000626f00006f7400000f
:1012c4007374000072610000702900002e00000099
:1012d400322e0000313200003a2000006e7500000a
:1012e4006d62000065720000206f0000662000003f
:1012f400636500006c6c0000732000006f6e0000da
:10130400207300006c61000076650000202300005b
:101314003132000020280000656e00007465000072
:101324007220000030200000666f00007220000070
:10133400626f00006f74000073740000726100003b
:10134400702900002e000000322e0000313300000e
:101354003a2000006e7500006d62000065720000a6
:10136400206f000066200000636500006c6c0000c4
:10137400732000006f6e0000207300006c61000099
:10138400766500002023000031330000202800008f
:10139400656e0000746500007220000030200000bb
:1013a400666f000072200000626f00006f7400001e
:1013b4007374000072610000702900002e000000a8
:1013c400322e0000313400003a2000006e75000017
:1013d4006d62000065720000206f0000662000004e
:1013e400636500006c6c0000732000006f6e0000e9
:1013f400207300006c61000076650000202300006b
:101404003134000020280000656e0000746500007f
:101414007220000030200000666f0000722000007f
:10142400626f00006f74000073740000726100004a
:10143400702900002e000000322e0000313500001b
:101444003a2000006e7500006d62000065720000b5
:10145400206f000066200000636500006c6c0000d3
:10146400732000006f6e0000207300006c610000a8
:10147400766500002023000031350000202800009c
:10148400656e0000746500007220000030200000ca
:10149400666f000072200000626f00006f7400002d
:1014a4007374000072610000702900002e000000b7
:1014b400322e0000313600003a2000006e75000024
:1014c4006d62000065720000206f0000662000005d
:1014d400636500006c6c0000732000006f6e0000f8
:1014e400207300006c61000076650000202300007a
:1014f4003136000020280000656e0000746500008d
:101504007220000030200000666f0000722000008e
:10151400626f00006f740000737400007261000059
:10152400702900002e000000332e0000313a000024
:10153400206e0000756d00006265000072200000de
:101544006f66000020630000656c00006c7300008f
:10155400206900006e200000656e000074690000c0
:101564007265000020620000617400007465000070
:101574007279000020700000616300006b2e00008f
:10158400003300002e3200003a20000042610000c7
:10159400747400006572000079200000706100001e
:1015a400636b0000204100006d7000002d480000b6
:1015b4006f750000727300002e000000332e0000cf
:1015c400333a0000205300004f4300002061000024
:1015d4006c6700006f72000069740000686d0000a1
:1015e40020280000312000003d200000413100008f
:1015f4003233000029000000332e0000343a00008a
:10160400206100006c6c00006f7700002066000011
:101614006f720000636500002072000065630000c3
:10162400616c00006962000072610000746900006e
:101634006f6e0000732800006269000074200000cf
:1016440066690000656c0000642c000020620000e4
:1016540069740000303a0000747200006970000080
:1016640020550000562c0000206200006974000020
:10167400313a000074720000697000004f56000097
:101684002c20000062690000743200003a770000e8
:10169400617200006e550000562c000020620000ac
:1016a40069740000333a000077610000726e000034
:1016b4004f560000292e0000003300002e35000094
:1016c4003a200000556e0000646500007256000068
:1016d4006f6c0000746100006765000020740000f6
:1016e40072690000702000007265000063610000f0
:1016f4006c200000706f0000696e00007420000010
:10170400285300004f430000252900002e0000004c
:10171400332e0000363a0000204f000076650000aa
:10172400725600006f6c0000746100006765000071
:1017340020740000726900007020000072650000cf
:10174400636100006c200000706f0000696e00008f
:1017540074200000285300004f4300002529000096
:101764002e000000332e0000373a00002055000000
:101774006e64000065720000566f00006c74000017
:10178400616700006520000077610000726e000050
:10179400696e00006720000072650000636100004c
:1017a4006c200000706f0000696e0000742000005f
:1017b400285300004f430000252900002e0000009c
:1017c400332e0000383a0000204f000076650000f8
:1017d400725600006f6c00007461000067650000c1
:1017e40020770000617200006e6900006e670000df
:1017f4002072000065630000616c0000207000002e
:101804006f6900006e74000020280000534f000030
:1018140043250000292e0000003300002e3900006b
:101824003a2000006465000066610000756c0000e9
:1018340074200000696e0000697400006961000092
:101844006c6900007a65000020760000616c00007d
:101854007565000020280000534f00004325000058
:10186400292e0000003400002e3100003a20000030
:10187400636500006c6c0000206f0000766500005a
:10188400727600006f6c00007461000067650000f0
:10189400206c0000696d00006974000020280000bd
:1018a400756e000069740000732000003d20000084
:1018b400746500006e74000068730000206f0000ff
:1018c400662000006d7600003b20000033300000ed
:1018d40030300000302000003d200000332e000096
:1018e4003030000030200000766f00006c7400007f
:1018f400732900002e000000342e0000323a00004c
:1019040020630000656c00006c200000756e000010
:1019140064650000727600006f6c00007461000062
:1019240067650000206c0000696d000069740000a8
:1019340020280000756e0000697400007320000008
:101944003d200000746500006e74000068730000a0
:10195400206f0000662000006d7600003b20000030
:101964003330000030300000302000003d20000003
:10197400332e00003030000030200000766f00006d
:101984006c740000732900002e000000342e000047
:10199400333a000020700000616300006b200000f7
:1019a4006f760000657200006375000072720000bb
:1019b400656e000074200000286300006861000068
:1019c4007267000065290000206c0000696d00004a
:1019d4006974000020280000756e0000697400001e
:1019e400732000003d200000746500006e74000048
:1019f40068730000206f000066200000416d000045
:101a0400707300003b2000002b31000035300000d3
:101a1400302000003d20000031350000302000005f
:101a240041200000636800006172000067650000e7
:101a3400292e0000003400002e3400003a2000005b
:101a440050610000636b0000206f000076650000a9
:101a54007263000075720000726500006e7400000d
:101a640020280000646900007363000068610000be
:101a74007267000065290000206c0000696d000099
:101a84006974000020280000756e0000697400006d
:101a9400732000003d200000746500006e74000097
:101aa40068730000206f000066200000416d000094
:101ab400707300003b2000002d3100003530000021
:101ac400302000003d20000031350000304100008e
:101ad4002064000069730000636800006172000004
:101ae40067650000203c00004e45000047410000af
:101af40054490000564500002053000049470000a7
:101b04004e2000004d4100004e44000041540000ae
:101b14004f520000593e0000292e000000340000fe
:101b24002e3500003a200000636500006c6c000054
:101b3400206f00007665000072740000656d00007f
:101b4400702000006c6900006d69000074200000c2
:101b54006f6e00002063000068610000726700007f
:101b640065200000287500006e6900007473000091
:101b7400203d000020740000656e000074680000c1
:101b8400732000006f660000204b0000656c0000ad
:101b9400766900006e3b0000203300003030000006
:101ba40030300000203d00002033000030300000c1
:101bb4002e3000004b2900002e000000342e0000bf
:101bc400363a000020630000656c00006c200000c1
:101bd400756e00006465000072740000656d00009d
:101be400702000006c6900006d6900007420000022
:101bf4006f6e0000206300006861000072670000df
:101c040065200000287500006e69000074730000f0
:101c1400203d000020740000656e00007468000020
:101c2400732000006f660000204b0000656c00000c
:101c3400766900006e3b0000203300003030000065
:101c440030300000203d0000203300003030000020
:101c54002e3000004b2900002e000000342e00001e
:101c6400373a000020630000656c00006c2000001f
:101c74006f76000065720000746500006d700000ee
:101c8400206c0000696d000069740000206f000082
:101c94006e20000064690000736300006861000046
:101ca4007267000065200000287500006e6900005e
:101cb40074730000203d000020740000656e000075
:101cc40074680000732000006f660000204b000061
:101cd400656c0000766900006e3b00002033000054
:101ce4003030000030300000203d00002033000080
:101cf400303000002e3000004b2900002e00000080
:101d0400342e0000383a000020630000656c0000a7
:101d14006c200000756e00006465000072740000a1
:101d2400656d0000702000006c6900006d690000a2
:101d3400742000006f6e00002064000069730000ce
:101d440063680000617200006765000020280000dd
:101d5400756e000069740000732000003d200000cf
:101d6400746500006e74000068730000206f00004a
:101d7400662000004b6500006c760000696e000070
:101d84003b200000333000003030000030200000e1
:101d94003d20000033300000302e0000304b0000a6
:101da400292e0000003400002e3900003a200000e3
:101db400636500006c6c0000206f00007665000015
:101dc400727600006f6c00007461000067650000ab
:101dd40020770000617200006e6900006e670000e9
:101de40020280000756e0000697400007320000054
:101df4003d200000746500006e74000068730000ec
:101e0400206f0000662000006d7600003b2000007b
:101e14003330000030300000302000003d2000004e
:101e2400332e00003030000030200000766f0000b8
:101e34006c740000732900002e000000342e000092
:101e4400313000003a200000636500006c6c000033
:101e5400207500006e64000065720000766f00005b
:101e64006c74000061670000652000007761000069
:101e7400726e0000696e0000672000002875000083
:101e84006e69000074730000203d0000207400009f
:101e9400656e000074680000732000006f66000027
:101ea400206d0000763b000020330000303000003d
:101eb40030300000203d0000203300002e300000b0
:101ec40030300000207600006f6c00007473000056
:101ed400292e0000003400002e310000313a0000a9
:101ee40020700000616300006b2000006f7600002a
:101ef400657200006375000072720000656e000078
:101f0400742000002863000068610000726700000c
:101f14006529000020770000617200006e690000ee
:101f24006e67000020280000756e000069740000d0
:101f3400732000003d200000746500006e740000f2
:101f440068730000206f000066200000416d0000ef
:101f5400707300003b2000002b310000353000007e
:101f6400302000003d20000031350000302000000a
:101f74004120000063680000617200006765000092
:101f8400292e0000003400002e310000323a0000f7
:101f940020500000616300006b2000006f76000099
:101fa400657200006375000072720000656e0000c7
:101fb4007420000028640000697300006368000056
:101fc400617200006765000029200000776100004d
:101fd400726e0000696e0000672000002875000022
:101fe4006e69000074730000203d0000207400003e
:101ff400656e000074680000732000006f660000c6
:10200400204100006d700000733b0000202d000093
:102014003135000030300000203d00002031000048
:102024003530000041200000646900007363000043
:102034006861000072670000652000003c4e0000eb
:102044004547000041540000495600004520000067
:1020540053490000474e0000204d0000414e00004f
:1020640044410000544f0000525900003e29000032
:102074002e000000342e0000313300003a2000000e
:10208400636500006c6c0000206f00007665000042
:1020940072740000656d000070200000776100001c
:1020a400726e0000696e0000672000006f6e000011
:1020b4002063000068610000726700006520000072
:1020c400287500006e69000074730000203d000054
:1020d40020740000656e0000746800007320000026
:1020e4006f660000204b0000656c000076690000fc
:1020f4006e3b000020330000303000003030000020
:10210400203d000020330000303000002e3000005d
:102114004b2900002e000000342e00003134000052
:102124003a200000636500006c6c0000207500001c
:102134006e64000065720000746500006d7000003c
:1021440020770000617200006e6900006e67000075
:10215400206f00006e2000006368000061720000c0
:102164006765000020280000756e00006974000097
:10217400732000003d200000746500006e740000b0
:1021840068730000206f0000662000004b650000ab
:102194006c760000696e00003b20000033300000c4
:1021a40030300000302000003d20000033300000bb
:1021b400302e0000304b0000292e000000340000b7
:1021c4002e310000353a000020630000656c0000e9
:1021d4006c2000006f7600006572000074650000da
:1021e4006d70000020770000617200006e690000cd
:1021f4006e670000206f00006e200000646900001c
:1022040073630000686100007267000065200000cd
:10221400287500006e69000074730000203d000002
:1022240020740000656e00007468000073200000d4
:102234006f660000204b0000656c000076690000aa
:102244006e3b0000203300003030000030300000ce
:10225400203d000020330000303000002e3000000c
:102264004b2900002e000000342e000031360000ff
:102274003a200000636500006c6c000020750000cb
:102284006e64000065720000746500006d700000eb
:1022940020770000617200006e6900006e67000024
:1022a400206f00006e20000064690000736300006a
:1022b4006861000072670000652000002875000056
:1022c4006e69000074730000203d0000207400005b
:1022d400656e000074680000732000006f660000e3
:1022e400204b0000656c0000766900006e3b000026
:1022f400203300003030000030300000203d00006a
:1023040020330000303000002e3000004b29000044
:102314002e000000352e0000313a0000206c000031
:102324006f77000020720000616e00006765000096
:102334002063000075720000726500006e74000076
:1023440020730000656e0000736f000072200000af
:1023540067610000696e00002e000000352e000049
:10236400323a0000206c00006f77000020720000f9
:10237400616e000067650000206300007572000054
:10238400726500006e74000020730000656e00002a
:10239400736f0000722000006f6600006673000017
:1023a400657400002e2000003c7300006967000083
:1023b4006e650000643e0000003500002e3300000e
:1023c4003a2000006869000067680000207200007d
:1023d400616e0000676500002063000075720000f4
:1023e400726500006e74000020730000656e0000ca
:1023f400736f00007220000067610000696e0000c6
:102404002e000000352e0000343a00002068000041
:102414006967000068200000726100006e670000b8
:10242400652000006375000072720000656e000094
:1024340074200000736500006e7300006f7200006a
:10244400206f00006666000073650000742e0000b3
:10245400203c000073690000676e000065640000a2
:102464003e000000352e0000353a000020680000d0
:1024740069670000682d00006c6f00007720000081
:102484006375000072720000656e00007420000025
:1024940074720000616e00007369000074690000ca
:1024a4006f6e0000207000006f6900006e74000001
:1024b4002e000000352e0000363a0000205800009f
:1024c4002d61000078690000732000004163000062
:1024d400636500006c650000726f00006d650000ac
:1024e400746500007220000067610000696e0000de
:1024f4002e000000352e0000373a0000205800005e
:102504002d61000078690000732000004163000021
:10251400636500006c650000726f00006d6500006b
:1025240074650000722000006f660000667300008e
:10253400657400002e2000003c73000069670000f1
:102544006e650000643e0000003500002e38000077
:102554003a200000592d00006178000069730000e2
:102564002041000063630000656c00006572000098
:102574006f6d000065740000657200002067000044
:10258400616900006e2e0000003500002e39000045
:102594003a200000592d00006178000069730000a2
:1025a4002041000063630000656c00006572000058
:1025b4006f6d00006574000065720000206f0000fc
:1025c4006666000073650000742e0000203c000065
:1025d40073690000676e0000656400003e0000003f
:1025e400352e0000313000003a2000005a2d000042
:1025f40061780000697300002041000063630000fb
:10260400656c0000657200006f6d00006574000069
:102614006572000020670000616900006e2e0000f2
:10262400003500002e310000313a0000205a00002d
:102634002d610000786900007320000041630000f0
:10264400636500006c650000726f00006d6500003a
:1026540074650000722000006f660000667300005d
:10266400657400002e2000003c73000069670000c0
:102674006e650000643e0000003500002e3100004d
:10268400323a000020630000757200007265000099
:102694006e74000020730000656e0000736f00000c
:1026a40072200000626f000061720000642000006c
:1026b4002b310000355600002072000061690000d3
:1026c4006c2d0000736500006e730000652000002f
:1026d40067610000696e00002e000000352e0000c6
:1026e400313300003a20000063750000727200006c
:1026f400656e000074200000736500006e730000b6
:102704006f720000206200006f61000072640000bc
:10271400202b0000313500005620000072610000bb
:10272400696c00002d730000656e00007365000085
:10273400206f00006666000073650000742e0000c0
:10274400203c000073690000676e000065640000af
:102754003e000000352e0000313400003a20000015
:102764006375000072720000656e00007420000042
:10277400736500006e7300006f7200002062000039
:102784006f61000072640000202d000031350000ec
:102794005620000072610000696c00002d73000077
:1027a400656e0000736500002e2000006761000064
:1027b400696e0000003500002e310000353a00003b
:1027c4002063000075720000726500006e740000e2
:1027d40020730000656e0000736f0000722000001b
:1027e400626f000061720000642000002d3100005f
:1027f4003556000020720000616900006c2d000055
:10280400736500006e730000652e0000203c00001c
:1028140073690000676e0000656400003e000000fc
:10282400352e0000313600003a20000063750000a8
:1028340072720000656e0000742000007365000071
:102844006e7300006f720000206200006f61000070
:1028540072640000206f000066660000736500006b
:1028640074200000766f00006c7400006167000043
:10287400652d0000736500006e7300006520000084
:1028840067610000696e00002e000000352e000014
:10289400313700003a2000006375000072720000b6
:1028a400656e000074200000736500006e73000004
:1028b4006f720000206200006f610000726400000b
:1028c400206f00006666000073650000742000003d
:1028d400766f00006c74000061670000652d0000d5
:1028e400736500006e730000652000006f660000d1
:1028f4006673000065740000203c000073690000ea
:10290400676e0000656400003e000000352e000084
:10291400313800003a2000006d610000737400003b
:102924006572000027730000203300002e3300007e
:102934005620000073750000707000006c79000070
:102944002d730000656e00007365000020670000b1
:10295400616900006e2e0000003500002e31000079
:10296400393a0000206d00006173000074650000b6
:102974007227000073200000332e0000335600003d
:102984002073000075700000706c0000792d000049
:10299400736500006e730000652000006f66000020
:1029a40066730000657400002e2000003c73000074
:1029b400696700006e650000643e00000035000099
:1029c4002e320000303a0000206d000061730000d8
:1029d4007465000072270000732000003556000063
:1029e4002073000075700000706c0000792d0000e9
:1029f400736500006e7300006520000067610000cd
:102a0400696e00002e000000352e000032310000f7
:102a14003a2000006d6100007374000065720000cc
:102a24002773000020350000562000007375000055
:102a3400707000006c7900002d730000656e00005a
:102a440073650000206f0000666600007365000077
:102a5400742e0000203c000073690000676e0000c3
:102a6400656400003e000000352e00003232000094
:102a74003a200000636f00006e7400006163000080
:102a8400746f000072200000636f0000696c000026
:102a9400207600006f6c0000746100006765000020
:102aa4002d730000656e0000736500002067000050
:102ab400616900006e2e0000003500002e32000017
:102ac400333a0000206300006f6e00007461000060
:102ad400637400006f720000206300006f690000df
:102ae4006c200000766f00006c74000061670000c9
:102af400652d0000736500006e7300006520000002
:102b04006f66000066730000657400002e200000ec
:102b14003c730000696700006e650000643e0000bd
:102b24000043000075720000726500006e740000be
:102b340020730000656e0000736f000072200000b7
:102b4400706f00006c61000072690000747900000d
:102b540020280000302000003d2000006e6f00009f
:102b6400726d0000616c00002c2000003120000018
:102b74003d2000007265000076650000727300005d
:102b840065640000292e0000003600002e3100008c
:102b94003a200000434100004e2000006261000022
:102ba4007365000020610000646400007265000029
:102bb400737300002e200000283000002d31000027
:102bc400352900002873000065740000732000009c
:102bd40074680000652000006869000067680000f0
:102be400203400002062000069740000732000009b
:102bf4006f660000204d000053470000204900008c
:102c040044290000003600002e3200003a20000063
:102c1400434100004e20000052580000206500008f
:102c24006e610000626c0000652000002830000026
:102c3400203d000020640000697300006162000010
:102c44006c650000642c000020310000203d000071
:102c54002042000050530000207200006573000001
:102c6400706f00006e64000073200000746f000039
:102c740020430000414e0000206300006f6d0000ff
:102c84006d6100006e6400007329000000360000ce
:102c94002e3300003a200000434100004e20000083
:102ca40054580000206500006e610000626c000052
:102cb4006520000028300000203d00002064000052
:102cc40069730000616200006c650000642c000000
:102cd40020310000203d000020420000505300003d
:102ce40020730000656e0000647300002043000040
:102cf400414e000020750000706400006174000003
:102d04006573000029000000372e0000313a0000ee
:102d1400204c0000434400005f7000006572000016
:102d2400696f0000643a000020230000206f000057
:102d3400662000006d610000696e0000206c0000d8
:102d44006f6f00007020000069740000657200005d
:102d540061740000696f00006e730000206200005f
:102d64006574000077650000656e0000204c00006b
:102d7400434400002075000070640000617400008a
:102d84006573000020280000302000003d20000072
:102d94004c4300004420000069730000206f0000d1
:102da4006666000029000000312e0000313a000060
:102db400206e0000756d0000626500007220000046
:102dc4006f66000020630000656c00006c730000f7
:102dd400206f00006e20000074680000697300001a
:102de400207300006c61000076650000202800005c
:102df400766f00006c74000061670000657300006a
:102e040029000000312e0000323a0000206e00003c
:102e1400756d000062650000722000006f6600009e
:102e240020630000656c0000732000006f6e0000da
:102e3400207400006869000073200000736c0000b7
:102e4400617600006520000028740000656d0000b4
:102e54007065000072610000747500007265000006
:102e640073290000003100002e3300003a200000d6
:102e7400736c000061760000652000004944000086
:102e840020280000666f00007220000070720000ad
:102e94006f670000726100006d6d000061740000d6
:102ea40069630000616c00006c790000206100001f
:102eb40073730000696700006e6500006420000001
:102ec400736c0000617600006520000061640000fe
:102ed40064720000657300007320000077680000ce
:102ee400656e000020440000495000007377000024
:102ef4002073000077740000207400006f2000002d
:102f040030290000003100002e3400003a20000077
:102f14005253000034380000352000006275000070
:102f240073200000696e000074650000722d0000bb
:102f3400627900007465000020740000696d00006f
:102f4400656f000075740000203c00007469000087
:102f54006d65000072200000726500006769000062
:102f6400737400006572000020760000616c00003c
:102f7400756500003e000000312e0000353a000067
:102f8400204c0000544300002063000068690000e6
:102f940070200000636f00006e7600006572000010
:102fa400736900006f6e0000207700006169000003
:102fb40074200000746900006d650000203c00006e
:102fc400746900006d6500007220000072650000e5
:102fd40067690000737400006572000020760000c9
:102fe400616c0000756500003e000000312e000099
:102ff400363a000020410000444300002f4c0000fa
:1030040054430000207000006f6c00006c690000e5
:103014006e67000020740000696d000065200000e8
:103024003c740000696d00006572000020720000ad
:103034006567000069730000746500007220000079
:10304400766100006c750000653e000000310000f0
:103054002e3700003a200000426100006c6100003d
:103064006e63000065200000546900006d65000077
:103074006f750000742000003c230000206f0000e6
:10308400662000004c5400004320000063790000d7
:10309400636c0000657300003e000000312e0000e8
:1030a400383a0000204c0000544300002063000024
:1030b40068690000702000007479000070650000e9
:1030c40020280000322000003d2000004c54000065
:1030d4004336000038300000322c0000203300005a
:1030e400203d0000204c000054430000363800000e
:1030f4003033000029000000312e0000393a00006e
:10310400204c000054430000206300006865000068
:10311400636b00002050000045430000206f000056
:103124006e2000007265000063650000697600008f
:103134006520000028300000203d000020690000c8
:10314400676e00006f7200006520000050450000ab
:10315400432c000020310000203d000020720000bc
:10316400656a000065630000742000004c54000090
:1031740043200000646100007461000020770000b7
:103184006974000068200000696e00007661000028
:103194006c690000642000004352000043290000d1
:1031a400003100002e310000303a000020610000a0
:1031b400757400006f2d00007374000061720000cc
:1031c40074200000636f00006e76000065720000da
:1031d400746900006e6700002028000031200000a0
:1031e4003d20000073740000617200007420000030
:1031f400636f00006e760000657200007469000061
:103204006e670000207600006f6c0000747300008d
:103214002f740000656d000070730000206f0000c3
:103224006e200000626f00006f7400002c2000000c
:10323400302000003d200000736c00006176000027
:1032440065200000776100006974000073200000ad
:10325400746f000020620000652000007475000097
:10326400726e000065640000206f00006e2900008b
:10327400003200002e3100003a2000004c540000bf
:1032840043200000766f00006c740000616700004a
:103294006520000067610000696e00002063000083
:1032a400656c00006c20000031000000322e00002c
:1032b400323a0000204c0000544300002076000005
:1032c4006f6c0000746100006765000020670000f7
:1032d400616900006e200000636500006c6c0000f2
:1032e40020320000003200002e3300003a2000009b
:1032f4004c54000043200000766f00006c74000002
:10330400616700006520000067610000696e0000cd
:1033140020630000656c00006c2000003300000096
:10332400322e0000343a0000204c000054430000c8
:10333400207600006f6c0000746100006765000077
:1033440020670000616900006e20000063650000d2
:103354006c6c000020340000003200002e350000a8
:103364003a2000004c54000043200000766f000017
:103374006c74000061670000652000006761000054
:10338400696e000020630000656c00006c20000082
:1033940035000000322e0000363a0000204c0000b8
:1033a40054430000207600006f6c0000746100003c
:1033b4006765000020670000616900006e2000005e
:1033c400636500006c6c00002036000000320000d1
:1033d4002e3700003a2000004c5400004320000027
:1033e400766f00006c7400006167000065200000c7
:1033f40067610000696e000020630000656c0000d6
:103404006c20000037000000322e0000383a000023
:10341400204c000054430000207600006f6c000034
:1034240074610000676500002067000061690000a6
:103434006e200000636500006c6c00002038000002
:10344400003200002e3900003a2000004c540000e5
:1034540043200000766f00006c7400006167000078
:103464006520000067610000696e000020630000b1
:10347400656c00006c20000039000000322e000052
:10348400313000003a2000004c540000432000007a
:10349400766f00006c740000616700006520000016
:1034a40067610000696e000020630000656c000025
:1034b4006c20000031300000003200002e3100008a
:1034c400313a0000204c00005443000020760000f4
:1034d4006f6c0000746100006765000020670000e5
:1034e400616900006e200000636500006c6c0000e0
:1034f4002031000031000000322e00003133000082
:103504003a2000004c54000043200000766f000075
:103514006c740000616700006520000067610000b2
:10352400696e000020630000656c00006c200000e0
:1035340031320000003300002e3100003a20000038
:103544004c54000043200000766f00006c740000af
:1035540061670000652000006f660000667300006c
:103564006574000020630000656c00006c2000009e
:10357400312000003c730000696700006e650000a4
:10358400643e0000003300002e3200003a200000a8
:103594004c54000043200000766f00006c7400005f
:1035a40061670000652000006f660000667300001c
:1035b4006574000020630000656c00006c2000004e
:1035c400322000003c730000696700006e65000053
:1035d400643e0000003300002e3300003a20000057
:1035e4004c54000043200000766f00006c7400000f
:1035f40061670000652000006f66000066730000cc
:103604006574000020630000656c00006c200000fd
:10361400332000003c730000696700006e65000001
:10362400643e0000003300002e3400003a20000005
:103634004c54000043200000766f00006c740000be
:1036440061670000652000006f660000667300007b
:103654006574000020630000656c00006c200000ad
:10366400342000003c730000696700006e650000b0
:10367400643e0000003300002e3500003a200000b4
:103684004c54000043200000766f00006c7400006e
:1036940061670000652000006f660000667300002b
:1036a4006574000020630000656c00006c2000005d
:1036b400352000003c730000696700006e6500005f
:1036c400643e0000003300002e3600003a20000063
:1036d4004c54000043200000766f00006c7400001e
:1036e40061670000652000006f66000066730000db
:1036f4006574000020630000656c00006c2000000d
:10370400362000003c730000696700006e6500000d
:10371400643e0000003300002e3700003a20000011
:103724004c54000043200000766f00006c740000cd
:1037340061670000652000006f660000667300008a
:103744006574000020630000656c00006c200000bc
:10375400372000003c730000696700006e650000bc
:10376400643e0000003300002e3800003a200000c0
:103774004c54000043200000766f00006c7400007d
:1037840061670000652000006f660000667300003a
:103794006574000020630000656c00006c2000006c
:1037a400382000003c730000696700006e6500006b
:1037b400643e0000003300002e3900003a2000006f
:1037c4004c54000043200000766f00006c7400002d
:1037d40061670000652000006f66000066730000ea
:1037e4006574000020630000656c00006c2000001c
:1037f400392000003c730000696700006e6500001a
:10380400643e0000003300002e310000303a000016
:10381400204c000054430000207600006f6c000030
:103824007461000067650000206f00006666000098
:103834007365000074200000636500006c6c000078
:1038440020310000302000003c7300006967000054
:103854006e650000643e0000003300002e3100005d
:10386400313a0000204c0000544300002076000050
:103874006f6c00007461000067650000206f000039
:103884006666000073650000742000006365000034
:103894006c6c000020310000312000003c730000fb
:1038a400696700006e650000643e0000003300009c
:1038b4002e310000333a0000204c00005443000035
:1038c400207600006f6c00007461000067650000e2
:1038d400206f00006666000073650000742000001d
:1038e400636500006c6c0000203100003220000091
:1038f4003c730000696700006e650000643e0000d0
:10390400003400002e3100003a20000074650000ed
:103914006d70000065720000617400007572000033
:1039240065200000736500006e7300006f72000074
:1039340020670000616900006e20000063650000dc
:103944006c6c000020310000003400002e320000b6
:103954003a200000746500006d700000657200007c
:10396400617400007572000065200000736500003a
:103974006e7300006f720000206700006169000030
:103984006e200000636500006c6c000020320000b3
:10399400003400002e3300003a200000746500005b
:1039a4006d700000657200006174000075720000a3
:1039b40065200000736500006e7300006f720000e4
:1039c40020670000616900006e200000636500004c
:1039d4006c6c000020330000003400002e34000022
:1039e4003a200000746500006d70000065720000ec
:1039f40061740000757200006520000073650000aa
:103a04006e7300006f72000020670000616900009f
:103a14006e200000636500006c6c00002034000020
:103a2400003400002e3500003a20000074650000c8
:103a34006d70000065720000617400007572000012
:103a440065200000736500006e7300006f72000053
:103a540020670000616900006e20000063650000bb
:103a64006c6c000020350000003400002e3600008d
:103a74003a200000746500006d700000657200005b
:103a84006174000075720000652000007365000019
:103a94006e7300006f72000020670000616900000f
:103aa4006e200000636500006c6c0000203600008e
:103ab400003400002e3700003a2000007465000036
:103ac4006d70000065720000617400007572000082
:103ad40065200000736500006e7300006f720000c3
:103ae40020670000616900006e200000636500002b
:103af4006c6c000020370000003400002e380000f9
:103b04003a200000746500006d70000065720000ca
:103b14006174000075720000652000007365000088
:103b24006e7300006f72000020670000616900007e
:103b34006e200000636500006c6c000020380000fb
:103b4400003400002e3900003a20000074650000a3
:103b54006d700000657200006174000075720000f1
:103b640065200000736500006e7300006f72000032
:103b740020670000616900006e200000636500009a
:103b84006c6c000020390000003400002e3100006d
:103b9400303a000020740000656d0000706500007c
:103ba40072610000747500007265000020730000eb
:103bb400656e0000736f00007220000067610000f2
:103bc400696e000020630000656c00006c2000003a
:103bd40031300000003400002e310000313a000082
:103be40020740000656d00007065000072610000c3
:103bf400747500007265000020730000656e00009b
:103c0400736f00007220000067610000696e00009d
:103c140020630000656c00006c200000313100005e
:103c2400003400002e310000333a000020740000fc
:103c3400656d00007065000072610000747500001d
:103c44007265000020730000656e0000736f000051
:103c54007220000067610000696e000020630000ac
:103c6400656c00006c20000031320000003500005b
:103c74002e3100003a200000746500006d700000d1
:103c84006572000061740000757200006520000018
:103c9400736500006e7300006f720000206f0000f7
:103ca4006666000073650000742000006365000010
:103cb4006c6c000020310000203c0000736900009f
:103cc400676e0000656400003e000000352e0000b1
:103cd400323a000020740000656d00007065000039
:103ce40072610000747500007265000020730000aa
:103cf400656e0000736f0000722000006f660000a4
:103d0400667300006574000020630000656c0000a9
:103d14006c200000322000003c7300006967000042
:103d24006e650000643e0000003500002e33000084
:103d34003a200000746500006d7000006572000098
:103d44006174000075720000652000007365000056
:103d54006e7300006f720000206f00006666000042
:103d64007365000074200000636500006c6c000043
:103d740020330000203c000073690000676e0000df
:103d8400656400003e000000352e0000343a000057
:103d940020740000656d0000706500007261000011
:103da400747500007265000020730000656e0000e9
:103db400736f0000722000006f66000066730000dd
:103dc4006574000020630000656c00006c20000036
:103dd400342000003c730000696700006e65000039
:103de400643e0000003500002e3500003a2000003b
:103df400746500006d70000065720000617400005d
:103e04007572000065200000736500006e73000089
:103e14006f720000206f000066660000736500008a
:103e240074200000636500006c6c00002035000005
:103e3400203c000073690000676e000065640000a8
:103e44003e000000352e0000363a000020740000c9
:103e5400656d0000706500007261000074750000fb
:103e64007265000020730000656e0000736f00002f
:103e7400722000006f660000667300006574000025
:103e840020630000656c00006c20000036200000f8
:103e94003c730000696700006e650000643e00002a
:103ea400003500002e3700003a2000007465000041
:103eb4006d7000006572000061740000757200008e
:103ec40065200000736500006e7300006f720000cf
:103ed400206f000066660000736500007420000017
:103ee400636500006c6c000020370000203c00007b
:103ef40073690000676e0000656400003e00000006
:103f0400352e0000383a000020740000656d000072
:103f14007065000072610000747500007265000035
:103f240020730000656e0000736f000072200000b3
:103f34006f66000066730000657400002063000073
:103f4400656c00006c200000382000003c73000009
:103f5400696700006e650000643e000000350000e3
:103f64002e3900003a200000746500006d700000d6
:103f74006572000061740000757200006520000025
:103f8400736500006e7300006f720000206f000004
:103f9400666600007365000074200000636500001d
:103fa4006c6c000020390000203c000073690000a4
:103fb400676e0000656400003e000000352e0000be
:103fc400313000003a200000746500006d7000007c
:103fd40065720000617400007572000065200000c5
:103fe400736500006e7300006f720000206f0000a4
:103ff40066660000736500007420000063650000bd
:104004006c6c000020310000302000003c73000084
:10401400696700006e650000643e00000035000022
:104024002e310000313a000020740000656d00005c
:104034007065000072610000747500007265000014
:1040440020730000656e0000736f00007220000092
:104054006f66000066730000657400002063000052
:10406400656c00006c20000031310000203c000031
:1040740073690000676e0000656400003e00000084
:10408400352e0000313300003a2000007465000032
:104094006d700000657200006174000075720000ac
:1040a40065200000736500006e7300006f720000ed
:1040b400206f000066660000736500007420000035
:1040c400636500006c6c00002031000032200000a9
:1040d4003c730000696700006e650000643e0000e8
:1040e400003200002e3100003a200000546f00001e
:1040f40070200000626f00006f7400007374000091
:1041040072610000702000006d6f00006475000093
:104114006c65000020630000757200007265000089
:104124006e74000020670000616900006e2e0000bc
:10413400003200002e3200003a200000546f0000cc
:104144007020000063680000617200006765000071
:104154007220000073750000707000006c7900001c
:10416400207600006f6c0000746100006765000039
:104174002d730000656e0000736900006e67000017
:1041840020670000616900006e2e0000003200000c
:104194002e3300003a200000546f0000702000000d
:1041a400626f00006f74000073740000726100009d
:1041b400702000006d6f0000647500006c650000e5
:1041c400207600006f6c00007461000067650000d9
:1041d40020670000616900006e2e000000320000bc
:1041e4002e3400003a200000546f000070200000bc
:1041f400626f00006f74000073740000726100004d
:10420400702000006d6f0000647500006c65000094
:1042140020740000656d000070650000726100008c
:104224007475000072650000206700006169000079
:104234006e2e0000003200002e3500003a200000ef
:10424400426f0000747400006f6d00002062000073
:104254006f6f0000747300007472000061700000de
:10426400206d00006f640000756c00006520000084
:104274006375000072720000656e00007420000017
:1042840067610000696e00002e000000322e0000fd
:10429400363a0000204200006f740000746f000082
:1042a4006d20000063680000617200006765000013
:1042b4007220000073750000707000006c790000bb
:1042c400207600006f6c00007461000067650000d8
:1042d4002d730000656e0000736900006e670000b6
:1042e40020670000616900006e2e000000320000ab
:1042f4002e3700003a200000426f00007474000062
:104304006f6d0000206200006f6f00007473000086
:104314007472000061700000206d00006f64000082
:10432400756c000065200000766f00006c7400005e
:10433400616700006520000067610000696e00008d
:104344002e000000322e0000383a00002042000007
:104354006f740000746f00006d200000626f000035
:104364006f7400007374000072610000702000001c
:104374006d6f0000647500006c650000207400001f
:10438400656d0000706500007261000074750000c6
:104394007265000020670000616900006e2e000055
:1043a400003200002e3900003a200000355600008b
:1043b4002d730000656e0000736500002067000027
:1043c400616900006e2e0000003200002e310000f2
:1043d400303a0000207300006c6100007665000034
:1043e4002042000075730000205600007375000021
:1043f400702d0000736500006e73000065200000de
:1044040067610000696e00002e000000322e00007b
:10441400313100003a2000002b31000035560000f5
:1044240020730000656e00007365000020670000c3
:10443400616900006e2e0000003200002e31000081
:10444400323a0000202d00003135000056200000d3
:10445400736500006e730000652000006761000052
:10446400696e00002e000000322e0000313300007f
:104474003a200000426f00006f7400007374000063
:104484007261000070200000736c0000617600000f
:10449400652000006c6f0000676900006320000065
:1044a400626f000061720000642000007465000007
:1044b4006d70000065720000617400007572000088
:1044c40065200000736500006e7300006f720000c9
:1044d40020670000616900006e2e000000330000b8
:1044e4002e3100003a200000546f000070200000bc
:1044f400626f00006f74000073740000726100004a
:10450400702000006d6f0000647500006c65000091
:104514002063000075720000726500006e74000074
:10452400206f00006666000073650000742e0000b2
:10453400203c000073690000676e000065640000a1
:104544003e000000332e0000323a000020540000e8
:104554006f70000020630000686100007267000053
:10456400657200002073000075700000706c00001c
:1045740079200000766f00006c7400006167000011
:10458400652d0000736500006e730000696e000005
:10459400672000006f660000667300006574000009
:1045a4002e2000003c730000696700006e65000067
:1045b400643e0000003300002e3300003a20000067
:1045c400546f000070200000626f00006f740000e0
:1045d4007374000072610000702000006d6f0000b1
:1045e400647500006c650000207600006f6c0000ac
:1045f4007461000067650000206f000066660000bb
:1046040073650000742e0000203c000073690000f4
:10461400676e0000656400003e000000332e000059
:10462400343a0000205400006f7000002062000043
:104634006f6f0000747300007472000061700000fa
:10464400206d00006f640000756c000065200000a0
:10465400746500006d7000006572000061740000f4
:1046640075720000652000006f660000667300002c
:10467400657400002e2000003c7300006967000090
:104684006e650000643e0000003300002e3500001b
:104694003a200000426f0000747400006f6d000047
:1046a400206200006f6f00007473000074720000d9
:1046b40061700000206d00006f640000756c0000e4
:1046c400652000006375000072720000656e0000d2
:1046d400742000006f6600006673000065740000bb
:1046e4002e2000003c730000696700006e65000026
:1046f400643e0000003300002e3600003a20000023
:10470400426f0000747400006f6d000020630000ad
:104714006861000072670000657200002073000089
:1047240075700000706c000079200000766f000046
:104734006c74000061670000652d00007365000063
:104744006e730000696e0000672000006f66000051
:1047540066730000657400002e2000003c730000a6
:10476400696700006e650000643e000000330000cd
:104774002e3700003a200000426f000074740000dd
:104784006f6d0000206200006f6f00007473000002
:104794007472000061700000206d00006f640000fe
:1047a400756c000065200000766f00006c740000da
:1047b40061670000652000006f66000066730000fa
:1047c400657400002e2000003c730000696700003f
:1047d4006e650000643e0000003300002e380000c7
:1047e4003a200000426f0000747400006f6d0000f6
:1047f400206200006f6f0000747300007472000088
:1048040061700000206d00006f640000756c000092
:1048140065200000746500006d7000006572000082
:104824006174000075720000652000006f6600006e
:1048340066730000657400002e2000003c730000c5
:10484400696700006e650000643e000000330000ec
:104854002e3900003a200000355600002d73000068
:10486400656e000073650000206f0000666600003e
:1048740073650000742e0000203c00007369000082
:10488400676e0000656400003e000000332e0000e7
:10489400313000003a200000736c000061760000a3
:1048a400652000004275000073200000567300006c
:1048b400757000002d730000656e000073650000c4
:1048c400206f00006666000073650000742e00000f
:1048d400203c000073690000676e000065640000fe
:1048e4003e000000332e0000313100003a20000069
:1048f4002b3100003556000020730000656e000067
:1049040073650000206f0000666600007365000098
:10491400742e0000203c000073690000676e0000e4
:10492400656400003e000000332e000031320000b8
:104934003a2000002d31000035560000207300009d
:10494400656e000073650000206f0000666600005d
:1049540073650000742e0000203c000073690000a1
:10496400676e0000656400003e000000332e000006
:10497400313300003a200000426f00006f740000e1
:10498400737400007261000070200000736c0000fa
:1049940061760000652000006c6f0000676900000c
:1049a40063200000626f0000617200006420000058
:1049b400746500006d700000657200006174000091
:1049c4007572000065200000736500006e730000be
:1049d4006f720000206f00006666000073650000bf
:1049e400742e0000203c000073690000676e000014
:1049f400656400003e0000000a0d0000556e0000d2
:104a040072650000636f0000676e0000697a000041
:104a140065640000206300006f6d00006d6100009c
:104a24006e6400002e20000052540000464d000029
:104a34002e0a00000a0d000042500000533e000000
:104a4400200000000a0a00000d570000656c0000f9
:104a5400636f00006d650000207400006f2000008b
:104a6400425000005320000073650000726900008a
:104a7400616c000020540000657200006d69000044
:104a84006e6100006c2000004d6f00006465000042
:104a9400210a00000d7000007265000073730000ad
:104aa400202200006573000063220000206b0000d8
:104ab40065790000207400006f2000006578000014
:104ac4006974000020620000616300006b20000034
:104ad400746f000020700000616300006b650000cb
:104ae400742000006d6f0000646500000a0d000072
:104af40070720000657300007320000022680000db
:104b040022200000666f0000722000006120000077
:104b14006372000079700000746900006320000073
:104b2400686500006c700000206d0000656e000078
:104b3400750a00000a0d000042500000533e0000b8
:104b4400200000000a0d00003d3d00003d41000032
:104b540076610000696c0000616200006c65000011
:104b64002042000050530000206300006f6d0000dd
:104b74006d6100006e640000733d00003d3d000067
:104b84000a0d000053520000202000002d200000d8
:104b9400536500007420000052650000676900003e
:104ba40073740000657200000a0d00005252000088
:104bb400202000002d2000005265000061640000e8
:104bc40020520000656700006973000074650000ee
:104bd400720a00000d52000043200000202d000046
:104be400205200006561000064200000525400005f
:104bf400430a00000d53000043200000202d000054
:104c0400205300006574000020520000544300004b
:104c14000a0d000056200000202000002d20000076
:104c2400736800006f77000020630000656c00006b
:104c34006c200000566f00006c7400006167000077
:104c4400657300000a0d00005420000020200000bd
:104c54002d200000736800006f77000020540000ce
:104c6400656d0000706500007261000074750000dd
:104c740072650000730a00000d4900002020000046
:104c8400202d000020730000686f000077200000d2
:104c94006375000072720000656e000074280000e5
:104ca40049290000206100006e64000020420000d9
:104cb40050530000207300007461000074750000fc
:104cc400730a00000d52000045420000202d000030
:104cd40020520000454200006f6f00007420000065
:104ce4007379000073740000656d00000a0d000004
:104cf400005300004f430000202d000020730000eb
:104d0400686f000077200000537400006174000095
:104d1400652000004f660000204300006861000029
:104d240072670000650a00000d420000414c00005b
:104d3400202d000020730000686f00007720000021
:104d4400424100004c6100006e630000696e000087
:104d5400670a00000d4f00004e200000202d0000c7
:104d640020740000757200006e200000737900004a
:104d740073740000656d0000204f00004e0a0000af
:104d84000d4f000046460000202d00002074000056
:104d9400757200006e2000007379000073740000c7
:104da400656d0000204f0000464600000a0d00001b
:104db40050520000202d00002050000072690000b5
:104dc4006e740000206c0000697300007420000001
:104dd4006f660000205200006567000069730000e0
:104de40074650000727300000a0d0000534d00004a
:104df400202d000020530000746f0000702000007c
:104e04004d6500006173000075720000656d00005f
:104e1400656e0000740a00000d4200004d20000081
:104e24002d20000042650000676900006e2000002c
:104e34004d6500006173000075720000656d00002f
:104e4400656e0000740a00000d420000532000004b
:104e54002d200000426f00006f74000053740000a6
:104e640072610000700a00000d480000454c00000b
:104e7400202d000020730000797300007465000089
:104e84006d20000048450000614c0000746800007b
:104e94000a0d000000530000534f0000432000009f
:104ea4002d2000005365000074200000537400009e
:104eb40061740000652000004f660000204300007c
:104ec4006861000072670000650a00000d5a000066
:104ed40053520000414d0000202d0000205a0000d4
:104ee400657200006f6900007a65000020620000ae
:104ef4006174000074650000727900002d62000086
:104f0400616300006b6500006420000053520000e0
:104f1400414d00000a0d00005253000052410000b0
:104f24004d2000002d200000526500006164000047
:104f3400206100006c6c0000206f000066200000ff
:104f44006261000074740000657200007920000042
:104f540062610000636b0000656400002053000080
:104f6400524100004d0a00000d520000475000005d
:104f7400494f0000202d000020530000686f0000fe
:104f8400772000006861000072640000776100000f
:104f940072650000206900006e70000075740000e6
:104fa40073200000616e0000642000006f75000033
:104fb4007470000075740000730a00000d4c00004a
:104fc400434400004f4e0000202d00002045000007
:104fd4006e610000626c0000652000004c4300001c
:104fe40044200000757000006461000074650000d6
:104ff4000a0d00004c430000444f000046460000e8
:10500400202d000020740000656d0000706f00000a
:1050140072610000726900006c7900002064000075
:1050240069730000616200006c650000204c0000a0
:1050340043440000207500007064000061740000a7
:10504400650a00000d00000054520000202d0000ed
:105054002064000069730000706c00006179000036
:1050640020740000686500002052000065610000a3
:10507400736f00006e20000074680000617400000b
:1050840020420000505300002054000072690000c8
:1050940070700000656400000a0d0000484c0000b8
:1050a400202d000020700000726900006e74000062
:1050b4002074000068650000204800006967000053
:1050c4006865000073740000206100006e640000d5
:1050d400204c00006f77000065730000742000000e
:1050e4007265000061640000696e0000677300006f
:1050f4000a0d0000504c0000202d0000205000003c
:10510400726900006e74000020740000686500007d
:105114002074000072690000702000004c690000d7
:105124006d690000747300000a0a00000d4200005b
:10513400505300003e200000000a00000d53000000
:1051440065740000746900006e670000205200005e
:10515400656700006973000074650000720a00004e
:105164000d6500006e74000065720000206e000082
:10517400756d000062650000722000006f6600001b
:10518400207300006c610000766500002830000088
:10519400203d0000206d0000617300007465000074
:1051a400722900000a0a00000d7300006c610000ff
:1051b40076650000206e0000756d00003e20000042
:1051c400000a00000d6500006e74000065720000a6
:1051d40020720000656700006973000074650000b8
:1051e40072200000677200006f750000700a0000f2
:1051f4000a0d0000677200006f750000703e000029
:10520400000a00000d7700006f7200006b69000057
:105214006e670000206f00006e20000074680000bc
:10522400652000004d610000737400006572000089
:105234000a0d0000656e0000746500007220000015
:1052440072650000676900007374000065720000f5
:1052540020670000726f0000757000000a0a0000e9
:105264000d200000677200006f750000703e0000a2
:10527400000a00000d6500006e74000065720000f5
:105284002072000065670000697300007465000007
:10529400720a00000d720000656700006973000067
:1052a40074650000723e0000000a00000d650000f5
:1052b4006e7400006572000020760000616c0000ce
:1052c400756500000a0d0000766100006c75000031
:1052d400653e0000000a00000d4d000061730000ef
:1052e40074650000722000005265000067690000c8
:1052f4007374000065720000200000002068000044
:1053040061730000207400006865000020730000d1
:1053140065740000207400006f200000000a000083
:105324000a0d000042500000533e000000450000fa
:10533400727200006f7200003a200000496e000093
:10534400766100006c690000642000005265000072
:10535400676900007374000065720000210a000090
:105364000a0d000042500000533e000000450000ba
:10537400727200006f7200003a200000436f000058
:105384006e660000696700007572000061740000b9
:10539400696f00006e2000004c6f0000636b00001a
:1053a40065640000210a00000a0d0000425000005c
:1053b400533e000000450000727200006f7200004e
:1053c4003a200000756e00006b6e00006f770000dd
:1053d4006e20000065720000726f0000723f0000d2
:1053e4000a0a00000d420000505300003e00000075
:1053f4000a0d00005265000061640000696e00003f
:1054040067200000526500006769000073740000a3
:10541400657200000a0d0000656e000074650000ee
:10542400722000006e7500006d620000657200005d
:10543400206f000066200000736c0000617600009d
:1054440065280000302000003d2000006d61000050
:105454007374000065720000290a00000a0d000040
:10546400736c000061760000652000006e7500001a
:105474006d3e0000200000000a0d0000776f000060
:10548400726b0000696e0000672000006f6e000000
:10549400207300006c61000076650000206200004b
:1054a4006f6100007264000020200000000a000008
:1054b4000d200000656e000074650000722000007d
:1054c4007265000067690000737400006572000073
:1054d40020670000726f0000757000000a0a000067
:1054e4000d200000677200006f750000703e000020
:1054f4000020000068610000732000007468000050
:1055040065200000766100006c75000065200000d5
:10551400000a00000d3d00003d3d00003d3d00003f
:10552400202000005254000043200000436c00007f
:105534006f6300006b200000203d00003d3d000033
:105544003d3d00000a0d0000446100007465000048
:105554003a200000005c000032300000000a000025
:105564000d540000696d0000653a00002000000041
:105574000a0a00000d420000505300003e200000c3
:10558400000a00000d3d00003d3d00003d3d0000cf
:10559400202000005365000074740000696e000050
:1055a40067200000425000005320000052650000b4
:1055b400616c000020540000696d0000652000004b
:1055c400436c00006f6300006b200000203d00006e
:1055d4003d3d00003d3d00000a0d0000656e0000e9
:1055e40074650000722000005965000061720000bb
:1055f4002028000032200000646900006769000070
:1056040074730000203000002d3900003929000097
:105614003e200000000a00000d6500006e740000ca
:1056240065720000206d00006f6e00007468000059
:10563400283100002d310000322900003e200000f6
:10564400000a00000d6500006e7400006572000021
:105654002064000061790000283100002d3300002f
:10566400312900003e200000000a00000d65000002
:105674006e74000065720000206800006f75000001
:1056840072280000302d000032330000293e000053
:10569400200000000a0d0000656e00007465000023
:1056a400722000006d6900006e75000074650000d2
:1056b40073280000302d000035390000293e000019
:1056c400200000000a0d0000656e000074650000f3
:1056d4007220000073650000636f00006e640000b8
:1056e40073280000302d000035390000293e0000e9
:1056f400200000000a0d0000636c00006f630000ce
:105704006b20000075700000646100007465000087
:10571400642e00000a0a00000d42000050530000ed
:105724003e200000000a00000d3d00003d3d000049
:105734003d3d000020430000656c00006c2000002b
:10574400566f00006c740000616700006573000010
:10575400203d00003d3d00003d3d00000a0d0000dd
:10576400000a00000d450000525200004f52000094
:105774003a2000006e6f000020760000616c00008b
:10578400696400002064000061740000612000006e
:1057940061760000616900006c610000626c0000c9
:1057a400652e00000a0a00000d0000004365000099
:1057b4006c6c0000200000003a200000000a000089
:1057c4000d0000000a0d000042500000533e00008e
:1057d400200000000a0d00003d3d00003d3d00009a
:1057e4003d200000436500006c6c00002054000064
:1057f400656d000070650000726100007475000042
:1058040072650000732000003d3d00003d3d000036
:105814003d0a00000d0000000a0d00004250000087
:10582400532000007379000073740000656d00005c
:10583400205300007461000074750000733a000086
:1058440020000000202d00002042000050530000e2
:105854002073000079730000746500006d2000005f
:1058640069730000202200006f66000066220000b9
:10587400206100006e640000206e00006f74000060
:10588400206d0000656100007375000072690000fe
:105894006e67000020630000656c00006c730000fc
:1058a400002000002d200000425000005320000082
:1058b4007379000073740000656d000020690000b6
:1058c400732000006d6500006173000075720000b4
:1058d400696e000067200000636500006c6c0000c6
:1058e40073200000616e000064200000636f0000fc
:1058f4006e74000061630000746f00007220000089
:1059040069730000204f000046460000002000009c
:105914002d20000042500000532000007379000045
:1059240073740000656d000020690000732000009e
:105934006d6500006173000075720000696e0000ff
:1059440067200000636500006c6c00007320000099
:10595400616e000064200000636f00006e7400003c
:1059640061630000746f000072200000697300001e
:10597400204f00004e000000202d000020420000b7
:10598400505300002069000073200000696e00007d
:105994002074000068650000207400007269000033
:1059a40070700000656400002073000074610000e2
:1059b400746500003a200000636f00006e740000fc
:1059c40061630000746f0000722000004f46000005
:1059d400462c00002042000050530000206d0000bf
:1059e4006561000073750000726900006e67000055
:1059f40020630000656c00006c7300000020000050
:105a04002d20000042500000532000006861000077
:105a1400732000006861000064200000616e0000d3
:105a2400206900006e740000657200006e61000061
:105a34006c20000065720000726f0000723a000072
:105a4400206300006f6e0000746100006374000046
:105a54006f720000204f0000464600002c2000001a
:105a64006e6f0000742000006d650000617300001b
:105a740075720000696e0000672000006365000015
:105a84006c6c000073000000202d00002042000018
:105a9400505300002068000061730000206a000079
:105aa400757300007420000062650000656e0000dc
