:020000040000fa
:080000000001040000000000f3
:020000040000fa
:100200002fa620000e7f22000e01880000000000b3
:100210000c00070040e4200001002000110007004e
:10022000000020000000e000020032000000020098
:1002300000000000da0a0200000000000040da00be
:100240000000fe004440a900000020000000e00083
:100250000300320000002000a00188004440a800f4
:100260000000060091018800800078000000eb008b
:1002700015003700e280400032a0b4009101ba00be
:10028000e280400032a0b4009102ba00e280400057
:1002900032a0b4000002eb00472bde00f507b200ed
:1002a000602ce10004003a000059eb008301e900f2
:1002b000fdff3e00040037006128e100010032002c
:1002c0000082eb00040007001101ba000200e00008
:1002d000e8ff3a00000006003159ba008301e90046
:1002e0000c0032002159ba008301e90008003200f5
:1002f0000400e00003003a00e280400032a0b400b5
:10030000f5ff370011d9ba008301e900faff3a007e
:100310008100e800e180400032a0b4000000060047
:080320000040da000000fe00bd
:020000040000fa
:1000080090010000900100009001000090010000a4
:100018009001000090010000900100009001000094
:100028009001000090010000900100009001000084
:100038009001000090010000d80600009001000027
:100048009001000008030000f80100009c0900006e
:100058009001000090010000900100009001000054
:100068009001000090010000900100009001000044
:100078009001000090010000900100009001000034
:100088009001000090010000900100009001000024
:100098009001000090010000900100009001000014
:1000a8009001000090010000900100009001000004
:1000b80090010000900100009001000090010000f4
:1000c80090010000900100009001000090010000e4
:1000d80090010000900100009001000090010000d4
:1000e80090010000900100009001000090010000c4
:0800f8009001000090010000de
:020000040000fa
:1001080090010000900100009001000090010000a3
:100118009001000090010000900100009001000093
:100128009001000090010000900100009001000083
:100138009001000090010000d80600009001000026
:100148009001000008030000f80100009c0900006d
:100158009001000090010000900100009001000053
:100168009001000090010000900100009001000043
:100178009001000090010000900100009001000033
:100188009001000090010000900100009001000023
:100198009001000090010000900100009001000013
:1001a8009001000090010000900100009001000003
:1001b80090010000900100009001000090010000f3
:1001c80090010000900100009001000090010000e3
:1001d80090010000900100009001000090010000d3
:1001e80090010000900100009001000090010000c3
:0801f8009001000090010000dd
:020000040000fa
:100328000000fa0010c1a9001081a90010a1a900bd
:100338001021a900801a26006008880084c0a9003e
:100348008cc0a800100a2800601088000ca2a90020
:10035800004028007010880040002000a01088008d
:10036800ff02070009eab700fd0207000000e000ed
:1003780004003a0031002000100020004705070063
:1003880009eab7008540a9008520a9008d40a8008a
:100398008d20a800d202a900d222a9006602070077
:1003a8000080fa00000006000000fa0010c0b30048
:1003b8000aeab7008d20a9000040eb0000eab70068
:1003c8000040eb0006eab7000040eb0007eab70080
:1003d800d622a800d602a8001000200080108800ad
:1003e8000080fa00000006003600f800809fbe007a
:1003f800829fbe00849fbe00869fbe003400f80026
:1004080000002000a00188000000fa008540a90033
:1004180006cabf000004e0000b003a0002cabf0091
:100428000080fb008010880001a020009140780027
:1004380002cabf0000c0400000eab70010c0b30005
:1004480006eab7006800370006cabf00e14f50004f
:1004580005003a000000eb008010880020c0b300bf
:1004680006eab7006000370006cabf00e24f500036
:1004780011003a00ffc9bf000080fb00801088000f
:1004880001a0200091407800ffc9bf0000c04000d3
:1004980000eab70002cabf000004e00003003a0007
:1004a80040c0b30006eab7004f00370030c0b300c1
:1004b80006eab7004c00370006cabf00e34f5000f9
:1004c8002c003a0002cabf008080fb0007cabf00a8
:1004d8000080fb000000e800808f500012003c0004
:1004e80007cabf008080fb00008020000080400019
:1004f800104078000080fb008010880007cabf0009
:100508008080fb0000802000008040009040780040
:1005180000cabf0000c0400000eab70040c0b300f6
:1005280006eab7003000370007cabf008080fb002a
:100538000080200000804000104078000080fb0010
:100548008010880007cabf008080fb000080200060
:10055800008040009040780000cabf0000c0400002
:1005680000eab70007cabf000040e80007eab70082
:100578001d00370006cabf00e44f500009003a00ca
:1005880000cabf0000c0ea0000eab70000cabf0006
:100598000080fb008010880050c0b30006eab70056
:1005a8001100370006cabf00e54f500005003a00a9
:1005b800e00f20008010880060c0b30006eab70092
:1005c8000900370006cabf00e64f500005003a0090
:1005d8000000eb008010880070c0b30006eab70086
:1005e80001003700d40107000080fa003400f90048
:1005f8004f03be004f02be004f01be004f00be00b9
:100608003600f900004006003600f800809fbe0062
:10061800829fbe00849fbe00869fbe003400f80003
:1006280000002000a00188000200fa008d20a90027
:100638008520a900d6c2bf00614060000004e00028
:100648000500320011e1a9000040eb0005eab700ff
:100658008d20a8009c00370005cabf000004e000f8
:100668000e003a0090108000104798001e4090003d
:10067800e14f500007003a000000eb003008880006
:1006880011e1a80010c0b30005eab7008d20a8004a
:100698008d003700a80107008b00370005cabf008e
:1006a800e14f50000f003a000000eb0030088800ce
:1006b80090108000104798001e40900003eab70091
:1006c80011a02000914078001e40900000c040001a
:1006d80001eab70020c0b30005eab7008d20a800e2
:1006e8007900370005cabf00e24f500014003a00f5
:1006f8000000eb0030088800901080001047980038
:1007080091a02000914078001e409000814f500039
:1007180005003a0001cabf009e4090000140400019
:1007280001eab700020037000040eb0008eab70012
:1007380030c0b30005eab7008d20a800620037007a
:1007480005cabf00e34f500017003a000000eb0055
:1007580030088800901080001047980008cabf0031
:100768000004e000060032001e409000fee9b700d9
:1007780001cabf009e4090000140400001eab70056
:1007880003cabf000004e0000300320040c0b30009
:1007980005eab7000200370050c0b30005eab70009
:1007a8008d20a8004800370005cabf00e44f50005c
:1007b8001e003a000000eb0030088800901080000e
:1007c8001047980008cabf000004e0000b00320080
:1007d80011a02000914078001e40900000c0400009
:1007e80001eab70004cabf008080fb00f08f200038
:1007f800008040009e4090000148780004cabf0075
:100808000040e80004eab70041a0200091407800c9
:1008180003cabf0080cf50000200390050c0b300a7
:1008280005eab7008d20a8002700370005cabf00d9
:10083800e54f500012003a000000eb003008880035
:10084800901080001047980001cabf0000c0ea005d
:1008580001eab70011a02000914078001e409000e6
:10086800814f5000020032000040eb0008eab70058
:1008780060c0b30005eab7008d20a8001200370059
:1008880005cabf00e64f50000d003a0011e1a9006b
:1008980008cabf000004e000060032009110800082
:1008a800e00f2000808f500002003a000e00070081
:1008b80001003700200107008d20a8000200370042
:1008c80011e1a9001c0107000080fa003400f900ba
:1008d8004f03be004f02be004f01be004f00be00d6
:1008e8003600f900004006000800fa000040eb005e
:1008f800604798001e4fe8001e4fe800fec9bf0081
:10090800e14f50000a003a0003cabf000004e000ab
:1009180001013a0010c0b3006047980020c0b3003e
:10092800ffe9b7000040eb0002eab700fa00370021
:10093800fec9bf00e24f500013003a0003cabf00cf
:10094800e44f5000f4003a0010c0b300604798002c
:10095800219020009140780001c9bf002a010700ba
:100968000001780000c9bf008080fb00ffc8bf00fd
:100978000080fb00e4030700ffe9b7000040eb003c
:1009880002eab700e4003700fec9bf00e34f500099
:1009980022003a0003cabf00e24f5000de003a00ce
:1009a80010c0b3006047980000c9bf008080fb00fa
:1009b800ffc8bf000080fb0023040700ffe9b70061
:1009c80020c0b30002eab700ffc9bf000004e0007e
:1009d8000d003a0000c9bf008080fb00ffc8bf00bf
:1009e8000080fb00ad030700200798002e00900050
:1009f8001801070000e8b7002e009000200107004a
:100a080001e8b700c40037000040eb0000e8b70079
:100a18000040eb0001e8b700bf003700fec9bf0087
:100a2800e44f500003003a000040eb006047980094
:100a3800b9003700fec9bf00e54f500003003a0077
:100a48000040eb0060479800b3003700fec9bf00c4
:100a5800e64f500009003a0003cabf000004e00056
:100a6800ad003a0010c0b300604798000040eb00aa
:100a780002eab7000000fe00a7003700fec9bf0069
:100a8800e74f500003003a000040eb006047980031
:100a9800a1003700fec9bf00e84f500003003a002c
:100aa8000040eb00604798009b003700fec9bf007c
:100ab800e94f500003003a000040eb0060479800ff
:100ac80095003700fec9bf00ea4f5000920032007f
:100ad800fec9bf00eb4f500082003a0003cabf00b6
:100ae8000004e0008c003a0010c0b3006047980092
:100af80044cabf000004e000390032000040eb00a7
:100b0800ffe9b70020c1b30002eab70080508000b7
:100b1800d000070000e8b70080508000d800070028
:100b280001e8b70060508000ca00070002e8b7007b
:100b380060508000d200070003e8b70090508000a2
:100b4800c400070004e8b70090508000cc000700fc
:100b580005e8b70070508000be00070006e8b7003f
:100b680070508000c600070007e8b70026cabf001b
:100b780008e8b700d0508000b600070009e8b700c1
:100b8800d0508000be0007000ae8b700b0508000cf
:100b9800b00007000be8b700b0508000b8000700ad
:100ba8000ce8b700e0508000aa0007000de8b70085
:100bb800e0508000b20007000ee8b700c050800087
:100bc800a40007000fe8b700c0508000ac00070081
:100bd80010e8b70027cabf0011e8b7004e00370079
:100be80045cabf000004e000390032000040eb00b5
:100bf800ffe9b70020c1b30002eab70060518000e6
:100c08009400070000e8b700605180009c000700ce
:100c180001e8b700405180008e00070002e8b700e5
:100c2800405180009600070003e8b700705180002b
:100c38008800070004e8b7007051800090000700a2
:100c480005e8b700505180008200070006e8b700a9
:100c5800505180008a00070007e8b70042cabf0069
:100c680008e8b700b05180007a00070009e8b7002b
:100c7800b0518000820007000ae8b7009051800058
:100c8800740007000be8b700905180007c00070053
:100c98000ce8b700c05180006e0007000de8b700ef
:100ca800c0518000760007000ee8b700a051800010
:100cb800680007000fe8b700a05180007000070027
:100cc80010e8b70043cabf0011e8b70012003700a8
:100cd80010c0b300ffe9b7000040eb0002eab7001c
:100ce8000d003700e19f20009140780040c6b30016
:100cf80080cf500008003a0010002000d6000700fe
:100d080010c0b3006047980010c0b300ffe9b700f7
:100d18000040eb0002eab7006e4090000004e000db
:100d280002003200a0fd07000100370002000700a2
:100d38000080fa00000006000200fa000040eb0004
:100d480001eab7000040eb0004eab7000040eb00fe
:100d580005eab70010c0b30008eab7009010800099
:100d6800004f780090108000004f780090108000ad
:100d7800004f780090108000004f7800901080009d
:100d8800004f78000e22a900d622a900d602a90099
:100d980011e1a9000040eb000aeab7008d20a80085
:100da8000080fa00000006003600f800809fbe00b0
:100db800829fbe00849fbe00869fbe003400f8005c
:100dc80000002000a00188000000fa0084c0a900eb
:100dd80011e1a900d6c2bf00614060000004e00034
:100de80001003a00d4ff07000080fa003400f9003f
:100df8004f03be004f02be004f01be004f00be00b1
:100e08003600f900004006000400fa002047980068
:100e1800314798000000eb00000f78002e4090004a
:100e28000080fb001e0f40001e0078004800dd0017
:100e3800000f780000f02f001e0f60003e40900069
:100e48000080fb001e0f40001e0078000080fa00a2
:100e5800000006000200fa00000f780000f02f00e2
:100e68001e0f60001e0078004800de00000f7800aa
:100e78001e0078000080fb000080fa0000000600d9
:100e88000200fa00000f78001e0078000080fb00c6
:100e98000080fa00000006000000fa0010c0b3004d
:100ea800ffe9b700a0c0b30002eab70050c5b3001d
:100eb80000e8b70040c5b30001e8b70030c5b3008b
:100ec80002e8b70060c5b30003e8b70040c5b30047
:100ed80004e8b70000c2b30005e8b70020c4b300b7
:100ee80006e8b70000c5b30007e8b70030c5b3008f
:100ef80008e8b70010c2b30009e8b7002afd0700e8
:100f08000080fa00000006000000fa00d242a800a3
:100f1800d262a800d282a800d2a2a800d2c2a80099
:100f2800d2e2a800de02a800e4c2a800e4e2a80019
:100f3800e5e2a800cc22a800e402a900e422a90066
:100f4800de22a900e5c2a900e5a2a900e582a90060
:100f5800cc42a900e502a9000080fa0000000600c2
:100f68000200fa000040eb00004f7800d4c2bf0036
:100f78000080fb004200de00614060001e4f400020
:100f8800d4c2bf000080fb004300de006140600067
:100f98000080fb0000004000804078001e40780080
:100fa80000c04000004f7800d4c2bf000080fb00a2
:100fb8004400de00614060000080fb004200dd006c
:100fc800804078001e40780000c04000004f780044
:100fd800d4c2bf000080fb004500de006140600015
:100fe8000080fb004300dd00804078001e40780050
:100ff80000c04000004f78001e80fb000080fa000f
:10100800000006000000fa00d4c2bf000080fb0008
:101018004600de00614060000080fb000080fa00ae
:10102800000006000000fa00e0c2bf006140600056
:101038000080fb000080fa00000006000000fa00b3
:10104800d4c2bf000080fb004700de000080fb0028
:101058000080fa00000006000200fa00004f780045
:101068001e04e00002003200e602a800010037007a
:10107800e602a9000080fa00000006000200fa005b
:10108800004f78001e04e00002003200e622a800ab
:1010980001003700e622a9000080fa0000000600df
:1010a8000200fa00004f78001e04e000020032003f
:1010b800e022a80001003700e022a9000080fa0021
:1010c800000006000200fa00004f78001e04e0004d
:1010d80002003200e7c2a80001003700e7c2a900f9
:1010e8000080fa00000006000200fa00004f7800b5
:1010f8001e04e00002003200e7a2a8000100370049
:10110800e7a2a9000080fa00000006000200fa0029
:10111800004f78001e04e00002003200e782a800b9
:1011280001003700e782a9000080fa0000000600ed
:101138000200fa00004f78001e04e00002003200ae
:10114800ce42a80001003700ce42a9000080fa0074
:10115800000006000200fa00004f78001e04e000bc
:1011680002003200e702a80001003700e702a900e8
:101178000080fa00000006000000fa00e7c2bf0085
:10118800614060000080fb000080fa00000006005b
:101198000000fa00cec2bf000080fb004200de0063
:1011a800614060000080fb000080fa00000006003b
:1011b8000200fa00301780004600de00610060007f
:1011c8000004e000030032000000eb00000f78008c
:1011d8000200370010002000000f78001e00780081
:1011e8000080fa00000006000200fa0030178000b4
:1011f8004700de00610060000004e00003003200e8
:101208000000eb00000f78000200370010002000fb
:10121800000f78001e0078000080fa000000060029
:101228000200fa00301780000000e00003003d00d3
:101238000000eb00000f78000200370010002000cb
:10124800000f78001e0078000080fa0000000600f9
:101258000200fa00701680000000d10061006000f2
:101268000004e000030032000000eb00000f7800eb
:101278000200370010002000000f78001e007800e0
:101288000080fa00000006000000fa00e7c2bf0074
:101298000080fb000000d100614060000080fb007e
:1012a8000080fa00000006000000fa00000c200090
:1012b80040158800e0f32f0050158800a102a9000e
:1012c800a122a900a0a2a800a0c2a800a0e2a8008c
:1012d800a042a900404322001015880030302000a9
:1012e800201588000040eb0060eab7008560a9007f
:1012f8008d60a800a1e2a8000080fa0000000600a6
:101308000000fa0060cabf000080fb000080fa00fd
:10131800000006000000fa000040eb0060eab70099
:10132800a042a800a022a8000080fa000000060041
:10133800801f78003400f80000002000a001880019
:101348000000fa008560a900a042a900a022a80018
:101358000014800030528800101480004052880029
:101368002014800050528800301480006052880099
:101378004014800070528800501480008052880009
:10138800601480009052880070148000a052880079
:1013980080148000b052880090148000c0528800e9
:1013a800a0148000d0528800b0148000e052880059
:1013b800c0148000f052880010c0b30060eab70083
:1013c8000080fa003400f9004f0078000040060061
:1013d8000000fa00881f780031528000c0632f0097
:1013e80000804000305288001100200020002000ba
:1013f8002a01070080007800305280000088b90078
:1014080000047800110020003000200023010700ac
:101418000000440030528800305280002200200032
:10142800110009000200d800305288008152800063
:10143800c0632f00008040008052880051002000c7
:1014480020002000150107008000780080528000ed
:101458000088b90000047800510020003000200006
:101468000e0107000000440080528800805280006e
:1014780022002000110009000200d80080528800d4
:1014880041002000200020000401070080007800af
:10149800605280000088b9000004780041002000f4
:1014a80030002000fd000700000044006052880062
:1014b8008100200020002000f8000700800078004c
:1014c800b05280000088b900000478008100200034
:1014d80030002000f100070000004400b0528800ee
:1014e8003100200020002000ec0007008000780078
:1014f800505280000088b9000004780031002000b4
:1015080030002000e5000700000044005052880029
:101518007100200020002000e00007008000780013
:10152800a05280000088b9000004780071002000f3
:1015380030002000d900070000004400a0528800b5
:101548002100200020002000d4000700800078003f
:10155800405280000088b900000478002100200073
:1015680030002000cd0007000000440040528800f1
:101578006100200020002000c800070080007800db
:10158800905280000088b9000004780061002000b3
:1015980030002000c100070000004400905288007d
:1015a8004f0478000080fa00000006000000fa00ee
:1015b80007000700760007000000eb007d01070028
:1015c800100020007b0107000b000700feff37001a
:1015d8000000fa000040eb0044eab7000040eb00ce
:1015e80045eab70048fe07004dfb07002eff07003d
:1015f8000080fa00000006000200fa0044cabf009a
:101608000004e000050032000040eb00004f7800c5
:101618000040eb0045eab7000400370010c0b300f3
:10162800004f78000040eb0044eab70010002000ab
:1016380089fe070037ff070031ff07000000e000c0
:10164800fdff320062ff07000000eb0082fe07008a
:101658001e04e000210032003052800060508800f3
:10166800405280007050880050528000805088009e
:10167800605280009050880070528000a05088000e
:1016880080528000b050880090528000c05088007e
:10169800a0528000d0508800b0528000e0508800ee
:1016a800c0528000f0508800d0528000005188005d
:1016b800e052800010518800f052800020518800cc
:1016c80010002000fa00070026eab7000000eb002f
:1016d800f700070027eab7002000370030528000e3
:1016e800405188004052800050518800505280007c
:1016f80060518800605280007051880070528000ec
:10170800805188008052800090518800905280005b
:10171800a0518800a0528000b0518800b0528000cb
:10172800c0518800c0528000d0518800d05280003b
:10173800e0518800e0528000f0518800f0528000ab
:101748000052880010002000d900070042eab700c4
:101758000000eb00d600070043eab7001e04e000d3
:101768000500320010c0b30044eab7000040eb00a7
:1017780045eab700040037000040eb0044eab70030
:1017880010c0b30045eab7000080fa000000060068
:101798000000fa0032002000110020002000200084
:1017a80059000700a204200011002000300020008a
:1017b80055000700320020005100200020002000c2
:1017c80051000700e20320005100200030002000f3
:1017d8004d000700d2022000410020002000200018
:1017e800490007000001eb00410020003000200004
:1017f80045000700d20220008100200020002000c0
:10180800410007000001eb008100200030002000ab
:101818003d00070052002000310020002000200079
:10182800390007000001eb003100200030002000e3
:101838003500070052002000710020002000200021
:10184800310007000001eb0071002000300020008b
:101858002d000700b20020002100200020002000f9
:10186800290007000001eb002100200030002000c3
:1018780025000700b20020006100200020002000a1
:10188800210007000001eb0061002000300020006b
:101898001d0007000080fa00000006000400fa009e
:1018a800004f78001147980050c0b3009e4f1000b9
:1018b800030036000000eb00100798000f00370007
:1018c8009e40900000c8b30080cf5000030036004f
:1018d8000000eb0010079800080037001e4fe900d1
:1018e8001e80fb00c700dd001e4090000080fb004a
:1018f80000804000ca000700100798001e009000f2
:101908000080fa00000006000800fa00204798004e
:1019180031479800220798000040eb00004f7800fc
:101928002e409000e54f50000300360010002000c4
:101938003007980041003700be40900000c8b3004f
:1019480080cf5000030036001000200030079800b8
:101958003a0037002e409000e14f500006003a0050
:10196800b6fd07000000e00003003a002000200058
:1019780030079800310037002e409000e24f5000a9
:1019880006003a009ffd07000000e00003003a004f
:101998002000200030079800280037002e409000d3
:1019a800e34f500006003a0096fd07000000e000f3
:1019b80003003a0020002000300798001f0037007d
:1019c8002e409000e44f500006003a008dfd0700bd
:1019d8000000e00003003a002000200030079800d3
:1019e800160037002e409000e54f500006003a00e0
:1019f80084fd07000000e00003003a0020002000fa
:101a0800300798000d0037002e4090000040e90094
:101a1800204798002e4090000080fb00c700dd00a2
:101a28003e4090000080fb0000804000ae00900027
:101a38006c0007000000eb00300798003e009000a3
:101a48000080fa00000006000400fa00004f780049
:101a58001147980050c0b3009e4f10000300360095
:101a68001000200010079800090037009e409000e1
:101a780000c8b30080cf50000300360010002000db
:101a880010079800020037000000eb0010079800cc
:101a98001e0090000080fa00000006000200fa0014
:101aa800004f78000000eb000080fa0000000600fc
:101ab8000800fa00204798002e4090000004e0003b
:101ac8000a003200e2fd070010479800d4fd070025
:101ad800004f7800aefd07000000e0000d003a005e
:101ae8000000eb00200798002d003700befd07001e
:101af80010479800aefd0700004f78009efd0700d4
:101b08000000e00003003a000000eb002007980006
:101b1800230037001e04e00006003a001e40900033
:101b28000004e00003003a0010002000200798009d
:101b38001b00370010c0b3009e4f100006003a008b
:101b48001e409000e14f500003003a0020002000a2
:101b580020079800120037001e04e00006003a0033
:101b68001e409000e14f500003003a003000200072
:101b7800200798000a00370010c0b3009e4f1000dd
:101b880006003a001e4090000004e00003003a00fe
:101b980040002000200798000100370002003700ad
:101ba8002e009000300798003e0090000080fa0058
:101bb800000006000200fa00004f78001e04e00052
:101bc800030032001000200059fd07000200370012
:101bd800100020005ffd0700100020000080fa00c0
:101be80000000600841f7800f40720009401880094
:101bf800243b880004002f004100dd000400400061
:101c0800103b88001100070044002400043b8800b2
:101c18000108bb000f0007004f0278000000060013
:101c2800841f7800f407200094018800243b880072
:101c380004002f00143b88004100dd00040240002e
:101c48001400ba004f027800000006004404240083
:101c5800043b88001000fc0054052000343b880039
:101c6800a40a2000343b880061e7a80000000000b7
:101c78000000000061e7af00feff3700000006002b
:020000040000fa
:101c88000c0a00003a00000000000000460a0000ac
:101c98001c00000000000000000800000c0200000a
:081ca800000000000000000034
:00000001FF
