:020000040000fa
:080000000001040000000000f3
:020000040000fa
:10020000cfb920000e7f22000e0188000000000000
:100210000c000700802d21000100200011000700c4
:10022000000020000000e000020032000000020098
:1002300000000000fe0d0200000000000040da0097
:100240000000fe004440a900000020000000e00083
:100250000300320000002000a00188004440a800f4
:100260000000060091018800800078000000eb008b
:1002700015003700e280400032a0b4009101ba00be
:10028000e280400032a0b4009102ba00e280400057
:1002900032a0b4000002eb00472bde00f507b200ed
:1002a000602ce10004003a000059eb008301e900f2
:1002b000fdff3e00040037006128e100010032002c
:1002c0000082eb00040007001101ba000200e00008
:1002d000e8ff3a00000006003159ba008301e90046
:1002e0000c0032002159ba008301e90008003200f5
:1002f0000400e00003003a00e280400032a0b400b5
:10030000f5ff370011d9ba008301e900faff3a007e
:100310008100e800e180400032a0b4000000060047
:080320000040da000000fe00bd
:020000040000fa
:1000080090010000900100009001000090010000a4
:100018009001000090010000900100009001000094
:100028009001000090010000900100009001000084
:100038009001000090010000880d000040060000bb
:1000480090010000b0090000a0080000d2100000d4
:100058009001000090010000900100009001000054
:100068009001000090010000900100009001000044
:100078009001000090010000900100009001000034
:100088009001000090010000221200009001000081
:100098009001000090010000900100009001000014
:1000a8009001000090010000900100009001000004
:1000b80090010000900100009001000090010000f4
:1000c80090010000900100009001000090010000e4
:1000d80090010000900100009001000090010000d4
:1000e80090010000900100009001000090010000c4
:0800f8009001000090010000de
:020000040000fa
:1001080090010000900100009001000090010000a3
:100118009001000090010000900100009001000093
:100128009001000090010000900100009001000083
:100138009001000090010000880d000040060000ba
:1001480090010000b0090000a0080000d2100000d3
:100158009001000090010000900100009001000053
:100168009001000090010000900100009001000043
:100178009001000090010000900100009001000033
:100188009001000090010000221200009001000080
:100198009001000090010000900100009001000013
:1001a8009001000090010000900100009001000003
:1001b80090010000900100009001000090010000f3
:1001c80090010000900100009001000090010000e3
:1001d80090010000900100009001000090010000d3
:1001e80090010000900100009001000090010000c3
:0801f8009001000090010000dd
:020000040000fa
:100328000400fa001007980000c1b300004f7800dd
:10033800110020000e0078005c02070010479800aa
:10034800480807001e4078004e08070080508000cb
:10035800e30f500002003a001e40900049080700d1
:10036800610020001e0090005608070041080700a1
:100378000080fa00000006002a00fa0020679800b2
:10038800316798004267980053679800646798003f
:1003980075679800f400470010c0b30080487800e3
:1003a80074004700ae609000114098007400470048
:1003b800be6090002140980074004700ce60900015
:1003c8003140980074004700de609000414098007a
:1003d80074004700ee609000514098007400470098
:1003e800fe609000614098006c004700ae6090008d
:1003f800014878006c004700be60900011409800ea
:100408006c004700ce609000214098006c004700c7
:10041800de609000314098006c004700ee6090006c
:10042800414098006c004700fe60900051409800e1
:100438007400470090407800720047000148780037
:100448007200470011002000180207008040780061
:1004580072004700114098007200470090409000d9
:10046800414798000000eb00100798002000370073
:10047800fc070700740047001040780001080700d7
:100488004e409000ff07070074004700104090009e
:10049800fc0707007400470020409000f907070098
:1004a8007400470030409000f607070074004700ca
:1004b80040409000f3070700740047005040900048
:1004c800f00707007400470060409000ed07070040
:1004d8001e009000eb070700e607070066004700cc
:1004e8008fff07001e0090000000e800100798002a
:1004f8009e009000f00f2000808f5000dcff340039
:1005080066004700904078002e60900080cf500031
:100518000300320010002000401798002a0037001e
:1005280066004700904090003e60900080cf5000e9
:100538000300320011002000411798002200370004
:1005480066004700a04090004e60900080cf5000a9
:100558000300320010002000401798001a003700ee
:1005680066004700b04090005e60900080cf500069
:1005780003003200110020004117980012003700d4
:1005880066004700c04090006e60900080cf500029
:100598000300320010002000401798000a003700be
:1005a80066004700d04090007e60900080cf5000e9
:1005b80003003200110020004117980002003700a4
:1005c8000000eb00401798004e1090000080fa00e1
:1005d800000006000200fa0000c1b300004f7800d6
:1005e800110020000e007800b001070010479800a5
:1005f8009c07070080508000e30f500005003a0078
:100608001e4078009f0707001e4090009d070700c6
:100618000500370080508000e20f500002003a00c9
:100628001e40780097070700920707000080fa002d
:10063800000006000200fa0000c2b300004f780074
:10064800110020000e00780098010700104798005c
:10065800840707001e4078008a0707008050800042
:10066800e30f500002003a001e4090008507070083
:10067800800707000080fa00000006000600fa0064
:10068800200798008e00e80040c0b300804878003a
:100698000e00e80011002000840107008040780067
:1006a8000e00e800114098006e0707000e00e800f1
:1006b800104078007307070080508000e30f500057
:1006c80003003a000e00e800104090006d07070094
:1006d800210120002e0090007a0707000040eb005f
:1006e80068070700004f7800620707002201200012
:1006f8009e4078002e009000030007000000fb00d9
:100708000080fa00000006000c00fa00200798009c
:100718006147980042079800ce0090002e00900094
:100728006201070010479800ce0090002e0090004c
:10073800f4010700004f78001e0090000000e80058
:10074800100798001e0090000000e80010079800ad
:100758001e0090000000e800100798006e4090000e
:100768008000fb001e4090000080fb00808f50003e
:1007780003003a000000eb00500798000200370021
:1007880010002000500798005e0090000080fa00da
:10079800000006000a00fa00300798004107980098
:1007a8000000eb00100798001000200020079800b8
:1007b8008b0037001e009000000040008000780089
:1007c8004e00900000814000ae0090003e00900076
:1007d800008040000000e900104078000000fb00a5
:1007e800000978001e00900000004000800078009a
:1007f8004e009000008140001e0090000000400064
:10080800800078004e009000008040009000780042
:10081800f00f200000806000000978002e00900092
:10082800800078003e009000008040001040780072
:100838000000fb00000f78001e0078006f0f6000ba
:100848001e0078004800dd00000f78001e009000b0
:1008580000004000800078004e00900000814000b9
:100868001e00900000004000800078004e009000bc
:1008780000804000900078001e0078000080400052
:10088800000978001e0090000000400080007800f9
:100898004e009000008040000081e8002e0090008b
:1008a800800078003e0090000080400010407800f2
:1008b8000000fb00000978001e00900000004000c6
:1008c800800078004e009000008040000081e80021
:1008d8001e00900000004000800078004e0090004c
:1008e800008040000080e800100078006f00600081
:1008f800000978001e009000000040008000780089
:100908004e009000008040000081e8001e0090002a
:1009180000004000800078004e00900000804000f9
:100928000080e800100078004400de00000978002c
:100938001e00900000004000800078004e009000eb
:10094800008040008081e8001e0090000000400008
:10095800800078004e009000008040000080e80091
:1009680010017800ae0090003e009000008040002a
:100978000000e800104078000000fb004400dd00a3
:1009880000004100800978001e009000000040002f
:10099800800078004e009000008040000081e80050
:1009a8001e00900000004000800078004e0090007b
:1009b800008040000080e80090007800f0ff2000f0
:1009c80000806000000978002e009000630040005d
:1009d800200798001e0090000080e800100798008b
:1009e8002e009000f00f500072ff34000080fa00d3
:1009f800000006000400fa00889fbe001007980057
:100a08000000eb00000f78002900370080508000bc
:100a1800e30f50000e003a001e007800000040006e
:100a2800800078001e009000008140001e007800c1
:100a380000004000800078001e0090000080400008
:100a48009000780000e02f00008040000009780046
:100a58001e00780000004000800078001e00900012
:100a6800808440001e00780000004000800078006c
:100a78001e00900000804000100478001e007800de
:100a88008040780020c0b3001206070000c0b900fb
:100a9800000478001e0078008040780030c0b30061
:100aa8000c06070000004400800c78001e0fe800c8
:100ab800b00020009e0f1000d4ff34004f04be0089
:100ac8000080fa00000006000c00fa0040079800b9
:100ad800510798001000200030079800803e200041
:100ae80020079800803e2000100798000000eb00c7
:100af800000f7800250037001e0078000000400035
:100b0800800078005e0090000080400010017800ae
:100b18001e00780000004000800078004e00900021
:100b280000804000900078001e0090000080400087
:100b3800800f5100020036000000eb0030079800db
:100b48001e00780000004000800078005e009000e1
:100b580000804000100178001e007800000040006e
:100b6800800078004e0090000080400090007800df
:100b78002e00900000805000800f510002003100cc
:100b88000000eb00300798001e0fe800b0002000be
:100b98009e0f1000d8ff34003e0090000080fa003d
:100ba800000006000200fa0000c2b300004f7800ff
:100bb800110020000e0078003c0007001047980044
:100bc800280607001e4078002e0607008050800087
:100bd800e30f500002003a001e409000290607006b
:100be800240607000080fa00000006000000fa0052
:100bf8000000eb005008880013e1a8001000200056
:100c0800705088000080fa00000006000000fa001a
:100c1800705080000000e000fdff3a000080fa00fc
:100c2800000006000000fa0081c0b30010c0b30045
:100c3800a8050700805088000000eb00605088007d
:100c480091c0b30010c0b300a205070090508800ff
:100c580030002000805088000000eb009050880091
:100c680012c1a9001281a90084e0a9008ce0a800a3
:100c78000080fa0000000600801f78003400f800a9
:100c880000002000a00188000000fa0084e0a9000c
:100c980013e1a9000000eb00705088000080fa0002
:100ca8003400f9004f007800004006001000fa00f8
:100cb800600798007107980010c4b3003047980087
:100cc8000000eb00500798000000eb002007980098
:100cd800420037002e009000820020001100090019
:100ce8000200d8008000fd00400798002e00900008
:100cf80082002000110009000200d8005007980067
:100d08005e009000800078006e0090000080400037
:100d180010407800604798003e4090000000fb00bb
:100d28004780de00004178006e4090008080fb0024
:100d38004e009000670010000088de000040690047
:100d48006140600020479800be4090002e4090000f
:100d580000c068000000fb00000040006240600026
:100d6800104798003e4090000000fb000080d10032
:100d7800804078002e40900000c068000000fb0012
:100d88004200dd00644f60003e4090000000fb0020
:100d9800000040008040780080cfb30000c06000b1
:100da800304798003e4090001e4070003047980041
:100db800be4090001e40900000c070003047980070
:100dc800be4090002e40900000c070003047980050
:100dd8002e0090000000e800200798002e009000e8
:100de800fe009000c308dd00810f5000b9ff3900f4
:100df8003e4090000000fb000080fa000000060062
:100e08000800fa00605080000000e0002a003a0064
:100e18000000eb0020079800210037002e0090000a
:100e2800004f78000000eb00100798001000370012
:100e38001e00fb0000004000704798001e04e00000
:100e480003003d0070c0b3006047980002003700ff
:100e58008040eb00614798007e409000ee40900093
:100e6800014f68001e0090000000e800100798007d
:100e78001e009000e70f5000edff34002e01900097
:100e880000c0eb009e40600040a12000000041002f
:100e9800014878002e0090000000e8002007980024
:100ea800ae009000f00f2000808f5000dbff340070
:100eb80010002000605088000080fa000000060042
:100ec8000200fa00004f780010c4b30014ebb7001a
:100ed800605080000000e00001003a00c8ff0700f1
:100ee80014cbbf001e4068008000fb0040a120001a
:100ef800008040001040780014ebb7000080fa0032
:100f0800000006000800fa00200798003107980042
:100f180010c4b300004f7800605080000000e0006b
:100f280001003a00b6ff07000000eb001007980028
:100f38000d0037001e009000800078002e00900001
:100f480000804000104078001e4068008000fb00d0
:100f580040a1200000804000104f78001e00900043
:100f68000000e800100798009e0090003e009000e6
:100f7800808f5000efff39001e00fb000080fa0050
:100f8800000006000600fa001007980021079800e4
:100f980010c4b300004f78000040eb0010479800e1
:100fa8000c0037001e4090000080fb008000780095
:100fb8001e00900000804000904078001e4078009d
:100fc8000c000700004f78001e4090000040e80029
:100fd800104798001e4090008080fb002e00900073
:100fe800808f5000efff39001e80fb000080fa0060
:100ff800000006000400fa002047980031479800d6
:10100800ae4090003e40900000c06800004f78005d
:101018000040eb00104798000f0037001e40780092
:101028000004e00006003d001e407800004040003b
:10103800004f78001e407800674f680003003700b3
:101048001e40780000404000004f78001e4090008d
:101058000040e800104798001e409000e74f5000fd
:10106800eeff36001e80fb000080fa00000006003c
:101078000000fa0010c1a9001081a90010a1a90060
:101088001021a900801a26006008880084c0a900e1
:101098008cc0a800100a2800601088000ca2a900c3
:1010a800004028007010880040002000a010880030
:1010b800a403070007e8b700a20307000004e00044
:1010c80004003a0031c0b30010c0b3008104070027
:1010d80007e8b7008540a9008520a9008d40a80031
:1010e8008d20a800d202a900d222a9006a02070016
:1010f8000080fa00000006000000fa0010c0b300eb
:1011080008e8b7008d20a9000040eb0000e8b70010
:101118000040eb0004e8b7000040eb0005e8b7002a
:10112800d622a800d602a80010002000801088004f
:101138000080fa00000006003600f800809fbe001c
:10114800829fbe00849fbe00869fbe003400f800c8
:1011580000002000a00188000000fa008540a900d6
:1011680004c8bf000004e0000b003a0009cabf0031
:101178000080fb00801088000180200091407800ea
:1011880009cabf0000c0400000e8b70010c0b300a3
:1011980004e8b7006800370004c8bf00e14f5000fa
:1011a80005003a000000eb008010880020c0b30062
:1011b80004e8b7006000370004c8bf00e24f5000e1
:1011c80011003a0008cabf000080fb0080108800a8
:1011d800018020009140780008cabf0000c040008c
:1011e80000e8b70009cabf000004e00003003a00a5
:1011f80040c0b30004e8b7004f00370030c0b30068
:1012080004e8b7004c00370004c8bf00e34f5000a3
:101218002c003a0009cabf008080fb0005c8bf0047
:101228000080fb000000e800808f500012003c00a6
:1012380005c8bf008080fb0090802000008040002f
:10124800104078000080fb008010880005c8bf00af
:101258008080fb0090802000008040009040780053
:1012680000c8bf0000c0400000e8b70040c0b3009d
:1012780004e8b7003000370005c8bf008080fb00d5
:101288009080200000804000104078000080fb0023
:101298008010880005c8bf008080fb009080200077
:1012a800008040009040780000c8bf0000c04000a7
:1012b80000e8b70005c8bf000040e80005e8b7002f
:1012c8001d00370004c8bf00e44f500009003a0071
:1012d80000c8bf0000c0ea0000e8b70000c8bf00af
:1012e8000080fb008010880050c0b30004e8b700fd
:1012f8001100370004c8bf00e54f500005003a0050
:10130800e00f20008010880060c0b30004e8b70038
:101318000900370004c8bf00e64f500005003a0036
:101328000000eb008010880070c0b30004e8b7002c
:1013380001003700d80107000080fa003400f900e6
:101348004f03be004f02be004f01be004f00be005b
:101358003600f900004006003600f800809fbe0005
:10136800829fbe00849fbe00869fbe003400f800a6
:1013780000002000a00188000200fa008d20a900ca
:101388008520a900d6c2bf00614060000004e000cb
:101398000500320011e1a9000040eb0003e8b700a6
:1013a8008d20a8009400370003c8bf000004e000a7
:1013b8000e003a0090108000004f780010c0b30073
:1013c8009e4f100007003a000000eb00300888002c
:1013d80011e1a80010c0b30003e8b7008d20a800f1
:1013e80085003700ac0107008300370003c8bf0041
:1013f800e14f50000d003a000000eb003008880073
:1014080090108000004f78001e4078000aeab7006c
:1014180001c8bf001e40400001e8b70020c0b3006b
:1014280003e8b7008d20a8007300370003c8bf0089
:10143800e24f500014003a000000eb00300888002a
:1014480090108000004f7800f0c0b3009e4f10004d
:1014580007003e00ec0207000004e0000400320030
:1014680001c8bf001e40400001e8b7000200370075
:101478000040eb0006e8b70030c0b30003e8b7004f
:101488008d20a8005c00370003c8bf00e34f500060
:1014980016003a000000eb00300888009010800029
:1014a800004f780006c8bf000004e00005003200c5
:1014b8001e40780007eab70001c8bf001e40400080
:1014c80001e8b7000acabf000004e00003003200c8
:1014d80040c0b30003e8b7000200370050c0b300b3
:1014e80003e8b7008d20a8004300370003c8bf00f9
:1014f800e44f50001b003a000000eb003008880061
:1015080090108000004f780006c8bf000004e0007b
:101518000800320001c8bf001e40400001e8b700c3
:1015280002c8bf008080fb0080902000008040003f
:101538001e48780002c8bf000040e80002e8b70073
:1015480021802000914078000acabf0080cf500057
:101558000200390050c0b30003e8b7008d20a8008e
:101568002500370003c8bf00e54f500010003a00bf
:101578000000eb003008880090108000004f7800d1
:1015880001c8bf0000c0ea0001e8b70001c8bf00f9
:101598009e4f1000020032000040eb0006e8b70042
:1015a80060c0b30003e8b7008d20a8001200370020
:1015b80003c8bf00e64f50000d003a0011e1a90032
:1015c80006c8bf000004e000060032009110800049
:1015d800e00f2000808f500002003a000e00070044
:1015e800010037002c0107008d20a80002003700f9
:1015f80011e1a900280107000080fa003400f90071
:101608004f03be004f02be004f01be004f00be0098
:101618003600f900004006000600fa00881f78002e
:101628000040eb004047980007cabf00e14f500058
:101638000a003a000acabf000004e0000d013a009f
:1016480010c0b3004047980010c0b30008eab700c4
:101658000040eb0009eab7000601370007cabf00df
:10166800e24f500012003a000acabf00e44f50008f
:1016780000013a0010c0b30040479800b190200024
:10168800914078000ac9bf003601070000017800c0
:10169800919020009140780008c9bf0028030700f6
:1016a80008eab7000040eb0009eab700f10037008c
:1016b80007cabf00e34f500020003a000acabf0023
:1016c800e24f5000eb003a0010c0b30040479800ca
:1016d800919020009140780008c9bf0036030700a8
:1016e80008eab70020c0b30009eab70008cabf007b
:1016f8000004e0000c003a0091902000914078002e
:1017080008c9bf00f3020700100798001e009000e8
:101718002701070009e8b7001e0090002f01070005
:101728000ae8b700d30037000040eb0009e8b7002b
:101738000040eb000ae8b700ce00370007cabf0038
:10174800e44f50000c003a000acabf000004e00051
:10175800c8003a0010c0b3004047980010c0b3005a
:101768007aebb7000040eb0008eab7000040eb0056
:1017780009eab700bf00370007cabf00e54f5000ad
:101788000c003a000acabf000004e000b9003a00a1
:1017980010c0b300404798000040eb007aebb70058
:1017a8000040eb0008eab7000040eb0009eab70088
:1017b800b000370007cabf00e64f500009003a00e2
:1017c8000acabf000004e000aa003a0010c0b30033
:1017d800404798000040eb0009eab7000000fe000f
:1017e800a400370007cabf00e74f500036003a0090
:1017f8000acabf000004e0002e003a0010c0b3007f
:101808004047980011c0b30010c0b300b1020700f0
:10181800004f7800f40107000004e00002003200e5
:10182800c0c0b300004f78001e80fb0000004000dd
:1018380009eab7000040eb0008eab7000040eb00f7
:1018480010479800170037001e4090000080fb00ea
:101858000000400000047800800e2800d400070033
:101868008040780090802000000044000148780003
:101878001e4090000080fb00000040000004e800cb
:10188800800e2800d5000700804078009080200056
:1018980000004400014878001e4090000040e80025
:1018a800104798001e4090009e4f5000e6ff3900f8
:1018b800700037000040eb0009eab70010c0b30021
:1018c80008eab7006b00370007cabf00e84f5000ae
:1018d80036003a000acabf000004e0002e003a00b1
:1018e80010c0b3004047980011c0b30010c0b30047
:1018f80078020700004f7800bb0107000004e000f1
:1019080002003200c0c0b300004f78001e80fb0008
:101918000000400009eab7000040eb0008eab70001
:101928000040eb0010479800170037001e40900059
:101938000080fb00000040000004780000d626006c
:101948009b00070080407800908020000000440041
:10195800014878001e4090000080fb000000400015
:101968000004e80000d626009c00070080407800ac
:101978009080200000004400014878001e4090003c
:101988000040e800104798001e4090009e4f50000d
:10199800e6ff3900370037000040eb0009eab700de
:1019a80010c0b30008eab7003200370007cabf000a
:1019b800e94f500003003a0010c0b30040479800b8
:1019c8002c00370007cabf00ea4f50002900320038
:1019d80071a020009140780040c6b30080cf50002d
:1019e80009003a0010c0b300af01070010c0b300ef
:1019f8004047980010c0b30008eab7000040eb0069
:101a080009eab7001b00370071a020009140780058
:101a180060c9b30080cf500009003a0010c0b3007d
:101a28008601070010c0b3004047980010c0b300fb
:101a380008eab7000040eb0009eab7000d003700dc
:101a480071a020009140780000cab30080cf5000f8
:101a580008003a000040eb007801070010c0b3000e
:101a68004047980010c0b30008eab7000040eb00f8
:101a780009eab7004e4090000004e000020032007e
:101a88009dfd070001003700030007004f047800a0
:101a98000080fa00000006000200fa000040eb0097
:101aa80001e8b7000040eb0002e8b7000040eb0097
:101ab80003e8b70010c0b30006e8b7009010800034
:101ac800004f780090108000004f78009010800040
:101ad800004f780090108000004f78009010800030
:101ae800004f78000e22a900d622a900d602a9002c
:101af80011e1a9000040eb0008e8b7008d20a8001c
:101b08000080fa00000006003600f800809fbe0042
:101b1800829fbe00849fbe00869fbe003400f800ee
:101b280000002000a00188000000fa0084c0a9007d
:101b380011e1a90008c8bf000004e00001003a0054
:101b4800d5ff07000080fa003400f9004f03be00fb
:101b58004f02be004f01be004f00be003600f90024
:101b6800004006000400fa0020479800314798001a
:101b78000000eb00000f78002e4090000080fb0072
:101b88001e0f40001e0078004800dd00000f78009e
:101b980000f02f001e0f60003e4090000080fb0008
:101ba8001e0f40001e0078000080fa0000000600aa
:101bb8000200fa00000f780000f02f001e0f6000ee
:101bc8001e0078004800de00000f78001e00780034
:101bd8000080fb000080fa00000006000200fa0006
:101be800000f78001e0078000080fb000080fa00db
:101bf800000006000000fa000d000700f5cab30057
:101c0800d4c7b30003c8b3000041eb008040eb0029
:101c180010c9b300d8f90700000037007acbbf001d
:101c28000004e000fdff320017000700fbff37004b
:101c38000000fa00b30007000dfd0700f3010700dc
:101c4800f8fb070033010700a1c0b30010c0b300c0
:101c5800a00107000000e0000300320010c0b3003c
:101c68007aebb700020037000040eb007aebb700d0
:101c78000040eb0078ebb7000040eb0079ebb700d1
:101c88000080fa00000006002c00fa0078cbbf00a4
:101c98000004e000050032000040eb001047980007
:101ca8000040eb0079ebb7000400370010c0b30028
:101cb800104798000040eb0078ebb70010c0b30065
:101cc800f900070043fa07002d010700c7fb0700ca
:101cd800260107000004e000fdff3200570107005d
:101ce8000040eb00f00007001e4090000004e000f8
:101cf800120032000040eb00004f78000b00370064
:101d08001e81fb001e80fb0080004000e0b7200021
:101d180000804000900178008200410080b42000db
:101d280000804000030878001e4fe800b0c0b300f0
:101d38009e4f1000f2ff3600110037000040eb0004
:101d4800004f78000b0037001e81fb001e80fb004f
:101d580080004000e0b7200000804000900178003b
:101d68008200410000b6200000804000030878008f
:101d78001e4fe800b0c0b3009e4f1000f2ff3600bf
:101d8800a2fb07000e80e8003cfa07001e40900006
:101d98000004e000060032000e80e80081b1200057
:101da8007cfa070080b1200012fb0700050037000d
:101db8000e80e80001b3200076fa070000b3200087
:101dc8000cfb070089fb07001afa07008ffb0700c6
:101dd8000e80e80029fa0700f40047000e80e800aa
:101de8006cfa07001e4090000004e0000500320075
:101df800f400470080b1200033fb070016ebb70062
:101e080004003700f400470000b320002efb070051
:101e180016ebb7001e4090000004e00005003200f9
:101e280010c0b30078ebb7000040eb0079ebb700c7
:101e3800040037000040eb0078ebb70010c0b30097
:101e480079ebb7000080fa00000006000200fa00f3
:101e58000040eb00004f7800110037000001eb0054
:101e68009e40780030c0b30035010700f200200022
:101e78009e40780020c0b3003101070002352c00d5
:101e88009e40780050c0b3002d010700a20020003a
:101e98009e40780040c0b300290107001e4fe800ab
:101ea800b0c0b3009e4f1000ecff3600c200200007
:101eb80011c0b30010c0b30021010700c200200008
:101ec80021c0b30010c0b3001d010700320020007c
:101ed80081c0b30010c0b300190107000001eb0076
:101ee80091c0b30010c0b300150107001200200014
:101ef800a1c0b30010c0b300110107000080fa00b0
:101f0800000006000000fa00d242a800d262a80031
:101f1800d282a800d2a2a800d2c2a800d2e2a80009
:101f2800de02a800e402a900e422a900de22a9003a
:101f3800e5c2a900e5a2a900e582a9000080fa008f
:101f4800000006000200fa000040eb00004f780095
:101f5800d4c2bf000080fb004200de006140600088
:101f68001e4f4000d4c2bf000080fb004300de00cb
:101f7800614060000080fb00000040008040780065
:101f88001e40780000c04000004f7800d4c2bf0057
:101f98000080fb004400de00614060000080fb0020
:101fa8004200dd00804078001e40780000c04000fc
:101fb800004f7800d4c2bf000080fb004500de005f
:101fc800614060000080fb004300dd008040780035
:101fd8001e40780000c04000004f78001e80fb00c3
:101fe8000080fa00000006000000fa00d4c2bf001a
:101ff8000080fb004600de00614060000080fb00be
:102008000080fa00000006000000fa00e0c2bf00ed
:10201800614060000080fb000080fa0000000600bc
:102028000000fa00d4c2bf000080fb004700de00b9
:102038000080fb000080fa00000006000200fa00a1
:10204800004f78001e04e00002003200e602a800fb
:1020580001003700e602a9000080fa00000006002f
:102068000200fa00004f78001e04e000020032006f
:10207800e622a80001003700e622a9000080fa0045
:10208800000006000200fa00004f78001e04e0007d
:1020980002003200e022a80001003700e022a90077
:1020a8000080fa00000006000200fa00004f7800e5
:1020b8001e04e00002003200e7c2a8000100370059
:1020c800e7c2a9000080fa00000006000200fa003a
:1020d800004f78001e04e00002003200e7a2a800ca
:1020e80001003700e7a2a9000080fa0000000600fe
:1020f8000200fa00004f78001e04e00002003200df
:10210800e782a80001003700e782a9000080fa00f2
:10211800000006000000fa00000c200040158800ae
:10212800e0f32f0050158800a102a900a122a90000
:10213800a0a2a800a0c2a800a0e2a800a042a900ee
:1021480040432200101588003030200020158800f8
:102158000040eb007cebb7008560a9008d60a8000b
:10216800a1e2a8000080fa00000006000000fa00c2
:102178007ccbbf000080fb000080fa000000060056
:102188000000fa000040eb007cebb700a042a8007a
:10219800a022a8000080fa0000000600801f780036
:1021a8003400f80000002000a00188000000fa00b8
:1021b8008560a900a042a900a022a8000014800000
:1021c800d05c8800c0148000f05b8800b0148000e8
:1021d800005c8800a0148000105c880090148000c7
:1021e800205c880080148000305c880070148000b7
:1021f800405c880060148000505c880050148000a7
:10220800605c880010148000705c880020148000d6
:10221800805c880030148000905c88004014800046
:10222800a05c880010c0b3007cebb7000080fa0007
:102238003400f9004f007800004006000200fa0060
:10224800889fbe008a1f78000000eb00000f78000e
:10225800160037009e0478001e0078008040780041
:1022680050c0b3001b000700000578001e0078006e
:1022780080004000e0b72000008040001004780093
:102288001e0078008040780040c0b30011000700ad
:1022980000c0b9000001550089804400e0b7200063
:1022a80000804000020878001e0fe800b0002000ff
:1022b8009e0f1000e7ff3400d05c80007400b90066
:1022c800d05c88004f0578004f04be000080fa00fb
:1022d800000006000400fa00004f7800114798003b
:1022e80070c0b3009e4f1000030036000000eb00e2
:1022f800100798000f0037009e40900000c8b300f8
:1023080080cf5000030036000000eb001007980053
:10231800080037001e4fe9001e80fb00c700dd00e3
:102328001e4090000080fb000080400086000700ef
:10233800100798001e0090000080fa0000000600b8
:102348000600fa00004f780011479800120798001d
:1023580070c0b3009e4f100003003600100020002c
:1023680020079800110037009e40900000c8b30075
:1023780080cf50000300360010002000200798008e
:102388000a0037001e4fe9001e80fb00c700dd0071
:102398001e4090000080fb00008040009e009000de
:1023a8005a0007000000eb00200798002e0090005c
:1023b8000080fa00000006000400fa00004f7800d0
:1023c8001147980070c0b3009e4f100003003600fc
:1023d8001000200010079800090037009e40900068
:1023e80000c8b30080cf5000030036001000200062
:1023f80010079800020037000000eb001007980053
:102408001e0090000080fa00000006000000fa009c
:1024180070272000401188005011800000002a0019
:10242800301188008740a9008f40a800e522a90044
:10243800100007000080fa00000006003400f800d1
:10244800881f780008002000a80188004f04780041
:102458000000fa008740a9000080fa003400f90063
:10246800004006000000fa00e922a9000080fa00f6
:10247800000006000000fa00e922a8000080fa0027
:10248800000006000200fa00004f780026c2bf00d4
:10249800624060000004e000fcff3a001e80fb0080
:1024a8005011880026c2bf00614060000004e000af
:1024b800fcff3200501180000080fb000080fa0011
:1024c800000006000400fa00000f780011079800c9
:1024d800090037000040eb00eaff07008040780061
:1024e8001e007800014878001e0fe8001e009000ca
:1024f8000000e900100798001e0090000000e000ae
:10250800f4ff3a000080fa0000000600841f7800fb
:10251800f407200094018800243b880004002f0061
:102528004100dd0004004000103b88001100070056
:1025380044002400043b88000108bb000f0007008a
:102548004f02780000000600841f7800f40720007e
:1025580094018800243b880004002f00143b880065
:102568004100dd00040240001400ba004f02780068
:102578000000060044042400043b88001000fc000e
:1025880054052000343b8800a40a2000343b88000e
:1025980061e7a800000000000000000061e7af004c
:0825a800feff370000000600f1
:020000040000fa
:1025b0000c0a00000a01000000000000160b0000d9
:1025c0006600000000000000000800000c0200008f
:1025d000000000007c0b0000200000000000000054
:0425e00000000000f7
:00000001FF
