:020000040000fa
:080000000001040000000000f3
:020000040000fa
:100200004fa221000e7f22000e0188000000000096
:100210000c000700208d29000100200011000700bc
:10022000000020000000e000020032000000020098
:1002300000000000da570200000000000040da0071
:100240000000fe004440a900606e23000000e000b2
:100250000300320000002000a00188004440a800f4
:100260000000060091018800800078000000eb008b
:1002700015003700e280400032a0b4009101ba00be
:10028000e280400032a0b4009102ba00e280400057
:1002900032a0b4000002eb00472bde00f507b200ed
:1002a000602ce10004003a000059eb008301e900f2
:1002b000fdff3e00040037006128e100010032002c
:1002c0000082eb00040007001101ba000200e00008
:1002d000e8ff3a00000006003159ba008301e90046
:1002e0000c0032002159ba008301e90008003200f5
:1002f0000400e00003003a00e280400032a0b400b5
:10030000f5ff370011d9ba008301e900faff3a007e
:100310008100e800e180400032a0b4000000060047
:100320000040da000000fe006022b8000602200053
:100330000000d0008180d2000482d2008582d200e9
:100340000000a0000202520083825a000300310024
:100350000202420083824a000000a1000603e90075
:10036000f3ff3a0000000600efff07000400be00a4
:040370000000060083
:020000040000fa
:1000080090010000900100009001000090010000a4
:100018009001000090010000900100009001000094
:10002800900100009001000090010000827d000016
:100038009001000090010000988c0000cc6c00003a
:10004800900100004e8b0000108a00002c930000e5
:100058009001000090010000900100009001000054
:100068009001000090010000900100009001000044
:100078009001000090010000900100009001000034
:10008800846a0000366900009001000090010000b9
:100098009001000090010000900100009001000014
:1000a8009001000090010000900100009001000004
:1000b80090010000900100009001000090010000f4
:1000c80090010000900100009001000090010000e4
:1000d80090010000900100009001000090010000d4
:1000e80090010000900100009001000090010000c4
:0800f8009001000090010000de
:020000040000fa
:1001080090010000900100009001000090010000a3
:100118009001000090010000900100009001000093
:10012800900100009001000090010000827d000015
:100138009001000090010000988c0000cc6c000039
:10014800900100004e8b0000108a00002c930000e4
:100158009001000090010000900100009001000053
:100168009001000090010000900100009001000043
:100178009001000090010000900100009001000033
:10018800846a0000366900009001000090010000b8
:100198009001000090010000900100009001000013
:1001a8009001000090010000900100009001000003
:1001b80090010000900100009001000090010000f3
:1001c80090010000900100009001000090010000e3
:1001d80090010000900100009001000090010000d3
:1001e80090010000900100009001000090010000c3
:0801f8009001000090010000dd
:020000040000fa
:10037400312e0000313a0000206e0000756d00003f
:1003840062650000722000006f66000020730000a8
:100394006c61000076650000206200006f6100005f
:1003a40072640000732000006f660000206100008a
:1003b4006c6c00002074000079700000657300000c
:1003c400206900006e20000073790000737400003f
:1003d400656d00002e000000312e0000323a00004e
:1003e400206e0000756d0000626500007220000040
:1003f4006f660000207300007461000074750000d3
:10040400732f00006375000072720000656e0000b7
:100414007420000070610000636b000065740000cc
:1004240073200000706500007220000075700000e9
:1004340064610000746500002063000079630000bb
:100444006c6500002e000000312e0000333a0000dd
:10045400206e0000756d00006265000072200000cf
:100464006f660000207600006f6c0000746100006d
:100474006765000020700000616300006b65000088
:100484007473000020700000657200002075000085
:10049400706400006174000065200000637900004e
:1004a400636c0000652e0000003100002e34000053
:1004b4003a2000006e7500006d6200006572000055
:1004c400206f000066200000746500006d7000005d
:1004d4006572000061740000757200006520000000
:1004e40070610000636b00006574000073200000fd
:1004f40070650000722000007570000064610000e7
:100504007465000020630000796300006c650000de
:100514002e000000312e0000353a0000206e00004d
:10052400756d000062650000722000006f660000b7
:1005340020620000616c0000616e000063690000cd
:100544006e67000020700000616300006b650000ae
:1005540074730000207000006572000020750000b4
:10056400706400006174000065200000637900007d
:10057400636c0000652e0000003100002e36000080
:100584003a2000006e7500006d6200006572000084
:10059400206f000066200000626f00006f7400008e
:1005a400737400007261000070200000706100002c
:1005b400636b000065740000732000007065000028
:1005c4007220000075700000646100007465000012
:1005d40020630000796300006c6500002e000000b9
:1005e400312e0000373a000020410000646400000e
:1005f4007265000073730000206f00006620000025
:10060400626f00006f740000737400007261000078
:1006140070200000736c000061760000652000000b
:1006240028300000203d0000206e00006f200000f4
:10063400626f00006f740000737400007261000048
:1006440070200000626f00006172000064290000e5
:100654002e000000312e0000383a00002053000024
:100664007461000072740000757000002041000085
:10067400757400006f4d0000656100007375000023
:100684007265000020280000312000003d20000099
:100694004250000053200000706f00007765000096
:1006a400727300002075000070200000616e00006d
:1006b4006420000073740000617200007473000011
:1006c400206d000065610000737500007269000010
:1006d4006e67000020630000656c00006c7300000e
:1006e4002c200000302000003d200000425000007b
:1006f40053200000737400006172000074730000e2
:100704002075000070200000696e00002069000060
:10071400646c0000652000007374000061740000c4
:10072400652900002e000000312e0000393a000037
:1007340020420000616c0000616e000063690000eb
:100744006e670000204700006c6f000062610000cb
:100754006c200000456e0000616200006c650000c2
:1007640020280000312000003d20000062610000cc
:100774006c6100006e630000696e00006720000079
:10078400656e0000616200006c650000642c00006e
:1007940020300000203d0000206e00006f2000008b
:1007a400626100006c6100006e630000696e00000d
:1007b400672900002e000000312e000031300000b7
:1007c4003a2000004e7500006d6200006572000062
:1007d400206f000066200000736c0000617600004a
:1007e4006520000052650000616400002052000092
:1007f4006574000072690000657300002e0000003b
:10080400312e0000313100003a200000224900005e
:10081400474e000049540000494f00004e2200009a
:10082400206900006e7000007574000020650000ef
:100834006e610000626c000065200000283000003a
:10084400203d000020730000657200006961000013
:100854006c200000636f00006d6d0000616e00008d
:10086400647300002c200000312000003d200000b3
:100874007573000065200000686100007264000068
:10088400776100007265000020690000676e000057
:10089400206900006e70000075740000292e0000ad
:1008a400003100002e310000323a0000206e0000ba
:1008b400756d000062650000722000006f66000024
:1008c400205300004f4300002070000061630000cb
:1008d4006b650000747300002070000065720000f6
:1008e4002075000070640000617400006520000041
:1008f40063790000636c0000652e00000032000084
:100904002e3100003a2000006e7500006d62000078
:1009140065720000206f000066200000636500001f
:100924006c6c0000732000006f6e000020730000e8
:100934006c61000076650000202300003120000077
:10094400286500006e74000065720000203000000d
:10095400206600006f720000206200006f6f0000cc
:10096400747300007472000061700000292e00008e
:10097400003200002e3200003a2000006e750000a4
:100984006d62000065720000206f000066200000a8
:10099400636500006c6c0000732000006f6e000043
:1009a400207300006c6100007665000020230000c5
:1009b40032200000286500006e740000657200009b
:1009c40020300000206600006f72000020620000ea
:1009d4006f6f000074730000747200006170000097
:1009e400292e0000003200002e3300003a200000bf
:1009f4006e7500006d62000065720000206f0000db
:100a040066200000636500006c6c00007320000029
:100a14006f6e0000207300006c61000076650000ba
:100a24002023000033200000286500006e740000bd
:100a34006572000020300000206600006f72000024
:100a4400206200006f6f0000747300007472000075
:100a540061700000292e0000003200002e340000d6
:100a64003a2000006e7500006d620000657200009f
:100a7400206f000066200000636500006c6c0000bd
:100a8400732000006f6e0000207300006c61000092
:100a94007665000020230000342000002865000053
:100aa4006e740000657200002030000020660000b3
:100ab4006f720000206200006f6f0000747300000a
:100ac4007472000061700000292e000000320000e2
:100ad4002e3500003a2000006e7500006d620000a3
:100ae40065720000206f000066200000636500004e
:100af4006c6c0000732000006f6e00002073000017
:100b04006c610000766500002023000035200000a1
:100b1400286500006e74000065720000203000003b
:100b2400206600006f720000206200006f6f0000fa
:100b3400747300007472000061700000292e0000bc
:100b4400003200002e3600003a2000006e750000ce
:100b54006d62000065720000206f000066200000d6
:100b6400636500006c6c0000732000006f6e000071
:100b7400207300006c6100007665000020230000f3
:100b840036200000286500006e74000065720000c5
:100b940020300000206600006f7200002062000018
:100ba4006f6f0000747300007472000061700000c5
:100bb400292e0000003200002e3700003a200000e9
:100bc4006e7500006d62000065720000206f000009
:100bd40066200000636500006c6c00007320000058
:100be4006f6e0000207300006c61000076650000e9
:100bf4002023000037200000286500006e740000e8
:100c04006572000020300000206600006f72000052
:100c1400206200006f6f00007473000074720000a3
:100c240061700000292e0000003200002e38000000
:100c34003a2000006e7500006d62000065720000cd
:100c4400206f000066200000636500006c6c0000eb
:100c5400732000006f6e0000207300006c610000c0
:100c6400766500002023000038200000286500007d
:100c74006e740000657200002030000020660000e1
:100c84006f720000206200006f6f00007473000038
:100c94007472000061700000292e00000032000010
:100ca4002e3900003a2000006e7500006d620000cd
:100cb40065720000206f000066200000636500007c
:100cc4006c6c0000732000006f6e00002073000045
:100cd4006c610000766500002023000039200000cc
:100ce400286500006e74000065720000203000006a
:100cf400206600006f720000206200006f6f000029
:100d0400747300007472000061700000292e0000ea
:100d1400003200002e310000303a0000206e000046
:100d2400756d000062650000722000006f660000af
:100d340020630000656c00006c730000206f0000ed
:100d44006e200000736c00006176000065200000d6
:100d54002331000030200000286500006e7400007c
:100d64006572000020300000206600006f720000f1
:100d7400206200006f6f0000747300007472000042
:100d840061700000292e0000003200002e310000a6
:100d9400313a0000206e0000756d000062650000ad
:100da400722000006f66000020630000656c000084
:100db4006c730000206f00006e200000736c000054
:100dc400617600006520000023310000312000001e
:100dd400286500006e740000657200002030000079
:100de400206600006f720000206200006f6f000038
:100df400747300007472000061700000292e0000fa
:100e0400003200002e310000323a0000206e000053
:100e1400756d000062650000722000006f660000be
:100e240020630000656c00006c730000206f0000fc
:100e34006e200000736c00006176000065200000e5
:100e44002331000032200000286500006e74000089
:100e54006572000020300000206600006f72000000
:100e6400206200006f6f0000747300007472000051
:100e740061700000292e0000003200002e310000b5
:100e8400333a0000206e0000756d000062650000ba
:100e9400722000006f66000020630000656c000093
:100ea4006c730000206f00006e200000736c000063
:100eb400617600006520000023310000332000002b
:100ec400286500006e740000657200002030000088
:100ed400206600006f720000206200006f6f000047
:100ee400747300007472000061700000292e000009
:100ef400003200002e310000343a0000206e000061
:100f0400756d000062650000722000006f660000cd
:100f140020630000656c00006c730000206f00000b
:100f24006e200000736c00006176000065200000f4
:100f34002331000034200000286500006e74000096
:100f44006572000020300000206600006f7200000f
:100f5400206200006f6f0000747300007472000060
:100f640061700000292e0000003200002e310000c4
:100f7400353a0000206e0000756d000062650000c7
:100f8400722000006f66000020630000656c0000a2
:100f94006c730000206f00006e200000736c000072
:100fa4006176000065200000233100003520000038
:100fb400286500006e740000657200002030000097
:100fc400206600006f720000206200006f6f000056
:100fd400747300007472000061700000292e000018
:100fe400003200002e310000363a0000206e00006e
:100ff400756d000062650000722000006f660000dd
:1010040020630000656c00006c730000206f00001a
:101014006e200000736c0000617600006520000003
:101024002331000036200000286500006e740000a3
:101034006572000020300000206600006f7200001e
:10104400206200006f6f000074730000747200006f
:1010540061700000292e0000003300002e310000d2
:101064003a2000006e7500006d6200006572000099
:10107400206f000066200000636500006c6c0000b7
:1010840073200000696e0000206500006e7400008b
:101094006972000065200000626100007474000041
:1010a400657200007920000070610000636b00002d
:1010b4002e000000332e0000323a000020420000cf
:1010c40061740000746500007279000020700000f3
:1010d400616300006b200000416d0000702d000072
:1010e400486f000075720000732e0000003300008a
:1010f4002e3300003a200000534f0000432000002c
:10110400616c0000676f0000726900007468000081
:101114006d20000028310000203d00002041000027
:101124003132000033290000003300002e34000067
:101134003a200000616c00006c6f00007720000012
:10114400666f000072630000652000007265000095
:10115400636100006c690000627200006174000049
:10116400696f00006e73000028620000697400005b
:1011740020660000696500006c6400002c200000fb
:1011840062690000743000003a7400007269000063
:1011940070200000555600002c20000062690000f9
:1011a400743100003a74000072690000704f00004e
:1011b400562c00002062000069740000323a0000de
:1011c40077610000726e0000555600002c2000006c
:1011d40062690000743300003a7700006172000015
:1011e4006e4f0000562900002e000000332e000030
:1011f400353a0000205500006e640000657200005e
:10120400566f00006c7400006167000065200000e8
:1012140074720000697000002072000065630000b1
:10122400616c0000207000006f6900006e740000a3
:1012340020280000534f000043250000292e000001
:10124400003300002e3600003a2000004f760000e4
:1012540065720000566f00006c7400006167000046
:1012640065200000747200006970000020720000a4
:1012740065630000616c0000207000006f6900006d
:101284006e74000020280000534f00004325000026
:10129400292e0000003300002e3700003a20000001
:1012a400556e000064650000725600006f6c00000b
:1012b400746100006765000020770000617200001f
:1012c4006e6900006e670000207200006563000014
:1012d400616c0000207000006f6900006e740000f3
:1012e40020280000534f000043250000292e000051
:1012f400003300002e3800003a2000004f76000032
:1013040065720000566f00006c7400006167000095
:101314006520000077610000726e0000696e0000b5
:101324006720000072650000636100006c2000000b
:10133400706f0000696e00007420000028530000e4
:101344004f430000252900002e000000332e00002a
:10135400393a0000206400006566000061750000f1
:101364006c740000206900006e690000746900005c
:10137400616c0000697a000065200000766100005d
:101384006c75000065200000285300004f430000e6
:10139400252900002e000000342e0000313a000000
:1013a40020630000656c00006c2000006f76000074
:1013b40065720000766f00006c74000061670000c5
:1013c400652000006c6900006d6900007420000055
:1013d400287500006e69000074730000203d000051
:1013e40020740000656e0000746800007320000023
:1013f4006f660000206d0000763b00002033000083
:101404003030000030300000203d00002033000068
:101414002e30000030300000207600006f6c000099
:1014240074730000292e0000003400002e320000e6
:101434003a200000636500006c6c00002075000019
:101444006e64000065720000766f00006c7400002a
:1014540061670000652000006c6900006d69000090
:1014640074200000287500006e6900007473000089
:10147400203d000020740000656e000074680000c8
:10148400732000006f660000206d0000763b0000b2
:10149400203300003030000030300000203d0000d8
:1014a400203300002e300000303000002076000091
:1014b4006f6c000074730000292e000000340000db
:1014c4002e3300003a20000070610000636b0000be
:1014d400206f0000766500007263000075720000e2
:1014e400726500006e74000020280000636800002c
:1014f4006172000067650000292000006c6900002b
:101504006d69000074200000287500006e690000f9
:1015140074730000203d000020740000656e00001c
:1015240074680000732000006f6600002041000012
:101534006d700000733b0000202b0000313500006b
:1015440030300000203d0000203100003530000024
:101554002041000020630000686100007267000001
:10156400652900002e000000342e0000343a0000eb
:1015740020500000616300006b2000006f760000c3
:10158400657200006375000072720000656e0000f1
:101594007420000028640000697300006368000080
:1015a4006172000067650000292000006c6900007a
:1015b4006d69000074200000287500006e69000049
:1015c40074730000203d000020740000656e00006c
:1015d40074680000732000006f6600002041000062
:1015e4006d700000733b0000202d000031350000b9
:1015f40030300000203d0000203100003530000074
:101604004120000064690000736300006861000009
:1016140072670000652000003c4e00004547000052
:101624004154000049560000452000005349000081
:10163400474e0000204d0000414e00004441000090
:10164400544f0000525900003e2900002e000000b3
:10165400342e0000353a000020630000656c000061
:101664006c2000006f760000657200007465000055
:101674006d700000206c0000696d0000697400004a
:10168400206f00006e20000063680000617200009b
:101694006765000020280000756e00006974000072
:1016a400732000003d200000746500006e7400008b
:1016b40068730000206f0000662000004b65000086
:1016c4006c760000696e00003b200000333000009f
:1016d40030300000302000003d2000003330000096
:1016e400302e0000304b0000292e00000034000092
:1016f4002e3600003a200000636500006c6c000088
:10170400207500006e6400006572000074650000be
:101714006d700000206c0000696d000069740000a9
:10172400206f00006e2000006368000061720000fa
:101734006765000020280000756e000069740000d1
:10174400732000003d200000746500006e740000ea
:1017540068730000206f0000662000004b650000e5
:101764006c760000696e00003b20000033300000fe
:1017740030300000302000003d20000033300000f5
:10178400302e0000304b0000292e000000340000f1
:101794002e3700003a200000636500006c6c0000e6
:1017a400206f00007665000072740000656d000013
:1017b400702000006c6900006d6900007420000056
:1017c4006f6e00002064000069730000636800000d
:1017d400617200006765000020280000756e00003b
:1017e40069740000732000003d200000746500004f
:1017f4006e74000068730000206f00006620000013
:101804004b6500006c760000696e00003b20000010
:101814003330000030300000302000003d20000054
:1018240033300000302e0000304b0000292e000021
:10183400003400002e3800003a20000063650000e8
:101844006c6c0000207500006e640000657200007e
:10185400746500006d700000206c0000696d00006c
:1018640069740000206f00006e20000064690000ad
:101874007363000068610000726700006520000067
:10188400287500006e69000074730000203d00009c
:1018940020740000656e000074680000732000006e
:1018a4006f660000204b0000656c00007669000044
:1018b4006e3b000020330000303000003030000068
:1018c400203d000020330000303000002e300000a6
:1018d4004b2900002e000000342e0000393a00008d
:1018e40020630000656c00006c2000006f7600002f
:1018f40065720000766f00006c7400006167000080
:101904006520000077610000726e0000696e0000bf
:1019140067200000287500006e69000074730000e1
:10192400203d000020740000656e00007468000013
:10193400732000006f660000206d0000763b0000fd
:10194400203300003030000030300000203d000023
:10195400203300002e3000003030000020760000dc
:101964006f6c000074730000292e00000034000026
:101974002e310000303a000020630000656c000046
:101984006c200000756e0000646500007276000033
:101994006f6c000074610000676500002077000030
:1019a400617200006e6900006e670000202800006c
:1019b400756e000069740000732000003d20000073
:1019c400746500006e74000068730000206f0000ee
:1019d400662000006d7600003b20000033300000dc
:1019e40030300000302000003d200000332e000085
:1019f4003030000030200000766f00006c7400006e
:101a0400732900002e000000342e00003131000044
:101a14003a20000070610000636b0000206f00003a
:101a24007665000072630000757200007265000044
:101a34006e740000202800006368000061720000da
:101a4400676500002920000077610000726e0000c5
:101a5400696e000067200000287500006e690000b0
:101a640074730000203d000020740000656e0000c7
:101a740074680000732000006f66000020410000bd
:101a84006d700000733b0000202b00003135000016
:101a940030300000203d00002031000035300000cf
:101aa40020410000206300006861000072670000ac
:101ab400652900002e000000342e000031320000a1
:101ac4003a20000050610000636b0000206f0000aa
:101ad4007665000072630000757200007265000094
:101ae4006e74000020280000646900007363000025
:101af400686100007267000065290000207700001b
:101b0400617200006e6900006e670000202800000a
:101b1400756e000069740000732000003d20000011
:101b2400746500006e74000068730000206f00008c
:101b340066200000416d0000707300003b2000002f
:101b44002d31000035300000302000003d20000021
:101b5400313500003041000020640000697300004a
:101b6400636800006172000067650000203c0000ab
:101b74004e4500004741000054490000564500000e
:101b840020530000494700004e2000004d41000052
:101b94004e440000415400004f520000593e0000e2
:101ba400292e0000003400002e310000333a0000da
:101bb40020630000656c00006c2000006f7600005c
:101bc40065720000746500006d70000020770000ed
:101bd400617200006e6900006e670000206f0000f3
:101be4006e200000636800006172000067650000f9
:101bf40020280000756e0000697400007320000046
:101c04003d200000746500006e74000068730000dd
:101c1400206f0000662000004b6500006c76000019
:101c2400696e00003b2000003330000030300000bb
:101c3400302000003d20000033300000302e000032
:101c4400304b0000292e0000003400002e3100002b
:101c5400343a000020630000656c00006c20000032
:101c6400756e00006465000072740000656d00000c
:101c74007020000077610000726e0000696e000041
:101c8400672000006f6e00002063000068610000a0
:101c94007267000065200000287500006e6900006e
:101ca40074730000203d000020740000656e000085
:101cb40074680000732000006f660000204b000071
:101cc400656c0000766900006e3b00002033000064
:101cd4003030000030300000203d00002033000090
:101ce400303000002e3000004b2900002e00000090
:101cf400342e0000313500003a20000063650000f6
:101d04006c6c0000206f00007665000072740000a7
:101d1400656d00007020000077610000726e0000a5
:101d2400696e0000672000006f6e000020640000f0
:101d34006973000063680000617200006765000059
:101d440020280000756e00006974000073200000f4
:101d54003d200000746500006e740000687300008c
:101d6400206f0000662000004b6500006c760000c8
:101d7400696e00003b20000033300000303000006a
:101d8400302000003d20000033300000302e0000e1
:101d9400304b0000292e0000003400002e310000da
:101da400363a000020630000656c00006c200000df
:101db400756e00006465000072740000656d0000bb
:101dc4007020000077610000726e0000696e0000f0
:101dd400672000006f6e000020640000697300003b
:101de400636800006172000067650000202800003d
:101df400756e000069740000732000003d2000002f
:101e0400746500006e74000068730000206f0000a9
:101e1400662000004b6500006c760000696e0000cf
:101e24003b20000033300000303000003020000040
:101e34003d20000033300000302e0000304b000005
:101e4400292e0000003500002e3100003a20000049
:101e54006c6f000077200000726100006e67000064
:101e6400652000006375000072720000656e00005a
:101e740074200000736500006e7300006f72000030
:101e840020670000616900006e2e0000003500002c
:101e94002e3200003a2000006c6f00007720000012
:101ea400726100006e670000652000006375000029
:101eb40072720000656e00007420000073650000fb
:101ec4006e7300006f720000206f000066660000f1
:101ed40073650000742e0000203c0000736900004c
:101ee400676e0000656400003e000000352e0000af
:101ef400333a000020680000696700006820000091
:101f0400726100006e6700006520000063750000c8
:101f140072720000656e000074200000736500009a
:101f24006e7300006f72000020670000616900009a
:101f34006e2e0000003500002e3400003a20000010
:101f4400686900006768000020720000616e00008c
:101f54006765000020630000757200007265000070
:101f64006e74000020730000656e0000736f000043
:101f7400722000006f660000667300006574000044
:101f84002e2000003c730000696700006e650000ad
:101f9400643e0000003500002e3500003a200000a9
:101fa40068690000676800002d6c00006f7700000e
:101fb4002063000075720000726500006e740000fa
:101fc40020740000726100006e73000069740000e8
:101fd400696f00006e200000706f0000696e0000e1
:101fe400742e0000003500002e3600003a20000058
:101ff400582d000061780000697300002041000042
:1020040063630000656c0000657200006f6d000082
:1020140065740000657200002067000061690000bb
:102024006e2e0000003500002e3700003a2000001c
:10203400582d000061780000697300002041000001
:1020440063630000656c0000657200006f6d000042
:102054006574000065720000206f00006666000071
:1020640073650000742e0000203c000073690000ba
:10207400676e0000656400003e000000352e00001d
:10208400383a0000205900002d61000078690000f2
:102094007320000041630000636500006c6500006c
:1020a400726f00006d65000074650000722000000e
:1020b40067610000696e00002e000000352e0000ec
:1020c400393a0000205900002d61000078690000b1
:1020d4007320000041630000636500006c6500002c
:1020e400726f00006d6500007465000072200000ce
:1020f4006f66000066730000657400002e20000007
:102104003c730000696700006e650000643e0000d7
:10211400003500002e310000303a0000205a000043
:102124002d61000078690000732000004163000005
:10213400636500006c650000726f00006d6500004f
:10214400746500007220000067610000696e000081
:102154002e000000352e0000313100003a2000002e
:102164005a2d0000617800006973000020410000ce
:1021740063630000656c0000657200006f6d000011
:102184006574000065720000206f00006666000040
:1021940073650000742e0000203c00007369000089
:1021a400676e0000656400003e000000352e0000ec
:1021b400313200003a2000006375000072720000a2
:1021c400656e000074200000736500006e730000eb
:1021d4006f720000206200006f61000072640000f2
:1021e400202b0000313500005620000072610000f1
:1021f400696c00002d730000656e000073650000bb
:1022040020670000616900006e2e000000350000a8
:102214002e310000333a0000206300007572000084
:10222400726500006e74000020730000656e00008b
:10223400736f000072200000626f00006172000082
:10224400642000002b31000035560000207200008d
:10225400616900006c2d0000736500006e7300005e
:10226400652000006f66000066730000657400005e
:102274002e2000003c730000696700006e650000ba
:10228400643e0000003500002e310000343a0000a6
:102294002063000075720000726500006e74000017
:1022a40020730000656e0000736f00007220000050
:1022b400626f000061720000642000002d31000094
:1022c4003556000020720000616900006c2d00008a
:1022d400736500006e730000652e00002067000027
:1022e400616900006e000000352e000031350000e9
:1022f4003a2000006375000072720000656e0000f1
:1023040074200000736500006e7300006f7200009b
:10231400206200006f61000072640000202d000044
:10232400313500005620000072610000696c000025
:102334002d730000656e0000736500002e20000000
:102344003c730000696700006e650000643e000095
:10235400003500002e310000363a000020630000f2
:1023640075720000726500006e7400002073000036
:10237400656e0000736f000072200000626f000041
:1023840061720000642000006f6600006673000044
:1023940065740000207600006f6c0000746100001a
:1023a400676500002d730000656e00007365000012
:1023b40020670000616900006e2e000000350000f7
:1023c4002e310000373a00002063000075720000cf
:1023d400726500006e74000020730000656e0000da
:1023e400736f000072200000626f000061720000d1
:1023f400642000006f6600006673000065740000ce
:10240400207600006f6c00007461000067650000b6
:102414002d730000656e000073650000206f0000de
:102424006666000073650000742000003c730000c1
:10243400696700006e650000643e0000003500001e
:102444002e310000383a0000206d00006173000056
:10245400746500007227000073200000332e000012
:10246400335600002073000075700000706c00008b
:10247400792d0000736500006e7300006520000074
:1024840067610000696e00002e000000352e000018
:10249400313900003a2000006d61000073740000bf
:1024a4006572000027730000203300002e33000003
:1024b4005620000073750000707000006c790000f5
:1024c4002d730000656e000073650000206f00002e
:1024d4006666000073650000742e0000203c000056
:1024e40073690000676e0000656400003e00000030
:1024f400352e0000323000003a2000006d610000eb
:10250400737400006572000027730000203500001a
:102514005620000073750000707000006c79000094
:102524002d730000656e00007365000020670000d5
:10253400616900006e2e0000003500002e3200009c
:10254400313a0000206d00006173000074650000e2
:10255400722700007320000035560000207300002d
:1025640075700000706c0000792d00007365000028
:102574006e730000652000006f6600006673000043
:10258400657400002e2000003c73000069670000a1
:102594006e650000643e0000003500002e3200002d
:1025a400323a0000206300006f6e00007461000086
:1025b400637400006f720000206300006f69000004
:1025c4006c200000766f00006c74000061670000ee
:1025d400652d0000736500006e7300006520000027
:1025e40067610000696e00002e000000352e0000b7
:1025f400323300003a200000636f00006e74000064
:1026040061630000746f000072200000636f0000bb
:10261400696c0000207600006f6c0000746100009b
:10262400676500002d730000656e0000736500008f
:10263400206f00006666000073650000742e0000c1
:10264400203c000073690000676e000065640000b0
:102654003e0000004375000072720000656e0000c9
:1026640074200000736500006e7300006f72000038
:10267400207000006f6c000061720000697400003b
:102684007920000028300000203d0000206e00006a
:102694006f7200006d6100006c2c0000203100009e
:1026a400203d000020720000657600006572000085
:1026b40073650000642900002e000000312e000024
:1026c400313a0000206e0000756d00006265000064
:1026d400722000006f66000020630000656c00003b
:1026e4006c730000206f00006e200000746800000e
:1026f40069730000207300006c61000076650000bf
:1027040020280000766f00006c74000061670000f0
:102714006573000029000000312e0000323a0000e9
:10272400206e0000756d00006265000072200000dc
:102734006f66000020630000656c000073200000d9
:102744006f6e0000207400006869000073200000b0
:10275400736c00006176000065200000287400009e
:10276400656d000070650000726100007475000002
:102774007265000073290000003100002e33000050
:102784003a200000736c00006176000065200000b0
:102794004944000020280000666f000072200000f9
:1027a400707200006f670000726100006d6d0000c0
:1027b4006174000069630000616c00006c790000c2
:1027c4002061000073730000696700006e650000fb
:1027d40064200000736c0000617600006520000036
:1027e40061640000647200006573000073200000df
:1027f40077680000656e0000204400004950000026
:1028040073770000207300007774000020740000c8
:102814006f20000030290000003100002e34000039
:102824003a200000525300003438000035200000e4
:102834006275000073200000696e0000746500007a
:10284400722d00006279000074650000207400009d
:10285400696d0000656f000075740000203c000085
:10286400746900006d65000072200000726500004c
:102874006769000073740000657200002076000030
:10288400616c0000756500003e000000312e000000
:10289400353a0000204c000054430000206300003f
:1028a4006869000070200000636f00006e7600000d
:1028b40065720000736900006f6e000020770000ed
:1028c4006169000074200000746900006d650000f7
:1028d400203c0000746900006d6500007220000057
:1028e400726500006769000073740000657200007f
:1028f40020760000616c0000756500003e00000059
:10290400312e0000363a000020410000444300000c
:102914002f4c000054430000207000006f6c000036
:102924006c6900006e67000020740000696d00008f
:10293400652000003c740000696d000065720000b1
:102944002072000065670000697300007465000070
:1029540072200000766100006c750000653e000086
:10296400003100002e3700003a20000042610000d0
:102974006c6100006e630000652000005469000073
:102984006d6500006f750000742000003c2300009a
:10299400206f0000662000004c540000432000001b
:1029a40063790000636c0000657300003e00000062
:1029b400312e0000383a0000204c0000544300003f
:1029c4002063000068690000702000007479000032
:1029d4007065000020280000322000003d20000027
:1029e4004c5400004336000038300000322c000004
:1029f40020330000203d0000204c00005443000020
:102a0400363800003033000029000000312e000069
:102a1400393a0000204c00005443000020630000b9
:102a240068650000636b000020500000454300000f
:102a3400206f00006e2000007265000063650000d6
:102a4400697600006520000028300000203d000069
:102a540020690000676e00006f72000065200000ae
:102a640050450000432c000020310000203d0000b0
:102a740020720000656a0000656300007420000095
:102a84004c540000432000006461000074610000a5
:102a9400207700006974000068200000696e00005f
:102aa400766100006c69000064200000435200005d
:102ab40043290000003100002e310000303a0000ac
:102ac40020610000757400006f2d00007374000015
:102ad4006172000074200000636f00006e760000d5
:102ae40065720000746900006e6700002028000011
:102af400312000003d20000073740000617200006a
:102b040074200000636f00006e76000065720000a0
:102b1400746900006e670000207600006f6c00008e
:102b2400747300002f740000656d00007073000062
:102b3400206f00006e200000626f00006f740000c0
:102b44002c200000302000003d200000736c0000a9
:102b54006176000065200000776100006974000060
:102b640073200000746f00002062000065200000e4
:102b740074750000726e000065640000206f000030
:102b84006e290000003200002e3100003a200000bf
:102b94004c54000043200000766f00006c74000069
:102ba400616700006520000067610000696e000035
:102bb40020630000656c00006c2000003100000000
:102bc400322e0000323a0000204c00005443000032
:102bd400207600006f6c00007461000067650000df
:102be40020670000616900006e200000636500003a
:102bf4006c6c000020320000003200002e33000014
:102c04003a2000004c54000043200000766f00007e
:102c14006c740000616700006520000067610000bb
:102c2400696e000020630000656c00006c200000e9
:102c340033000000322e0000343a0000204c000023
:102c440054430000207600006f6c000074610000a3
:102c54006765000020670000616900006e200000c5
:102c6400636500006c6c000020340000003200003a
:102c74002e3500003a2000004c5400004320000090
:102c8400766f00006c74000061670000652000002e
:102c940067610000696e000020630000656c00003d
:102ca4006c20000035000000322e0000363a00008f
:102cb400204c000054430000207600006f6c00009c
:102cc400746100006765000020670000616900000e
:102cd4006e200000636500006c6c0000203600006c
:102ce400003200002e3700003a2000004c5400004f
:102cf40043200000766f00006c74000061670000e0
:102d04006520000067610000696e00002063000018
:102d1400656c00006c20000037000000322e0000bb
:102d2400383a0000204c0000544300002076000094
:102d34006f6c00007461000067650000206700008c
:102d4400616900006e200000636500006c6c000087
:102d540020380000003200002e3900003a20000024
:102d64004c54000043200000766f00006c74000097
:102d7400616700006520000067610000696e000063
:102d840020630000656c00006c2000003900000026
:102d9400322e0000313000003a2000004c54000074
:102da40043200000766f00006c740000616700002f
:102db4006520000067610000696e00002063000068
:102dc400656c00006c20000031300000003200000f
:102dd4002e310000313a0000204c00005443000022
:102de400207600006f6c00007461000067650000cd
:102df40020670000616900006e2000006365000028
:102e04006c6c00002031000031000000322e000004
:102e1400313300003a2000004c54000043200000ed
:102e2400766f00006c74000061670000652000008c
:102e340067610000696e000020630000656c00009b
:102e44006c20000031320000003300002e310000fd
:102e54003a2000004c54000043200000766f00002c
:102e64006c74000061670000652000006f6600005c
:102e7400667300006574000020630000656c000048
:102e84006c200000312000003c73000069670000e2
:102e94006e650000643e0000003300002e32000026
:102ea4003a2000004c54000043200000766f0000dc
:102eb4006c74000061670000652000006f6600000c
:102ec400667300006574000020630000656c0000f8
:102ed4006c200000322000003c7300006967000091
:102ee4006e650000643e0000003300002e330000d5
:102ef4003a2000004c54000043200000766f00008c
:102f04006c74000061670000652000006f660000bb
:102f1400667300006574000020630000656c0000a7
:102f24006c200000332000003c730000696700003f
:102f34006e650000643e0000003300002e34000083
:102f44003a2000004c54000043200000766f00003b
:102f54006c74000061670000652000006f6600006b
:102f6400667300006574000020630000656c000057
:102f74006c200000342000003c73000069670000ee
:102f84006e650000643e0000003300002e35000032
:102f94003a2000004c54000043200000766f0000eb
:102fa4006c74000061670000652000006f6600001b
:102fb400667300006574000020630000656c000007
:102fc4006c200000352000003c730000696700009d
:102fd4006e650000643e0000003300002e360000e1
:102fe4003a2000004c54000043200000766f00009b
:102ff4006c74000061670000652000006f660000cb
:10300400667300006574000020630000656c0000b6
:103014006c200000362000003c730000696700004b
:103024006e650000643e0000003300002e3700008f
:103034003a2000004c54000043200000766f00004a
:103044006c74000061670000652000006f6600007a
:10305400667300006574000020630000656c000066
:103064006c200000372000003c73000069670000fa
:103074006e650000643e0000003300002e3800003e
:103084003a2000004c54000043200000766f0000fa
:103094006c74000061670000652000006f6600002a
:1030a400667300006574000020630000656c000016
:1030b4006c200000382000003c73000069670000a9
:1030c4006e650000643e0000003300002e390000ed
:1030d4003a2000004c54000043200000766f0000aa
:1030e4006c74000061670000652000006f660000da
:1030f400667300006574000020630000656c0000c6
:103104006c200000392000003c7300006967000057
:103114006e650000643e0000003300002e310000a4
:10312400303a0000204c0000544300002076000098
:103134006f6c00007461000067650000206f000080
:10314400666600007365000074200000636500007b
:103154006c6c000020310000302000003c73000043
:10316400696700006e650000643e000000330000e3
:103174002e310000313a0000204c0000544300007e
:10318400207600006f6c0000746100006765000029
:10319400206f000066660000736500007420000064
:1031a400636500006c6c00002031000031200000d9
:1031b4003c730000696700006e650000643e000017
:1031c400003300002e310000333a0000204c000090
:1031d40054430000207600006f6c0000746100000e
:1031e40067650000206f00006666000073650000dc
:1031f40074200000636500006c6c00002031000046
:10320400322000003c730000696700006e65000016
:10321400643e0000003400002e3100003a2000001b
:10322400746500006d700000657200006174000038
:103234007572000065200000736500006e73000065
:103244006f72000020670000616900006e200000ba
:10325400636500006c6c0000203100000034000045
:103264002e3200003a200000746500006d700000ea
:103274006572000061740000757200006520000032
:10328400736500006e7300006f7200002067000019
:10329400616900006e200000636500006c6c000032
:1032a40020320000003400002e3300003a200000d9
:1032b400746500006d7000006572000061740000a8
:1032c4007572000065200000736500006e730000d5
:1032d4006f72000020670000616900006e2000002a
:1032e400636500006c6c00002033000000340000b3
:1032f4002e3400003a200000746500006d70000058
:1033040065720000617400007572000065200000a1
:10331400736500006e7300006f7200002067000088
:10332400616900006e200000636500006c6c0000a1
:1033340020340000003400002e3500003a20000044
:10334400746500006d700000657200006174000017
:103354007572000065200000736500006e73000044
:103364006f72000020670000616900006e20000099
:10337400636500006c6c0000203500000034000020
:103384002e3600003a200000746500006d700000c5
:103394006572000061740000757200006520000011
:1033a400736500006e7300006f72000020670000f8
:1033b400616900006e200000636500006c6c000011
:1033c40020360000003400002e3700003a200000b0
:1033d400746500006d700000657200006174000087
:1033e4007572000065200000736500006e730000b4
:1033f4006f72000020670000616900006e20000009
:10340400636500006c6c000020370000003400008d
:103414002e3800003a200000746500006d70000032
:103424006572000061740000757200006520000080
:10343400736500006e7300006f7200002067000067
:10344400616900006e200000636500006c6c000080
:1034540020380000003400002e3900003a2000001b
:10346400746500006d7000006572000061740000f6
:103474007572000065200000736500006e73000023
:103484006f72000020670000616900006e20000078
:10349400636500006c6c00002039000000340000fb
:1034a4002e310000303a000020740000656d0000e9
:1034b40070650000726100007475000072650000a0
:1034c40020730000656e0000736f0000722000001e
:1034d40067610000696e000020630000656c0000f5
:1034e4006c20000031300000003400002e31000058
:1034f400313a000020740000656d00007065000022
:103504007261000074750000726500002073000091
:10351400656e0000736f0000722000006761000098
:10352400696e000020630000656c00006c200000e0
:1035340031310000003400002e310000333a000025
:1035440020740000656d0000706500007261000069
:10355400747500007265000020730000656e000041
:10356400736f00007220000067610000696e000044
:1035740020630000656c00006c2000003132000004
:10358400003500002e3100003a2000007465000070
:103594006d700000657200006174000075720000b7
:1035a40065200000736500006e7300006f720000f8
:1035b400206f000066660000736500007420000040
:1035c400636500006c6c000020310000203c0000aa
:1035d40073690000676e0000656400003e0000002f
:1035e400352e0000323a000020740000656d0000a2
:1035f400706500007261000074750000726500005f
:1036040020730000656e0000736f000072200000dc
:103614006f6600006673000065740000206300009c
:10362400656c00006c200000322000003c73000038
:10363400696700006e650000643e0000003500000c
:103644002e3300003a200000746500006d70000005
:10365400657200006174000075720000652000004e
:10366400736500006e7300006f720000206f00002d
:103674006666000073650000742000006365000046
:103684006c6c000020330000203c000073690000d3
:10369400676e0000656400003e000000352e0000e7
:1036a400343a000020740000656d0000706500006d
:1036b40072610000747500007265000020730000e0
:1036c400656e0000736f0000722000006f660000da
:1036d400667300006574000020630000656c0000e0
:1036e4006c200000342000003c7300006967000077
:1036f4006e650000643e0000003500002e350000b9
:103704003a200000746500006d70000065720000ce
:10371400617400007572000065200000736500008c
:103724006e7300006f720000206f00006666000078
:103734007365000074200000636500006c6c000079
:1037440020350000203c000073690000676e000013
:10375400656400003e000000352e0000363a00008b
:1037640020740000656d0000706500007261000047
:10377400747500007265000020730000656e00001f
:10378400736f0000722000006f6600006673000013
:103794006574000020630000656c00006c2000006c
:1037a400362000003c730000696700006e6500006d
:1037b400643e0000003500002e3700003a2000006f
:1037c400746500006d700000657200006174000093
:1037d4007572000065200000736500006e730000c0
:1037e4006f720000206f00006666000073650000c1
:1037f40074200000636500006c6c0000203700003a
:10380400203c000073690000676e000065640000de
:103814003e000000352e0000383a000020740000fd
:10382400656d000070650000726100007475000031
:103834007265000020730000656e0000736f000065
:10384400722000006f66000066730000657400005b
:1038540020630000656c00006c200000382000002c
:103864003c730000696700006e650000643e000060
:10387400003500002e3900003a2000007465000075
:103884006d700000657200006174000075720000c4
:1038940065200000736500006e7300006f72000005
:1038a400206f00006666000073650000742000004d
:1038b400636500006c6c000020390000203c0000af
:1038c40073690000676e0000656400003e0000003c
:1038d400352e0000313000003a20000074650000ed
:1038e4006d70000065720000617400007572000064
:1038f40065200000736500006e7300006f720000a5
:10390400206f0000666600007365000074200000ec
:10391400636500006c6c0000203100003020000062
:103924003c730000696700006e650000643e00009f
:10393400003500002e310000313a000020740000f0
:10394400656d000070650000726100007475000010
:103954007265000020730000656e0000736f000044
:10396400722000006f66000066730000657400003a
:1039740020630000656c00006c2000003131000001
:10398400203c000073690000676e0000656400005d
:103994003e000000352e0000313300003a200000c4
:1039a400746500006d7000006572000061740000b1
:1039b4007572000065200000736500006e730000de
:1039c4006f720000206f00006666000073650000df
:1039d40074200000636500006c6c0000203100005e
:1039e400322000003c730000696700006e6500002f
:1039f400643e0000003200002e3100003a20000036
:103a0400546f000070200000626f00006f740000ab
:103a14007374000072610000702000006d6f00007c
:103a2400647500006c65000020630000757200007e
:103a3400726500006e740000206700006169000078
:103a44006e2e0000003200002e3200003a200000ea
:103a5400546f000070200000636800006172000071
:103a6400676500007220000073750000707000002c
:103a74006c790000207600006f6c00007461000017
:103a8400676500002d730000656e00007369000017
:103a94006e67000020670000616900006e2e000060
:103aa400003200002e3300003a200000546f000062
:103ab40070200000626f00006f74000073740000d7
:103ac40072610000702000006d6f000064750000da
:103ad4006c650000207600006f6c000074610000cb
:103ae4006765000020670000616900006e2e000019
:103af400003200002e3400003a200000546f000011
:103b040070200000626f00006f7400007374000086
:103b140072610000702000006d6f00006475000089
:103b24006c65000020740000656d00007065000085
:103b34007261000074750000726500002067000067
:103b4400616900006e2e0000003200002e35000076
:103b54003a200000426f0000747400006f6d000092
:103b6400206200006f6f0000747300007472000024
:103b740061700000206d00006f640000756c00002f
:103b8400652000006375000072720000656e00001d
:103b94007420000067610000696e00002e000000c0
:103ba400322e0000363a0000204200006f740000fc
:103bb400746f00006d2000006368000061720000f3
:103bc40067650000722000007375000070700000cb
:103bd4006c790000207600006f6c000074610000b6
:103be400676500002d730000656e000073690000b6
:103bf4006e67000020670000616900006e2e0000ff
:103c0400003200002e3700003a200000426f00000e
:103c1400747400006f6d0000206200006f6f00007c
:103c2400747300007472000061700000206d000065
:103c34006f640000756c000065200000766f000062
:103c44006c7400006167000065200000676100007b
:103c5400696e00002e000000322e0000383a000089
:103c6400204200006f740000746f00006d2000009b
:103c7400626f00006f7400007374000072610000d2
:103c8400702000006d6f0000647500006c6500001a
:103c940020740000656d0000706500007261000012
:103ca40074750000726500002067000061690000ff
:103cb4006e2e0000003200002e3900003a20000071
:103cc400355600002d730000656e0000736500001a
:103cd40020670000616900006e2e000000320000c1
:103ce4002e310000303a0000207300006c610000a7
:103cf4007665000020420000757300002056000025
:103d040073750000702d0000736500006e73000071
:103d14006520000067610000696e00002e0000004d
:103d2400322e0000313100003a2000002b31000017
:103d34003556000020730000656e000073650000b6
:103d440020670000616900006e2e00000032000050
:103d54002e310000323a0000202d000031350000e1
:103d640056200000736500006e730000652000009b
:103d740067610000696e00002e000000322e000012
:103d8400313300003a200000426f00006f740000dd
:103d9400737400007261000070200000736c0000f6
:103da40061760000652000006c6f00006769000008
:103db40063200000626f0000617200006420000054
:103dc400746500006d70000065720000617400008d
:103dd4007572000065200000736500006e730000ba
:103de4006f72000020670000616900006e2e000001
:103df400003300002e3100003a200000546f000010
:103e040070200000626f00006f7400007374000083
:103e140072610000702000006d6f00006475000086
:103e24006c6500002063000075720000726500007c
:103e34006e740000206f0000666600007365000069
:103e4400742e0000203c000073690000676e0000bf
:103e5400656400003e000000332e0000323a00008a
:103e6400205400006f7000002063000068610000af
:103e74007267000065720000207300007570000016
:103e8400706c000079200000766f00006c740000f4
:103e940061670000652d0000736500006e7300000b
:103ea400696e0000672000006f6600006673000002
:103eb400657400002e2000003c7300006967000058
:103ec4006e650000643e0000003300002e330000e5
:103ed4003a200000546f000070200000626f000060
:103ee4006f740000737400007261000070200000a1
:103ef4006d6f0000647500006c65000020760000a2
:103f04006f6c00007461000067650000206f0000a2
:103f14006666000073650000742e0000203c0000fb
:103f240073690000676e0000656400003e000000d5
:103f3400332e0000343a0000205400006f7000005b
:103f4400206200006f6f0000747300007472000040
:103f540061700000206d00006f640000756c00004b
:103f640065200000746500006d700000657200003b
:103f74006174000075720000652000006f66000027
:103f840066730000657400002e2000003c7300007e
:103f9400696700006e650000643e000000330000a5
:103fa4002e3500003a200000426f000074740000b7
:103fb4006f6d0000206200006f6f000074730000da
:103fc4007472000061700000206d00006f640000d6
:103fd400756c0000652000006375000072720000bb
:103fe400656e0000742000006f66000066730000b8
:103ff400657400002e2000003c7300006967000017
:104004006e650000643e0000003300002e360000a0
:104014003a200000426f0000747400006f6d0000cd
:104024002063000068610000726700006572000090
:104034002073000075700000706c0000792000008f
:10404400766f00006c74000061670000652d00004d
:10405400736500006e730000696e00006720000045
:104064006f66000066730000657400002e20000077
:104074003c730000696700006e650000643e000048
:10408400003300002e3700003a200000426f000089
:10409400747400006f6d0000206200006f6f0000f8
:1040a400747300007472000061700000206d0000e1
:1040b4006f640000756c000065200000766f0000de
:1040c4006c74000061670000652000006f660000ea
:1040d40066730000657400002e2000003c7300002d
:1040e400696700006e650000643e00000033000054
:1040f4002e3800003a200000426f00007474000063
:104104006f6d0000206200006f6f00007473000088
:104114007472000061700000206d00006f64000084
:10412400756c000065200000746500006d7000006f
:104134006572000061740000757200006520000063
:104144006f66000066730000657400002e20000096
:104154003c730000696700006e650000643e000067
:10416400003300002e3900003a20000035560000cc
:104174002d730000656e000073650000206f000061
:104184006666000073650000742e0000203c000089
:1041940073690000676e0000656400003e00000063
:1041a400332e0000313000003a200000736c000010
:1041b4006176000065200000427500007320000055
:1041c40056730000757000002d730000656e0000ca
:1041d40073650000206f00006666000073650000d0
:1041e400742e0000203c000073690000676e00001c
:1041f400656400003e000000332e000031310000f1
:104204003a2000002b3100003556000020730000d6
:10421400656e000073650000206f00006666000094
:1042240073650000742e0000203c000073690000d8
:10423400676e0000656400003e000000332e00003d
:10424400313200003a2000002d31000035560000c4
:1042540020730000656e000073650000206f00008d
:104264006666000073650000742e0000203c0000a8
:1042740073690000676e0000656400003e00000082
:10428400332e0000313300003a200000426f00005a
:104294006f740000737400007261000070200000ed
:1042a400736c000061760000652000006c6f0000f4
:1042b4006769000063200000626f00006172000003
:1042c40064200000746500006d70000065720000d9
:1042d40061740000757200006520000073650000c1
:1042e4006e7300006f720000206f000066660000ad
:1042f40073650000742e0000203c00007369000008
:10430400676e0000656400003e0000000a0d0000b6
:10431400556e000072650000636f0000676e000058
:10432400697a000065640000206300006f6d00007e
:104334006d6100006e6400002e20000052540000e5
:10434400464d00002e0a00000a0d000042500000f5
:10435400533e0000200000000a0a00000d57000030
:10436400656c0000636f00006d6500002074000040
:104374006f200000425000005320000073650000cd
:1043840072690000616c0000205400006572000036
:104394006d6900006e6100006c2000004d6f00002c
:1043a40064650000210a00000d70000072650000c1
:1043b4007373000020220000657300006322000074
:1043c400206b000065790000207400006f2000005d
:1043d40065780000697400002062000061630000d9
:1043e4006b200000746f0000207000006163000007
:1043f4006b650000742000006d6f000064650000b0
:104404000a0d000070720000657300007320000044
:104414002268000022200000666f00007220000065
:10442400612000006372000079700000746900006c
:1044340063200000686500006c700000206d0000bf
:10444400656e0000750a00000a0d0000425000006d
:10445400533e0000200000000a0d00003d3d000016
:104464003d41000076610000696c0000616200005b
:104474006c650000204200005053000020630000df
:104484006f6d00006d6100006e640000733d0000fc
:104494003d3d00000a0d00005352000020200000a2
:1044a4002d200000536500007420000052650000b8
:1044b4006769000073740000657200000a0d000053
:1044c40052520000202000002d2000005265000000
:1044d40061640000205200006567000069730000f9
:1044e40074650000720a00000d52000043200000b1
:1044f400202d0000205200006561000064200000af
:1045040052540000430a00000d53000043200000f1
:10451400202d00002053000065740000205200008c
:10452400544300000a0d0000562000002020000023
:104534002d200000736800006f77000020630000e6
:10454400656c00006c200000566f00006c74000065
:1045540061670000657300000a0d0000542000002c
:10456400202000002d200000736800006f770000f9
:1045740020540000656d0000706500007261000049
:104584007475000072650000730a00000d49000094
:1045940020200000202d000020730000686f000020
:1045a400772000006375000072720000656e0000e1
:1045b4007428000049290000206100006e64000096
:1045c400204200005053000020730000746100007a
:1045d40074750000730a00000d520000454200008b
:1045e400202d000020520000454200006f6f0000a3
:1045f400742000007379000073740000656d00007e
:104604000a0d0000005300004f430000202d00005d
:1046140020730000686f00007720000053740000ce
:1046240061740000652000004f6600002043000014
:104634006861000072670000650a00000d42000016
:10464400414c0000202d000020730000686f000022
:1046540077200000424100004c6100006e630000be
:10466400696e0000670a00000d4f00004e20000034
:10467400202d000020740000757200006e200000e0
:104684007379000073740000656d0000204f000012
:104694004e0a00000d4f000046460000202d000089
:1046a40020740000757200006e2000007379000011
:1046b40073740000656d0000204f00004646000042
:1046c4000a0d000050520000202d00002050000070
:1046d400726900006e740000206c000069730000b1
:1046e400742000006f66000020520000656700001f
:1046f4006973000074650000727300000a0d000005
:10470400534d0000202d000020530000746f000062
:10471400702000004d650000617300007572000098
:10472400656d0000656e0000740a00000d42000013
:104734004d2000002d200000426500006769000044
:104744006e2000004d65000061730000757200006a
:10475400656d0000656e0000740a00000d420000e3
:10476400532000002d200000426f00006f740000f1
:104774005374000072610000700a00000d480000cc
:10478400454c0000202d00002073000079730000c8
:10479400746500006d20000048450000614c000075
:1047a400746800000a0d000000530000534f00001d
:1047b400432000002d2000005365000074200000f9
:1047c4005374000061740000652000004f6600000f
:1047d400204300006861000072670000650a000061
:1047e4000d5a000053520000414d0000202d0000de
:1047f400205a0000657200006f6900007a650000ad
:104804002062000061740000746500007279000089
:104814002d620000616300006b65000064200000ed
:1048240053520000414d00000a0d00005253000095
:10483400524100004d2000002d2000005265000070
:1048440061640000206100006c6c0000206f0000b7
:10485400662000006261000074740000657200004c
:104864007920000062610000636b00006564000051
:1048740020530000524100004d0a00000a0d0000c0
:1048840042500000533e0000200000000a0d0000ca
:104894005365000074740000696e00006720000016
:1048a40052650000676900007374000065720000bf
:1048b4000a0d0000656e000074650000722000009f
:1048c4006e7500006d62000065720000206f0000cc
:1048d40066200000736c000061760000652800000b
:1048e400302000003d2000006d6100007374000062
:1048f40065720000290a00000a0d0000736c0000b4
:1049040061760000652000006e7500006d3e0000b9
:10491400200000000a0d0000656e000074650000b0
:104924007220000072650000676900007374000063
:104934006572000020670000726f0000757000004f
:104944000a0a00000d670000726f00007570000015
:104954003e0000000a0d0000776f0000726b00003b
:10496400696e0000672000006f6e00002074000074
:1049740068650000204d000061730000746500004c
:10498400720a00000d6500006e740000657200007c
:104994002072000065670000697300007465000000
:1049a40072200000677200006f750000700a00003a
:1049b4000a0d000020670000726f0000757000008f
:1049c4003e0000000a0d0000656e000074650000e2
:1049d40072200000726500006769000073740000b3
:1049e400657200000a0d000072650000676900002e
:1049f40073740000657200003e0000000a0d0000a0
:104a0400656e00007465000072200000766100008d
:104a14006c750000650a00000d760000616c0000f2
:104a2400756500003e0000000a0d00004d610000a5
:104a34007374000065720000205200006567000076
:104a440069730000746500007220000000200000fb
:104a54006861000073200000746800006520000095
:104a64007365000074200000746f000020000000d3
:104a74000a0a00000d420000505300003e000000ee
:104a840045720000726f0000723a00002049000075
:104a94006e760000616c0000696400002052000022
:104aa40065670000697300007465000072210000ee
:104ab4000a0a00000d420000505300003e000000ae
:104ac40045720000726f0000723a0000204300003b
:104ad4006f6e000066690000677500007261000077
:104ae400746900006f6e0000204c00006f630000ca
:104af4006b650000642100000a0a00000d420000fa
:104b0400505300003e00000045720000726f000028
:104b1400723a0000207500006e6b00006e6f00009a
:104b2400776e000020650000727200006f72000052
:104b34003f0a00000a0d000042500000533e0000ee
:104b4400000a00000d520000656100006469000065
:104b54006e67000020520000656700006973000062
:104b640074650000720a00000d6500006e74000098
:104b740065720000206e0000756d00006265000023
:104b8400722000006f660000207300006c6100005a
:104b94007665000028300000203d0000206d0000f4
:104ba4006173000074650000722900000a0a0000a5
:104bb4000d7300006c61000076650000206e00003b
:104bc400756d00003e200000000a00000d77000013
:104bd4006f7200006b6900006e670000206f0000b8
:104be4006e200000736c00006176000065200000f8
:104bf400626f000061720000642000002000000069
:104c04000a0d0000206500006e740000657200004b
:104c1400207200006567000069730000746500007d
:104c240072200000677200006f750000700a0000b7
:104c34000a0d000020670000726f0000757000000c
:104c44003e00000020680000617300002074000032
:104c54006865000020760000616c00007565000046
:104c6400200000000a0d00003d3d00003d3d000015
:104c74003d20000020520000544300002043000067
:104c84006c6f0000636b0000202000003d3d0000bd
:104c94003d3d00003d0a00000d4400006174000029
:104ca400653a0000200000005c3200003000000083
:104cb4000a0d0000546900006d6500003a200000f0
:104cc400000a00000a0d000042500000533e00009c
:104cd400200000000a0d00003d3d00003d3d0000a5
:104ce4003d2000002053000065740000746900003a
:104cf4006e67000020420000505300002052000064
:104d0400656100006c200000546900006d650000be
:104d1400204300006c6f0000636b00002020000043
:104d24003d3d00003d3d00003d0a00000d650000d2
:104d34006e74000065720000205900006561000077
:104d4400722000002832000020640000696700001f
:104d54006974000073200000302d00003939000010
:104d6400293e0000200000000a0d0000656e0000ce
:104d740074650000722000006d6f00006e74000006
:104d840068280000312d000031320000293e000067
:104d9400200000000a0d0000656e0000746500002c
:104da400722000006461000079280000312d0000a9
:104db40033310000293e0000200000000a0d0000ed
:104dc400656e00007465000072200000686f0000ca
:104dd40075720000283000002d32000033290000d5
:104de4003e200000000a00000d6500006e74000003
:104df40065720000206d0000696e0000757400008b
:104e040065730000283000002d35000039290000aa
:104e14003e200000000a00000d6500006e740000d2
:104e24006572000020730000656300006f6e00006f
:104e340064730000283000002d350000392900007b
:104e44003e200000000a00000d6300006c6f0000ab
:104e5400636b000020750000706400006174000042
:104e6400656400002e0a00000a0d00004250000094
:104e7400533e0000200000000a0d00003d3d0000ec
:104e84003d3d00003d200000436500006c6c0000c7
:104e9400205600006f6c000074610000676500001c
:104ea400732000003d3d00003d3d00003d0a000030
:104eb4000d0000000a0d000045520000524f000092
:104ec400523a0000206e00006f200000766100005e
:104ed4006c690000642000006461000074610000db
:104ee4002061000076610000696c000061620000ce
:104ef4006c6500002e0a00000a0d0000004300004b
:104f0400656c00006c200000003a000020000000e6
:104f14000a0d0000000a00000d420000505300007a
:104f24003e200000000a00000d3d00003d3d000051
:104f34003d3d000020430000656c00006c20000033
:104f4400546500006d70000065720000617400001b
:104f54007572000065730000203d00003d3d0000b7
:104f64003d3d00000a0d0000000a00000d42000053
:104f74005053000020730000797300007465000032
:104f84006d2000005374000061740000757300000c
:104f94003a200000002000002d20000042500000b4
:104fa400532000007379000073740000656d0000e5
:104fb4002069000073200000226f00006666000074
:104fc40022200000616e0000642000006e6f00006b
:104fd400742000006d6500006173000075720000ac
:104fe400696e000067200000636500006c6c0000bf
:104ff40073000000202d00002042000050530000e8
:105004002073000079730000746500006d200000b7
:1050140069730000206d0000656100007375000075
:10502400726900006e67000020630000656c000078
:105034006c730000206100006e64000020630000b7
:105044006f6e000074610000637400006f720000f2
:1050540020690000732000004f4600004600000055
:10506400202d000020420000505300002073000057
:1050740079730000746500006d20000069730000fe
:10508400206d000065610000737500007269000006
:105094006e67000020630000656c00006c73000004
:1050a400206100006e640000206300006f6e000049
:1050b40074610000637400006f72000020690000d6
:1050c400732000004f4e0000002000002d2000003f
:1050d4004250000053200000697300002069000062
:1050e4006e200000746800006520000074720000e7
:1050f4006970000070650000642000007374000093
:1051040061740000653a0000206300006f6e0000c7
:1051140074610000637400006f720000204f00008f
:10512400464600002c20000042500000532000009e
:105134006d6500006173000075720000696e000007
:1051440067200000636500006c6c000073000000c1
:10515400202d000020420000505300002068000071
:105164006173000020680000616400002061000099
:105174006e200000696e000074650000726e00000d
:10518400616c000020650000727200006f72000004
:105194003a200000636f00006e7400006163000039
:1051a400746f0000722000004f460000462c00007f
:1051b400206e00006f740000206d00006561000027
:1051c40073750000726900006e67000020630000c0
:1051d400656c00006c730000002000002d200000ae
:1051e400425000005320000068610000732000005a
:1051f4006a75000073740000206200006565000099
:105204006e200000636f00006d6d0000616e000091
:1052140064650000642000006f6e00002c20000014
:1052240042500000532000006d75000073740000ac
:10523400206d000065610000737500007265000058
:1052440020630000656c00006c73000020620000a5
:10525400656600006f720000652000007475000030
:10526400726e0000696e000067200000636f00002a
:105274006e74000061630000746f0000722000000f
:105284006f6e0000002000002d200000756e0000ed
:105294006b6e00006f7700006e20000073740000d6
:1052a4006174000065210000000a00000d53000035
:1052b40079730000746500006d20000043750000e0
:1052c40072720000656e000074200000282b00003c
:1052d400203d000020630000686100007267000048
:1052e400652c0000202d0000203d000020640000fb
:1052f4006973000063680000617200006765000064
:10530400293a00002000000045720000726f00007e
:10531400723a0000206e00006f200000676f0000ea
:105324006f640000206400006174000061210000cb
:10533400000a00000d3d00003d3d00003d3d000021
:105344003d200000537400006174000065200000db
:105354004f6600002043000068610000726700008f
:10536400652000003d3d00003d3d00003d3d000046
:105374000a0d0000534f0000432000005065000058
:1053840072630000656e0000743a000009090000b1
:1053940009090000000a00000d7200006177000096
:1053a400205300004f4300002061000063630000ad
:1053b400756d0000756c0000617400006f72000070
:1053c40020280000416d0000702d00004d69000090
:1053d4006c69000053650000636f00006e64000098
:1053e400732900003a090000000a00000d53000070
:1053f4004f430000206900006e69000074690000da
:10540400616c0000697a000061740000696f00003b
:105414006e2000007374000061740000653a00009f
:105424000909000000200000286e00006f740000cd
:10543400206900006e69000074690000616c00005e
:10544400697a00006564000020790000657400003a
:10545400290000002028000061630000637500003b
:105464006d7500006c610000746f00007220000014
:105474006c6f000061640000656400002066000039
:10548400726f00006d20000053520000414d000077
:10549400206c00006f63000061740000696f0000fd
:1054a4006e20000031290000002000002861000067
:1054b40063630000756d0000756c0000617400008a
:1054c4006f720000206c00006f61000064650000d2
:1054d40064200000667200006f6d0000205300001d
:1054e400524100004d2000006c6f00006361000019
:1054f400746900006f6e0000203200002900000073
:105504002028000061630000637500006d750000d1
:105514006c610000746f0000722000006c6f00006a
:10552400616400006564000020660000726f000082
:105534006d20000053520000414d0000206c00001b
:105544006f63000061740000696f00006e2000004a
:10555400312c0000206200006f74000068200000fd
:1055640053520000414d0000206c00006f630000a6
:1055740061740000696f00006e200000676f000016
:105584006f64000029000000202800006e6f0000f6
:10559400206700006f6f0000642000006461000059
:1055a40074610000206900006e2000005352000066
:1055b400414d00002c20000064650000666100007d
:1055c400756c000074730000206c00006f610000b3
:1055d4006465000064290000000a00000d42000018
:1055e400616c0000616e0000636900006e6700007a
:1055f4002063000075720000726500006e74000084
:105604006c790000206900007320000075730000ad
:10561400656c000065730000732e00000a0a000028
:105624000d420000505300003e200000000a00001c
:105634000d41000074740000656d0000707400007a
:10564400696e000067200000746f00002074000081
:10565400757200006e2000006f6e00002053000081
:1056640079730000746500006d200000287200004a
:10567400756e000020740000686500002049000079
:10568400206300006f6d00006d6100006e64000017
:10569400207400006f200000736500006520000086
:1056a400696600002069000074200000776f000024
:1056b400726b000065640000290a00000a0d0000f6
:1056c40042500000533e0000200000000a0d00007c
:1056d4005368000075740000746900006e67000070
:1056e400206400006f7700006e20000074680000e2
:1056f4006520000042500000532000007379000030
:1057040073740000656d00002e0a00000a0d00008d
:1057140042500000533e0000200000000a0a00002e
:105724000d3d00003d3d00003d3d000020520000c5
:1057340065670000697300007465000072730000ff
:10574400206f00006e2000007468000065200000d7
:105754004d6100007374000065720000203d00007c
:105764003d3d00003d3d00000a0d0000000a000020
:105774000a0d00003d3d00003d3d00003d200000bd
:1057840052650000676900007374000065720000d0
:10579400732000006f6e0000207400006865000034
:1057a40020540000656d0000706500007261000007
:1057b40074750000726500002f5600006f6c0000c5
:1057c4007461000067650000205300006c610000f4
:1057d40076650000204200006f61000072640000e2
:1057e400732000003d3d00003d3d00003d0a0000e7
:1057f4000d0000000a0a00000d3d00003d3d0000c0
:105804003d3d000020520000656700006973000000
:105814007465000072730000206f00006e200000a9
:105824007468000065200000426f00006f7400007f
:105834007374000061700000205300006c6100006c
:1058440076650000204c00006f670000696300006b
:10585400204200006f61000072640000203d0000df
:105864003d3d00003d3d00000a0d0000000a00001f
:105874000a0a00000d420000505300003e200000c0
:10588400000a00000d4d0000656100007375000002
:10589400726500006d6500006e7400002053000006
:1058a400746f000070700000656400002e0a000030
:1058b4000a0d000042500000533e0000200000008a
:1058c4000a0d000044690000646e000027740000a3
:1058d40020730000746f0000702000006d650000ec
:1058e4006173000075720000656d0000656e000054
:1058f40074200000736900006e63000065200000de
:10590400636f00006e74000061630000746f000038
:105914007220000069730000204f00004e2f000029
:10592400706500006e640000696e0000670a000084
:105934000a0d000042500000533e00002000000009
:105944000a0d00004d6500006173000075720000cf
:10595400656d0000656e0000742000005374000043
:105964006172000074650000642e00000a0a0000e1
:105974000d420000505300003e200000000a0000c9
:105984000d42000050530000206900007320000005
:10599400616c000072650000616400007920000001
:1059a4006d6500006173000075720000696e00008f
:1059b400670a00000a0d000042500000533e000038
:1059c400200000000a0d000045520000524f000064
:1059d400523a0000206e00006f200000426f000069
:1059e4006f74000073740000726100007020000086
:1059f400736c00006176000065200000636f000096
:105a04006e6600006967000075720000656400003e
:105a1400206f00006e2000007468000069730000ad
:105a24002073000079730000746500006d2e00007f
:105a34000a0a00000d420000505300003e200000fe
:105a4400000a00000d3d00003d3d00003d3d00000a
:105a5400204200006f6f0000747300007472000035
:105a640061700000204400006174000061200000a7
:105a7400666f000072200000546f00007020000068
:105a840042530000204d00006f640000756c00005c
:105a9400652000003d3d00003d3d00003d0a000042
:105aa4000d0000000a0d000045520000524f000096
:105ab400523a0000206e00006f2000007661000062
