:020000040000fa
:080000000001040000000000f3
:020000040000fa
:100200000f8b20000e7f22000e01880000000000ee
:100210000c0007000022210001002000110007004f
:10022000000020000000e000020032000000020098
:1002300000000000f6070200000000000040da00a5
:100240000000fe004440a900c00220000000e000c1
:100250000300320000002000a00188004440a800f4
:100260000000060091018800800078000000eb008b
:1002700015003700e280400032a0b4009101ba00be
:10028000e280400032a0b4009102ba00e280400057
:1002900032a0b4000002eb00472bde00f507b200ed
:1002a000602ce10004003a000059eb008301e900f2
:1002b000fdff3e00040037006128e100010032002c
:1002c0000082eb00040007001101ba000200e00008
:1002d000e8ff3a00000006003159ba008301e90046
:1002e0000c0032002159ba008301e90008003200f5
:1002f0000400e00003003a00e280400032a0b400b5
:10030000f5ff370011d9ba008301e900faff3a007e
:100310008100e800e180400032a0b4000000060047
:100320000040da000000fe006022b8000602200053
:100330000000d0008180d2000482d2008582d200e9
:100340000000a0000202520083825a000300310024
:100350000202420083824a000000a1000603e90075
:08036000f3ff3a000000060063
:020000040000fa
:1000080090010000900100009001000090010000a4
:100018009001000090010000900100009001000094
:10002800900100009001000090010000ea05000026
:100038009001000090010000900100009001000074
:1000480090010000000200009001000090010000f3
:100058009001000090010000900100009001000054
:100068009001000090010000900100009001000044
:100078009001000090010000900100009001000034
:100088009001000090010000900100009001000024
:100098009001000090010000900100009001000014
:1000a8009001000090010000900100009001000004
:1000b80090010000900100009001000090010000f4
:1000c80090010000900100009001000090010000e4
:1000d80090010000900100009001000090010000d4
:1000e80090010000900100009001000090010000c4
:0800f8009001000090010000de
:020000040000fa
:1001080090010000900100009001000090010000a3
:100118009001000090010000900100009001000093
:10012800900100009001000090010000ea05000025
:100138009001000090010000900100009001000073
:1001480090010000000200009001000090010000f2
:100158009001000090010000900100009001000053
:100168009001000090010000900100009001000043
:100178009001000090010000900100009001000033
:100188009001000090010000900100009001000023
:100198009001000090010000900100009001000013
:1001a8009001000090010000900100009001000003
:1001b80090010000900100009001000090010000f3
:1001c80090010000900100009001000090010000e3
:1001d80090010000900100009001000090010000d3
:1001e80090010000900100009001000090010000c3
:0801f8009001000090010000dd
:020000040000fa
:100368000000000000000000000000000000000085
:100378000000000000000000000000000000000075
:100388000000000000000000000000000000000065
:100398000000000000000000000000000000000055
:1003a8000000000000000000000000000000000045
:0803b80000000000000000003d
:020000040000fa
:1003c0000000fa00f0ff20001008880000032a0057
:1003d000200888005109200091407800f0c8b3003f
:1003e00000c0600001c4b3000140700095e0b70098
:1003f0008460a9008c60a8000080fa00000006005c
:100400003600f800809fbe00829fbe00849fbe0021
:10041000869fbe00881f78001200fa000040eb00a3
:10042000604f98000040eb00504f9800a0168000ed
:100430004200de006f406000404f98000040eb003b
:10044000304f98000040eb00204f98000040eb0038
:10045000104f98000040eb00004f98000040eb0068
:10046000704798000040eb00604798000040eb00a8
:10047000504798000040eb00404798000040eb00d8
:10048000304798000040eb00204798000000eb0048
:10049000000f780090108000404798000ec2bf0007
:1004a000704060000004e000fcff3200901080000b
:1004b000304798000ec2bf00704060000004e000aa
:1004c000fcff320090108000304f98000ec2bf0039
:1004d000704060000004e000fcff320090108000db
:1004e000204798000ec2bf00704060000004e0008a
:1004f000fcff320090108000704798000ec2bf00d1
:10050000704060000004e000fcff320090108000aa
:10051000604798000ec2bf00704060000004e00019
:10052000fcff320090108000504798003e48900039
:100530006f406000204f98003e4890000000fb0094
:100540004480de00304f98003e4890006f406000cd
:10055000304f9800ce4890003e48900080cf500029
:1005600087013a002e489000e84f500084013c007b
:100570002e4890000004e00081013400ce4090003d
:1005800030c5b30080cf50007d013a00be409000de
:1005900040c5b30080cf500079013a00ae409000d2
:1005a00000c5b30080cf500075013a00030037004a
:1005b0006e4890000040e800604f9800ee489000c0
:1005c00090c7b30080cf5000f9ff34000040eb002b
:1005d000604f9800b01680003000b300b01688005d
:1005e0002e4890000000fb00000f98000e089000bd
:1005f000e40f50009a0032000e089000e40f500003
:100600000a003c000e089000e20f50004800320043
:100610000e089000e20f50006a003c000e089000a7
:10062000e10f50000e003200470137000e08900025
:10063000e60f5000ee0032000e089000e60f50006a
:10064000b90035000e089000e70f5000000132009d
:100650000e089000e80f5000150132003a013700f3
:1006600099c8bf000000fb004600de00610060008a
:100670000000e00021003a0033050700db06070018
:1006800098c8bf00718920009140780062892000dd
:1006900012417800568920001643780047892000cf
:1006a0009743780038892000184478008042780009
:1006b0000142780082417800064178008740780046
:1006c000084078005702070000832000d704070085
:1006d000918920009140780000c4b30000c07000f0
:1006e00099e8b700918920009140780000cfb300cd
:1006f00000c0600099e8b70031ff070099c8bf004b
:100700000000fb004007070090c8bf000000fb008e
:100710003d07070091c8bf000000fb003a07070033
:1007200092c8bf000000fb00370707000701370031
:100730000040eb00604f98001e0037000fc2bf0062
:10074000614060000004e000fcff32006e48900051
:100750000000fb008000400000802000008040007e
:100760009000780000f02f00008060004800de005c
:10077000250707000fc2bf00614060000004e000d1
:10078000fcff32006e4890000000fb00800040003b
:10079000008020000080400090007800f00f2000d2
:1007a00000806000180707006e4890000040e800d5
:1007b000604f98006e489000ea4f5000dfff340011
:1007c000e20037000040eb00604f98002000370047
:1007d0000fc2bf00614060000004e000fcff320077
:1007e0006e4890000000fb00800040000087200061
:1007f00000804000100078004800de00104f980094
:100800001e4890000000fb00ff0607000fc2bf005b
:10081000614060000004e000fcff32006e48900080
:100820000000fb00800040000087200000804000a6
:1008300010007800004f98000e4890000000fb0068
:10084000f10607006e4890000040e800604f9800f5
:100850006e489000ea4f5000ddff3400bb003700c7
:100860007e4090008001fb0098c8bf000002fb00a2
:1008700097c8bf000004fb0096c8bf008000fb00c3
:1008800095c8bf000001fb0094c8bf008003fb00b7
:1008900093c8bf000000fb000303780084027800c7
:1008a000080278008101780087007800bc03070007
:1008b0000000e00010003200918920009140780093
:1008c000e0cfb30000c0600099e8b7007e40900020
:1008d0008000fb00f00f2000008060005044880082
:1008e00051448000000320000088b9000000d100be
:1008f000504488000300370099c8bf000004a000de
:1009000099e8b70099c8bf000000fb00be060700c9
:100910000fc2bf00614060000004e000fcff320035
:100920000e22a900890037007e4090008001fb0064
:1009300098c8bf000002fb0097c8bf000004fb007e
:1009400096c8bf008000fb0095c8bf000001fb00f7
:1009500094c8bf008003fb0093c8bf000000fb00e9
:10096000030378008402780008027800810178008f
:1009700087007800bf0307000000e000100032008d
:100980009189200091407800d0cfb30000c0600072
:1009900099e8b7007e4090008000fb00f00f200037
:1009a00000806000604488006144800000032000f3
:1009b0000088b9000000d1006044880003003700bf
:1009c00099c8bf000014a00099e8b70099c8bf00fb
:1009d0000000fb008c0607000fc2bf0061406000f2
:1009e0000004e000fcff32000e22a900570037008f
:1009f0007e4090000000fb004800dd008000780091
:100a000000f02f0000806000304488006e409000ad
:100a10008000fb00f00f20008080600030448000e8
:100a20000080700030448800918920009140780057
:100a3000b0cfb30000c0600099e8b70099c8bf000c
:100a40000000fb00700607000e22a9003f003700df
:100a50007e4090000000fb004800dd008000780030
:100a600000f02f0000806000404488006e4090003d
:100a70008000fb00f00f2000808060004044800078
:100a800000807000404488009189200091407800e7
:100a900070cfb30000c0600099e8b70099c8bf00ec
:100aa0000000fb00580607000e22a90027003700af
:100ab0007e409000ea4f500003003c0093c8bf0006
:100ac0000034a00093e8b7007e4090008001fb0056
:100ad00098c8bf000002fb0097c8bf000004fb00dd
:100ae00096c8bf008000fb0095c8bf000001fb0056
:100af00094c8bf008003fb0093c8bf000000fb0048
:100b000003037800840278000802780081017800ed
:100b1000870078008c0307000000e0000600320028
:100b20007e4090009ae8b70099c8bf000000fb0023
:100b30003506070002003700f00f200032060700dc
:100b40000e22a900010037000e22a9000040eb0090
:100b5000604f9800030037006e4890000040e800a6
:100b6000604f98006e489000f94f5000faff340033
:100b7000b0168000c1ff200001006000b0168800a0
:100b80000040eb00604f9800050037009010800097
:100b9000704798006e4890000040e800604f980051
:100ba0006e489000e34f5000f8ff34000e22a90079
:100bb0008520a9000080fa004f0478004f03be0092
:100bc0004f02be004f01be004f00be003600f900cc
:100bd000004006003600f800809fbe00829fbe00e5
:100be000849fbe00869fbe000200fa000000eb005a
:100bf000000f780099c8bf000000fb004600de002f
:100c0000610060000004e000f000320098c8bf00fe
:100c1000718920009140780062892000124178009b
:100c200056892000164378004789200097437800b2
:100c300080427800014278008241780006417800c5
:100c40008740780000c9b300f600070098c8bf00cd
:100c5000718920009140780062892000124178005b
:100c60005689200016437800478920009743780072
:100c70008042780001427800824178000641780085
:100c80008740780010c9b300e60007002201070082
:100c90000000eb00000f7800010037001e0fe80095
:100ca000f07022009e0f1000fcff3600300107009c
:100cb000008020005201070098c8bf007189200001
:100cc0009140780062892000124178005689200006
:100cd00016437800478920009743780080427800c7
:100ce0000142780082417800064178008740780010
:100cf00000c9b300cb00070098c8bf00718920006d
:100d000091407800628920001241780056892000c5
:100d10001643780047892000974378008042780086
:100d200001427800824178000641780087407800cf
:100d300010c9b300bb000700020107000000eb0070
:100d4000000f7800010037001e0fe800f07022004d
:100d50009e0f1000fcff360011010700608120008b
:100d6000db01070098c8bf0071892000914078001e
:100d700062892000124178005689200016437800cd
:100d8000478920009743780080427800014278002c
:100d900082417800064178008740780000c9b3009e
:100da000a000070098c8bf0071892000914078001a
:100db000628920001241780056892000164378008d
:100dc00047892000974378008042780001427800ec
:100dd00082417800064178008740780010c9b3004e
:100de000900007000000eb00000f78003a00370089
:100df0001e0078008000400000802000008040003d
:100e00009000780060448000808f50000800390016
:100e10001e0078008000400000802000008040001c
:100e20009000780050448000808f50000800360009
:100e30009e007800100020000100dd008000780096
:100e40007044800000807000704488000800370003
:100e50009e007800100020000100dd000080ea0004
:100e6000800078007044800000806000704488003a
:100e7000900020009e0f100016003e001e00e800ab
:100e80008000400060812000008040001001780058
:100e90001e00e8008000400000802000008040002c
:100ea000100078000000510080007800700c2000d5
:100eb000808f5000070034009e0078001000200052
:100ec0000100dd0080007800704480000080700028
:100ed000704488001e0fe800a00020009e0f100044
:100ee000c3ff3600704480004400de0090e8b70085
:100ef000704480006f0060004400dd0091e8b7009e
:100f000000872000300307000000eb00000f78008e
:100f1000210037001e00780080004000008720007c
:100f2000008040009000780040448000808f500096
:100f3000080039001e007800800040000087200073
:100f4000008040009000780030448000808f500086
:100f5000080036009e007800100020000100dd002f
:100f60008000780070448000008070007044880029
:100f7000080037009e007800100020000100dd000e
:100f80000080ea00800078007044800000806000eb
:100f9000704488001e0fe800a00020009e0f100083
:100fa000dcff36007144800000f02000008060000b
:100fb0004800de008040780091c8bf0000c070008b
:100fc00091e8b7007044800092e8b7008460a900ff
:100fd0000080fa004f03be004f02be004f01be006a
:100fe0004f00be003600f900004006000000fa0085
:100ff000eb040700ffff37000200fa00000f780043
:10100000d904070020c0b300c60407006100200017
:101010001e007800b2040700da0407000080fa001e
:10102000000006000800fa00004f78001147980001
:101030002247980033479800444798005547980046
:10104000c904070010c0b300b60407001e407800b2
:10105000b40407001e409000b20407002e40900028
:10106000b00407003e409000ae0407004e409000e0
:10107000ac0407005e409000aa040700c10407000a
:10108000a0862000dcff07006ac8bf009e4f50000a
:101090001c003a00b1862000914078001e4090006c
:1010a00080cf500017003a00c186200091407800a0
:1010b0002e40900080cf500012003a00d1862000d0
:1010c000914078003e40900080cf50000d003a00e3
:1010d000e1862000914078004e40900080cf500083
:1010e00008003a00f1862000914078005e409000b0
:1010f00080cf500003003a00100020003007980015
:10110000020037000000eb00300798003e0090001e
:101110000080fa00000006000000fa0092040700b8
:1011200000c1b3007f04070051118000f00f2000c0
:10113000808f5000fcff3a00920407000080fa0004
:10114000000006000000fa008704070000c2b30098
:101150007404070051118000f00f2000808f5000b0
:10116000fcff3a00870407000080fa000000060038
:101170000000fa007c04070040c0b30069040700c7
:10118000210120003084200055040700430407009b
:1011900042e8b7007b0407000080fa000000060068
:1011a0000000fa007004070040c0b3005d040700af
:1011b0002101200050852000490407003704070062
:1011c00042e8b7006f0407000080fa000000060044
:1011d0000000fa006404070060c0b3005104070077
:1011e00031002000708620003d0407002b0407001a
:1011f00042e8b700630407000080fa000000060020
:101200000800fa00300798000000eb001007980073
:101210001000200020079800a80037001e00900052
:1012200000004000800078003e00900000814000f7
:101230002e0090008000e9003084200000804000f3
:10124000104078000000fb00000978001e009000ac
:1012500000004000800078003e00900000814000c7
:101260001e00900000004000800078003e009000ca
:101270000080400090007800f00f200000806000a7
:1012800000097800ae00900030842000008040000b
:10129000104078000000fb00000f78001e0078006e
:1012a0006f0f60001e0078004800dd00000f78001e
:1012b0001e00900000004000800078003e0090007a
:1012c000008140001e009000000040008000780077
:1012d0003e00900000804000900078001e007800e2
:1012e00000804000000978001e00900000004000cf
:1012f000800078003e009000008140001e009000b9
:1013000000004000800078003e0090000080400017
:10131000100078006300b9000000d10000097800d7
:101320001e00900000004000800078003e00900009
:10133000008040000081e800ae0090003084200072
:1013400000804000104078000000fb000009780099
:101350001e00900000004000800078003e009000d9
:10136000008040000081e8001e0090000000400066
:10137000800078003e009000008040000080e8007f
:1013800090007800000f20000080600000097800c5
:101390001e00900000004000800078003e00900099
:1013a000008040000081e8001e0090000000400026
:1013b000800078003e009000008040000080e8003f
:1013c000100078004400de00000978001e00900044
:1013d00000004000800078003e0090000080400047
:1013e0008081e8001e00900000004000800078002e
:1013f0003e009000008040000080e800100178006e
:101400002e0090008000e800308420000080400022
:10141000104078000000fb004400dd0000004100a7
:10142000800978001e0090000000400080007800d5
:101430003e009000008040000081e8001e00900007
:1014400000004000800078003e00900000804000d6
:101450000080e80090007800f0ff2000008060002d
:10146000000978001e009000000040008000780015
:101470003e009000008040000081e8001e009000c7
:1014800000004000800078003e0090000080400096
:101490000080e800100078006300b9000000d1006f
:1014a000000978002e00900063004000200798009b
:1014b0001e0090000080e800100798002e009000a9
:1014c000f00f500055ff34000080fa0000000600c5
:1014d0000800fa00300798000000eb0010079800a1
:1014e0001000200020079800a80037001e00900080
:1014f00000004000800078003e0090000081400025
:101500002e0090008000e9005085200000804000ff
:10151000104078000000fb00000978001e009000d9
:1015200000004000800078003e00900000814000f4
:101530001e00900000004000800078003e009000f7
:101540000080400090007800f00f200000806000d4
:1015500000097800ae009000508520000080400017
:10156000104078000000fb00000f78001e0078009b
:101570006f0f60001e0078004800dd00000f78004b
:101580001e00900000004000800078003e009000a7
:10159000008140001e0090000000400080007800a4
:1015a0003e00900000804000900078001e0078000f
:1015b00000804000000978001e00900000004000fc
:1015c000800078003e009000008140001e009000e6
:1015d00000004000800078003e0090000080400045
:1015e000100078006300b9000000d1000009780005
:1015f0001e00900000004000800078003e00900037
:10160000008040000081e800ae009000508520007e
:1016100000804000104078000000fb0000097800c6
:101620001e00900000004000800078003e00900006
:10163000008040000081e8001e0090000000400093
:10164000800078003e009000008040000080e800ac
:1016500090007800000f20000080600000097800f2
:101660001e00900000004000800078003e009000c6
:10167000008040000081e8001e0090000000400053
:10168000800078003e009000008040000080e8006c
:10169000100078004400de00000978001e00900071
:1016a00000004000800078003e0090000080400074
:1016b0008081e8001e00900000004000800078005b
:1016c0003e009000008040000080e800100178009b
:1016d0002e0090008000e80050852000008040002f
:1016e000104078000000fb004400dd0000004100d5
:1016f000800978001e009000000040008000780003
:101700003e009000008040000081e8001e00900034
:1017100000004000800078003e0090000080400003
:101720000080e80090007800f0ff2000008060005a
:10173000000978001e009000000040008000780042
:101740003e009000008040000081e8001e009000f4
:1017500000004000800078003e00900000804000c3
:101760000080e800100078006300b9000000d1009c
:10177000000978002e0090006300400020079800c8
:101780001e0090000080e800100798002e009000d6
:10179000f00f500055ff34000080fa0000000600f2
:1017a0000a00fa00004f780011479800224798007d
:1017b000334798004447980055479800664798007b
:1017c000ee4290004e429000be4190002e419000ab
:1017d0009e4090001e40780012fe0700a086200068
:1017e00005fe07006ac8bf009e4f50001c003a006b
:1017f000b1862000914078001e40900080cf5000bc
:1018000017003a00c1862000914078002e409000d9
:1018100080cf500012003a00d1862000914078001d
:101820003e40900080cf50000d003a00e18620003d
:10183000914078004e40900080cf500008003a0060
:10184000f1862000914078006e40900080cf5000db
:1018500003003a0010002000400798000200370003
:101860000000eb00400798004e0090000080fa0056
:10187000000006000a00fa00004f780011479800a7
:1018800022479800334798004447980055479800ee
:1018900066479800de4290006e429000be41900084
:1018a0002e4190009e4090001e407800ddfd070014
:1018b000a0862000d0fd07006ac8bf009e4f5000e0
:1018c0001c003a00b1862000914078001e40900034
:1018d00080cf500017003a00c18620009140780068
:1018e0002e40900080cf500012003a00d186200098
:1018f000914078003e40900080cf50000d003a00ab
:10190000e1862000914078006e40900080cf50002a
:1019100008003a00f1862000914078005e40900077
:1019200080cf500003003a001000200040079800cc
:10193000020037000000eb00400798004e009000c6
:101940000080fa00000006000a00fa00004f78004c
:101950001147980022479800334798004447980061
:1019600055479800664798006e409000ea4f500037
:1019700001003c001e34a000de4290004e42900068
:10198000be4190002e4190009e4090001e40780085
:10199000a4fd0700a086200097fd07006ac8bf00cd
:1019a0009e4f50001c003a00b18620009140780004
:1019b0001e40900080cf500017003a00c1862000e2
:1019c000914078002e40900080cf500012003a00e5
:1019d000d1862000914078003e40900080cf50009a
:1019e0000d003a00e1862000914078004e409000c2
:1019f00080cf500008003a00f18620009140780026
:101a00005e40900080cf500003003a00100020009c
:101a100040079800020037000000eb0040079800e4
:101a20004e0090000080fa00000006000400fa005a
:101a3000100798000000eb00000f78004a02070032
:101a4000e0c1b300370207004e0207000000eb00c0
:101a5000000f7800010037001e0fe800f0f32100ae
:101a60009e0f1000fcff34003f02070040c0b3008f
:101a70002c0207001e009000210120001802070020
:101a80000602070042e8b7003e0207000080fa00a5
:101a9000000006000400fa00100798000000eb00a8
:101aa000000f780030020700f0c1b3001d020700ec
:101ab000340207000000eb00000f7800010037003f
:101ac0001e0fe800f0f321009e0f1000fcff340011
:101ad0002502070040c0b300120207001e0090005c
:101ae00021012000fe010700ec01070042e8b700d9
:101af000240207000080fa00000006000000fa003f
:101b0000000e2000001588000000eb001015880072
:101b10001010200020158800f000200030158800eb
:101b20000000eb00401588000080eb0030168800b4
:101b3000011580000000280000807000001588005a
:101b40000080fa00000006000000fa00400e2000ad
:101b500000158800c04220001015880010302000b9
:101b6000201588000000eb00301588000000eb0015
:101b700040158800c0f32f00501588000080eb004e
:101b800030168800011580000000280000807000d9
:101b9000001588000080fa00000006000000fa002e
:101ba000001580000010a00000158800a0c2bf0032
:101bb000614060000004e000fcff3200001480007f
:101bc0000080fa00000006003000fa00701798004c
:101bd0000040eb00004f78000e80e800411b280019
:101be0001500090031187800c002b100a0c2bf0082
:101bf000614060000004e000fcff3200b01480008f
:101c00006101b800f0ff2000010020000203500035
:101c10008383580086007800800c2000000ab800fa
:101c20006030b9000501780000014100800c2000ff
:101c300000b8b90000014100820278003233200070
:101c4000030020000400be00b7f907000002be0038
:101c50008400780050002000000bb8006020b9001c
:101c600007017800000141006528b900000141002a
:101c7000820378000e80e8000688be00a014800071
:101c80006101b800f0ff20000100200002035000b5
:101c90008383580086007800800c2000000ab8007a
:101ca0006030b9000501780000014100800c20007f
:101cb00000b8b900000141008202780032332000f0
:101cc000030020000400be0097f907000002be00d8
:101cd0008400780050002000000bb8006020b9009c
:101ce00007017800000141006528b90000014100aa
:101cf000820378000e80e8002600980037009800e4
:101d0000901480006101b800f0ff20000100200065
:101d1000020350008383580086007800800c200066
:101d2000000ab8006030b9000501780000014100e8
:101d3000800c200000b8b900000141008202780048
:101d400032332000030020000400be0076f90700b3
:101d50000002be008400780050002000000bb80094
:101d60006020b90007017800000141006528b90032
:101d700000014100820378000e80e80046009800d0
:101d800057009800801480006101b800f0ff200027
:101d90000100200002035000838358008600780071
:101da000800c2000000ab8006030b90005017800fe
:101db00000014100800c200000b8b9000001410082
:101dc0008202780032332000030020000400be00ad
:101dd00055f907000002be00840078005000200082
:101de000000bb8006020b900070178000001410035
:101df0006528b90000014100820378000e80e800e8
:101e00006600980077009800701480006101b800a7
:101e1000f0ff2000010020000203500083835800df
:101e200086007800800c2000000ab8006030b900fd
:101e30000501780000014100800c200000b8b900c5
:101e400000014100820278003233200003002000ac
:101e50000400be0034f907000002be0084007800d0
:101e600050002000000bb8006020b9000701780086
:101e7000000141006528b90000014100820378009b
:101e80000e80e8000608980017089800601480008b
:101e90006101b800f0ff20000100200002035000a3
:101ea0008383580086007800800c2000000ab80068
:101eb0006030b9000501780000014100800c20006d
:101ec00000b8b900000141008202780032332000de
:101ed000030020000400be0013f907000002be004a
:101ee0008400780050002000000bb8006020b9008a
:101ef00007017800000141006528b9000001410098
:101f0000820378000e80e8002608980037089800c1
:101f1000501480006101b800f0ff20000100200093
:101f2000020350008383580086007800800c200054
:101f3000000ab8006030b9000501780000014100d6
:101f4000800c200000b8b900000141008202780036
:101f500032332000030020000400be00f2f8070026
:101f60000002be008400780050002000000bb80082
:101f70006020b90007017800000141006528b90020
:101f800000014100820378000e80e80046089800b6
:101f900057089800401480006101b800f0ff20004d
:101fa000010020000203500083835800860078005f
:101fb000800c2000000ab8006030b90005017800ec
:101fc00000014100800c200000b8b9000001410070
:101fd0008202780032332000030020000400be009b
:101fe000d1f807000002be008400780050002000f5
:101ff000000bb8006020b900070178000001410023
:102000006528b90000014100820378000e80e800d5
:102010006608980077089800001480006101b800f5
:10202000f0ff2000010020000203500083835800cd
:1020300086007800800c2000000ab8006030b900eb
:102040000501780000014100800c200000b8b900b3
:10205000000141008202780032332000030020009a
:102060000400be00b0f807000002be008400780043
:1020700050002000000bb8006020b9000701780074
:10208000000141006528b900000141008203780089
:102090000e80e800061098001710980010148000b9
:1020a0006101b800f0ff2000010020000203500091
:1020b0008383580086007800800c2000000ab80056
:1020c0006030b9000501780000014100800c20005b
:1020d00000b8b900000141008202780032332000cc
:1020e000030020000400be008ff807000002be00bd
:1020f0008400780050002000000bb8006020b90078
:1021000007017800000141006528b9000001410085
:10211000820378000e80e80026109800371098009f
:10212000201480006101b800f0ff200001002000b1
:10213000020350008383580086007800800c200042
:10214000000ab8006030b9000501780000014100c4
:10215000800c200000b8b900000141008202780024
:1021600032332000030020000400be006ef8070098
:102170000002be008400780050002000000bb80070
:102180006020b90007017800000141006528b9000e
:1021900000014100820378000e80e800461098009c
:1021a000571098000c0037001e00fb000000400094
:1021b000800078007e109000008140001e00fb002f
:1021c0008e80e8004200dd00010040001000be00eb
:1021d000000978001e4fe800a0c0b3009e4f100019
:1021e000f1ff34000080fa00000006000200fa004f
:1021f000702720004011880050118000004f7800a7
:1022000000002a0030118800510920009140780018
:10221000f0c8b30000c0600001c4b300014070000a
:1022200095e0b7008460a9000080eb0010088800ea
:1022300000002a00200888008c60a8002117800078
:10224000f0df2f0000806000201788000080fa0077
:10225000000006000200fa00004f780030118000f4
:102260000000d100610060000004e000fbff3a00c4
:102270001e00fb00501188003011800061006000da
:102280000000e000fcff320050118000004f780099
:102290001e00fb000080fa00000006000200fa00a9
:1022a000301180000000d100610060000004e000f7
:1022b000fbff3a000000eb00501188003011800055
:1022c000610060000000e000fcff3200501180005f
:1022d000004f78001e00fb000080fa00000006009e
:1022e0000400fa00000f780011079800050037007d
:1022f000eaff0700804078001e007800014878005f
:102300001e0fe8001e0090000000e9001007980072
:102310001e009000e10f4000f5ff3a000080fa0037
:10232000000006000200fa00004f78003011800023
:102330000000d100610060000004e000fbff3a00f3
:102340001e00fb0050118800301180006100600009
:102350000000e000fcff320050118000004f7800c8
:102360000080fa00000006000000fa00301780002c
:10237000f1df2f0001006000301788000080fa00b4
:10238000000006000000fa00301780000120200045
:1023900001007000301788000080fa00000006007d
:1023a0000000fa00100a2800601088000040280091
:1023b000701088000000eb00a010880091168000cb
:1023c000c0ff20000080600090168800b1168000d9
:1023d000c0ff200000806000b01688008109200046
:1023e00091407800f0c8b30000c0600001c4b300a1
:1023f0000140700098e0b7008520a9008d20a8005a
:102400000080fa00000006000200fa00004f780089
:102410000fc2bf00614060000004e000fcff32001a
:102420001e00fb00801088000fc2bf0061406000ea
:102430000004e000fcff32000080fa00000006000b
:020000040000fa
:10244000700800002c0000000200000000000000e6
:10245000000000000000000000000000000000007c
:10246000000000000000000000680c00b00a7500c9
:1024700010b80b0000000000000091000000800078
:102480007daf8f000b00000000080000420000003c
:10249000000000009c080000140000000000000084
:1024a000420800002e0000000000000000000000b4
:00000001FF
