:020000040000fa
:080000000001040000000000f3
:020000040000fa
:10020000afb920000e7f22000e0188000000000020
:100210000c000700804c21000100200011000700a5
:10022000000020000000e000020032000000020098
:10023000000000006c0f0200000000000040da0027
:100240000000fe004440a900000020000000e00083
:100250000300320000002000a00188004440a800f4
:100260000000060091018800800078000000eb008b
:1002700015003700e280400032a0b4009101ba00be
:10028000e280400032a0b4009102ba00e280400057
:1002900032a0b4000002eb00472bde00f507b200ed
:1002a000602ce10004003a000059eb008301e900f2
:1002b000fdff3e00040037006128e100010032002c
:1002c0000082eb00040007001101ba000200e00008
:1002d000e8ff3a00000006003159ba008301e90046
:1002e0000c0032002159ba008301e90008003200f5
:1002f0000400e00003003a00e280400032a0b400b5
:10030000f5ff370011d9ba008301e900faff3a007e
:100310008100e800e180400032a0b4000000060047
:080320000040da000000fe00bd
:020000040000fa
:1000080090010000900100009001000090010000a4
:100018009001000090010000900100009001000094
:100028009001000090010000900100009001000084
:100038009001000090010000be0e0000860600003e
:1000480090010000f6090000e608000062130000b5
:100058009001000090010000900100009001000054
:100068009001000090010000900100009001000044
:100078009001000090010000900100009001000034
:10008800900100009001000012140000900100008f
:100098009001000090010000900100009001000014
:1000a8009001000090010000900100009001000004
:1000b80090010000900100009001000090010000f4
:1000c80090010000900100009001000090010000e4
:1000d80090010000900100009001000090010000d4
:1000e80090010000900100009001000090010000c4
:0800f8009001000090010000de
:020000040000fa
:1001080090010000900100009001000090010000a3
:100118009001000090010000900100009001000093
:100128009001000090010000900100009001000083
:100138009001000090010000be0e0000860600003d
:1001480090010000f6090000e608000062130000b4
:100158009001000090010000900100009001000053
:100168009001000090010000900100009001000043
:100178009001000090010000900100009001000033
:10018800900100009001000012140000900100008e
:100198009001000090010000900100009001000013
:1001a8009001000090010000900100009001000003
:1001b80090010000900100009001000090010000f3
:1001c80090010000900100009001000090010000e3
:1001d80090010000900100009001000090010000d3
:1001e80090010000900100009001000090010000c3
:0801f8009001000090010000dd
:020000040000fa
:100328000400fa001007980000c1b300004f7800dd
:10033800110020000e0078007f0207001047980087
:10034800400907001e4078000000fb00450907002f
:1003580080588000e30f500003003a001e409000d0
:100368000000fb003f090700610020001e0090000c
:100378004c090700370907000080fa000000060052
:100388003000fa00101798002117980032179800cb
:10039800431798005417980065179800f400470011
:1003a80010c0b300804878001e109000804078008c
:1003b80074004700114098002e109000804078008b
:1003c80074004700214098003e109000804078005b
:1003d80074004700314098004e109000804078002b
:1003e80074004700414098005e10900080407800fb
:1003f80074004700514098006e10900080407800cb
:1004080074004700614098001e10900080407800fa
:100418006c004700014878002e109000804078005a
:100428006c004700114098003e1090008040780012
:100438006c004700214098004e10900080407800e2
:100448006c004700314098005e10900080407800b2
:100458006c004700414098006e1090008040780082
:100468006c004700514098007400470090407800a5
:100478007200470001487800720047001100200010
:100488002d02070080407800720047001140980054
:100498007200470090409000414798000000eb0030
:1004a8001007980028003700e60807007400470086
:1004b800104078000000fb00ea0807004e4090005a
:1004c8000000fb00e7080700740047001040900098
:1004d8000000fb00e308070074004700204090007c
:1004e8000000fb00df080700740047003040900060
:1004f8000000fb00db080700740047004040900044
:100508000000fb00d7080700740047005040900027
:100518000000fb00d308070074004700604090000b
:100528000000fb00cf0807001e009000cd08070060
:10053800c80807006600470079ff07001e00900002
:100548000000e800100798009e009000f00f2000bf
:10055800808f5000d4ff34006600470010407800b8
:100568008000fb001e109000808f500003003200b6
:1005780010002000701798002f0037006600470011
:10058800104090008000fb002e109000808f5000db
:100598000300320011002000711798002600370070
:1005a80066004700204090008000fb003e1090004d
:1005b800808f500003003200100020007017980050
:1005c8001d00370066004700304090008000fb00a7
:1005d8004e109000808f5000030032001100200060
:1005e80071179800140037006600470040409000db
:1005f8008000fb005e109000808f500003003200e6
:1006080010002000701798000b00370066004700a4
:10061800504090008000fb006e109000808f5000ca
:100628000300320011002000711798000200370003
:100638000000eb00701798007e1090000080fa0010
:10064800000006000200fa0000c1b300004f780065
:10065800110020000e007800b7010700104798002d
:100668007808070080588000e30f500007003a0020
:100678001e4078000000fb007a0807001e4090002a
:100688000000fb007708070006003700805880004c
:10069800e20f500003003a001e4078000000fb0003
:1006a800700807006b0807000080fa0000000600c9
:1006b8000200fa0000c2b300004f780011002000c9
:1006c8000e0078009c010700104798005d0807009d
:1006d8001e4078000000fb00620807008058800078
:1006e800e30f500003003a001e4090000000fb009a
:1006f8005c080700570807000080fa0000000600a1
:100708000600fa00200798008e00e80040c0b300f9
:10071800804878000e00e8001100200086010700dc
:10072800804078000e00e800114098004508070056
:100738000e00e800104078000000fb0049080700a0
:1007480080588000e30f500004003a000e00e800d3
:10075800104090000000fb00420807002101200023
:100768002e0090004f0807000000eb003d0807002e
:10077800004f780037080700220120009e407800cb
:100788002e009000030007000000fb000080fa0024
:10079800000006000c00fa00200798006147980046
:1007a80042079800ce0090002e00900062010700da
:1007b80010479800ce0090002e009000f40107002a
:1007c800004f78001e0090000000e8001007980015
:1007d8001e0090000000e800100798001e0090001e
:1007e8000000e800100798006e4090008000fb00b1
:1007f8001e4090000080fb00808f500003003a00ec
:100808000000eb005007980002003700100020009d
:10081800500798005e0090000080fa000000060073
:100828000a00fa0030079800410798000000eb0022
:100838001007980010002000200798008b00370050
:100848001e00900000004000800078004e009000dc
:1008580000814000ae0090003e0090000080400003
:100868000000e900104078000000fb000009780053
:100878001e00900000004000800078004e009000ac
:10088800008140001e0090000000400080007800b9
:100898004e0090000080400090007800f00f20008b
:1008a80000806000000978002e0090008000780029
:1008b8003e00900000804000104078000000fb00df
:1008c800000f78001e0078006f0f60001e0078008f
:1008d8004800dd00000f78001e0090000000400076
:1008e800800078004e009000008140001e009000bb
:1008f80000004000800078004e009000008040001a
:10090800900078001e007800008040000009780000
:100918001e00900000004000800078004e0090000b
:10092800008040000081e8002e00900080007800e0
:100938003e00900000804000104078000000fb005e
:10094800000978001e009000000040008000780038
:100958004e009000008040000081e8001e009000da
:1009680000004000800078004e00900000804000a9
:100978000080e800100078006f006000000978002f
:100988001e00900000004000800078004e0090009b
:10099800008040000081e8001e0090000000400038
:1009a800800078004e009000008040000080e80041
:1009b800100078004400de00000978001e00900056
:1009c80000004000800078004e0090000080400049
:1009d8008081e8001e009000000040008000780040
:1009e8004e009000008040000080e8001001780070
:1009f800ae0090003e009000008040000000e8003b
:100a0800104078000000fb004400dd0000004100b9
:100a1800800978001e0090000000400080007800e7
:100a28004e009000008040000081e8001e00900009
:100a380000004000800078004e00900000804000d8
:100a48000080e80090007800f0ff2000008060003f
:100a5800000978002e0090006300400020079800ed
:100a68001e0090000080e800100798002e009000fb
:100a7800f00f500072ff34000080fa0000000600fa
:100a88000400fa00889fbe00100798000000eb00e1
:100a9800000f78002700370080588000e30f5000cf
:100aa8000e003a001e007800000040008000780028
:100ab8001e009000008140001e00780000004000e9
:100ac800800078001e0090000080400090007800b0
:100ad80000e02f0000804000000978001e00780028
:100ae80000004000800078001e00900080844000d4
:100af8001e00780000004000800078001e00900072
:100b080000804000100478009e007800200020003b
:100b18004806070000c0b900000478009e0078006d
:100b2800300020004306070000004400800c7800d5
:100b38001e0fe800b00020009e0f1000d6ff340002
:100b48004f04be000080fa00000006000c00fa0006
:100b580040079800510798001000200030079800bf
:100b6800803e200020079800803e20001007980053
:100b78000000eb00000f7800250037001e00780009
:100b880000004000800078005e0090000080400077
:100b9800100178001e0078000000400080007800f6
:100ba8004e00900000804000900078001e009000e9
:100bb80000804000800f5100020036000000eb006a
:100bc800300798001e007800000040008000780080
:100bd8005e00900000804000100178001e00780040
:100be80000004000800078004e0090000080400027
:100bf800900078002e00900000805000800f510077
:100c0800020031000000eb00300798001e0fe800da
:100c1800b00020009e0f1000d8ff34003e00900066
:100c28000080fa00000006000200fa0000c2b300cb
:100c3800004f7800110020000e0078003e000700e9
:100c480010479800ff0607001e4078000000fb00d0
:100c58000407070080588000e30f500003003a00a3
:100c68001e4090000000fb00fe060700f906070082
:100c78000080fa00000006000000fa000000eb0007
:100c88005008880013e1a800100020007058880060
:100c98000080fa00000006000000fa00705880008a
:100ca8000000e000fdff3a000080fa0000000600a6
:100cb8000000fa008100200010002000dd05070078
:100cc800805888000000eb006050880091002000e8
:100cd80010002000d7050700905888003000200039
:100ce800805888000000eb009058880012c1a900c5
:100cf8001281a90084e0a9008ce0a8000080fa0015
:100d080000000600801f78003400f8000000200072
:100d1800a00188000000fa0084e0a90013e1a900fe
:100d28000000eb00705888000080fa003400f900d9
:100d38004f007800004006001000fa006007980095
:100d48007107980010c4b300304798000000eb000a
:100d5800500798000000eb00200798004200370079
:100d68002e00900082002000110009000200d80027
:100d78008000fd00400798002e00900082002000af
:100d8800110009000200d800500798005e0090008a
:100d9800800078006e0090000080400010407800cd
:100da800604798003e4090000000fb004780de004e
:100db800004178006e4090008080fb004e0090005b
:100dc800670010000088de00004069006140600094
:100dd80020479800be4090002e40900000c0680058
:100de8000000fb00000040006240600010479800cf
:100df8003e4090000000fb000080d1008040780059
:100e08002e40900000c068000000fb004200dd009a
:100e1800644f60003e4090000000fb00000040006e
:100e28008040780080cfb30000c060003047980051
:100e38003e4090001e40700030479800be40900031
:100e48001e40900000c0700030479800be409000df
:100e58002e40900000c07000304798002e0090008f
:100e68000000e800200798002e009000fe00900087
:100e7800c308dd00810f5000b9ff39003e409000e3
:100e88000000fb000080fa00000006000800fa00dd
:100e9800605080000000e0002a003a000000eb00eb
:100ea80020079800210037002e009000004f78009e
:100eb8000000eb0010079800100037001e00fb0030
:100ec80000004000704798001e04e00003003d0049
:100ed80070c0b30060479800020037008040eb0004
:100ee800614798007e409000ee409000014f6800f6
:100ef8001e0090000000e800100798001e009000f7
:100f0800e70f5000edff34002e01900000c0eb0009
:100f18009e406000e0a020000000410001487800e9
:100f28002e0090000000e80020079800ae00900016
:100f3800f00f2000808f5000dbff340010002000ed
:100f4800605088000080fa00000006000200fa00e5
:100f5800004f780010c4b30014ebb7006050800055
:100f68000000e00001003a00c8ff070014cbbf00f2
:100f78001e4068008000fb00e0a0200000804000c8
:100f88001040780014ebb7000080fa00000006005b
:100f98000800fa00200798003107980010c4b30031
:100fa800004f7800605080000000e00001003a0027
:100fb800b6ff07000000eb00100798000d0037008f
:100fc8001e009000800078002e00900000804000f5
:100fd800104078001e4068008000fb00e0a0200060
:100fe80000804000104f78001e0090000000e800cc
:100ff800100798009e0090003e009000808f5000df
:10100800efff39001e00fb000080fa000000060018
:101018000600fa00100798002107980010c4b300d2
:10102800004f78000040eb00104798000c00370094
:101038001e4090000080fb00800078001e00900099
:1010480000804000904078001e4078000c000700a7
:10105800004f78001e4090000040e80010479800bc
:101068001e4090008080fb002e009000808f500072
:10107800efff39001e80fb000080fa000000060028
:101088000400fa002047980031479800ae409000cd
:101098003e40900000c06800004f78000040eb0020
:1010a800104798000f0037001e4078000004e00049
:1010b80006003d001e40780000404000004f7800c8
:1010c8001e407800674f6800030037001e40780014
:1010d80000404000004f78001e4090000040e800ab
:1010e800104798001e409000e74f5000eeff360072
:1010f8001e80fb000080fa00000006000000fa00d5
:1011080010c1a9001081a90010a1a9001021a900ef
:10111800801a26006008880084c0a9008cc0a80036
:10112800100a2800601088000ca2a90000402800be
:101138007010880040002000a010880049040700b3
:1011480009eab700470407000000e00004003a007d
:101158003100200010002000b604070009eab7009b
:101168008540a9008520a9008d40a8008d20a800f1
:10117800d202a900d222a900e20207000080fa00e8
:10118800000006000000fa0010c0b3000aeab70029
:101198008d20a9000040eb0000eab7000040eb00fa
:1011a80006eab7000040eb0007eab700d622a8001d
:1011b800d602a80010002000801088000080fa00e5
:1011c800000006003600f800809fbe00829fbe0027
:1011d800849fbe00869fbe003400f80000002000f7
:1011e800a00188000000fa008540a90006cabf00d7
:1011f8000004e0000b003a0002cabf000080fb00b8
:101208008010880001a020009140780002cabf0029
:1012180000c0400000eab70010c0b30006eab700fb
:101228006800370006cabf00e14f500005003a00c9
:101238000000eb008010880020c0b30006eab70069
:101248006000370006cabf00e24f500011003a00a4
:10125800ffc9bf000080fb008010880001a02000ab
:1012680091407800ffc9bf0000c0400000eab70005
:1012780002cabf000004e00003003a0040c0b30007
:1012880006eab7004f00370030c0b30006eab700df
:101298004c00370006cabf00e34f50002c003a004c
:1012a80002cabf008080fb0007cabf000080fb00a5
:1012b8000000e800808f500012003c0007cabf0001
:1012c8008080fb00008020000080400010407800f3
:1012d8000080fb008010880007cabf008080fb00e8
:1012e80000802000008040009040780000cabf00c5
:1012f80000c0400000eab70040c0b30006eab700eb
:101308003000370007cabf008080fb000080200043
:1013180000804000104078000080fb0080108800aa
:1013280007cabf008080fb000080200000804000ca
:101338009040780000cabf0000c0400000eab70033
:1013480007cabf000040e80007eab7001d003700e1
:1013580006cabf00e44f500009003a0000cabf00a7
:1013680000c0ea0000eab70000cabf000080fb0026
:101378008010880050c0b30006eab700110037009b
:1013880006cabf00e54f500005003a00e00f2000f4
:101398008010880060c0b30006eab7000900370073
:1013a80006cabf00e64f500005003a000000eb00f7
:1013b8008010880070c0b30006eab700010037004b
:1013c800500207000080fa003400f9004f03be0005
:1013d8004f02be004f01be004f00be003600f900ac
:1013e800004006003600f800809fbe00829fbe00c5
:1013f800849fbe00869fbe003400f80000002000d5
:10140800a00188000200fa008d20a9008520a9000b
:10141800d6c2bf00614060000004e0000500320051
:1014280011e1a9000040eb0005eab7008d20a800f3
:101438009100370005cabf000004e0000e003a0022
:1014480090108000004f780010c0b3009e4f10002d
:1014580007003a000000eb003008880011e1a800fe
:1014680010c0b30005eab7008d20a800820037003d
:10147800240207008000370005cabf00e14f500072
:101488000d003a000000eb00300888009010800042
:10149800004f78001e40780003eab70001cabf0079
:1014a8001e40400001eab70020c0b30005eab700bb
:1014b8008d20a8007000370005cabf00e24f500019
:1014c80011003a000000eb003008880090108000fe
:1014d800004f780009cabf009e4f100004003a0070
:1014e80001cabf001e40400001eab70002003700f1
:1014f8000040eb0008eab70030c0b30005eab700c7
:101508008d20a8005c00370005cabf00e34f5000db
:1015180016003a000000eb003008880090108000a8
:10152800004f780008cabf000004e0000500320040
:101538001e407800fee9b70001cabf001e40400007
:1015480001eab70003cabf000004e000030032004c
:1015580040c0b30005eab7000200370050c0b3002e
:1015680005eab7008d20a8004300370005cabf0070
:10157800e44f50001b003a000000eb0030088800e0
:1015880090108000004f780008cabf000004e000f7
:101598000800320001cabf001e40400001eab7003f
:1015a80004cabf008080fb00f08f2000008040004c
:1015b8001e48780004cabf000040e80004eab700eb
:1015c80041a020009140780003cabf0080cf50009e
:1015d8000200390050c0b30005eab7008d20a8000a
:1015e8002500370005cabf00e54f500010003a003b
:1015f8000000eb003008880090108000004f780051
:1016080001cabf0000c0ea0001eab70001cabf0072
:101618009e4f1000020032000040eb0008eab700bd
:1016280060c0b30005eab7008d20a800120037009b
:1016380005cabf00e64f50000d003a0011e1a900ad
:1016480008cabf000004e0000600320091108000c4
:10165800e00f2000808f500002003a000e000700c3
:1016680001003700a70107008d20a80002003700fd
:1016780011e1a900a30107000080fa003400f90075
:101688004f03be004f02be004f01be004f00be0018
:101698003600f900004006000600fa00881f7800ae
:1016a8000040eb0040479800fec9bf00e14f5000e2
:1016b8000a003a0003cabf000004e00088013a00ab
:1016c80010c0b3004047980010c0b300ffe9b7004e
:1016d8000040eb0002eab70081013700fec9bf00f5
:1016e800e24f500013003a0003cabf00e44f500015
:1016f8007b013a0010c0b3004047980021902000b9
:101708009140780001c9bf00b101070000017800cd
:1017180000c9bf008080fb00ffc8bf000080fb003d
:101728005f030700ffe9b7000040eb0002eab700db
:101738006b013700fec9bf00e34f500022003a009a
:1017480003cabf00e24f500065013a0010c0b30061
:101758004047980000c9bf008080fb00ffc8bf0059
:101768000080fb009e030700ffe9b70020c0b3001c
:1017780002eab700ffc9bf000004e0000d003a000c
:1017880000c9bf008080fb00ffc8bf000080fb00cd
:1017980028030700100798001e0090009f0107000b
:1017a80000e8b7001e009000a701070001e8b70095
:1017b8004b0137000040eb0000e8b7000040eb00a9
:1017c80001e8b70046013700fec9bf00e44f5000ea
:1017d8000c003a0003cabf000004e00040013a00d0
:1017e80010c0b3004047980010c0b30079ebb700b1
:1017f8000040eb00ffe9b7000040eb0002eab70049
:1018080037013700fec9bf00e54f50000c003a0011
:1018180003cabf000004e00031013a0010c0b30061
:10182800404798000040eb0079ebb7000040eb0020
:10183800ffe9b7000040eb0002eab70028013700d3
:10184800fec9bf00e64f500009003a0003cabf00b6
:101858000004e00022013a0010c0b300404798009d
:101868000040eb0002eab7000000fe001c01370050
:10187800fec9bf00e74f500072003a0003cabf001c
:101888000004e00016013a0010c0b3004047980079
:1018980076cbbf000004e0003100320011002000c8
:1018a80010002000e3020700004f78001e80fb00b4
:1018b8000000400002eab7000040eb00ffe9b70073
:1018c8000040eb0010479800210037001e409000b0
:1018d8000080fb0000004000000478001e409000db
:1018e8000080fb008000400060b1200000804000c4
:1018f800100078004901070080407800008020002f
:1019080000004400014878001e4090000080fb0061
:10191800000040000004e8001e4090000080fb002a
:101928008000400060b12000008040001000780076
:101938004501070080407800008020000000440036
:10194800014878001e4090000040e80010479800c9
:101958001e4090009e4f5000dcff3900e000370029
:1019680077cbbf000004e0003100320011002000f6
:1019780010002000af020700004f78001e80fb0017
:101988000000400002eab7000040eb00ffe9b700a2
:101998000040eb0010479800210037001e409000df
:1019a8000080fb0000004000000478001e4090000a
:1019b8000080fb0080004000e0b220000080400072
:1019c8001000780015010700804078000080200092
:1019d80000004400014878001e4090000080fb0091
:1019e800000040000004e8001e4090000080fb005a
:1019f80080004000e0b22000008040001000780025
:101a08001101070080407800008020000000440099
:101a1800014878001e4090000040e80010479800f8
:101a28001e4090009e4f5000dcff3900ac0037008c
:101a38000040eb0002eab70010c0b300ffe9b700ae
:101a4800a7003700fec9bf00e84f500072003a00f7
:101a580003cabf000004e000a1003a0010c0b300b0
:101a68004047980076cbbf000004e0003100320008
:101a780021002000100020006e020700004f7800af
:101a88001e80fb000000400002eab7000040eb00a7
:101a9800ffe9b7000040eb0010479800210037002d
:101aa8001e4090000080fb00000040000004780009
:101ab8001e4090000080fb008000400060b42000c1
:101ac8000080400010007800d400070080407800b3
:101ad8000080200000004400014878001e4090006b
:101ae8000080fb00000040000004e8001e40900059
:101af8000080fb008000400060b4200000804000af
:101b080010007800d0000700804078000080200096
:101b180000004400014878001e4090000040e800a2
:101b2800104798001e4090009e4f5000dcff39007f
:101b38006b00370077cbbf000004e00031003200b3
:101b480021002000100020003a020700004f780012
:101b58001e80fb000000400002eab7000040eb00d6
:101b6800ffe9b7000040eb0010479800210037005c
:101b78001e4090000080fb00000040000004780038
:101b88001e4090000080fb0080004000e0b520006f
:101b98000080400010007800a00007008040780016
:101ba8000080200000004400014878001e4090009a
:101bb8000080fb00000040000004e8001e40900088
:101bc8000080fb0080004000e0b52000008040005d
:101bd800100078009c0007008040780000802000fa
:101be80000004400014878001e4090000040e800d2
:101bf800104798001e4090009e4f5000dcff3900af
:101c0800370037000040eb0002eab70010c0b3000d
:101c1800ffe9b70032003700fec9bf00e94f5000a6
:101c280003003a0010c0b300404798002c0037006a
:101c3800fec9bf00ea4f500029003200e19f200092
:101c48009140780040c6b30080cf500009003a00a8
:101c580010002000dc01070010c0b30040479800c6
:101c680010c0b300ffe9b7000040eb0002eab7007c
:101c78001b003700e19f20009140780060c9b30045
:101c880080cf500009003a0010002000b30107007f
:101c980010c0b3004047980010c0b300ffe9b70078
:101ca8000040eb0002eab7000d003700e19f20007a
:101cb8009140780000cab30080cf500008003a0075
:101cc8000000eb00a501070010c0b30040479800d2
:101cd80010c0b300ffe9b7000040eb0002eab7000c
:101ce8004e4090000004e0000200320025fd07008d
:101cf80001003700030007004f0478000080fa0055
:101d0800000006000200fa000040eb0001eab700fc
:101d18000040eb0004eab7000040eb0005eab7001a
:101d280010c0b30008eab70090108000004f780098
:101d380090108000004f780090108000004f7800cd
:101d480090108000004f780090108000004f7800bd
:101d58000e22a900d622a900d602a90011e1a900e5
:101d68000040eb000aeab7008d20a8000080fa00c6
:101d7800000006003600f800809fbe00829fbe006b
:101d8800849fbe00869fbe003400f800000020003b
:101d9800a00188000000fa0084c0a90011e1a90090
:101da8000acabf000004e00001003a00d5ff07009e
:101db8000080fa003400f9004f03be004f02be0055
:101dc8004f01be004f00be003600f900004006007b
:101dd8000400fa0020479800314798000000eb0003
:101de800000f78002e4090000080fb001e0f40007e
:101df8001e0078004800dd00000f780000f02f007a
:101e08001e0f60003e4090000080fb001e0f400047
:101e18001e0078000080fa00000006000200fa00a8
:101e2800000f780000f02f001e0f60001e007800e1
:101e38004800de00000f78001e0078000080fb00dc
:101e48000080fa00000006000200fa00000f780087
:101e58001e0078000080fb000080fa0000000600e9
:101e68000000fa0010c0b300ffe9b700a0c0b3003b
:101e780002eab70050c5b30000e8b70040c5b30098
:101e880001e8b70030c5b30002e8b70060c5b30089
:101e980003e8b70040c5b30004e8b70000c2b300c8
:101ea80005e8b70020c4b30006e8b70000c5b300d2
:101eb80007e8b70030c5b30008e8b70010c2b300a0
:101ec80009e8b700affc07000080fa000000060030
:101ed8003400fa001a000700f50a2000d407200091
:101ee800030820000001eb008000eb00100920002f
:101ef80023f90700fc004700100020008008780044
:101f08007c004700110020008bfb07002047980049
:101f18007c004700110020001dfc070010479800b6
:101f28001e4fe8001e4fe8000000370079cbbf00c5
:101f38000004e000fdff320017000700fbff370038
:101f48000000fa00b70007006cfc07002702070032
:101f580057fb0700b7010700a10020001000200070
:101f6800340107000000e0000300320010c0b30095
:101f780079ebb700020037000040eb0079ebb700bf
:101f88000040eb0076ebb7000040eb0077ebb700c2
:101f98000080fa00000006004a00fa0076cbbf0075
:101fa8000004e000050032000040eb0010479800f4
:101fb8000040eb0077ebb7000400370010c0b30017
:101fc800104798000040eb0076ebb70010002000a7
:101fd800fd0007009bf90700b101070026fb070079
:101fe800aa0107000000e000fdff3200db01070046
:101ff8000000eb00f40007001e4090000004e00021
:10200800120032000040eb00004f78000b00370050
:102018001e81fb001e80fb0080004000a0b720004e
:1020280000804000900178008200410060b42000e8
:1020380000804000030878001e4fe800b0c0b300dd
:102048009e4f1000f2ff3600110037000040eb00f1
:10205800004f78000b0037001e81fb001e80fb003c
:1020680080004000a0b72000008040009001780068
:1020780082004100e0b5200000804000030878009d
:102088001e4fe800b0c0b3009e4f1000f2ff3600ac
:1020980001fb07007a00470099f907001e409000ed
:1020a8000004e000060032007a00470061b1200019
:1020b800dbf9070060b1200071fa0700050037005e
:1020c8007a004700e1b22000d5f90700e0b220000d
:1020d8006bfa0700e8fa070075f90700eefa07003f
:1020e8007a00470086f90700210320008e8040000f
:1020f8007a004700caf907001e4090000004e0007b
:1021080006003200210320008e80400060b12000cc
:102118008efa070078ebb70005003700210320008e
:102128008e804000e0b2200088fa070078ebb70004
:102138001e4090000004e0000500320010c0b3000b
:1021480076ebb7000040eb0077ebb70004003700f0
:102158000040eb0076ebb70010c0b30077ebb70098
:102168000080fa00000006000200fa000040eb00c0
:10217800004f7800120037009e80fb000001eb0042
:1021880030002000c60007009e80fb00f2002000ff
:1021980020002000c20007009e80fb0002352c00b2
:1021a8000300200050002000bd0007009e80fb00b7
:1021b800a200200040002000b90007001e4fe800e0
:1021c800b0c0b3009e4f1000ebff3600c2002000e5
:1021d8001100200010002000b1000700c2002000fc
:1021e8002100200010002000ad0007003200200070
:1021f8008100200010002000a90007000001eb006a
:102208009100200010002000a50007001200200007
:10221800a100200010002000a10007000080fa00a3
:10222800000006000000fa00d242a800d262a8000e
:10223800d282a800d2a2a800d2c2a800d2e2a800e6
:10224800de02a800e402a900e422a900de22a90017
:10225800e5c2a900e5a2a900e582a9000080fa006c
:10226800000006000200fa000040eb00004f780072
:10227800d4c2bf000080fb004200de006140600065
:102288001e4f4000d4c2bf000080fb004300de00a8
:10229800614060000080fb00000040008040780042
:1022a8001e40780000c04000004f7800d4c2bf0034
:1022b8000080fb004400de00614060000080fb00fd
:1022c8004200dd00804078001e40780000c04000d9
:1022d800004f7800d4c2bf000080fb004500de003c
:1022e800614060000080fb004300dd008040780012
:1022f8001e40780000c04000004f78001e80fb00a0
:102308000080fa00000006000000fa00d4c2bf00f6
:102318000080fb004600de00614060000080fb009a
:102328000080fa00000006000000fa00e0c2bf00ca
:10233800614060000080fb000080fa000000060099
:102348000000fa00d4c2bf000080fb004700de0096
:102358000080fb000080fa00000006000200fa007e
:10236800004f78001e04e00002003200e602a800d8
:1023780001003700e602a9000080fa00000006000c
:102388000200fa00004f78001e04e000020032004c
:10239800e622a80001003700e622a9000080fa0022
:1023a800000006000200fa00004f78001e04e0005a
:1023b80002003200e022a80001003700e022a90054
:1023c8000080fa00000006000200fa00004f7800c2
:1023d8001e04e00002003200e7c2a8000100370036
:1023e800e7c2a9000080fa00000006000200fa0017
:1023f800004f78001e04e00002003200e7a2a800a7
:1024080001003700e7a2a9000080fa0000000600da
:102418000200fa00004f78001e04e00002003200bb
:10242800e782a80001003700e782a9000080fa00cf
:10243800000006000400fa00004f780011479800d9
:1024480050c0b3009e4f1000030036000000eb00a0
:10245800100798000f0037009e40900000c8b30096
:1024680080cf5000030036000000eb0010079800f2
:10247800080037001e4fe9001e80fb00c700dd0082
:102488001e4090000080fb000080400026010700ed
:10249800100798001e0090000080fa000000060057
:1024a8000800fa0020479800314798002207980052
:1024b8000040eb00004f78002e409000e54f5000a0
:1024c8000300360010002000300798004100370054
:1024d800be40900000c8b30080cf50000300360013
:1024e80010002000300798003a0037002e40900076
:1024f800e14f500006003a0091ff07000000e0009d
:1025080003003a002000200030079800310037000f
:102518002e409000e24f500006003a007aff070074
:102528000000e00003003a00200020003007980077
:10253800280037002e409000e34f500006003a0074
:1025480071ff07000000e00003003a0020002000af
:10255800300798001f0037002e409000e44f5000cd
:1025680006003a0068ff07000000e00003003a0098
:102578002000200030079800160037002e409000f9
:10258800e54f500006003a005fff07000000e0003a
:1025980003003a0020002000300798000d003700a3
:1025a8002e4090000040e900204798002e409000ff
:1025b8000080fb00c700dd003e4090000080fb006b
:1025c80000804000ae009000c80007000000eb004b
:1025d800300798003e0090000080fa0000000600d6
:1025e8000400fa00004f78001147980050c0b3006b
:1025f8009e4f1000030036001000200010079800be
:10260800090037009e40900000c8b30080cf5000fa
:102618000300360010002000100798000200370061
:102628000000eb00100798001e0090000080fa00e0
:10263800000006000000fa00000c20004015880089
:10264800e0f32f0050158800a102a900a122a900db
:10265800a0a2a800a0c2a800a0e2a800a042a900c9
:1026680040432200101588003030200020158800d3
:102678000040eb0098ebb7008560a9008d60a800ca
:10268800a1e2a8000080fa00000006000000fa009d
:1026980098cbbf000080fb000080fa000000060015
:1026a8000000fa000040eb0098ebb700a042a80039
:1026b800a022a8000080fa0000000600801f780011
:1026c8003400f80000002000a00188000000fa0093
:1026d8008560a900a042a900a022a80000148000db
:1026e800b05c8800c0148000d05b8800b014800003
:1026f800e05b8800a0148000f05b880090148000e4
:10270800005c880080148000105c880070148000d1
:10271800205c880060148000305c880050148000c1
:10272800405c880010148000505c880020148000f1
:10273800605c880030148000705c88004014800061
:10274800805c880010c0b30098ebb7000080fa00e6
:102758003400f9004f007800004006000200fa003b
:10276800889fbe008a1f78000000eb00000f7800e9
:10277800140037009e0478009e0078005000200066
:102788002cff0700000578001e007800800040003c
:10279800a0b7200000804000100478009e00780058
:1027a8004000200023ff070000c0b90000015500c9
:1027b80089804400a0b7200000804000020878000b
:1027c8001e0fe800b00020009e0f1000e9ff340043
:1027d800b05c80007400b900b05c88004f057800d8
:1027e8004f04be000080fa00000006000000fa0056
:1027f80070272000401188005011800000002a0036
:10280800301188008740a9008f40a800e522a90060
:10281800100007000080fa00000006003400f800ed
:10282800881f780008002000a80188004f0478005d
:102838000000fa008740a9000080fa003400f9007f
:10284800004006000000fa00e922a9000080fa0012
:10285800000006000000fa00e922a8000080fa0043
:10286800000006000200fa00004f780026c2bf00f0
:10287800624060000004e000fcff3a001e80fb009c
:102888005011880026c2bf00614060000004e000cb
:10289800fcff3200501180000080fb000080fa002d
:1028a800000006000400fa00000f780011079800e5
:1028b800090037000040eb00eaff0700804078007d
:1028c8001e007800014878001e0fe8001e009000e6
:1028d8000000e900100798001e0090000000e000ca
:1028e800f4ff3a000080fa0000000600841f780018
:1028f800f407200094018800243b880004002f007e
:102908004100dd0004004000103b88001100070072
:1029180044002400043b88000108bb000f000700a6
:102928004f02780000000600841f7800f40720009a
:1029380094018800243b880004002f00143b880081
:102948004100dd00040240001400ba004f02780084
:102958000000060044042400043b88001000fc002a
:1029680054052000343b8800a40a2000343b88002a
:1029780061e7a800000000000000000061e7af0068
:08298800feff3700000006000d
:020000040000fa
:10299000160b000064000000000000000c0a00009c
:1029a0000a01000000000000000800000c02000006
:1029b000000000007a0b0000200000000000000072
:0429c0000000000013
:00000001FF
